S31508008800301C0020DD890008A5AF00086BAA000807
S3150800881071AF0008C38A0008DDB600080000000032
S315080088200000000000000000000000004589000864
S315080088304D8B0008000000008989000811B1000866
S31508008840F7890008F7890008F7890008F7890008FA
S31508008850F7890008F7890008F7890008F7890008EA
S31508008860F7890008F7890008F7890008F7890008DA
S31508008870F7890008F7890008F7890008F7890008CA
S315080088801D8B0008298B0008F7890008F78900085E
S31508008890F7890008F7890008F7890008F7890008AA
S315080088A0F7890008F7890008F7890008F78900089A
S315080088B0F7890008F7890008F7890008F78900088A
S315080088C0F7890008F7890008F7890008F78900087A
S315080088D0F789000899B60008A5B60008F7890008C0
S315080088E0F7890008F7890008F7890008F78900085A
S315080088F0F7890008F7890008F7890008F78900084A
S31508008900F7890008F7890008F7890008F789000839
S3150800891041B40008F78900089DB10008F7890008E6
S31508008920F7890008F7890008358B0008418B00088D
S31508008930DFF80CD000F088F80048004719BF000897
S31508008940301C0020224B19680868B0E8F00F80F345
S315080089500988BFF36F8F4FF0000080F311884EF03F
S315080089600D0E70470000000006480068006880F396
S31508008970088862B661B6BFF34F8FBFF36F8F00DF0B
S3150800898000BF00BF08ED00E0EFF30980BFF36F8F6B
S315080089900F4B1A6820E9F00F106008B54FF0500029
S315080089A080F31188BFF34F8FBFF36F8F03F014FF67
S315080089B04FF0000080F31188BDE808401968086880
S315080089C0B0E8F00F80F30988BFF36F8F704700BFD8
S315080089D028010020EFF3058070470000064880470D
S315080089E006480047FEE7FEE7FEE7FEE7FEE7FEE786
S315080089F0FEE7FEE7FEE7FEE79BB1000831890008BF
S31508008A0040EA01039B0703D009E008C9121F08C002
S31508008A10042AFAD203E011F8013B00F8013B521E82
S31508008A20F9D27047D2B201E000F8012B491EFBD2F9
S31508008A3070470022F6E710B513460A46044619465B
S31508008A40FFF7F0FF204610BD064C074D06E0E0682C
S31508008A5040F0010394E8070098471034AC42F6D377
S31508008A60FFF76AFFFCD000081CD1000870B58C1807
S31508008A7010F8015B15F0070301D110F8013B2A1124
S31508008A8006D110F8012B03E010F8016B01F8016B11
S31508008A905B1EF9D12B0705D40023521E0DD401F80D
S31508008AA0013BFAE710F8013BCB1A921C03E013F8D6
S31508008AB0015B01F8015B521EF9D5A142D8D300200B
S31508008AC070BDFEE710B5144C2078C00702D0E078D8
S31508008AD002F0F4FA2078800702D5207902F000FB2C
S31508008AE02078400702D5E08802F084FA207800074B
S31508008AF002D5208902F08EFA2078C00602D5607861
S31508008B0002F098FA2078800604D5A078BDE81040CF
S31508008B1002F0B2BA10BD000000000020014800F0C3
S31508008B20D1B90000A4090020014800F0CBB9000023
S31508008B3060090020014800F0C5B90000F0030020D4
S31508008B40014800F0BFB9000034040020704700B5A2
S31508008B5002F034FA02F028FA5DF804EB02F038BAAB
S31508008B6072B6FEE710B5040002D0607910B106E0CF
S31508008B70012010BD00202071204600F005F80120D4
S31508008B806071002010BD000008B5006806498842DB
S31508008B9008D10648416941F040014161406900F049
S31508008BA04000009008BD000000300240001002405E
S31508008BB070B54379012B1CD0012646710223037137
S31508008BC005682B6802F0100440F6FE72A240934333
S31508008BD0D1E900210A43A2401A432A6001680A68BB
S31508008BE0C023A3409A430A600671002141710846D2
S31508008BF070BD022070BD70B5040003D02079002531
S31508008C0010B105E0012070BD6571204600F008F836
S31508008C1002202071256101202071002070BD00000E
S31508008C202DE9F04F85B00026054600960196029676
S31508008C30039600682349884241D12348C16941F017
S31508008C400051C161C16901F000510491816941F087
S31508008C50040181618069694600F0040004903020AF
S31508008C60009003200190194800F0A0FA194C184802
S31508008C70802701C410204FF480784FF480694FF0A4
S31508008C80200A4FF4805B84E8C10F201F241F00F0E0
S31508008C903DFA08B1FFF764FFAC6065620D4C0C48FD
S31508008CA04434143001C4102084E8C10F201F241F47
S31508008CB000F02CFA08B1FFF753FFEC60656205B0C7
S31508008CC0BDE8F08F00740040001002400008014023
S31508008CD030040240F003002018B5046800940068C8
S31508008CE0104421B1143000900360002018BD0830EC
S31508008CF0F9E770B54279012A1ED001224271022392
S31508008D0003710468266801F0100302FA03F52E437E
S31508008D1026600029016811D00C6804F470153C24FB
S31508008D209C40A54203D14B6843F002034B60027195
S31508008D3000214171084670BD022070BD0B68C3F35F
S31508008D4083030F2BF3D14B6843F00103EEE710B50D
S31508008D5090F821100022022905D00421816380F8A9
S31508008D602020012010BD01680B6823F00E030B605C
S31508008D7001680B6823F001030B6090F84030C46B60
S31508008D80012101FA03F3636080F8211080F820209E
S31508008D90104610BD2DE9F05F90F821100024022935
S31508008DA003D004218163012485E001680A6822F062
S31508008DB00E020A6001680A6822F001020A603F4E44
S31508008DC03E4FB215DFF8F4C0DFF8F090DFF8ECA0FC
S31508008DD0DFF8E8B0DFF8E4E00168783F1301150230
S31508008DE0ACF1640CA9F15009AAF13C0AABF1280BC5
S31508008DF0AEF1140E4FF48018B14227D9B9420ED0FD
S31508008E00614512D049451DD0514518D0594518D04D
S31508008E10714501D1424615E0294EB14201D10122E0
S31508008E2010E0274E1436B14201D110220AE0244E32
S31508008E302836B14206D0224A3C32914201D11A461E
S31508008E4000E02A461E49091F0A602BE0B94213D0E2
S31508008E50614517D0494522D051451DD059451DD0E9
S31508008E60714501D142461AE0B14202D14FF08072F3
S31508008E7015E0134EB14201D1012210E0104E14360E
S31508008E80B14201D110220AE00D4E2836B14206D071
S31508008E900B4A3C32914201D11A4600E02A4607495C
S31508008EA080394A60012180F82110002180F82010BD
S31508008EB0416B01B188472046BDE8F09F800002401B
S31508008EC0080402402DE9F05FC16B0A6801680B6867
S31508008ED0046C4FF0040808FA04F8844D844E854F54
S31508008EE0DFF814C2DFF81492DFF814A2DFF814B220
S31508008EF0DFF814E218EA020F65D05FEA437862D514
S31508008F000A68920603D40A6822F004020A60DFF8A7
S31508008F10F0814FF48062016808F114081301140205
S31508008F20414524D9A9420DD0B1420FD0B9421AD031
S31508008F30614515D0494515D0514501D1120312E0B6
S31508008F40594501D104220EE0714501D140220AE0BB
S31508008F506D4D1435A94206D06B4A2832914201D18B
S31508008F601A4600E022466749091F0A6029E0A94215
S31508008F7013D0B14215D0B94220D061451BD049451E
S31508008F801BD0514502D14FF4800217E0414502D16A
S31508008F904FF0806212E0594501D104220EE0714576
S31508008FA001D140220AE0584D1435A94206D0564A46
S31508008FB02832914201D11A4600E022464B49083927
S31508008FC04A60C16A71E04FF0020808FA04F818EA24
S31508008FD0020F70D05FEA83786DD50A68920606D4C8
S31508008FE00A6822F00A020A60012180F82110DFF8D7
S31508008FF010814FF40072016808F114081301140275
S31508009000414524D9A9420DD0B1420FD0B9421AD050
S31508009010614515D0494515D0514501D1120312E0D5
S31508009020594501D102220EE0714501D120220AE0FC
S31508009030354D1435A94206D0334A2832914201D11A
S315080090401A4600E022462F49091F0A6029E0A9426C
S3150800905013D0B14215D0B94220D061451BD049453D
S315080090601BD0514502D14FF4001217E0414502D1F9
S315080090704FF0007212E0594501D102220EE0714507
S3150800908001D120220AE0204D1435A94206D01E4AF5
S315080090902832914201D11A4600E02246134908397E
S315080090A04A60002180F82010816A00291CD0BDE89A
S315080090B0F05F0847FFE70825A540154214D01A07B0
S315080090C012D50A6822F00E020A6090F84020C36B97
S315080090D0012101FA02F25A60816380F82110002109
S315080090E080F82010016BE0E7BDE8F09F0800024019
S315080090F01C00024030000240440002405800024072
S315080091006C000240080402401C04024030B560B1FD
S315080091101A4B026814219A4209D2194B1344B3FB1D
S31508009120F1F18900016417490AE0012030BD134BAB
S315080091305B421344B3FBF1F1890001640F49083916
S31508009140C163022180F82110136843F6F0718B433E
S31508009150F0E901142143D0E902452C43214304696F
S31508009160214344692143846921431943116000213D
S315080091704163012242770177084630BD0804024060
S31508009180F8FFFDBF0000024070B5044600F010F974
S315080091900546601C02D004480078044400F008F92B
S315080091A0401BA042FAD370BD400000202DE9F84FBD
S315080091B0DFF8C891002409F1040A0AF1040B2346D2
S315080091C00F270BF1040ED1E00125A54006EA05029A
S315080091D0AA4276D1DFF8A8C14E68A6EB0C08664508
S315080091E02BD00DDC032E34D005DC36B3012E19D076
S315080091F0022E2FD11BE0112E16D0122E2AD119E0DD
S31508009200B8F5881F19D006DCB8F5803F15D0B8F533
S31508009210801F1FD111E0B8F5001F0ED0B8F5041F46
S3150800922018D10AE0CB6815E0CB681B1D12E0CB68A5
S3150800923008330FE0CB680C330CE08B682BB1012B9D
S315080092404FF0080303D0456104E0042302E00561FA
S3150800925000E00023FF2A01D8064601E000F10406D3
S315080092604FEA840501D9A5F12005D6F8008007FA4A
S3150800927005FC28EA0C0803FA05F548EA0508C6F8C5
S3150800928000804D68ED0070D53E4DAE6946F001068A
S31508009290AE61AD6924F0030605F0010500953A4D67
S315080092A006EB050CDCF80850A607360F07FA06F891
S315080092B025EA0805DFF8D480404503D14FF00008B9
S315080092C025E052E0DFF8C880404502D14FF001089A
S315080092D01DE0DFF8C080404502D14FF0020816E0D5
S315080092E0DFF8B480404502D14FF003080FE0DFF8FD
S315080092F0AC80404502D14FF0040808E0DFF8A080B2
S31508009300404502D14FF0050801E04FF0060808FA7B
S3150800931006F848EA0508CCF808804D68D9F80060D0
S31508009320ED034D4601D5164300E096432E604D6881
S31508009330DAF80060AD03554601D5164300E09643BA
S315080093402E604D68DBF80060ED025D4601D51643D8
S3150800935000E096432E604D68DEF80060AD02754663
S3150800936001D5164300E096432E60641C0A6816462B
S31508009370E2407FF429AFBDE8F88F00000004014001
S3150800938000001110001002400000014000080140D2
S31508009390000C014000100140001401400018014073
S315080093A0001C01400AB1016170470904FBE700008F
S315080093B00148806870470000400000200248816824
S315080093C0027811448160704740000020074810B5B4
S315080093D0016841F010010160032000F0B3F80F2086
S315080093E000F006F800F050F8002010BD00200240FA
S315080093F030B505461F4887B0C16941F01001C16103
S31508009400C06906A900F01000009001A800F042F912
S315080094100498B0B100F05EF940001749174AB0FB4E
S31508009420F1F11748491E0260416040F2E732002117
S31508009430C0E903218160816100F072FB040003D05A
S3150800944015E000F047F9E8E70D4800F0C3FB040013
S315080094500DD1362000F049F8102D07D200222946F2
S31508009460362000F04FF80748056000E0012407B0F1
S31508009470204630BD0010024040420F000010004058
S31508009480FC090020440000200F4808B5816941F016
S3150800949001018161816901F001010091C16941F011
S315080094A08051C161C069002200F0805000900F21F0
S315080094B0901E00F027F80548416821F0E06141F068
S315080094C08071416008BD00000010024000000140A4
S315080094D0002809DB00F01F020121914040098000A5
S315080094E000F1E020C0F880127047002809DB00F080
S315080094F01F02012191404009800000F1E020C0F8D8
S3150800950000117047F0B40E4B1B680C46C3F30223D8
S31508009510C3F10705042D00D90425191D072901D211
S31508009520002300E0DB1E012606FA05F1491E21404C
S3150800953099409E40761E16403143F0BC02F0CFB8E3
S315080095400CED00E0064900F0070208684FF6FF0335
S31508009550184040EA0220034A10430860704700009A
S315080095600CED00E00000FA052DE9F0470F4605006E
S3150800957061D0434E306800F00700B84209D230681F
S3150800958020F0070038433060306800F00700B84222
S3150800959051D128683B4C810712D5400703D560682E
S315080095A040F4E06060602878000703D5606840F4FE
S315080095B0605060606068A96820F0F0000843606049
S315080095C02878C00728D06868012810D021680228A2
S315080095D010D0890700292EDA616821F003010143BA
S315080095E06160FFF7E5FE804641F288390DE02168A3
S315080095F08903EFE78901EDE7FFF7DAFEA0EB08013B
S31508009600494502D90320BDE8F0876068696800F01B
S315080096100C00B0EB810FEFD1306800F00700B842BC
S315080096200BD9306820F0070038433060306800F006
S315080096300700B84201D00120E5E72878400705D59C
S315080096406068E96820F4E0600843606028780007ED
S3150800965006D56068296920F4605040EAC100606058
S3150800966000F058F86168084AC1F30311515CC84014
S315080096700649086006480068FFF7BAFE0020C2E7F8
S315080096800020024000100240B8CE00084C0000201E
S31508009690440000200F2202600C4A536803F00303BB
S315080096A04360536803F0F0038360536803F4E06390
S315080096B0C36052684FF4E06303EAD20202610448C9
S315080096C0006800F0070008607047000000100240BC
S315080096D0002002400448054900684968044AC1F365
S315080096E00221515CC84070474C000020001002401F
S315080096F0C8CE00080448054900684968044AC1F309
S31508009700C221515CC84070474C000020001002403E
S31508009710C8CE000812A185B00FC98DE80F0014A0A5
S31508009720144A006804905168134801F00C03042B8E
S3150800973010D0082B0ED1C1F38343C9031DF80300CB
S315080097400AD5516804AAC1F34041515C0A4A5043FC
S31508009750B0FBF1F005B0704708494843FAE7000046
S3150800976002030405060708090A0B0C0D0E0F101054
S31508009770010200000010024000127A0000093D00B4
S315080097802DE9F84F040070D02078C04DC00749D0A5
S315080097906868C0F38100012807D06868C0F38100B3
S315080097A0022809D16868C00306D52868800339D518
S315080097B060680028E7D035E06068B0F5803F0BD0D8
S315080097C010B1B0F5A02F11D0286820F48030286099
S315080097D0286820F4802002E0286840F48030286059
S315080097E0606890B1FFF7E4FD06460AE0286840F491
S315080097F080202860F0E700BFFFF7DAFD801B6428A9
S3150800980073D828688003F7D50CE0FFF7D1FD064624
S3150800981005E000BFFFF7CCFD801B6428F0D8286858
S315080098208003F7D420789A4E80074FF001094FF04D
S31508009830000839D5686810F00C0F07D06868C0F3BF
S315080098408100022809D16868C00306D42868800701
S3150800985014D52069012808D110E02069B0B1C6F8EE
S315080098600090FFF7A5FD074605E00AE1FFF7A0FD12
S31508009870C01B0228C4D828688007F7D528686169FC
S3150800988020F0F80040EAC10028600DE0C6F8008024
S31508009890FFF78EFD074604E0FFF78AFDC01B022886
S315080098A023D828688007F7D4207800072CD579486C
S315080098B0A169D9B1C0F80090FFF77AFD074604E020
S315080098C0FFF776FDC01B02280FD8686A8007F7D510
S315080098D071484FF4FA510068B0FBF1F0009000BFF0
S315080098E00098411E0091FAD20EE080E0C0F8008090
S315080098F0FFF75EFD074604E0FFF75AFDC01B022886
S3150800990075D8686A8007F7D42078400760D5E86973
S315080099100027C00008D4E86940F08050E861E8698B
S31508009920012700F0805000905C480168C90513D4EF
S315080099300168834641F480710160FFF739FD82466C
S3150800994006E000BFFFF734FDA0EB0A0064284ED8F6
S31508009950DBF80000C005F5D5E06801280AD008B193
S31508009960052813D0286A20F001002862286A20F00A
S31508009970040002E0286A40F001002862E06841F22B
S31508009980883B98B1FFF714FD82460BE0286A40F041
S3150800999004002862EEE700BFFFF70AFDA0EB0A0104
S315080099A059455AD8286A8007F6D50CE0FFF700FD16
S315080099B0824605E0FFF7FCFCA0EB0A0159454CD8A6
S315080099C0286A8007F6D41FB1E86920F08050E8615C
S315080099D0E06988B36968C1F38101022944D0022885
S315080099E0C6F8608004D0FFF7E3FC044638E034E0AC
S315080099F0FFF7DEFC074604E0FFF7DAFCC01B022887
S31508009A002BD828688001F7D4206AB0F5803F05D1A5
S31508009A106868A16820F4003008436860D4E9080142
S31508009A200843696821F4741108436860C6F86090B1
S31508009A30FFF7BEFC044606E025E000BFFFF7B8FCCA
S31508009A40001B022809D828688001F7D51BE000BF4B
S31508009A50FFF7AEFC001B022802D90320BDE8F88FE9
S31508009A6028688001F4D40EE00128F7D06868226AD5
S31508009A7000F48031914204D1616A00F47010884282
S31508009A8001D00120EAE70020E8E7000000100240C4
S31508009A9000004242800442424C0000200070004010
S31508009AA07047704770B590F83C20012A2CD00124E5
S31508009AB080F83C40022280F83D2003685A689D6879
S31508009AC022F070060A6832435A60104B02689A42BE
S31508009AD00ED00F4B9A420BD0B2F1804F08D00D4BE7
S31508009AE09A4205D00C4B9A4202D00C4B9A4204D1AA
S31508009AF0496825F080031943916080F83D400021AC
S31508009B0080F83C10084670BD022070BD002C01404C
S31508009B10003401400004004000080040000C0040EA
S31508009B2010B5040003D094F83D0010B107E00120F9
S31508009B3010BD002084F83C00204600F01FF80220E3
S31508009B4084F83D00211D206801F02EFB012084F8D1
S31508009B50460084F83E0084F83F0084F8400084F804
S31508009B60410084F8420084F8430084F8440084F8ED
S31508009B70450084F83D00002010BD000008B50168C6
S31508009B801148B1F1804F0BD0104A914210D1C169EA
S31508009B9041F00401C161C06900F00400009008BDED
S31508009BA0C16941F00101C161C06900F00100F5E732
S31508009BB0074A9142F3D1C16941F00801C161C06900
S31508009BC000F00800EAE70000001002400008004024
S31508009BD0000C004090F83D10012901D00120704783
S31508009BE0022180F83D100168CA6842F00102CA6085
S31508009BF000680E4988420ED00D4988420BD0B0F154
S31508009C00804F08D00B49884205D00B49884202D0BC
S31508009C100A49884204D1816801F00701062903D060
S31508009C20016841F00101016000207047002C0140E5
S31508009C30003401400004004000080040000C0040C9
S31508009C4070B5044690F83C00012817D0012584F821
S31508009C503C50022084F83D002068826822F0770292
S31508009C6022F47F4282600868502830D00DDC202814
S31508009C704DD005DC98B310283BD148E0022070BDD2
S31508009C80302844D0402834D139E0602828D07028BC
S31508009C9006D0B0F5805F2CD0B0F5005F29D10AE078
S31508009CA0CB68D1E90121206801F0D1FA20688168E2
S31508009CB041F0770109E0CB68D1E90121206801F07C
S31508009CC0C6FA2068816841F48041816011E0CA685B
S31508009CD04968206801F090FB5021206807E016E0EB
S31508009CE0CA684968206801F098FB6021206801F07D
S31508009CF0B8FA84F83D50002084F83C0070BDCA6864
S31508009D004968206801F078FB40212068EFE722685F
S31508009D1001461046EBE7704770B5044600680169CE
S31508009D204FF00005C943890715D4C168C943890797
S31508009D3011D4E91E01610120207720688069800717
S31508009D40204602D0FFF7E7FF04E000F0CDF82046F2
S31508009D5000F05CF9257720680169C943490717D4DB
S31508009D60C168C943490713D46FF004010161022091
S31508009D7020772068806910F4407F204602D0FFF7DC
S31508009D80CAFF04E000F0B0F8204600F03FF9257756
S31508009D9020680169C943090716D4C168C943090778
S31508009DA012D46FF008010161042020772068C06989
S31508009DB08007204602D0FFF7AEFF04E000F094F8D3
S31508009DC0204600F023F9257720680169C943C906AA
S31508009DD017D4C168C943C90613D46FF010010161CD
S31508009DE0082020772068C06910F4407F204602D0FA
S31508009DF0FFF791FF04E000F077F8204600F006F937
S31508009E00257720680169C943C90708D1C168C943CC
S31508009E10C90704D1891E0161204600F0ABF9206804
S31508009E200169C943090609D4C168C943090605D4A5
S31508009E306FF0800101612046FFF732FE2068016954
S31508009E40C943490609D4C168C943490605D46FF010
S31508009E5040010161204600F09BF920680169C94369
S31508009E6089060BD4C168C943890607D46FF0200157
S31508009E7001612046BDE87040FFF713BE70BD0000C3
S31508009E8010B586B0002100910191029103910368F3
S31508009E90124902221248B3F1804F12D0114CA34244
S31508009EA00DD18B6943F004038B618969009201F037
S31508009EB004010192CDE903216946FFF777F906B057
S31508009EC010BD8B6943F004038B618969039201F025
S31508009ED0040104910121CDE90012EDE700100240CA
S31508009EE000080140000C0040704770B5044690F821
S31508009EF03C000D4601280AD0012084F83C0042B1F6
S31508009F00042A18D0082A2AD00C2A4DD139E0022072
S31508009F1070BD206801F0AEF92068816941F008013A
S31508009F2081612068816921F0040181612068816965
S31508009F302A69114311E0206801F0CCF9206881698B
S31508009F4041F4006181612068816921F48061816141
S31508009F50206881692A6941EA0221816124E0206832
S31508009F6001F0EEF92068C16941F00801C161206875
S31508009F70C16921F00401C1612068C1692A691143D8
S31508009F8011E0206801F010FA2068C16941F4006107
S31508009F90C1612068C16921F48061C1612068C16915
S31508009FA02A6941EA0221C161002084F83C0070BD9B
S31508009FB010B5040003D094F83D0010B107E0012065
S31508009FC010BD002084F83C00204600F01EF8022050
S31508009FD084F83D00211D206801F0E6F8012084F888
S31508009FE0460084F83E0084F83F0084F8400084F870
S31508009FF0410084F8420084F8430084F8440084F859
S3150800A000450084F83D00002010BD704770470000E9
S3150800A01010B50446022249B104290ED0082913D0E6
S3150800A02094F84100012816D0012010BD94F83E008E
S3150800A0300128F9D184F83E200FE094F83F00012862
S3150800A040F2D184F83F2008E094F840000128EBD1CB
S3150800A05084F8402001E084F841200122206801F0BC
S3150800A060E9F813492068134A884201D0904203D17F
S3150800A070436C43F400434364206888420DD0904201
S3150800A0800BD0B0F1804F08D00B49884205D00B4958
S3150800A090884202D00A49884204D1816801F0070142
S3150800A0A0062903D0016841F001010160002010BDB6
S3150800A0B0002C014000340140000400400008004024
S3150800A0C0000C004030B5044600680D0006D0042D8B
S3150800A0D008D0082D38D00C2D08D139E0C16821F0F8
S3150800A0E0020102E0C16821F00401C160002229468C
S3150800A0F0206801F09FF81D4B41F2111120688A1063
S3150800A100984202D01A4B984209D1036A0B4206D1EB
S3150800A110036A134203D1436C23F400434364206863
S3150800A120036A0B4206D1016A114203D1016821F084
S3150800A1300101016001207DB1042D10D0082D11D038
S3150800A14084F84100002030BDC16821F00801CCE741
S3150800A150C16821F01001C8E784F83E00F2E784F8E8
S3150800A1603F00EFE784F84000ECE70000002C0140D0
S3150800A1700034014010B500680449884201D1FFF750
S3150800A1801DF9BDE8104002F00BB9000000100040B0
S3150800A1907047704770470000F8B5026804461068B3
S3150800A1A0D168536910F00F0F4FF0000553D003F034
S3150800A1B0010601F4907737435FD0C20705D0CA0578
S3150800A1C003D5226C42F001022264420705D5DA075C
S3150800A1D003D0226C42F002022264820705D5DA0710
S3150800A1E003D0226C42F004022264020707D501F06C
S3150800A1F02002324303D0226C42F008022264226C09
S3150800A200002A34D0800604D5880602D5204601F0F7
S3150800A2103DF920684069216CC0F38010090700D415
S3150800A22030B3204601F01AF92068416949061BD562
S3150800A230416921F040014161A06BA8B158494163C9
S3150800A240A06BFEF7A7FD002811D0A06B416B01B0EB
S3150800A250BDE8F040084783060FD58B060DD5204686
S3150800A260BDE8F84001F012B92046FFF793FFF8BDA4
S3150800A2702046FFF78FFF2564F8BD266B2023012EA5
S3150800A28052D1C60650D5CE064ED5106850680090F5
S3150800A290506940062AD5A16B086840680004000C7E
S3150800A2A0EAD0A68D8642E7D9E0858869202818D0A5
S3150800A2B0D06820F48070D0602068416921F00101DF
S3150800A2C041612068416921F04001416184F83E30CE
S3150800A2D025632068C16821F01001C160A06BFEF7F4
S3150800A2E036FDA08DE18D401A81B219E0A08DE18D71
S3150800A2F0401A81B2E08D0028BED00029BCD0D068B3
S3150800A30020F49070D0602068426922F00102426110
S3150800A31084F83E3025632068C26822F01002C260C5
S3150800A3202046FFF736FFF8BD05062BD50D0629D5BD
S3150800A33094F83D002128F6D1A068B0F5805F01D1D8
S3150800A3402069B0B1206A411C216221680078486002
S3150800A350E08C401E0004000CE084E4D12068C1684B
S3150800A36021F08001C1602068C16841F04001C160E8
S3150800A370F8BD206A0088C0F308005060206A801C77
S3150800A3802062E5E74006F3D54806F1D5D1682046B0
S3150800A39021F04001D16084F83D3000F036FBF8BD6D
S3150800A3A04DB4000870B5040004D094F83D000025AB
S3150800A3B010B106E0012070BD84F83C50204600F03C
S3150800A3C023F8242084F83D002068C16821F4005150
S3150800A3D0C160204601F0B6F82068016921F4904171
S3150800A3E001612068416921F02A0141612068C1683C
S3150800A3F041F40051C1602564202084F83D0084F8AA
S3150800A4003E00002070BD00002DE9F04385B0002411
S3150800A4100094019402940394064603688248814F87
S3150800A420051502210322DFF804C24FF40069BB4276
S3150800A43025D1C36943F40023C361C36903F4002328
S3150800A4400493836943F0100383618069CDE9005161
S3150800A45000F01000CDE90320694665466046FEF720
S3150800A460A5FECDE90094694628460294FEF79EFEAD
S3150800A470002205213420FFF745F8342056E0DFF89E
S3150800A480B0810427434525D1C36943F48013C361CA
S3150800A490C36903F480130493836943F0100383614B
S3150800A4A0836903F010030493836943F020038361EF
S3150800A4B08069039200F020000490B802CDE90001FB
S3150800A4C069466046FEF772FECDE90074694659484A
S3150800A4D00294A3E0DFF860C1DFF8608163452AD102
S3150800A4E0836943F480438361836903F48043049357
S3150800A4F0836943F0040383618069039200F00400D2
S3150800A50004904FF40070CDE9000169464046FEF715
S3150800A5104DFECDE90054694640460294FEF746FED4
S3150800A520002206212520FEF7EDFF2520FEF7DDFF98
S3150800A53005B0BDE8F083DFF808C163454ED1C369AD
S3150800A54043F40033C361C36903F400330493836996
S3150800A55043F0040383618069CDE9007100F00400CB
S3150800A560CDE90320694645464046FEF71FFE08200A
S3150800A570CDE90004694628460294FEF717FE324DD7
S3150800A5803048802701C5102091C5202045F810497C
S3150800A590C5E905402C48EC61FEF7B8FD08B1FEF7A1
S3150800A5A0DFFA75636E62284D264844351438C5E9C6
S3150800A5B00004C5E902472C616C61AC612846EC6170
S3150800A5C0FEF7A4FD08B1FEF7CBFAB5630022052114
S3150800A5D026206E62FEF796FF2620A7E71B4EB3429B
S3150800A5E0A6D1C36943F48023C361C36903F48023F6
S3150800A5F00493836943F0080383618069CDE90051B8
S3150800A60000F00800CDE90320114D69462846FEF7FB
S3150800A610CDFDCDE90094694628460294FEF7C6FDAD
S3150800A62086E70000004C0040001002400010014080
S3150800A6300050004000140140003801400008014065
S3150800A64000440040800002406009002000480040A5
S3150800A650000C01402DE9F84F044690F83E009A4652
S3150800A66016460D46202853D1FDB1F6B194F83C00A4
S3150800A67001284DD0012084F83C00002727642220B9
S3150800A68084F83E002763FEF793FEA6858146E68595
S3150800A690A0684FF48058404501D1206940B12E4644
S3150800A6A05FF0000584F83C7027E00120BDE8F88FCC
S3150800A6B00026F7E74B46002220212046CDF800A0C9
S3150800A6C000F0B7FF08B10320F0E726B1A0684045BF
S3150800A6D01BD038B108E020684068C0F3080025F8A8
S3150800A6E0020B07E0206980B12068406800F07F000F
S3150800A6F006F8010BE08D401EE085E08D0028D9D1D3
S3150800A700202084F83E000020D0E720684068EFE764
S3150800A7100220CBE790F83E30202B0ED159B152B12A
S3150800A72090F83C30012B08D0012380F83C300023F8
S3150800A730036300F063BF01207047022070470000E2
S3150800A7402DE9F041064600687A49012700257A4C2A
S3150800A750884225D1E088010418D404F10101420495
S3150800A760097804D50A290DD140F400402AE00D29BC
S3150800A77026D0C0F30D02714B401C80B29954E0807C
S3150800A780632800D9E580E088000409D52770E088A9
S3150800A7906A49C0F30D0201F55270FEF731F9E580FA
S3150800A7A06749306888422DD1208901041FD462493F
S3150800A7B0420401F10201097809D50A2913D103E0F7
S3150800A7C040F48040E080DEE740F400402CE00D29AC
S3150800A7D028D0C0F30D02594B401CA83380B29954B7
S3150800A7E02081632800D92581208900040AD527708D
S3150800A7F020895249C0F30D02A83101F52870FEF7E9
S3150800A800FFF825814F49306888422BD160890104B9
S3150800A8101ED44949420401F10301097809D50A29D8
S3150800A82012D103E040F480402081DDE740F4004087
S3150800A8302AE00D2926D0C0F30D02434B401C80B2F6
S3150800A84099546081632800D965816089000409D517
S3150800A850277060893C49C0F30D0201F5FC70FEF7CC
S3150800A860CFF865813949306888422DD1A08901041D
S3150800A8701FD43149420401F10401097809D50A298E
S3150800A88013D103E040F480406081DEE740F40040E5
S3150800A8902CE00D2928D0C0F30D022B4B401CA83301
S3150800A8A080B29954A081632800D9A581A0890004A3
S3150800A8B00AD52770A0892449C0F30D02A83101F5ED
S3150800A8C0A870FEF79DF8A5812149306888422BD1EA
S3150800A8D0E08901041ED41849420401F105010978EA
S3150800A8E009D50A2912D103E040F48040A081DDE7AA
S3150800A8F040F400401CE00D2918D0C0F30D02154B9A
S3150800A900401C80B29954E081632800D9E581E0892A
S3150800A910000409D52770E0890E49C0F30D0201F13C
S3150800A920A800FEF76DF8E581BDE8F08140F48040A7
S3150800A930E081ECE700380140300000205005002097
S3150800A9400044004000480040A0060020004C00409B
S3150800A95000500040F00700202DE9F843044690F81F
S3150800A9603D001F4616460D4620284CD1C5B1BEB13E
S3150800A97094F83C00012846D0012084F83C004FF0AA
S3150800A9800008C4F84080212084F83D00FEF710FD39
S3150800A990A6848146E684A068B0F5805F03D004E00B
S3150800A9A00120BDE8F883206928B12E465FF000052E
S3150800A9B084F83C800EE00026FAE78021204600F065
S3150800A9C038FEA0B9AEB116F8010B21684860E08CD4
S3150800A9D0401EE084E08C4B464FF0000200970028AA
S3150800A9E0EBD14FF04001204600F023FE30B10320A2
S3150800A9F0D7E735F8020BC0F30800E6E7202084F80D
S3150800AA003D000020CDE70220CBE7704710B50400D3
S3150800AA100FD000F011F8E068216840F08000086067
S3150800AA20616820690843A1680843216848600020D6
S3150800AA3010BD012010BD000008B50068064988420F
S3150800AA4008D10648C16941F40061C161C06900F4D2
S3150800AA500060009008BD0000002C00400010024075
S3150800AA60C1680068016000207047FEE7074910B515
S3150800AA70054808600846FEF775F8002803D0BDE8C3
S3150800AA801040FEF76DB810BD0030024020000020CF
S3150800AA901CB50024104900940E4801940860084625
S3150800AAA0FEF7A9F808B1FEF75BF82C20CDE90004FB
S3150800AAB0002269460848FEF77BF808B1FEF750F809
S3150800AAC0102269460448FEF773F8002801D0FEF7FD
S3150800AAD047F81CBD00740040DC030020194808B57F
S3150800AAE0416941F002014161416901F002010091A9
S3150800AAF0416941F0010141614069002200F001000D
S3150800AB00009005211020FEF7FDFC1020FEF7EDFC55
S3150800AB10002205211120FEF7F5FC1120FEF7E5FCC1
S3150800AB20002205213A20FEF7EDFC3A20FEF7DDFC6F
S3150800AB30002205213B20FEF7E5FCBDE808403B2046
S3150800AB40FEF7D3BC0010024010B596B01C2211497E
S3150800AB506846FDF755FF0021684601F02FFA0E4CAE
S3150800AB600C491C2220601C3107A8FDF749FF00216B
S3150800AB7007A801F023FA074960601C2238310EA89D
S3150800AB80FDF73EFF00210EA801F018FAA06016B0E6
S3150800AB9010BD000064CE0008140000202DE9F04F17
S3150800ABA085B000242E480094019402940394816988
S3150800ABB041F010018161816901F0100104918169F8
S3150800ABC041F020018161816901F0200104918169C8
S3150800ABD041F004018161816901F0040104918169F0
S3150800ABE041F0080181618069DFF8789000F008007B
S3150800ABF04FF40F550490002229464846FEF7D2FB2B
S3150800AC00DFF864A04FF47047002239465046FEF735
S3150800AC10C9FBDFF858B04FF4885800224146584619
S3150800AC20FEF7C0FB0095022601250396CDE90154DF
S3150800AC3069464846FEF7BAFA00970396CDE90154E5
S3150800AC4069465046FEF7B2FA0320CDE90240CDE93F
S3150800AC50008569465846FEF7A9FA05B0BDE8F08FA3
S3150800AC600010024000100140000C0140000801409D
S3150800AC7010B58EB000240794089409940A940B948E
S3150800AC801C2168460C94FDF7D4FE1F484FF08041FE
S3150800AC9001601E490A88C0E901244988C0E90314ED
S3150800ACA08461FEF73DFF08B1FDF75AFF4FF4805067
S3150800ACB0079007A91448FEF7C3FF08B1FDF750FF30
S3150800ACC01148FFF775F908B1FDF74AFF0B940BA970
S3150800ACD00D480C94FEF7E6FE08B1FDF741FF60202B
S3150800ACE000904FF4FA70CDE901040022694606483F
S3150800ACF00494FFF7FAF808B1FDF732FF0248FFF7A8
S3150800AD00BFF80EB010BD000078040020280000200F
S3150800AD1010B586B000241748009401940294039451
S3150800AD20049413490594C0E900144721C0E9024177
S3150800AD30802104618161FEF7F3FE08B1FDF710FF7B
S3150800AD404FF48050009069460A48FEF779FF08B12B
S3150800AD50FDF706FF2020CDE9040404A90548FEF7FF
S3150800AD60A1FE002801D0FDF7FBFE06B010BD0000CD
S3150800AD7000080040C004002010B58EB000240794D7
S3150800AD80089409940A940B941C2168460C94FDF7C0
S3150800AD9050FE1F481D4901601E498A88C0E90124E2
S3150800ADA0C988C0E903148461FEF7BAFE08B1FDF745
S3150800ADB0D7FE4FF48050079007A91548FEF740FFC5
S3150800ADC008B1FDF7CDFE1248FFF7F2F808B1FDF716
S3150800ADD0C7FE0B940BA90E480C94FEF763FE08B148
S3150800ADE0FDF7BEFE602000904FF4FA70CDE901042D
S3150800ADF00422694606480494FFF777F808B1FDF778
S3150800AE00AFFE0348FFF73CF80EB010BD000C00403B
S3150800AE1008050020280000200C4810B50A490160E2
S3150800AE204FF4E1314160002181600C22C160C0E924
S3150800AE3004128161C161FFF7B5FA002803D0BDE8A5
S3150800AE401040FDF78DBE10BD004C0040AC07002039
S3150800AE500C4810B50A4901604FF4E1314160002100
S3150800AE6081600C22C160C0E904128161C161FFF7EB
S3150800AE7099FA002803D0BDE81040FDF771BE10BD51
S3150800AE8000500040540800200C4810B50A490160DB
S3150800AE904FF461414160002181600C22C160C0E924
S3150800AEA004128161C161FFF77DFA002803D0BDE86D
S3150800AEB01040FDF755BE10BD00380140B40500200E
S3150800AEC00C4810B50A4901604FF41651416000213B
S3150800AED081600C22C160C0E904128161C161FFF77B
S3150800AEE061FA002803D0BDE81040FDF739BE10BD51
S3150800AEF0004400405C0600200C4810B50A49016071
S3150800AF004FF461414160002181600C22C160C0E9B3
S3150800AF1004128161C161FFF745FA002803D0BDE834
S3150800AF201040FDF71DBE10BD004800400407002074
S3150800AF300A4810B5084901608021416040218160B6
S3150800AF40C160C9000161FFF761FD002803D0BDE8B3
S3150800AF501040FDF705BE10BD002C0040E809002092
S3150800AF60FDF7F5FDFDF7AEFD0A2001F01BF8F9E740
S3150800AF70FEE700F0A9BE000008B508220749084800
S3150800AF80FFF7C8FB002001224FF4E1331146009079
S3150800AF9000F036FEBDE8084000F052BC1000002064
S3150800AFA05C060020FEE70000024800880249488047
S3150800AFB070470000028000080A0000200248008846
S3150800AFC00249088070470000008000080A00002037
S3150800AFD002480088024988807047000004800008FB
S3150800AFE00A000020FFF7C8FFFFF7C3FF012000F0A3
S3150800AFF0D9FFF9E710B50346002211460448FDF7C4
S3150800B0006BFEBDE8104000210148FDF772BE000046
S3150800B010DC03002010B50346002210210448FDF782
S3150800B0205BFEBDE8104010210148FDF762BE000036
S3150800B030DC03002010B50F4CC0074FF4805101D037
S3150800B040012200E000222046FEF7ACF900224FF468
S3150800B05000512046FEF7A6F900224FF4804120460B
S3150800B060FEF7A0F92046BDE8104000224FF4004143
S3150800B070FEF798B9000C014010B50E4CC00701D078
S3150800B080012200E0002240212046FEF78BF900222B
S3150800B09080210948FEF786F900224FF48071204680
S3150800B0A0FEF780F92046BDE8104000224FF40071F3
S3150800B0B0FEF778B900100140000C014010B50446AF
S3150800B0C000210648FEF7FEFF044800684463BDE811
S3150800B0D0104000210148FEF79BBF000078040020BD
S3150800B0E010B5044604210648FEF7ECFF044800683C
S3150800B0F08463BDE8104004210148FEF789BF0000BB
S3150800B100080500204FF4FA74204600F04BFFFBE7D1
S3150800B11010B5502080F31188BFF34F8FBFF36F8FA0
S3150800B12001F0D4FD18B104494FF0805008600020A2
S3150800B13080F3118810BD000004ED00E030B58FB033
S3150800B14028216846FDF775FC14210AA8FDF771FC4D
S3150800B15001210804CDE90010002402940225049177
S3150800B160CDE907504FF4E01009906846FEF708FB52
S3150800B17008B172B6FEE70F20CDE90A054FF48060E4
S3150800B180CDE90C4002210AA80E94FEF7EDF9002835
S3150800B19001D072B6FEE70FB030BD70470148FEF722
S3150800B1A0BBBD0000FC090020F0B502681C4B1D4D14
S3150800B1B01D4E1E4F1E4C4FF0804C984209D0A0429F
S3150800B1C007D0604505D0A84203D0B04201D0B842A6
S3150800B1D004D122F0700E4A6842EA0E02984209D05B
S3150800B1E0A04207D0604505D0A84203D0B04201D09E
S3150800B1F0B84203D122F44075CA682A434D6922F041
S3150800B20080022A4302608A68C2620A688262984299
S3150800B21001D0A04201D10969016301214161F0BD54
S3150800B220002C01400004004000080040000C0040CB
S3150800B2300034014010B501F01F030121046A99404A
S3150800B2408C430462016A9A401143016210BD10B52D
S3150800B250846842EA032224F47F440A432243826034
S3150800B26010BD826822F070020A4342F0070181602D
S3150800B27070470000F0B5026A22F001020262036A12
S3150800B28042688469124E24F073050C682C4323F037
S3150800B29002058B682B430D4DA84201D0B04205D15B
S3150800B2A023F00807CB683B4323F00403A84201D0E8
S3150800B2B0B04205D14D6922F4407215438A692A4382
S3150800B2C042608461496841630362F0BD002C014015
S3150800B2D000340140F0B5026A22F010020262026AE6
S3150800B2E0436884690D6824F4E64444EA05248D68B5
S3150800B2F022F0200242EA05120F4D104EA84201D054
S3150800B300B04206D1CF6822F0800242EA071222F044
S3150800B3104002A84201D0B04207D14D6923F44063E8
S3150800B32043EA85038D6943EA850343608461496876
S3150800B33081630262F0BD0000002C01400034014028
S3150800B340F0B5026A22F480720262026A4368C4692E
S3150800B35022F4007224F073050C68124E2C438D6893
S3150800B36042EA05220E4DA84201D0B04206D1CF6866
S3150800B37022F4006242EA072222F48062A84201D03F
S3150800B380B04207D14D6923F4405343EA05138D694A
S3150800B39043EA05134360C4614968C1630262F0BDAC
S3150800B3A0002C01400034014030B5026A22F4805274
S3150800B3B00262046A4268C3690D6823F4E64343EAF5
S3150800B3C005238D6824F4005444EA0534084DA84240
S3150800B3D002D0084DA84204D14D6922F4804242EABF
S3150800B3E085124260C36149680164046230BD000089
S3150800B3F0002C01400034014010B5036A046A24F0A9
S3150800B40001040462846924F0F00444EA021423F077
S3150800B4100A020A438461026210BD10B5036A23F06A
S3150800B420100303628369046A23F4704343EA023211
S3150800B43024F0A00343EA01118261016210BD0000F5
S3150800B4400148FEF7A9BE0000AC07002010B5406A07
S3150800B4500021C185C184FEF79DFE10BD0168CA683A
S3150800B46022F49072CA6001684A6922F001024A61B0
S3150800B470016B012904D10168CA6822F01002CA606A
S3150800B480202180F83E1000210163704708B590F826
S3150800B4903E10222901D0022008BD82684FF480534D
S3150800B4A09A4201D1016921B1816A9A421BD04AB1F7
S3150800B4B00AE00268816A5268C2F308020A80816A51
S3150800B4C0891C08E0026972B10268526802F07F02BC
S3150800B4D00A70816A491C8162C18D491E0904090CDA
S3150800B4E0C18503D019E002685268F1E70168CA68A5
S3150800B4F022F02002CA600168CA6822F48072CA6013
S3150800B50001684A6922F001024A61202180F83E104A
S3150800B510016B012903D0FFF713F9002008BD0021AC
S3150800B52001630168CA6822F01002CA6001680A68E5
S3150800B530D20602D50A6849680091818DFEF729FE70
S3150800B540EBE7000070B5044600680169E26821F47B
S3150800B5504051114301612169A068084361690843A4
S3150800B5602168CA6841F20C639A430243CA6020689C
S3150800B5704169A26921F44071114341611E4920685D
S3150800B580884202D1FEF7B6F801E0FEF7A3F800EB11
S3150800B590C00101EB0012606864218000B2FBF0F381
S3150800B5A0B3FBF1F36FF018067343B2FBF0F5B2FB89
S3150800B5B0F0F605EB8305322303EB0515B5FBF1F52C
S3150800B5C0B6FBF1F605F0F00505EB0615B2FBF0F64D
S3150800B5D0B2FBF0F0B0FBF1F06FF01802504306EB47
S3150800B5E0800003EB0010B0FBF1F0216800F00F00BB
S3150800B5F02844886070BD0000003801408162828559
S3150800B600C28500210164222280F83E2080F83C1081
S3150800B6100168CA6842F48072CA6001684A6942F0E1
S3150800B62001024A610068C16841F02001C16000203A
S3150800B63070472DE9F041984617460E460446069D82
S3150800B6401DE0681C1BD02DB1FDF7B2FEA0EB08006B
S3150800B650A84214D92068C16821F4D071C160206855
S3150800B660416921F001014161202084F83D0084F8F8
S3150800B6703E00002084F83C000320BDE8F0812068E5
S3150800B680006836EA000004D00020B842D9D000206D
S3150800B690F3E70120F9E700000148FEF77DBD000049
S3150800B6A0B405002010B50C48FEF776FD0A4C206854
S3150800B6B0C068800601D500F079FE2068C0680006DB
S3150800B6C001D500F079FE2620FDF702FFBDE81040FF
S3150800B6D00148FEF761BD00005C060020FEE7090789
S3150800B6E0090E002804DB00F1E02080F800147047FA
S3150800B6F000F00F0000F1E02080F8141D704702E00A
S3150800B70008C8121F08C1002AFAD1704770470020DE
S3150800B71001E001C1121F002AFBD1704770B5084627
S3150800B72000241546012181F310880A4A0A21D1709E
S3150800B7300722294601F08AF9012805D144F6206036
S3150800B74001F094F9012800D00324002080F3108822
S3150800B750204670BD500000202DE9F041074600251F
S3150800B76016468846012080F310880F4CA088FF28CB
S3150800B77001D9AFF30080A088032804D3A188A06864
S3150800B78000F002FE30B10525002080F31088284617
S3150800B790BDE8F081A06810F8011B3970A188891EE0
S3150800B7A03180C8F80000EFE75000002070B5034666
S3150800B7B00025012080F31088104C607828B10525F3
S3150800B7C0002080F31088284670BD491E0126E160D6
S3150800B7D00846E6800B70E1881144E180E18800F0B4
S3150800B7E0D3FD0146E088A2680244401CE08011703F
S3150800B7F026700121002000F0CBFEE1E75000002072
S3150800B80010B5012080F31088002100F0C1FE04491C
S3150800B8100020487080F31088BDE8104001F000B998
S3150800B8205000002010B5012080F31088002108463A
S3150800B83000F0AEFE00F0C4FE002080F3108810BDB4
S3150800B84070B5064D00242878012802D00624204623
S3150800B85070BD2869804700202870F8E7700000202E
S3150800B86070B50C460988002505292FD1417840F284
S3150800B870CF760A0281781143C278491C13020279ED
S3150800B88089B21A43531EB34220D2002323800123D0
S3150800B89000F8013B2688761C2680560703D003EB62
S3150800B8A0D203DEB201E0C2F3C70600F8016B2388B3
S3150800B8B05B1C2380002300F005FB18B100F04AFD4D
S3150800B8C0054604E020883044208000E00325284609
S3150800B8D070BD70B50C460988002505292FD1417819
S3150800B8E040F2CF760A0281781143C278491C1302C6
S3150800B8F0027989B21A43531EB34220D20023238009
S3150800B900022300F8013B23885B1C2380530704D0DD
S3150800B910012303EBD203DEB201E0C2F3C70600F847
S3150800B920016B23885B1C238000F0CEFA18B100F067
S3150800B93011FD054604E020883044208000E00325F8
S3150800B940284670BD70B50C4609880026052925D1FC
S3150800B950417805790A0281781143491C6A1E89B221
S3150800B9607C2A1BD800222280032200F8012B228879
S3150800B9700023521C22806A0000F8012B2288521CE0
S3150800B98022802A4600F0A2FA18B100F0E3FC064627
S3150800B99005E0208800EB4500208000E003263046BD
S3150800B9A070BD70B50C4609880026052927D141784F
S3150800B9B005790A0281781143C278491C45EA0225AD
S3150800B9C06A1E89B27C2A1AD200222280042200F832
S3150800B9D0012B2288521C22806A0000F8012B22883B
S3150800B9E0521C22802A4600F073FA18B100F0B2FC05
S3150800B9F0064605E0208800EB4500208000E0032687
S3150800BA00304670BD2DE9F0410446088800270D46EA
S3150800BA100A2842D3607826790102A078227A084358
S3150800BA20401C1FFA80F8E07846EA00266079731E03
S3150800BA300102A0790843401C81B2E0797C2B42EAD6
S3150800BA400022607A28D83AB3792A25D8B0EB420F73
S3150800BA5022D1012304F10A0000F038FA98B900212E
S3150800BA602980172121702988601C491C29807100AA
S3150800BA7000F8011B29880023491C298032464146C3
S3150800BA8000F024FA18B100F065FC074605E028889E
S3150800BA9000EB4600288000E003273846BDE8F08121
S3150800BAA070B5064C0D4606492288401CFCF7A8FFCF
S3150800BAB02088401C2880002070BD000060000020FF
S3150800BAC0440A002038B50988002405290BD1417895
S3150800BAD00A0281781143491C027989B21AB9C278D7
S3150800BAE0FF2A03D012B10324204638BD00228DF860
S3150800BAF00120C078FF280CD08DF8002001231A46B3
S3150800BB00684600F0DFF90028EED000F023FC044672
S3150800BB10EAE701208DF80000F0E710B5098800244F
S3150800BB20052902D00324204610BD417801230A02C4
S3150800BB308178C01C1143491C89B21A4600F0C6F91F
S3150800BB400028F0D000F006FC0446ECE72DE9F041A9
S3150800BB500D4609880024052926D9417843790A0221
S3150800BB6081781143491C8EB2C178027942EA0122D2
S3150800BB70510704D0012101EBD201C9B201E0C2F399
S3150800BB80C701571EB7F5F66F0ED299420CD101239D
S3150800BB903146801D00F096F918B100F0DBFB04462B
S3150800BBA003E00520288000E003242046BDE8F08154
S3150800BBB070B50D460988002406291DD341780A0266
S3150800BBC081781143C278491C1302027989B21A4353
S3150800BBD04379561E772E0FD85606360E9E420BD13F
S3150800BBE00123801D00F072F918B100F0B3FB04467A
S3150800BBF003E00520288000E00324204670BD0000ED
S3150800BC002DE9F0411D46069B1746064641B1F72920
S3150800BC1006D81E4C0846217100211EB1012E15D0EA
S3150800BC2002252EE01A4A22611A4A62611A4AE2601D
S3150800BC301A4AC4E906211A4921621A4961621A494F
S3150800BC40A1622A46394600F099F812E0174A22619D
S3150800BC50174A6261174AE260174AC4E9062117497A
S3150800BC602162174961621749A1622A463946FFF7D8
S3150800BC7055FD050005D100F0CBFE28B166710120FF
S3150800BC8020702846BDE8F0810325FAE770000020F9
S3150800BC9085BE0008A9BE000821BE0008C5BD00086B
S3150800BCA071CA000819CB0008D9CA000801B80008EB
S3150800BCB025B80008ADB7000859B7000835C8000808
S3150800BCC049C9000819C9000838B52B4C207808B1AD
S3150800BCD0062038BD684600F08DFE01284AD19DF839
S3150800BCE00000E8B3012802D0022843D10FE0224A17
S3150800BCF0A369921D911CC81F984788BB6078217953
S3150800BD00884200D060BB022000F08AFE32E0A068BC
S3150800BD100121194B0278A270E170002113F12C035E
S3150800BD2013F8315065B1954207D103EBC1014A6852
S3150800BD301149891D9047E07002E0491C1029EFDB84
S3150800BD40607868B1E07880B10021E180A17841F09F
S3150800BD508002A1680A70E288521C92B2E28000E072
S3150800BD6008E08854E088401CE080D4E90213E288A1
S3150800BD7020799847002038BD7000002070B5084625
S3150800BD8000241546012181F310880822294600F06F
S3150800BD905DFE01280DD1B5F5964F01D9232003E0A4
S3150800BDA007496800B1FBF0F080B200F05FFE012899
S3150800BDB000D00324002080F31088204670BD0000C0
S3150800BDC0A07F17002DE9F04107460025164688464C
S3150800BDD0012080F31088104CA088FF2801D9AFF302
S3150800BDE00080A088042804D3A1880C4800F068FBCA
S3150800BDF030B10525002080F310882846BDE8F0817B
S3150800BE00064800783870A088C01E30800348401C59
S3150800BE10C8F80000EEE7000064000020640A00206D
S3150800BE2070B503460025012080F31088134C60780E
S3150800BE30012805D00525002080F31088284670BD06
S3150800BE40491E0126A160084666800B706188114468
S3150800BE506180618800F034FB6188094A5318491CDF
S3150800BE6061801870010A60880244401C6080117065
S3150800BE7026700121002000F08BFBDCE7640000201F
S3150800BE80640A002010B5012080F3108805480024B4
S3150800BE9044702146012000F07BFB00F0AFFB84F3E1
S3150800BEA0108810BD6400002010B5012080F31088AA
S3150800BEB00021084600F06CFB00F082FB002080F3AE
S3150800BEC0108810BD01207047012070470120704777
S3150800BED030B50023B1F57A7F19D38C18B4F57B7F7A
S3150800BEE015D80C4C2488091B0A4CA41C0CE000BF6E
S3150800BEF034F81150521E2D0A00F8015B14F811503F
S3150800BF0000F8015B92B2491C002AF1D100E0012336
S3150800BF10184630BD1C010020FDF758FAFFF70EF948
S3150800BF20FEF73CFEFEF7DAFDFEF7AEFFFEF7B0FDC4
S3150800BF30FEF79EFEFEF770FFFEF78AFFFEF7C0FFCC
S3150800BF40FEF7DAFFFEF7F4FFFEF7E2FEFEF714FF50
S3150800BF50FEF78CFDFEF7F8FD00F02BF80C4C4FF4BD
S3150800BF6000564FF4FA750B48FEF77AFD0122314662
S3150800BF702046FDF717FA2846FDF706F9002231464E
S3150800BF802046FDF70FFA2846FDF7FEF8EBE7000016
S3150800BF9000100140E809002001460020842900D04D
S3150800BFA0C81C704710B500B9012000F0B1FB00208D
S3150800BFB010BD10B500F0D2FB002010BD7FB50D46B0
S3150800BFC004464169B0F9080081B1A16971B1FFF76A
S3150800BFD0E3FFD4E905128DE80700D4E900102B46E3
S3150800BFE0226900F048FE039004B070BDFFF7D4FF45
S3150800BFF003A9CDE90001208A2B4682B2D4E90010B4
S3150800C00000F00CFE012801D00020EDE70398EBE7CD
S3150800C0102DE9F041184C0F46054666692068001D53
S3150800C02000F064FA38B9206890F82C10012088408E
S3150800C030A1698143A161681C07D137B12168BDE8B0
S3150800C040F0410E48091D00F096BA20683544B542FD
S3150800C0504560216805D2A068BDE8F041091D00F0D9
S3150800C06072BA6068091D00F06EFA206B854200D22C
S3150800C0702563BDE8F081000028010020180C002087
S3150800C0802DE9F041054600F0CFFA2E4C2069401CF8
S3150800C090206120682C4F10B1E06940B32DE025607F
S3150800C0A02069012829D1002606EB860007EB8000C7
S3150800C0B000F03BFA761C052EF6D32348643000F0D0
S3150800C0C034FA2148783000F030FA1F488C3000F0F6
S3150800C0D02CFA1D48A03000F028FA1B48B43000F0AE
S3150800C0E024FA1948643060601430A06005E02068BE
S3150800C0F0E96AC06A884200D82560E06A401CE062A6
S3150800C100E96A0120A26988401043A06101EB810019
S3150800C11007EB8000291D00F02EFA00F0A5FAE06969
S3150800C12000280CD02068E96AC06A884207D2074905
S3150800C1304FF080500860BFF34F8FBFF36F8FBDE895
S3150800C140F081000028010020640B002004ED00E0C7
S3150800C15010B5044690F8510058B101280CD00228B1
S3150800C1600FD0502080F31188BFF34F8FBFF36F8F26
S3150800C170FEE7206B00F08CFA2046BDE8104000F080
S3150800C18087BA10BD10484FF44061420706D0C01D5B
S3150800C1900D4920F00700411AC1F540610B4A0023FA
S3150800C1A00144C2E900030839103A21F00701116079
S3150800C1B04B600B600B1AC0E9001393604FF0004008
S3150800C1C05360D060704700002C0C002074010020DA
S3150800C1D0144E154CA6F1A0074FF08058DFF84C9086
S3150800C1E012E000BF00F020FAF068C568281D00F0CC
S3150800C1F07DF92069401E2061E068401EE06000F07D
S3150800C20033FA2846FFF7A4FFE0680028EAD1386821
S3150800C2100128F9D9C9F80080BFF34F8FBFF36F8F94
S3150800C220F2E70000040C00202801002004ED00E0DD
S3150800C2302DE9F0479A46DDE9098481466FF0030344
S3150800C240206B03EB82021044089D20F00706700756
S3150800C25007D0502080F31188BFF34F8FBFF36F8F3D
S3150800C260FEE723180A5C83F834200A5C12B1401CE6
S3150800C2701028F6D3002784F84370052D00D304252B
S3150800C280E562C4E91157201D00F05AF904F11800B7
S3150800C29000F056F92461C5F105006462A061E764FF
S3150800C2A084F8507052464946304600F0F7F8206048
S3150800C2B0B8F1000F01D0C8F80040BDE8F0870000CB
S3150800C2C030B5114900E011460A688242FBD34B6833
S3150800C2D05C18844203D1406818444860084643689D
S3150800C2E01C18944209D1084C103C2468A24209D073
S3150800C2F052681A4442600A6812680260814200D095
S3150800C300086030BD0460F9E77401002006484168FA
S3150800C310096829B14168C968C968496801637047ED
S3150800C3204FF0FF31FAE7000028010020084840686E
S3150800C330401C4FF0500080F3118804D0BFF34F8F94
S3150800C340BFF36F8FFEE7BFF34F8FBFF36F8FFEE725
S3150800C3507C010020002804D0012803D0072803D038
S3150800C36004207047022070470620704710B5092838
S3150800C37001D8303004E0A0F10A01052902D8373087
S3150800C380C0B210BDAFF30080002203E010F8013BF5
S3150800C3901A44D2B2491E89B2F8D25042C0B2704786
S3150800C3A0014800680047000098000020014800681E
S3150800C3B00047000090000020014800680047000080
S3150800C3C0940000202DE9F0410546002700F0FCF90D
S3150800C3D0314E306808B9FFF7D5FEF06805424BD1F3
S3150800C3E0C5B3083568070ED005F00700C0F1080088
S3150800C3F00544680707D0502080F31188BFF34F8F94
S3150800C400BFF36F8FFEE72DB37068854234D8224894
S3150800C410103001460C6801E020460C466168A942C6
S3150800C42002D221680029F7D131688C4224D00768E6
S3150800C4302168016060680837411B10290FD9601907
S3150800C440420708D0502080F31188BFF34F8FBFF3FF
S3150800C4506F8FFEE710E041606560FFF731FF6168A6
S3150800C4607068401A7060B268904200D2B060F06896
S3150800C47001430020C4E9000100F092FC780707D0C8
S3150800C480502080F31188BFF34F8FBFF36F8FFEE7FD
S3150800C4903846BDE8F08100006401002010B5031F8E
S3150800C4A04FF080741C601B1F21F001011960191FD1
S3150800C4B0024B0B60143940380A6010BD2DC30008C2
S3150800C4C070B5094DFF231A4605F5807606E000BFCC
S3150800C4D010F8014B54402A5D5A40335D491E89B213
S3150800C4E0F6D242EA032070BDD0CE0008D0E9013268
S3150800C4F001699A60D0E901235A604A68824201D1EB
S3150800C50082684A60002202610868401E086008685E
S3150800C51070470000034B036003F154000860802055
S3150800C5201060704788010020704700F108014FF03D
S3150800C530FF32C0E90112C160016100210160704744
S3150800C54000210161704730B50B685A1C02D000F112
S3150800C550080202E0026904E02246546825689D4202
S3150800C560FAD953684B6099608A605160086101681E
S3150800C570491C016030BD42684A6093688B609368C5
S3150800C5805960916008610168491C016070470000A4
S3150800C5900A4B00281A68D06802D040F0200001E053
S3150800C5A020F02000D06018680029C16802D041F048
S3150800C5B0800101E021F08001C16070475C0600201F
S3150800C5C00D4801680A6A41F211131A4207D10A6A2C
S3150800C5D09B101A4203D10A6822F001020A60026817
S3150800C5E0002151620168CA6822F00102CA60006827
S3150800C5F06FF0010101617047C004002009486FF01F
S3150800C6000101026811610168CA6842F00102CA6044
S3150800C6100268002151620068016841F00101016069
S3150800C62070470000C0040020502080F31188BFF333
S3150800C6304F8FBFF36F8F0A494868401C486001282E
S3150800C6400CD10848006810F0FF0F07D0502080F37F
S3150800C6501188BFF34F8FBFF36F8FFEE77047000057
S3150800C6607C01002004ED00E00849486828B1401E16
S3150800C670486001D180F311887047502080F31188F3
S3150800C680BFF34F8FBFF36F8FFEE700007C010020DA
S3150800C69070B5002827D0144DA0F108046168E86831
S3150800C6A0014207D1502080F31188BFF34F8FBFF3A3
S3150800C6B06F8FFEE722683AB1502080F31188BFF3E6
S3150800C6C04F8FBFF36F8FFEE78143616000F07CF800
S3150800C6D060686968084468602046FFF7F1FDBDE8B0
S3150800C6E0704000F05DBB70BD640100204FF0E02093
S3150800C6F000210161816105494FF47A720968B1FB2D
S3150800C700F2F1491E41610721016170474C00002082
S3150800C71010B5020014D00F48806B38B1502080F352
S3150800C7201188BFF34F8FBFF36F8FFEE700F04CF809
S3150800C73000211046FFF76CFC00F032FB002807D1F9
S3150800C74005494FF080500860BFF34F8FBFF36F8FD6
S3150800C75010BD00002801002004ED00E010B586B0E9
S3150800C7600024039405AA04A903A80494FFF7D2FE9B
S3150800C770DDE903010094CDE9011000230EA110485C
S3150800C780059A00F078FA0F490028486311D050201E
S3150800C79080F31188BFF34F8FBFF36F8F4FF0FF30D1
S3150800C7A008630120C8614C6106B0BDE8104000F07E
S3150800C7B0E1B906B010BD000049444C450000000030
S3150800C7C0D1C10008280100200248816B491C8163F9
S3150800C7D070470000280100201448816B11B101211F
S3150800C7E041627047002141628169B1FA81F1C1F164
S3150800C7F01F0101EB81020E4951F822306BB101EBA2
S3150800C800820101F108034A6852684A609A4201D1D6
S3150800C81052684A60D16801607047502080F31188D9
S3150800C820BFF34F8FBFF36F8FFEE70000280100208C
S3150800C830640B0020F8B5374C0027207808B1AFF311
S3150800C8400080684600F0F4F860780025012670B389
S3150800C850012802D002285AD139E0FFF7CFFE9DF809
S3150800C86000003A2807D00D2808D0A0F13001092980
S3150800C87007D8C8B20DE0A570A58048E00220607010
S3150800C88045E0A0F14101052902D83738C0B200E0D9
S3150800C890FF20A17811B1012939D10DE0A188FF291E
S3150800C8A006D8A288A16800018854A6702FE025E062
S3150800C8B06570FFF785FE2AE0A288A16811440A7808
S3150800C8C002430A70A088401CA080A5701FE09DF84E
S3150800C8D00000E178884207D1FFF772FE65700120F3
S3150800C8E000F09EF8074612E03A2801D065700EE07F
S3150800C8F0A570A5806670FFF781FE08E09DF8000028
S3150800C9003A2804D1FFF77AFEA580A57066703846E6
S3150800C910F8BD0000500000200A4810B541780129EA
S3150800C92009D0022907D04178012906D04078022883
S3150800C93003D0AFF3008000214170FFF741FE0020CD
S3150800C94010BD00005000002070B5294C0026607804
S3150800C95008B1AFF3008020780025052846D2DFE825
S3150800C96000F041030A3136003A2000F071F802203F
S3150800C9702070A5703AE0E088F0B1A1781C48C0683C
S3150800C98011B1012932D108E000780009FFF7EEFC61
S3150800C99000F05EF80120A07028E0007800F00F0093
S3150800C9A0FFF7E4FC00F054F8E068401CE060A5706E
S3150800C9B0E088401EE08019E00D2000F049F80320C9
S3150800C9C0207013E0E07800F043F80420F8E72570BB
S3150800C9D0032000F025F8064600210120FFF7D8FDC0
S3150800C9E0257003E000210120FFF7D2FD304670BD17
S3150800C9F0500000200549024600204B78002B04D041
S3150800CA000878107000204870012070472601002021
S3150800CA1002490020487001207047000026010020C6
S3150800CA20024901224A700870104670472601002004
S3150800CA3010B5012301461A460348FDF70BFE08B157
S3150800CA40002010BD012010BD5C06002001207047A3
S3150800CA5001B501231A4669460348FDF77DFF08B16B
S3150800CA60002008BD012008BD5C0600200120704793
S3150800CA7038B5174C0025207808B1AFF30080684612
S3150800CA80FFF7D6FF607830B1124A012807D002288E
S3150800CA9010D0032801D1FFF7B1FD284638BD002084
S3150800CAA0A0809DF80000A1880A44491CA180107046
S3150800CAB002200BE0A088FF2807D89DF80010A08860
S3150800CAC00244401CA0801170E5E703206070E2E78D
S3150800CAD064000020640A002070B50E4D00246878B2
S3150800CAE070B102280BD003280DD0687858B1687841
S3150800CAF0022808D06878032805D0AFF30080012003
S3150800CB00FFF78EFF0446FFF75BFD0120687020469D
S3150800CB1070BD00006400002070B5154C00256078D3
S3150800CB20012801D0AFF30080207810B101281CD16C
S3150800CB3004E000210120FFF72BFD16E0608850B1C4
S3150800CB40A0680078FFF784FFA068401CA060608892
S3150800CB50401E608009E00320FFF762FF05460021BA
S3150800CB600120FFF715FD00202070284670BD000043
S3150800CB70640000201CB5264908780190FF2008703B
S3150800CB8008788DF800009DF800009DF8002000F058
S3150800CB90F000904207D0502080F31188BFF34F8FE2
S3150800CBA0BFF36F8FFEE79DF800001A4B00F05000A8
S3150800CBB018700720986005E09DF8002052008DF84F
S3150800CBC00020401E9DF800201206F5D49860032820
S3150800CBD007D0502080F31188BFF34F8FBFF36F8FB4
S3150800CBE0FEE74FF440709860019808700A4801689B
S3150800CBF041F470010160016841F070410160FFF77E
S3150800CC0075FD00205860FBF7AFFE00201CBD000034
S3150800CC1000E400E07C01002020ED00E02DE9FF5F44
S3150800CC208346DDE90E87994616468A469000FFF741
S3150800CC30C9FB05001CD05420FFF7C4FB040014D020
S3150800CC400020256384F85100CDE90240CDE900872C
S3150800CC504B46324651465846FFF7EAFA2046FFF752
S3150800CC600FFA012004B0BDE8F09F2846FFF710FD33
S3150800CC704FF0FF30F6E7F0B585B0DDE90B640A9DA5
S3150800CC80A6B1DCB1542700972663022684F85160C2
S3150800CC90002604AFCDE90246CDE90057FFF7C8FAEA
S3150800CCA02046FFF7EDF9049805B0F0BD502080F353
S3150800CCB01188BFF34F8FBFF36F8FFEE7502080F3C5
S3150800CCC01188BFF34F8FBFF36F8FFEE72DE9F04151
S3150800CCD0314C0027A06B18B1206A401C206252E034
S3150800CCE06669761C666113D16068006838B15020A1
S3150800CCF080F31188BFF34F8FBFF36F8FFEE760682D
S3150800CD00A1686160A060A06A401CA062FFF7FEFAF5
S3150800CD10206BDFF88880864209D36068006890B186
S3150800CD206068C068C568686886420FD22063206854
S3150800CD30C06A00EB800158F82100012800D90127B4
S3150800CD40206A00B321E04FF0FF30EFE7281DFFF718
S3150800CD50CDFBA86A18B105F11800FFF7C7FBE86A0A
S3150800CD600121A26981401143A16100EB800108EB12
S3150800CD708100291DFFF7FFFBE86A2168C96A884216
S3150800CD80CBD30127C9E7FFF7CFFB606A00B10127BC
S3150800CD903846BDE8F081000028010020640B002019
S3150800CDA02DE9F0472C4D00242746A86B38B1FFF72C
S3150800CDB03BFCA86B401EA863A86B40B146E0502018
S3150800CDC080F31188BFF34F8FBFF36F8FFEE7296992
S3150800CDD0224E0120D1B3A6F18C0980463068E8B10D
S3150800CDE0F068C46804F11800FFF780FB201DFFF700
S3150800CDF07DFBE06AAA6908FA00F11143A96100EB14
S3150800CE00800109EB8100211DFFF7B5FBE06A29685F
S3150800CE10C96A8842E2D3C5F82480DFE70CB1FFF778
S3150800CE2075FA2C6A44B14646FFF750FF00B16E62A8
S3150800CE30641EF9D100202862686A38B108490127BA
S3150800CE4038070860BFF34F8FBFF36F8FFFF70CFCEF
S3150800CE503846BDE8F087000028010020F00B0020C6
S3150800CE6004ED00E0D0D0000805B10008000000007D
S3150800CE700000000080000000000000000000000024
S3150800CE80ECD00008E5AF0008010000000000000033
S3150800CE90000100000000000000000000E0D00008CB
S3150800CEA061AF0008FFFF00000000000080000000DE
S3150800CEB00000000000000000000000000000000064
S3150800CEC00102030406070809000000000102030422
S3150800CED000C1814001C0804101C0804100C181403C
S3150800CEE001C0804100C1814000C1814001C080412C
S3150800CEF001C0804100C1814000C1814001C080411C
S3150800CF0000C1814001C0804101C0804100C181400B
S3150800CF1001C0804100C1814000C1814001C08041FB
S3150800CF2000C1814001C0804101C0804100C18140EB
S3150800CF3000C1814001C0804101C0804100C18140DB
S3150800CF4001C0804100C1814000C1814001C08041CB
S3150800CF5001C0804100C1814000C1814001C08041BB
S3150800CF6000C1814001C0804101C0804100C18140AB
S3150800CF7000C1814001C0804101C0804100C181409B
S3150800CF8001C0804100C1814000C1814001C080418B
S3150800CF9000C1814001C0804101C0804100C181407B
S3150800CFA001C0804100C1814000C1814001C080416B
S3150800CFB001C0804100C1814000C1814001C080415B
S3150800CFC000C1814001C0804101C0804100C181404B
S3150800CFD000C0C101C30302C2C60607C705C5C4040B
S3150800CFE0CC0C0DCD0FCFCE0E0ACACB0BC90908C87B
S3150800CFF0D81819D91BDBDA1A1EDEDF1FDD1D1CDC6B
S3150800D00014D4D515D71716D6D21213D311D1D010DA
S3150800D010F03031F133F3F23236F6F737F53534F4CA
S3150800D0203CFCFD3DFF3F3EFEFA3A3BFB39F9F8383A
S3150800D03028E8E929EB2B2AEAEE2E2FEF2DEDEC2C2A
S3150800D040E42425E527E7E62622E2E323E12120E09A
S3150800D050A06061A163A3A26266A6A767A56564A48A
S3150800D0606CACAD6DAF6F6EAEAA6A6BAB69A9A868FA
S3150800D07078B8B979BB7B7ABABE7E7FBF7DBDBC7CEA
S3150800D080B47475B577B7B67672B2B373B17170B05A
S3150800D090509091519353529296565797559594544A
S3150800D0A09C5C5D9D5F9F9E5E5A9A9B5B99595898BA
S3150800D0B0884849894B8B8A4A4E8E8F4F8D4D4C8CAA
S3150800D0C0448485458747468682424383418180401A
S3150800D0D053756273797374656D5F5461736B000081
S3150800D0E04D61696E5F5461736B000000534F435F77
S3150800D0F04D6F6E69746F725F546173001CD10008BE
S3150800D10000000020880100006C8A000878D1000819
S3150800D11088010020A81A00000EB700080128124747
S3150800D1202BE703040110320182109324F413640AD6
S3150800D130021420022B02321113A1BA33080413A3D6
S3150800D140B92A087D1A4508297013B1BB3308061A8F
S3150800D1501B0832171A0528298C1361B83308051AD3
S3150800D160C510320F1A4D2029741AD3180130FAE85F
S30D0800D170EE01521AAA01410062
S7050800893138
