:020000040800F2
:10800000E85E0020DD810008DBF6000815DB0008D3
:1080100041EE0008CD9C0008D913010800000000C3
:108020000000000000000000000000004581000882
:1080300099A4000800000000898100087DFF000865
:10804000F7810008F7810008F7810008F781000830
:10805000F7810008F7810008F7810008F781000820
:10806000F7810008F7810008F7810008F781000810
:10807000F781000819A40008F7810008F7810008BB
:10808000F7810008F7810008F7810008F7810008F0
:10809000F7810008F7810008F7810008F7810008E0
:1080A000F781000881050108F7810008F7810008C1
:1080B000F7810008F78100088D050108F7810008A5
:1080C000F7810008F7810008F7810008F7810008B0
:1080D000F7810008E11101080D1201084912010899
:1080E000F7810008F7810008F7810008F781000890
:1080F000F7810008F7810008F7810008F781000880
:10810000F7810008F781000899050108F781000848
:108110003D0E0108410E0108BD050108F781000868
:10812000F7810008F781000825A40008F7810008FE
:10813000DFF80CD000F018FD00480047F53A0108C0
:10814000E85E0020224B19680868B0E8F00F80F361
:108150000988BFF36F8F4FF0000080F311884EF055
:108160000D0E70470000000006480068006880F3AC
:10817000088862B661B6BFF34F8FBFF36F8F00DF21
:1081800000BF00BF08ED00E0EFF30980BFF36F8F81
:108190000F4B1A6820E9F00F106008B54FF050003F
:1081A00080F31188BFF34F8FBFF36F8F0DF0B4FCD6
:1081B0004FF0000080F31188BDE808401968086896
:1081C000B0E8F00F80F30988BFF36F8F704700BFEE
:1081D00060000020EFF305807047000006488047EC
:1081E00006480047FEE7FEE7FEE7FEE7FEE7FEE79C
:1081F000FEE7FEE7FEE7FEE7250001083181000803
:10820000202A04DB203A21FA02F00021704721FAEB
:1082100002F3D040C2F12002914008431946704752
:108220002DE9FE43994615468846074601AC0229CA
:1082300042D3002D40D000200290A8F101004FF061
:10824000FF36009022E000FB057201FB057011462D
:108250004A469047002805DC54F82600304444F88C
:10826000260013E060682A4600FB057154F8040CF0
:1082700000FB057007E00B7890F800C001F801CB17
:1082800000F8013B521E002AF5D1764254F8040C46
:1082900061688842D7DC4B462A463846FFF7C0FF64
:1082A00054F8040C4B46A8EB0001401C00FB057081
:1082B0002A46491EFFF7B4FFBDE8FE8340EA0103EA
:1082C0009B0703D009E008C9121F08C0042AFAD28C
:1082D00003E011F8013B00F8013B521EF9D2704750
:1082E000D2B201E000F8012B491EFBD270470022F8
:1082F000F6E710B513460A4604461946FFF7F0FFA5
:10830000204610BD10B5044604E00B7800F8013B90
:1083100003B1491C521EF8D2204610BD421C10F871
:10832000011B0029FBD1801A704730B5044600209C
:10833000034600E05B1C934203D2E05CCD5C401B33
:10834000F8D030BD70B50F4D00B92868002412E098
:108350000A4602E09E4203D0521C1378002BF9D14A
:10836000DAB2224305D02BB124B1002100F8011B61
:1083700004E00446401C0678002EE9D1286020461F
:1083800070BD00009009002070B5064609F09EFE01
:10839000046805460A220021304600F001FB2C60EB
:1083A00070BD80EA010210B502F00043400022D007
:1083B0004A001FD0010E01EB1261C0F35600C2F358
:1083C000560240F4000042F40002A0FB0220000428
:1083D0007F39140400D0401C50EA124001D4400000
:1083E000491EC2B20C0604EBD010401C4008802A83
:1083F00002D003E0002010BD20F00100002900DAC7
:108400000020184310BD30B480EA010202F000459C
:1084100030F0004221F0004013D090B1C30DD40DD4
:10842000C2F31601C0F31600E41A41F4000140F44F
:1084300000027D34914201D3641C00E04900002C0D
:1084400002DA30BC002070474FF400000023914254
:1084500001D3891A034340084FEA4101F7D151B1D2
:10846000914202D14FF0004105E002D24FF00101EC
:1084700001E06FF0010103EBC450284430BC00F070
:10848000C7BA2DE9FE4F804681EA0300C00F0C46B3
:10849000009021F0004123F00045B8EB0200A94113
:1084A00005D24046214690461C460B46024623F024
:1084B0000040104347D0270DC7F30A00C3F30A5109
:1084C0000290401A019040286BDAC3F3130040F485
:1084D000801B0098924620B10023D2EB030A63EB85
:1084E0000B0B01985946C0F14002504600F037FA94
:1084F00006460D4650465946019A00F03FFA10EBE9
:1085000008006141002487EA115284EAE7731A43A4
:1085100040D0009A62B3019A012A4FEA075215DC53
:10852000001B61EB02014FF0004202EA0752CDE965
:108530000042001C41F5801132462B4600F0AEFA95
:1085400003B0BDE8F08F40462146F9E7001B61EB20
:108550000201001C41F5801300185B412018A2F5B0
:10856000001747EB030140EAD570B6196D4111E0E1
:108570006D084FEA360645EAC0754FEA0752001B00
:1085800061EB0201001C41F5801149084FEA3000FF
:108590000019514132462B4603B0BDE8F04F00F0C0
:1085A0006EBA0098012240000023D0EB020263EB78
:1085B000E073009821464FEAE074B8EB000061EBED
:1085C0000401E9E783F000435BE781F0004158E7ED
:1085D0002DE9FE4F81EA030404F0004421F000413C
:1085E00000944FF0000B23F0004350EA01045ED0EA
:1085F00052EA03045BD0C3F30A54C1F30A552C4476
:10860000A4F2F3340194A0FB0254C1F3130141F42A
:108610008011C3F3130343F4801301FB024400FBF6
:10862000034E840A970A44EA815447EA8357A4FB1D
:10863000076802958D0A05FB07854FEA932C04FB1A
:108640000C542705029D4FEA065847EA1637B5EB4A
:1086500008056EEB070C870E920E47EA811742EA77
:108660008312A7FB0201B6EB0B0164EB00042B0D98
:1086700043EA0C335E1844EB1C50DA465146E7FBE4
:108680000201C5F313044FEA0B3343EA14534FEAD4
:108690000432019C43EA0603A4F10C040294009CFA
:1086A000CDE900B400F0FAF903B0BDE8F08F002086
:1086B0000146F9E72DE9F04D81EA030404F0004B8F
:1086C00021F0004514464FF0000A23F0004150EA23
:1086D000050220D054EA01021DD0C5F30A57024614
:1086E000C5F31303C1F31300C1F30A5640F4801518
:1086F00043F48013A7EB0608101BD64608F2FD389A
:1087000073EB050002D308F1010801E092185B4108
:10871000B8F1000F03DA00200146BDE8F08D00201B
:108720004FF48011064684460EE0171B73EB0507D5
:1087300005D3121B63EB050306434CEA010C490801
:108740004FEA300092185B4150EA0107EDD152EA3E
:10875000030012D082EA040083EA0501084305D031
:10876000101BAB4106D20122002306E000224FF08D
:10877000004302E06FF0010253101AEB06004CEBCD
:10878000085110EB0A0041EB0B01BDE8F04D00F081
:1087900076B996230022114600F043B90EB5C10FF9
:1087A00080EAE0700844CA07002140F233438DE8B4
:1087B0000E000A460B4600F071F903B000BD0EB57D
:1087C00040F2334102910021CDE900110A460B46E7
:1087D00000F064F903B000BD00F0004220F000405A
:1087E000C10DC0F3160040F400007F2901DA00201B
:1087F0007047962903DCC1F19601C84001E0963923
:108800008840002AF4D040427047C1F30A5210B5A4
:10881000C1F3130140F2FF3341F480119A4201DAAF
:10882000002010BD40F233439A42A2F2334203DCEF
:108830005242FFF7E5FC10BD904010BD00F0004231
:1088400030F000400AD0C10D01F56071C0F3160090
:1088500042EA0151C2084007114370470020014617
:108860007047000030B5041E71F1000404DB4FF0C6
:108870000044404264EB0101141E73F1000405DB67
:108880001C464FF00043524263EB04038B4208BF87
:10889000824230BD30B5041E71F1000404DB4FF09C
:1088A0000044404264EB0101141E73F1000405DB37
:1088B0001C464FF00043524263EB0403994208BF49
:1088C000904230BD01F0004330B421F0004150EA45
:1088D000010206D00A0DA2F56072C1F31301002A4D
:1088E00002DC30BC00207047440F44EAC104C100E0
:1088F000E01830BC00EBC25000F08AB82DE9F05F00
:108900000546002092469B468846064681464024FE
:108910001BE02846414647462246FFF771FC534676
:108920005A46C01A914110D311461846224600F00B
:1089300016F82D1A67EB01084F4622460120002148
:1089400000F00DF817EB00094E41201EA4F10104C0
:10895000DFDC484631462A464346BDE8F09F202AE0
:1089600004DB203A00FA02F1002070479140C2F186
:10897000200320FA03F3194390407047202A06DBB6
:10898000CB17203A41FA02F043EAE07306E041FADD
:1089900002F3D040C2F120029140084319467047CB
:1089A0002DE9F04791460F4680460446002614F80C
:1089B000015B2DB100F0EAF80068405DC007F6D118
:1089C0002B2D02D02D2D18D0641E4A463946204644
:1089D00000F0E0F827B13968A14201D1C7F8008062
:1089E00071054FF002040BD54042002803DD09F069
:1089F0006DFB0460A007BDE8F08746F48066E4E7FD
:108A00000028F8DA09F062FB04606FF00040F2E73A
:108A10000029A8BF7047401C490008BF20F0010092
:108A2000704710B4B0FA80FC00FA0CF050EA010470
:108A300004BF10BC704749B1CCF1200421FA04F402
:108A400011FA0CF118BF012121430843A3EB0C01DB
:108A5000CB1D4FEA00614FEA102042BF002010BC3E
:108A6000704700EBC35010440029A4BF10BC7047EE
:108A7000401C490008BF20F0010010BC704710B531
:108A8000141E73F1000408DA401C41F10001921831
:108A90005B411A4301D120F0010010BD2DE9F04DDA
:108AA00092469B4611B1B1FA81F202E0B0FA80F22F
:108AB00020329046FFF753FF04460F4640EA0A0073
:108AC00041EA0B0153465A46084313D0114653EA74
:108AD000010019D0C8F140025046FFF791FB05464E
:108AE0000E46504659464246FFF739FF084305D027
:108AF000012004E020463946BDE8F08D0020054302
:108B000046EAE0762C4337430A986305E40AA0EB73
:108B100008000022FD0A44EA47540A3002D500202A
:108B20000146E9E7010510196941DDE90845001929
:108B30006941BDE8F04DA2E770B521F00043034361
:108B40000CD0C1F30A550024D5EB040564EB0403F3
:108B5000D617AD1AB34102DB0020014670BD2018C4
:108B600041EB025170BD0000064C074D06E0E06885
:108B700040F0010394E8070098471034AC42F6D364
:108B8000FFF7DAFA946B0108B46B010800487047EC
:108B9000346B01082DE9F05F824600780027154606
:108BA0008B460AF10104B946302801D09DB113E08B
:108BB00014F8010B0127782803D0582801D045B1BB
:108BC0000AE00DB1102D07D10027102514F8010B74
:108BD00002E0082500E00A250026B0460EE005FB6D
:108BE000080005FB06F1012701EB10461FFA80F88B
:108BF000B6F5803F00D3B94614F8010B294600F0C2
:108C000069F80028EBDABBF1000F05D00FB1641E44
:108C100000E05446CBF80040B9F1000F06D009F04F
:108C200055FA02210160C81EBDE8F09F48EA0640DF
:108C3000FAE72DE9F04D00231A461B1A8A4103DB9F
:108C400000200146BDE8F08DC1F30A52C1F31301C3
:108C500041F480154FF0000BD10702D100186D418F
:108C6000521E0027044640F2FF11384601EB620A0B
:108C70003E468046024600204FF48011FFF7C0FABE
:108C8000C2197141BB1846EB0100B4EB030C75EB44
:108C9000000C04D3E41A65EB000517460E462419B0
:108CA00008F101006D4180463428E3DDF91946EBF7
:108CB0000600091BA84103D24FF0FF32134601E022
:108CC000002213461BEB070046EB0A51BDE8F04DAE
:108CD000FFF7D5BE3A2800D2303820F02002412AD2
:108CE00001D3A2F13700884201D34FF0FF30704723
:108CF00070B58C1810F8015B15F0070301D110F85E
:108D0000013B2A1106D110F8012B03E010F8016B8A
:108D100001F8016B5B1EF9D12B0705D40023521E0D
:108D20000DD401F8013BFAE710F8013BCB1A921C75
:108D300003E013F8015B01F8015B521EF9D5A14273
:108D4000D8D3002070BD000070B50446006881686B
:108D5000C943C90717D1816821F00101816003F07F
:108D600079F805460AE000BF03F074F8401B0228BA
:108D700004D920688068C043C00706D02068806896
:108D8000C043C007F0D0002070BDA06A40F01000C2
:108D9000A062E06A40F00100E062012070BD0000C6
:108DA000F8B500260446009600688168C943C907E3
:108DB0002DD0816841F00101816016481649006894
:108DC000B0FBF1F000E0401E00900028FBD103F062
:108DD00041F8054616E000BF03F03CF8401B0228AE
:108DE00010D920688068C043C0070BD0A06A40F04B
:108DF0001000A062E06A40F00100E06284F82460A4
:108E00000120F8BD20688068C043C007E4D100207D
:108E1000F8BD00005C00002040420F002DE9F05F2B
:108E2000DFF85C910024574DDFF85CB1C9F81440BD
:108E30002888DBF8001040BA4FF0640A0880688880
:108E4000564640BAB0FBF6F2504F06213880042057
:108E500006F02EFF3888B0FBF6F106FB1102072161
:108E6000042006F025FF6868E97900BA20F0FF00C9
:108E70000843FFF793FC4FF06632454BFFF71AFCAF
:108E8000FFF7C3FC434F81B205223868454EA04628
:108E90000160D5F81600697E00BA20F0FF00084393
:108EA0003D49B0FBF2F00968224608603B49688BF7
:108EB000096840BA08803A4800680480316895F82B
:108EC00034000880D5F8350095F8381000BA20F045
:108ED000FF000843C9F81C00688F362140BA60F3D0
:108EE0000F08A88F40BA60F31F48E88F40BA60F3BC
:108EF0000F0215461FFA88F2042006F0D9FE4FEA49
:108F000018423721042006F0D3FE2A4638210420D7
:108F100006F0CEFE49221B492348FFF706FA20B18E
:108F2000492218492048FFF7C9F9B9F808004D4609
:108F300000F46750A9F808003068008860B1A9699A
:108F400031B1C0B200F05AFF06F0E4FEAC6105E0BA
:108F50000120C9F8180001E0C9F81840DBF800004A
:108F60000A21B0F9000090FBF1F000B201F01CF80A
:108F700038680168B1FBFAF0BDE8F05F01F028B88D
:108F80000C090020C44300202C0600201C060020F1
:108F90006666F63F300600202406002034060020D6
:108FA0003806002020060020B64E002006490A7828
:108FB0000AB90B690B621044C0B20870C82801D30B
:108FC0000020086270470000C80800202DE9F04129
:108FD000012007F0F1FD00F07BFE314CD4E90401E3
:108FE0000AF0D2FAA080E188814203D000F05CFE52
:108FF000A088E08007F00AFA00252A4F012648B928
:1090000007F0F4F910B907F097F9E8B1022006F07B
:109010001DFFC8B12078DFF890801BE0D4E904017F
:1090200000223B46FFF71EFC2FD31E490020C4E957
:1090300004012670BDE8F081C4E90401FAE70020CC
:10904000C4E904002570F5E707F0B6F9DFF85C80A5
:1090500018B120780028E1D002E007F0BDF968B12E
:10906000D4E9040100221346FFF714FCE7D2D4E947
:10907000040100224346FFF7A5FADDE7D4E9040125
:1090800000223B46FFF7EEFB06D2D4E904010022A2
:109090004346FFF7F6F9CFE700200249CCE700008E
:1090A000000800200040AF40000054400000404055
:1090B00010B5002000F0F8FD064C012220212046CA
:1090C00002F0C3FE20460122BDE81040102102F04C
:1090D000BCBE0000000C014010B505F085F905F09C
:1090E0009FF905F0F9FA00F0DFFE08B108F02AFD5B
:1090F00007F0D0FB07F0BCFBBDE8104007F042BD15
:1091000010B52E4C8CB040F276712068FFF7EFF866
:10911000216815202B4C0880294902200968088005
:10912000E16A0520088000202070206A61680160E3
:10913000606AA168016006F0D1FE012207210320C8
:1091400006F0B6FDB1220821032006F0B1FDC822C9
:1091500004F16001E068FFF7B1F8E068C82204F5A7
:109160009471C830FFF7AAF8E068C82204F5F871D6
:1091700000F5C870FFF7A2F8E068C82204F52E7168
:1091800000F51670FFF79AF8E068C82204F56071E0
:1091900000F54870FFF792F830220BA16846FFF700
:1091A0008DF84FF47A71032001F092FD2E2269466A
:1091B000FFF784F808F0C6FC0CB010BD8401002055
:1091C00090010020B4010020022990000093440087
:1091D000000086000025F60000164E000005440041
:1091E000000EBE01D3FCB0000000010000006400CE
:1091F0000000C814530300002DE9F041082007F0D7
:10920000DBFC244D244C002628680088D8B10221BC
:10921000B1EB102F10D8C1B2217004F14C02002024
:109220001E4C6323175C8F4201D144F82030401C50
:10923000C0B20B28F6D300E0207000F035F82868A3
:109240000680BDE8F08104F0F3FD60712178814271
:109250001DD1A079401C10F0FF00A071F1D0E07981
:1092600088B10029EDD0012000F062FD60782178FE
:109270000843607005F08CF86278BDE8F041642125
:10928000032006F015BDBDE8F04100F00DB82070D8
:10929000A671D6E74C0600201808002010450020D3
:1092A0000F2005F075B800002DE9F041394D3A491D
:1092B000E868401CE8600978002968D0296996317F
:1092C000884202D9012007F09BFB0024314F334E26
:1092D0004C37A046395D2A7891422BD13049096834
:1092E000C1F80080E8682861002007F089FB56F883
:1092F0002400401C46F82400642842D100F020FDE0
:109300002878012801D0022804D156F82400401EF4
:1093100046F8240007F044F808B1224806E007F0B8
:109320000BF808B1204801E01A48843050F82400B6
:10933000804726E068789043814220D156F8240087
:1093400064281ED200F0FCFC07F02AF808B1174888
:1093500003E006F0F1FF20B1154850F824008047E3
:1093600007E00C48583050F824008047002006F0F1
:1093700095FC07F031F810B1385D06F025FD46F890
:109380002480641CE4B20B2CA4D328786870BDE858
:10939000F081000018080020FC0500201045002086
:1093A00054060020B80600201C0700209806002064
:1093B000FC06002070B5102007F0FEFB2A4C42F29C
:1093C0000F7200256069401C6061E188914202D201
:1093D000491CE18000E0E5804FF49671B0FBF1F2AA
:1093E00001FB12021AB9884201D305F0BBFF01F05C
:1093F00029FD50B101F026FD012833D1A0780128C4
:1094000030D105F093FFA57020E0E1880A20B1FB80
:10941000F0F200FB1212062A11D0B1FBF0F200FBB1
:109420001212DAB1B1FBF0F200FB1210032819D1CD
:109430002078002816D0BDE8704005F0D1BDE06965
:10944000022803D0094800780F2803D0BDE87040F7
:1094500005F00CBFBDE8704005F070BDBDE8704080
:1094600005F0D8BD70BD00000C090020C007002029
:1094700010B50021032001F041FC214CA080401ECA
:10948000FE2805D31522A2800021032006F010FC3F
:109490000121032001F032FCE080032805D90322DA
:1094A000E2800121104606F003FC0221032001F0B6
:1094B00025FC2081072805D90722228102210320CB
:1094C00006F0F6FB0421032001F018FC6081082857
:1094D00005D9082262810421032006F0E9FB052159
:1094E000032001F00BFCA081012807D90122A281F1
:1094F0000521BDE81040032006F0DABB10BD0000D6
:109500007806002010B507F04FFB05F0F1F8174C76
:10951000207838B3AA2802D006F0DAFE09E006F077
:10952000B3FE06E004F0C4FE04F086FB18200AF047
:109530008FFF6421032001F0E1FB7F28F2D106F0C8
:109540008BFE2078AA2801D106F06AFB00F0ECF827
:1095500000226021032006F0ABFB08F0F3FA0020A4
:10956000207010BDBDE8104000F016B81F080020A4
:10957000074910B50220087006F05EFD00F0CAFF32
:109580000449AA200870BDE8104006F041BE000062
:10959000B0010020FC05002070B5484CE068401C7C
:1095A000E06007F0D7FF00F023FBE06814287CD3CD
:1095B0000025E5602069424E401C20612179012987
:1095C0000BD00120207106F007FF002874D107F0AE
:1095D0001FFF05F0D7FE38B330E03A49257109681E
:1095E0000A68521C0A60384909680A68521C0A60F5
:1095F000364909680A68521C0A60216A21B1401A7A
:10960000782801D92570256206F0B2FE48B130787D
:10961000012140F008003070084607F03FFA07F0DB
:1096200065F905F06DFC40E03078002120F008007D
:109630003070012007F032FA07F058F906F0D6FE34
:1096400008B900F05FFE04F0F7FA10B101F05EFA1D
:109650002BE0E56101F022FC112803D107F0B4FAF8
:1096600004F01EFD06F074FE10B104F047FB1CE090
:1096700006F0CCFE10B106F0EFFB16E006F0B6FEE9
:1096800010B106F017F910E006F096FE10B106F0E2
:10969000B3F80AE006F0CAFE10B106F0E5FB04E0FC
:1096A00006F07EFE08B106F089F8A078002803D104
:1096B000BDE8704004F0F4BC70BD0000C808002094
:1096C000B00100205006002054060020580600205B
:1096D00010B5012006F0B2FB00F098FE06F038FE4F
:1096E00000280ED106F092FE0E4918B108680188D4
:1096F000491E05E006F07AFE20B108680188891E3F
:10970000018010BD06F058FE18B108680188C91E16
:10971000F6E706F08BFE0028F3D008680188091FE1
:10972000EEE700000406002010B5012006F086FBDD
:1097300000F06CFE06F00CFE114918B108680188B3
:10974000C91C17E006F062FE18B108680188891C80
:1097500010E006F04BFE18B108680188491C09E0CA
:1097600006F02AFE00280AD106F060FE18B108684B
:109770000188491E0180BDE8104000F0EBBD10BD1E
:109780000406002010B5012006F058FB00F03EFE54
:1097900006F0DEFD104920B109680888801C0880A9
:1097A00010BD06F033FE18B108680188491C09E0B5
:1097B00006F01CFE0028F3D106F0FEFD20B108687B
:1097C0000188491E018010BD06F030FE0028FAD045
:1097D00008680188891EF5E70406002010B50120FD
:1097E00006F02CFB00F012FE06F0B2FD134918B192
:1097F00008680188091D13E006F008FE18B1086822
:109800000188C91C0CE006F0F1FD18B10868018858
:10981000891C05E006F0D0FD20B108680188491CCC
:10982000018003E006F002FE002806D1002005F0CA
:10983000ADFCBDE8104000F08DBD10BD0406002059
:1098400000B589B020216846FEF751FD08A16846A1
:1098500008F004FC6846FEF761FD0146684606F024
:1098600015FA40F6B8300AF0F3FD09B000BD00006B
:1098700041542B424C45434F4E4E4543543D3132AB
:10988000333435363738393030300D0A00000000B7
:1098900010B5104CA08830B1022807D0092808D094
:1098A000102809D00CE003210BA007E015210BA024
:1098B00004E00F210FA001E00E2112A006F0E6F94E
:1098C000A08842F20F71884201D2401C00E00020C3
:1098D000A08010BD6C0900202B2B2B0041542B4283
:1098E0004C454E414D453D696E7665726A65740D15
:1098F0000A00000041542B424C454D4F44453D2544
:10990000640D0A0041542B424C454D54553D25648D
:109910000D0A000000B5012000F0F4F80149002014
:10992000888000BD6C090020014800787047000065
:109930006C09002000F014F84FF47A700AF088FDEA
:1099400000F068F8054802F0AAFB00F075F800F096
:1099500099F828200AF07CFDF4E70000701400203C
:1099600010B51E4B012215211D4805F05AFD00219E
:10997000032001F0ADF9024640F2BB342346032137
:10998000174805F015FD0021042001F0A1F9024659
:1099900080230421124805F00BFD0021032001F073
:1099A00097F90246234606210D4805F001FD0021E6
:1099B000032001F08DF9024623461021084805F0E6
:1099C000F7FC0021032001F083F923460246BDE89D
:1099D00010400521024805F0EBBC00008DFC00089A
:1099E000004F002010B5002000F0DAF8012000F050
:1099F00091F8FFF725FF06480068008808B9FFF7CF
:109A00001FFF002000F0CCF8BDE8104000F01AB8AD
:109A10000002002010B5002000F0C2F800F012F89B
:109A2000002000F077F8F32000F04AF8BDE810407D
:109A3000092000F091B80000014805F039BE00008F
:109A4000004F002000B589B020216846FEF74FFC8A
:109A500008A1684608F002FB6846FEF75FFC014675
:109A6000684606F013F94FF4FA600AF0F1FC09B009
:109A700000BD000041542B424C45444953434F4ED6
:109A80000D0A000010B50B480B4C01786078AA292C
:109A900009D018B100206070FFF7BCFFBDE810408E
:109AA000064805F0CFBC002803D1FFF79BFF01203B
:109AB000607010BD1F0800206C090020004F0020BE
:109AC00010B588B0044620216846FEF710FC2246F7
:109AD00008A1684608F0C2FA6846FEF71FFC014676
:109AE000684606F0D3F84FF47A700AF0B1FC08B07B
:109AF00010BD000041542B424C454D54553D25644A
:109B00000D0A0000032801D80149087070470000C1
:109B10006C09002010B588B0044620216846FEF785
:109B2000E6FB224608A1684608F098FA6846FEF768
:109B3000F5FB0146684606F0A9F841F270700AF09C
:109B400087FC08B010BD000041542B424C454D4FDE
:109B500044453D25640D0A0010B588B00446202117
:109B60006846FEF7C4FB224608A1684608F076FA6C
:109B70006846FEF7D3FB0146684606F087F84FF4C7
:109B80007A700AF065FC08B010BD000041542B4209
:109B90004C4552465057523D25640D0A00000000C6
:109BA00010B588B0044620216846FEF7A0FB8CB1B2
:109BB0000AA1684608F052FA6846FEF7AFFB014674
:109BC0004FEA0D0006F062F84FF47A700AF040FC9C
:109BD00008B010BD032105A0F4E7000041542B5448
:109BE00052414E53454E5445520D0A002B2B2B002B
:109BF00070B5FFF799FE00261E4C1F4D03280CD0B0
:109C0000E868142814D3FFF78FFE012811D0FFF75E
:109C10008BFE0228AE612BD025E0AE612078C10713
:109C200003D100BF40F0010001E020F001002070EE
:109C300070BDFFF72DFEA86910B12969884201D9CE
:109C40002869A8612969C80705D12078C2070CD006
:109C500020F001002070A869081A7828E8D90020AF
:109C6000AE61FFF74FFF2078DFE740F00100F1E73A
:109C70002078D7E7B0010020C808002041F28830E2
:109C80000AF0E6FBFFF714FA044802F008FAFFF7BF
:109C90009DF914200AF0DCFBF6E7000070140020A8
:109CA000322000F001B8000070B5074D04460021D5
:109CB000A86803F0E9F9A86801684C63BDE8704042
:109CC000002103F087B9000000080020FEE7000033
:109CD00070B5164C607801280BD002280CD00A28E9
:109CE0001BD9A178002551B101290CD0022912D02D
:109CF00013E006F0C9FD10E006F0B1FD0DE006F03E
:109D0000C3FD65700EE0142807D900BF06F0BCFD46
:109D10006570A57006E02828F8D8607810B1401C5E
:109D2000607070BDBDE8704006F0AEBD0008002058
:109D30000249887001204870704700000008002028
:109D400010B506F049FB002804D1034801214170F9
:109D50000021817010BD00000008002070B5094D81
:109D600004466878A0420BD00821074803F08CF91C
:109D700005480068C4630821034803F02BF96C70A0
:109D800070BD00003C070020C414002030B5ADF5C4
:109D9000017D0D4604464FF400720B496846FEF7FC
:109DA0008DFA0020694608E014F8012B82EA10229F
:109DB00031F8122082EA002080B26D1EADB2F3D2DB
:109DC0000DF5017D30BD00008067010802460020CE
:109DD00004E000BF12F8013B1844C0B2491E89B22A
:109DE000F8D2704710B506F0EFFE06F0F5FA08B1AC
:109DF00006F00EFABDE8104004F052B970B5040048
:109E00004FF0000507D001F01DF830B101F01AF84D
:109E1000012832D045E0002070BD601E262840D8C1
:109E2000012C08D0022C06D0042C06D00E380328B2
:109E300005D8042535E0012533E0022531E0032C67
:109E400005D0A4F12200032803D8102529E0082515
:109E500027E0262C0AD0052C0AD0A4F11B000228EA
:109E60001FD9272C06D04FF400751AE0202518E0E2
:109E7000402516E04FF4807513E0A00700D00125BF
:109E800014F0300F01D045F40075A00901D045F45D
:109E90008065600701D545F00405200701D545F030
:109EA0000805284670BD00002DE9F041324C00261F
:109EB0003546206A008803F09CFF18B9206A616863
:109EC00001250160606A008803F093FF20B1606A99
:109ED000408803F095FF18B9606AA1680125016008
:109EE000E16A05200A88521E082A02D3088001254B
:109EF00000E045B1214A152112681180E16A08800D
:109F0000A16A0020088005F0E9FF4FF47A7706EB9C
:109F1000C600002200EB0613E06800EBC30030F837
:109F2000220003F066FF98B1E06800EBC30000EB8D
:109F30008200408803F064FF50B18AB1E06800EB12
:109F4000C30000EB8200418830F8020C814207D840
:109F500009493A466031E068FEF7B0F9012503E0AF
:109F6000521CD2B2322AD7D3761CF6B2052ECED3EB
:109F70002846BDE8F0810000B401002084010020E3
:109F800010B500280CDB074AC0B202F114010BF037
:109F90001FFB0448143009F035FB024909390872E7
:109FA00010BD0000DD07002010B500280CDB074ABB
:109FB000C0B202F111010BF00BFB0448113009F0A3
:109FC00021FB0249C91F887110BD0000DB0700207A
:109FD000074A10B5C0B202F117010BF0F9FA0448B4
:109FE000173009F00FFB02490B39887210BD0000D1
:109FF000DF070020704700001F4B10B500229C793E
:10A0000011461046532C01D304220AE0522C01D3EE
:10A01000032206E0512C01D3022202E0502C00D38F
:10A0200001221C7A492C01D304210AE0482C01D3D7
:10A03000032106E0472C01D3022102E0462C00D385
:10A0400001219C7A422C01D304200AE0412C01D347
:10A05000032006E0402C01D3022002E03F2C00D375
:10A0600001208A4203D9824204D9104602E081428B
:10A0700000D90846987010BDD40700200E49084644
:10A080004A78007A042A11D2DFE802F010020C119B
:10A090008879412801D21E2002E04B2806D2782080
:10A0A00000F004BC3728F6D34128F8D37047302895
:10A0B000F1D33A28F3D37047D407002010B50C4CE5
:10A0C000607800280DD105F05BF8142809D9A07A32
:10A0D0003F2801D3032003E0A079502802D30120B8
:10A0E000607010BD207A4628FBD30220F8E70000FC
:10A0F000D407002070B51B4C0025A07A442808D94D
:10A100002078411C2170052804D9022005F002FEA8
:10A1100000E02570A079552802D8207A4B2812D962
:10A12000E089401C80B2E08178280CD305F028F843
:10A130006071502801D9400802E0142804D9142085
:10A1400000F0FCFBE58170BDA079552801D94020C5
:10A1500003E0207A4B28F6D98020BDE8704005F056
:10A16000D9BD0000D407002010B504460948006896
:10A170000078A0420CD000F0EDF800F047F920463E
:10A1800003F008FE002803D0BDE8104000F020BD19
:10A1900010BD00000406002010B50622064B002169
:10A1A00033F81140844201D1012010BD491C89B20D
:10A1B0009142F5D3002010BD0009002070B506F0D3
:10A1C0000BF918B1BDE8704006F022B806F0F4F8BB
:10A1D000244C40B1A069616900880880BDE87040E6
:10A1E000002000F03BB905F05BFF002520B1206A9C
:10A1F000A1690088088027E005F06AFF40B1606A25
:10A20000A16900880880606AE169408808801DE0D3
:10A2100005F06AFFD0B100F047FE03F0E3FD10B98E
:10A22000012005F0B1FD257000F03EFE00EBC001FD
:10A2300001EB0010E16801EBC000A16930F8C80C27
:10A24000088006F0F3F808B9E069058005F09AF88F
:10A2500020B1022005F0EAFDA0690078BDE8704059
:10A2600004F094BFB40100200D4810B50068A0F5BB
:10A270000061B1F5E04F11D80A490B4C0144801E32
:10A28000B1F8FE1F49BA218081B208480BF0E2F90B
:10A2900060802188814201D1012010BD002010BDC5
:10A2A0000478000800300208A401002000400208E1
:10A2B000034840693E2801D90120704700207047BB
:10A2C0007806002010B5044617290CD0102916D1A5
:10A2D00010220B49FEF729F8002810D10220BDE812
:10A2E0001040FFF70FBC064917221739FEF71DF87B
:10A2F0000028F4D0024917222E392046EAE710BD83
:10A300006265010870B5124CE07800281ED0002567
:10A310002570E5816570A570207908B100F09EF880
:10A32000E57025710A48657165611830A571056091
:10A330000571E5712572C4F81D5084F821506572CD
:10A34000A572C4F8225084F82650E57270BD000052
:10A35000D40700200148016941627047C808002005
:10A360000149002048707047C808002010B500223D
:10A370006221032005F09CFC00226421032005F0EB
:10A3800097FC05F0D1FFBDE8104005F04DBE000080
:10A3900010B500F033F81149002009680880104911
:10A3A000087048700F480068007805F0CDFC0E4832
:10A3B0000068007805F0E8FC0C480D4A0168126856
:10A3C000098811800B490C4A0968126809881180B4
:10A3D00000680078BDE8104000F040B83C0600205E
:10A3E000D80600200C0600201006002014060020CD
:10A3F000CC01002018060020D001002002480021D6
:10A4000041610181704700000C09002001490020D2
:10A4100088607047C8080020014801F07DB900003D
:10A420000C190020014801F077B90000C81800207D
:10A4300030B590F840500124AC40C56B6C600468A6
:10A4400063604368102B036803D099600068C260A2
:10A4500030BD9A600068C16030BD000070B5044630
:10A46000012005F0F3FC002812D10A4DA8690480F0
:10A4700000F020FD38B100F057FCA04203D200F0FC
:10A4800053FCA96908802046BDE8704004F07EBEF8
:10A4900070BD0000B40100207047704730B585B032
:10A4A0000446142219496846FDF708FF4FF4E135C8
:10A4B000042C27D0012C0FD0022C1AD0032C1BD037
:10A4C000052C1FD0601E04281ED8684600EB8400AF
:10A4D00050F8040C05B030BD0D48C068018804294F
:10A4E00001D30221018088B20949103151F82000BE
:10A4F000F0E74FF41650EDE700F0A4FC10B14FF474
:10A500001660E7E72846E5E70020E3E72065010855
:10A510008401002010B5124C20680078C0074FF06D
:10A52000050002D000F04EF801E000F00DFA2068BE
:10A53000007880074FF0010002D500F043F801E0F9
:10A5400000F002FA2068007840074FF0020003D5BF
:10A55000BDE8104000F036B8BDE8104000F0F4B996
:10A56000DC01002010B50021032000F0B1FB0D4CF0
:10A5700001212060032000F0ABFBE0600120FFF729
:10A580008DFF0221042000F0A3FB60600321042062
:10A5900000F09EFBA0600221032000F099FB02491D
:10A5A000086010BD84010020DC0100200449096816
:10A5B0000988014201D00120704700207047000047
:10A5C000DC010020012811D06FF0200102280FD0FB
:10A5D00003280FD0042816D0052813D10B48026891
:10A5E000D36823F02003D36000680AE008F0B6BB0C
:10A5F000074A00E0074A1068C36823F02003C360DD
:10A60000106801607047044AF5E70000BC1700209D
:10A6100028160020D01600207817002010B5044618
:10A62000800703D5FF21052006F092FAE00705D048
:10A63000FF21BDE81040042006F08ABA10BD10B515
:10A640000446400703D50021072006F027FAA0079B
:10A6500003D5FF21072006F07BFAE00705D0FF2194
:10A66000BDE81040062006F073BA10BD10B5FF21FA
:10A67000052006F06DFAFF21BDE81040042006F029
:10A6800067BA70B505460A24B0FBF4F0B0FBF4F1EC
:10A6900004FB1101052006F05BFAB5FBF4F004FBA6
:10A6A0001051BDE87040042006F052BA70B504465F
:10A6B000642802D94FF0640400E002D34FF0010196
:10A6C00001E04FF000014FF0070006F0E7F90A251E
:10A6D000B4FBF5F0B0FBF5F105FB1101072006F026
:10A6E00037FAB4FBF5F005FB1041BDE870400620D9
:10A6F00006F02EBA70B504464FF47A70B4FBF0F051
:10A700000A25B0FBF5F105FB1101002006F020FA47
:10A710006420B4FBF0F0B0FBF5F105FB1101012062
:10A7200006F016FAB4FBF5F0B0FBF5F105FB1101EC
:10A73000022006F00DFAB4FBF5F005FB1041BDE870
:10A740007040032006F004BA10B5044645210020ED
:10A7500006F0D6F9C4F30321012006F0F9F9C4F399
:10A760000311022006F0F4F904F00F01BDE81040D7
:10A77000032006F0EDB970B505460A24B0FBF4F0ED
:10A78000B0FBF4F104FB1101002006F0E1F9B5FB88
:10A79000F4F004FB1051BDE87040012006F0D8B978
:10A7A00010B504465021052006F0AAF90A20B4FB92
:10A7B000F0F100FB1141BDE81040042006F0C8B9DB
:10A7C00070B50446642802D94FF0640400E002D357
:10A7D0004FF0010101E04FF000014FF0070006F0DB
:10A7E0005DF90A25B4FBF5F0B0FBF5F105FB1101AD
:10A7F000072006F0ADF9B4FBF5F005FB1041BDE80C
:10A800007040062006F0A4B970B505460A24B0FBD6
:10A81000F4F0B0FBF4F104FB1101022006F098F90A
:10A82000B5FBF4F004FB1051BDE87040032006F0C6
:10A830008FB970B50446642802D94FF0640400E073
:10A8400002D34FF0010101E04FF000014FF007008B
:10A8500006F024F90A250A2C01D2FF2105E0B4FBF9
:10A86000F5F0B0FBF5F105FB1101072006F070F9DA
:10A87000B4FBF5F005FB1041BDE87040062006F082
:10A8800067B970B505460A24B0FBF4F0B0FBF4F1EB
:10A8900004FB1101052006F05BF9B5FBF4F004FBA5
:10A8A0001051BDE87040042006F052B910B50C4CB0
:10A8B000618AB1FBF0F200FB121068B904F060FC91
:10A8C00060712179884205D2401CC0B2607100F0ED
:10A8D00035F801E0FFF716FD608A401C608210BD6C
:10A8E000D407002010B50A4CE07810B904F048FCF9
:10A8F000207104F045FC6071142807D9401EC0B2D5
:10A90000607100F01BF8E078401CE07010BD0000A2
:10A91000D4070020084810B54169491C4161FFF780
:10A92000CDFBFFF769FB06F0CDFCFFF7E3FBBDE8CD
:10A930001040FFF7A3BB0000D40700200149487175
:10A94000FFF78CBDD407002010B5012810D06FF0A0
:10A950002004022810D0032815D004281CD0052874
:10A9600019D101221049114802F0E0FF0F4810E010
:10A97000BDE8104008F002BA01220D490D4802F06E
:10A98000D5FF0C4805E001220B490C4802F0CEFF30
:10A990000A480068046010BD01220949094802F014
:10A9A000C5FF0848F5E7000048000020BC1700205C
:10A9B000450000202816002046000020D016002068
:10A9C000470000207817002072B6FEE770B50D4EE4
:10A9D000054630460AF0A8FD002812D10A4C20692D
:10A9E00040F0020020616561206940F04000206174
:10A9F00030460AF099FD012803D0206920F00200BA
:10AA0000206170BDFFFF5F0000200240044B002268
:10AA1000DA61044A136943F001031361018070474E
:10AA2000981900200020024014480022C168CB067B
:10AA3000134904D5CA6942F00202CA611022C368F0
:10AA40005B0705D5CB6943F00103CB6142F00402FB
:10AA5000C369DB0707D0CB6943F00403CB61C1694D
:10AA600021F00101C161A2F58071013901D0C260FC
:10AA70007047C16921F00101C161704700200240A7
:10AA80009819002070B5054601F0E4F90646114C0E
:10AA900009E0681C07D025B101F0DCF9801BA84251
:10AAA00001D9032070BDE068C007F2D1E0688006DC
:10AAB00001D52020E060E068C00605D4E069C00749
:10AAC00002D1E068400703D5FFF7AEFF012070BD5B
:10AAD000002070BD00200240B0F5804F01D300205F
:10AAE0007047012070470000064800B500680088E4
:10AAF00000F084F9044908704A78824201D90120A3
:10AB0000487000BD3C060020D806002010B500F0BB
:10AB1000C5F9112802D006F06DF81BE005F00CFC19
:10AB2000C0B103F05BF8A8B91148C16911B102695D
:10AB3000914201D90169C1610169C069081A0C28F3
:10AB400008D90C48007828B90B480068008808B973
:10AB5000FFF748F904F0AAFA30B1022005F076F9BF
:10AB600010B1022005F06AF9BDE8104006F0CEBB36
:10AB7000C80800201F0800202006002004480021EB
:10AB8000026D1180426D1180806D01607047000080
:10AB9000B401002010B50C4C216D0A8810440880C7
:10ABA000A0690088142801D3616D088000F0C8F8FE
:10ABB0000649097848436421B0FBF1F1A06D0268B1
:10ABC0001144016010BD0000B40100200C090020F8
:10ABD00006F078BC0F4810B5006809F06FFC0E480D
:10ABE000006809F06BFC0D48006809F067FC0C4830
:10ABF000006809F063FC0B48006809F05FFC0A4834
:10AC0000006809F05BFC09480068BDE8104009F0E5
:10AC100055BC00002C000020200000202400002053
:10AC200028000020300000203400002038000020E0
:10AC30000D4810B5006809F05BFC0C48006809F08D
:10AC400057FC0B48006809F053FC0A48006809F0FB
:10AC50004FFC0948006809F04BFC08480068BDE853
:10AC6000104009F045BC00002C000020200000200E
:10AC700024000020280000203000002034000020A4
:10AC80000D4810B5006809F033FC0C48006809F065
:10AC90002FFC0B48006809F02BFC0A48006809F0FB
:10ACA00027FC0948006809F023FC08480068BDE853
:10ACB000104009F01DBC00002C00002020000020E6
:10ACC0002400002028000020300000203800002050
:10ACD000032802D0042805D00AE0B1F56F7F07D21F
:10ACE000044802E0802903D8034800EB4100704784
:10ACF000002070473E4600203C450020032802D03B
:10AD0000042805D00AE0B1F56F7F07D2044802E0BD
:10AD1000802903D8034830F811007047002070479D
:10AD20003E4600203C450020014840797047000025
:10AD3000D40700200148007970470000D4070020A4
:10AD400010B500F06DF8642805D0A02805D0C828FB
:10AD500005D0B42010BD6C2010BD822010BDA020F5
:10AD600010BD000070B5092003F0FCFC154C6068B4
:10AD700000F01AF9606800F073FB0721606800F0CA
:10AD8000D1FA606800F0FAF9800503D5606800F038
:10AD9000F7F905460C4E7C2D02D9B5F57A6F05D32F
:10ADA0002088411C2180032809D801E00020208050
:10ADB000284600F085F805490978002900D030467A
:10ADC00070BD0000AC0700200000C8C21F080020B2
:10ADD00030B500231A46012505FA02F4044206D0D4
:10ADE0005B1CDBB2994202D1521CD0B230BD521C66
:10ADF000D2B2102AF0D3002030BD0000024610B5B8
:10AE0000002001465FF0010404FA01F3134201D06F
:10AE1000401CC0B2491CC9B21029F5D310BD0000B6
:10AE200010B500F0A5F80649087000F003000428EA
:10AE300003D2091D51F8200010BDE62010BD00000E
:10AE4000C007002010B500F093F8000701D50120DD
:10AE500010BD002010BD00000148008970470000AF
:10AE60000C09002010B5FFF7DBFF642806D0A028EE
:10AE700007D0C82808D040F26C7010BD40F29C404A
:10AE800010BD40F2BE5010BD40F2A46010BD10B520
:10AE9000FFF7C6FF4FF42F7010BD00000148006897
:10AEA0000078704704060020014800680078704769
:10AEB000080600200148407870470000D4070020B1
:10AEC0002DE9F041FDF765FCFDF7B8FC4FF0663861
:10AED00042461C4BFDF77CFBFDF7F4FC0546FDF7F5
:10AEE000ADFC4246184BFDF770FB184E07460C466A
:10AEF00031462846FDF755FAFDF7A0FC3A462346B1
:10AF0000FDF7D8FBFDF7DEFC3146FDF77CFAFDF7D7
:10AF100095FC08F041FC00220D4BFDF7CBFB0D4AE0
:10AF20000D4BFDF7AEFA02460B4600200B49FDF72C
:10AF3000C1FB42460A4BFDF745FBBDE8F041FDF77A
:10AF4000C1BC000066664A3F66660A4000002041B8
:10AF500000DCAE4083DBB5DCE1796B3F0000F03F05
:10AF60006612714001484078704700007C0900205B
:10AF70002DE9F04100250B4E2C46012706EBC400BD
:10AF8000818856F8340000F05BFF18B907FA04F026
:10AF90002843C5B2641CE4B2042CEFD32846BDE8B4
:10AFA000F081000000000020F8B50025044600955F
:10AFB00090F82400012808D0012084F824002046BD
:10AFC000FDF7C2FE060002D053E00220F8BDA06AE1
:10AFD00020F4885040F00200A062022001F04AF9FB
:10AFE00026490968B1FBF0F0400000E0401E0090E7
:10AFF0000028FBD12046FDF7D3FE2068816841F090
:10B000000801816000F026FF074608E000F022FFFB
:10B01000C01B0A2803D920688068000715D420685F
:10B0200080680007F2D42068816841F004018160E3
:10B0300000F010FF074612E000F00CFFC01B0A28CA
:10B040000DD920688068400709D5A06A20F0020069
:10B0500040F01000A06284F824500120F8BD206860
:10B0600080684007E8D4A06A20F0020040F00100A8
:10B07000A06284F824503046F8BD00005C00002037
:10B08000F8B50024009490F824202546012A12D017
:10B09000012280F824204A681F23072A0DD206685F
:10B0A000776B521E02EB820293409F430B689340E2
:10B0B0001F43776319E00220F8BD06680D2A0AD203
:10B0C000376BD21F02EB820293409F430B68934081
:10B0D0001F43376309E0F76A0D3A02EB820293409F
:10B0E0009F430B6893401F43F7620A680723066873
:10B0F0000A2A0AD3F7680A3A02EB420293409F43B6
:10B100008B6893401F43F76008E0376902EB420207
:10B1100093409F438B6893401F4337610A68102A0E
:10B1200001D0112A20D1124B02689A4217D193689C
:10B130001B0219D4936843F4000393600968102933
:10B1400012D10C490C4A0968B1FBF2F101EB810103
:10B15000490000E0491E00910029FBD104E0816A0A
:10B1600041F020018162012480F824502046F8BD7E
:10B17000002401405C00002040420F00806A7047BC
:10B180000068C06C704700002DE9F04104004FF0EA
:10B1900000057FD0A06A002628B9E66284F8246002
:10B1A000204600F081F82046FDF7CEFDA16AC906D1
:10B1B00000D420B1A06A40F01000A0626AE0A16A49
:10B1C00021F4885141F00201A162334923688B4286
:10B1D000E16904D1B1F5402F01D14FF40021277B63
:10B1E0004FF4807C41EA470261680A43A1686145E7
:10B1F00008D0012906D0002194F814E0BEF1010F17
:10B2000002D00AE06146F7E7C7B1A76A47F0200716
:10B21000A762E76A47F00107E7625F6827F46947BA
:10B220000F435F60236899681C4F39401143996050
:10B23000A16861450BD0012909D00CE0DFF860E07E
:10B24000A7690EEB47370F4347F40061E5E7218A12
:10B250000D05A5F580152168CB6A23F470032B43F7
:10B26000CB62216889680F4B1940914208D1E66290
:10B27000A16A21F0020141F00101A162BDE8F08163
:10B28000A06A20F0020040F01000A062E06A40F0E6
:10B290000100E0620120F1E7003C0140FDF7E1FF21
:10B2A00000E0FFFFFE0E1FFF10B586B000210091E9
:10B2B00001910291039100681649884227D11648EE
:10B2C000816941F480618161816901F48061049147
:10B2D000816941F004018161816901F004010491F7
:10B2E000816941F0080181618069032400F0080050
:10B2F00004906020CDE900046946084800F0A4FCF1
:10B300000220CDE900046946054800F09DFC06B026
:10B3100010BD00000028014000100240000801405C
:10B32000000C01402DE9F84300270D460446009724
:10B3300000F090FD804620688168C90508D5A06AA4
:10B3400040F02000A06284F824700120BDE8F8835A
:10B350004168C90503D4C06A10F4700F2AD00220D6
:10B3600000F088FF3B490968B1FBF0F620680369EB
:10B3700039490B424FEA61014FEAA1121FD1C3685C
:10B380004FEA611C13EA0C0F19D103690B4225D156
:10B39000C068104222D1142023E0681C0AD02DB1CD
:10B3A00000F058FDA0EB0800A84203D9206800680F
:10B3B000800725D5206800688007EED52DE0036959
:10B3C0000B4202D1C168114206D0026923490A42E8
:10B3D00006D1C068084203D1542002E0292000E0D1
:10B3E000FC204643009816E0681C11D02DB100F0F7
:10B3F00031FDA0EB0800A8420AD90098B04207D25C
:10B40000A06A40F00400A06284F8247003209DE745
:10B410000098401C0090B042E6D321686FF0120003
:10B420000860A06A40F40070A06220688068C0F3E1
:10B43000424007280CD1207B50B9A06A20F48070CC
:10B44000A062A06AC00403D4A06A40F00100A06218
:10B4500000207BE75C0000202449922449922400CC
:10B4600070B5044690F8240001280DD0012084F81E
:10B4700024002046FDF794FC02004FF0000005D0A8
:10B4800084F82400104670BD022070BDA16A40F20D
:10B490000123994341F48071A1621F4D23681F4924
:10B4A000AB4218D10E6816F4702F14D0A66A46F479
:10B4B0008016A6620E68760505D5A66A26F40056A3
:10B4C00046F48056A662A66AF6040AD5E66A26F015
:10B4D0000606E66206E0A66A26F48016A6625E68A4
:10B4E000E9E7E06284F824006FF002001860206849
:10B4F0008368C3F34243072B05D1A84208D10968EA
:10B5000011F4702F04D0816841F480118160B9E793
:10B51000816841F4A001F9E70028014004240140BA
:10B5200010B590F821100022022905D00421816372
:10B5300080F82020012010BD01680B6823F00E0365
:10B540000B6001680B6823F001030B6090F840303A
:10B55000C46B012101FA03F3636080F8211080F8C5
:10B560002020104610BD00002DE9F05F90F821105A
:10B570000024022903D004218163012485E00168AD
:10B580000A6822F00E020A6001680A6822F00102CD
:10B590000A603F4E3E4FB215DFF8F4C0DFF8F0907E
:10B5A000DFF8ECA0DFF8E8B0DFF8E4E00168783F0E
:10B5B00013011502ACF1640CA9F15009AAF13C0A7F
:10B5C000ABF1280BAEF1140E4FF48018B14227D91D
:10B5D000B9420ED0614512D049451DD0514518D011
:10B5E000594518D0714501D1424615E0294EB14266
:10B5F00001D1012210E0274E1436B14201D11022B0
:10B600000AE0244E2836B14206D0224A3C3291420A
:10B6100001D11A4600E02A461E49091F0A602BE0A4
:10B62000B94213D0614517D0494522D051451DD0AC
:10B6300059451DD0714501D142461AE0B14202D1AF
:10B640004FF0807215E0134EB14201D1012210E09B
:10B65000104E1436B14201D110220AE00D4E2836A8
:10B66000B14206D00B4A3C32914201D11A4600E069
:10B670002A46074980394A60012180F821100021BB
:10B6800080F82010416B01B188472046BDE8F09F4B
:10B69000800002400804024010B5D0B101680A6879
:10B6A00022F001020A600268002111600268516004
:10B6B000026891600268D160144C02681423A242AF
:10B6C00009D2134C2244B2FBF3F292000264114AF5
:10B6D0000AE0012010BD0D4C64422244B2FBF3F29B
:10B6E00092000264094A083AC26390F8403001228D
:10B6F0009A40C36B5A608162C16201634163816396
:10B7000080F8211080F82010002010BD08040240AD
:10B71000F8FFFDBF000002402DE9F05FC16B0A6831
:10B7200001680B68046C4FF0040808FA04F8844DB3
:10B73000844E854FDFF814C2DFF81492DFF814A2AC
:10B74000DFF814B2DFF814E218EA020F65D05FEAFE
:10B75000437862D50A68920603D40A6822F004028C
:10B760000A60DFF8F0814FF48062016808F1140884
:10B7700013011402414524D9A9420DD0B1420FD082
:10B78000B9421AD0614515D0494515D0514501D16E
:10B79000120312E0594501D104220EE0714501D196
:10B7A00040220AE06D4D1435A94206D06B4A28327A
:10B7B000914201D11A4600E022466749091F0A60FA
:10B7C00029E0A94213D0B14215D0B94220D0614539
:10B7D0001BD049451BD0514502D14FF4800217E0E0
:10B7E000414502D14FF0806212E0594501D1042257
:10B7F0000EE0714501D140220AE0584D1435A942AE
:10B8000006D0564A2832914201D11A4600E022461B
:10B810004B4908394A60C16A71E04FF0020808FAE2
:10B8200004F818EA020F70D05FEA83786DD50A68D1
:10B83000920606D40A6822F00A020A60012180F802
:10B840002110DFF810814FF40072016808F114082C
:10B8500013011402414524D9A9420DD0B1420FD0A1
:10B86000B9421AD0614515D0494515D0514501D18D
:10B87000120312E0594501D102220EE0714501D1B7
:10B8800020220AE0354D1435A94206D0334A283229
:10B89000914201D11A4600E022462F49091F0A6051
:10B8A00029E0A94213D0B14215D0B94220D0614558
:10B8B0001BD049451BD0514502D14FF4001217E06F
:10B8C000414502D14FF0007212E0594501D10222E8
:10B8D0000EE0714501D120220AE0204D1435A94225
:10B8E00006D01E4A2832914201D11A4600E0224673
:10B8F000134908394A60002180F82010816A002924
:10B900001CD0BDE8F05F0847FFE70825A5401542B9
:10B9100014D01A0712D50A6822F00E020A6090F8B5
:10B920004020C36B012101FA02F25A60816380F862
:10B930002110002180F82010016BE0E7BDE8F09FA6
:10B94000080002401C000240300002404400024057
:10B95000580002406C000240080402401C040240EF
:10B9600030B560B11A4B026814219A4209D2194BC2
:10B970001344B3FBF1F18900016417490AE0012087
:10B9800030BD134B5B421344B3FBF1F189000164FA
:10B990000F490839C163022180F82110136843F66A
:10B9A000F0718B43F0E901142143D0E902452C43A7
:10B9B0002143046921434469214384692143194394
:10B9C000116000214163012242770177084630BDB2
:10B9D00008040240F8FFFDBF0000024070B50446B5
:10B9E00090F82000002501280CD0012084F82000C8
:10B9F00094F821600020012E06D084F82000022552
:10BA0000284670BD022070BD022684F82160A06324
:10BA10002068066826F0010606602046FEF708FD4D
:10BA2000E06A00282068016802D041F00E0106E0BB
:10BA300021F0040101602068016841F00A01016001
:10BA40002068016841F001010160D9E7064810B59E
:10BA50004FF0FF31C16000220261C160C26000F09E
:10BA600085FB002010BD0000001002400348016962
:10BA700041F0800101610020704700000020024079
:10BA80002DE9F05F07461C4888460024017E1546D4
:10BA90001E46012909D00121814601764CF2503A17
:10BAA0005046FEF7EFFF18B122E00220BDE8F09FFC
:10BAB000012F02D0022F00D00427D346DFF83CA08C
:10BAC000220128463146FCF79BFB81B208EB44007B
:10BAD000FEF79CFF5846FEF7D5FFDAF8102022F05B
:10BAE0000102CAF8102018B9641CE4B2BC42E7D3C2
:10BAF000002289F81820D9E7981900200020024078
:10BB0000064900200A69120607D5054A4A60054A17
:10BB10004A600969090600D50120704700200240EB
:10BB200023016745AB89EFCD2DE9F04300233E4F5C
:10BB30000F2574E001229A400A406ED023F00304DE
:10BB4000E619D6F808809C074FEA147C05FA0CF930
:10BB500009EA0804DFF8D480404502D14FF000081C
:10BB600024E0DFF8CC80404502D14FF001081DE011
:10BB7000DFF8C080404502D14FF0020816E0DFF840
:10BB8000B880404502D14FF003080FE0DFF8AC80E9
:10BB9000404502D14FF0040808E0DFF8A48040459A
:10BBA00002D14FF0050801E04FF0060808FA0CF842
:10BBB000A04515D1D6F808C02CEA090CC6F808C073
:10BBC000204E346894433460341D266896432660C2
:10BBD000241D266896432660241D26689643266009
:10BBE000FF2A01D8064601E000F104064FEA83046B
:10BBF00001D9A4F12004D6F800C005FA04F82CEA13
:10BC0000080C4FF0040808FA04F84CEA080CC6F8CF
:10BC100000C0C46824EA0204C46003F1010331FADD
:10BC200003F287D1BDE8F083000001400008014025
:10BC3000000C0140001001400014014000180140B8
:10BC4000001C0140000401402DE9F84FDFF8C891C5
:10BC5000002409F1040A0AF1040B23460F270BF113
:10BC6000040ED1E00125A54006EA0502AA4276D1DC
:10BC7000DFF8A8C14E68A6EB0C0866452BD00DDC9A
:10BC8000032E34D005DC36B3012E19D0022E2FD16D
:10BC90001BE0112E16D0122E2AD119E0B8F5881FFC
:10BCA00019D006DCB8F5803F15D0B8F5801F1FD13C
:10BCB00011E0B8F5001F0ED0B8F5041F18D10AE046
:10BCC000CB6815E0CB681B1D12E0CB6808330FE092
:10BCD000CB680C330CE08B682BB1012B4FF00803C1
:10BCE00003D0456104E0042302E0056100E0002385
:10BCF000FF2A01D8064601E000F104064FEA840558
:10BD000001D9A5F12005D6F8008007FA05FC28EA3C
:10BD10000C0803FA05F548EA0508C6F800804D68E6
:10BD2000ED0070D53E4DAE6946F00106AE61AD69DD
:10BD300024F0030605F0010500953A4D06EB050CCD
:10BD4000DCF80850A607360F07FA06F825EA0805BA
:10BD5000DFF8D480404503D14FF0000825E052E0E1
:10BD6000DFF8C880404502D14FF001081DE0DFF840
:10BD7000C080404502D14FF0020816E0DFF8B480E1
:10BD8000404502D14FF003080FE0DFF8AC8040459A
:10BD900002D14FF0040808E0DFF8A080404502D14E
:10BDA0004FF0050801E04FF0060808FA06F848EAE7
:10BDB0000508CCF808804D68D9F80060ED034D46C1
:10BDC00001D5164300E096432E604D68DAF8006016
:10BDD000AD03554601D5164300E096432E604D68ED
:10BDE000DBF80060ED025D4601D5164300E09643A6
:10BDF0002E604D68DEF80060AD02754601D5164331
:10BE000000E096432E60641C0A681646E2407FF408
:10BE100029AFBDE8F88F00000004014000001110B8
:10BE2000001002400000014000080140000C0140E9
:10BE3000001001400014014000180140001C0140A6
:10BE40008068084000D0012070470AB10161704746
:10BE50000904FBE70148806870470000500000209B
:10BE600070B5040025D094F83D00002520B984F871
:10BE70003C50204600F0B8F8242084F83D002068AB
:10BE8000016821F0010101602068016841F400416E
:10BE900001602068016821F40041016000F080FB2E
:10BEA0004D4A6168914201D84C4900E04C498842B2
:10BEB00001D2012070BD4B492368B0FBF1F15E68EF
:10BEC00026F03F060E435E606368934206D94FF446
:10BED000967359434FF47A73B1FBF3F12368491C0D
:10BEE0001E6A26F03F06314319626168914210D8FC
:10BEF0004900401EB0FBF1F2521CC2F30B02042AAF
:10BF000001D2042022E0B0FBF1F0401CC0F30B0092
:10BF10001CE0A268F2B301EBC10303EB0116431E60
:10BF2000B3FBF6F35B1C43F480431B0549D092B38B
:10BF300001EBC10202EB0111401EB0FBF1F0401C0D
:10BF4000C0F30B0040F4804040F400402168CA690F
:10BF50004CF6FF739A431043C861D4E907100143BC
:10BF60002068026822F0C00211430160D4E9030195
:10BF700001432068826848F2FF339A43114381608D
:10BF8000D4E9050108432168CA6822F0FF02104382
:10BF9000C86001E00EE016E02068016841F0010190
:10BFA00001602564202084F83D00256384F83E501C
:10BFB000002070BD01EB4106431EB3FBF6F35B1C92
:10BFC000B3E70120C2E701EB4101401EB0FBF1F0F5
:10BFD000401CC0F30B00B7E7A086010080841E0060
:10BFE00000093D0040420F0010B586B000210091CD
:10BFF00001910291039100680F4988421AD10F4CB8
:10C00000A06940F00800A061A069694600F008003E
:10C010000490C02000901220019003200390084853
:10C02000FFF712FEE06940F40010E061E06900F4FF
:10C030000010049006B010BD0054004000100240F3
:10C04000000C014070B5040011D021684CF6CC40C2
:10C050000860216845F255500860D4E9000141604C
:10C060002168A0688860FFF7F5FE05460DE0012015
:10C0700070BD00BFFFF7EEFE401B272805D92068E2
:10C08000C068800701D0032070BD2068C0688007A9
:10C09000F0D121684AF6AA200860002070BD00682F
:10C0A0004AF6AA210160002070470000024881681A
:10C0B000027811448160704750000020074810B595
:10C0C000016841F010010160032000F0C1F80F2069
:10C0D00000F006F800F04CF8002010BD00200240EF
:10C0E00030B505461C4887B0816941F40061816123
:10C0F000806906A900F40060009001A800F030FA01
:10C1000000F05EFA1549164AB0FBF1F11548491ED8
:10C110000260416040F2E7320021C0E90321816002
:10C12000816100F063FC040012D10E4800F0EAFCCB
:10C1300004000DD1192000F05DF8102D07D2002267
:10C140002946192000F064F80748056000E0012442
:10C1500007B0204630BD00000010024040420F00F2
:10C16000002C0140501900205400002070470000AE
:10C170000F4808B5816941F001018161816901F0D1
:10C1800001010091C16941F08051C161C069002283
:10C1900000F0805000900F21901E00F039F8054803
:10C1A000416821F0E06141F00071416008BD00008C
:10C1B0000010024000000140002809DB00F01F02CF
:10C1C000012191404009800000F1E020C0F8801278
:10C1D000704700280DDB00F01F020121914040094B
:10C1E000800000F1E020C0F88011BFF34F8FBFF353
:10C1F0006F8F7047002809DB00F01F02012191407A
:10C200004009800000F1E020C0F8001170470000F4
:10C21000F0B40E4B1B680C46C3F30223C3F10705B1
:10C22000042D00D90425191D072901D2002300E09F
:10C23000DB1E012606FA05F1491E214099409E4069
:10C24000761E16403143F0BC05F030BF0CED00E027
:10C25000064900F0070208684FF6FF03184040EA5D
:10C260000220034A10430860704700000CED00E014
:10C270000000FA0510B52CA401461DCC86B08DE84F
:10C280001D002DA02D4C00680490002004292FD003
:10C290000BDC01292FD0022928D100F091F9616827
:10C2A000C1F38131491C49001EE0082920D0102922
:10C2B0001CD161682268D20118D5C1F38342C90339
:10C2C0001DF8020009D5616804AAC1F34041515C20
:10C2D0001B4AB2FBF1F1484301E01A494843616847
:10C2E000490203D440000321B0FBF1F006B010BDB9
:10C2F00000F076F9FAE7226AC2F30121012903D19D
:10C30000920701D5C803F1E7022905D1626A9207B5
:10C3100002D549F64040E9E70329E7D121688903BE
:10C32000E4D54FF22440E1E70203040506070809BB
:10C330000A0B0C0D0E0F101001020000001002403D
:10C3400000127A0000093D002DE9F8430546007807
:10C35000354CC00754D0E0690026C00008D4E0691D
:10C3600040F08050E061E069012600F080500090CC
:10C370002E480168C90512D40168804641F48071D5
:10C380000160FFF767FD074605E000BFFFF762FDAC
:10C39000C01B642823D8D8F80000C005F6D5206A51
:10C3A00010F4407021D0A98801F4407181421CD062
:10C3B000206A1F49012220F440700A6000220A60AE
:10C3C0002062C00711D0FFF745FD074641F28838CB
:10C3D00008E000BFFFF73EFDC11B414502D9032025
:10C3E000BDE8F883206A8007F4D5206A696820F4E4
:10C3F0004070084320621EB1E06920F08050E06187
:10C400002878800705D56068A96820F44040084373
:10C4100060602878C00605D56068696920F48000EE
:10C42000084360600020DBE700100240007000401D
:10C43000400442422DE9F0470F46050061D0434ECB
:10C44000306800F00700B84209D2306820F00700D9
:10C4500038433060306800F00700B84251D1286896
:10C460003B4C810712D5400703D5606840F4E0607B
:10C4700060602878000703D5606840F46050606011
:10C480006068A96820F0F000084360602878C00761
:10C4900028D06868012810D02168022810D08907A8
:10C4A00000292EDA616821F0030101436160FFF782
:10C4B000D1FC804641F288390DE021688903EFE71D
:10C4C0008901EDE7FFF7C6FCA0EB0801494502D959
:10C4D0000320BDE8F0876068696800F00C00B0EBED
:10C4E000810FEFD1306800F00700B8420BD93068F7
:10C4F00020F0070038433060306800F00700B84291
:10C5000001D00120E5E72878400705D56068E96893
:10C5100020F4E060084360602878000706D5606872
:10C52000296920F4605040EAC100606000F058F8CA
:10C530006168084AC1F30311515CC84006490860AC
:10C5400006480068FFF7CCFD0020C2E7002002404B
:10C5500000100240086301085C0000205400002025
:10C560000F2202600C4A536803F0030343605368D0
:10C5700003F0F0038360536803F4E063C360526820
:10C580004FF4E06303EAD20202610448006800F05D
:10C5900007000860704700000010024000200240C1
:10C5A0000448054900684968044AC1F30221515C06
:10C5B000C84070475C00002000100240186301086A
:10C5C0000448054900684968044AC1F3C221515C26
:10C5D000C84070475C00002000100240186301084A
:10C5E00012A185B00FC98DE80F0014A0144A00688D
:10C5F00004905168134801F00C03042B10D0082B51
:10C600000ED1C1F38343C9031DF803000AD5516855
:10C6100004AAC1F34041515C0A4A5043B0FBF1F017
:10C6200005B0704708494843FAE7000002030405D3
:10C63000060708090A0B0C0D0E0F1010010200006E
:10C640000010024000127A0000093D002DE9F84F69
:10C65000040070D02078C04DC00749D06868C0F38E
:10C660008100012807D06868C0F38100022809D141
:10C670006868C00306D52868800339D5606800283B
:10C68000E7D035E06068B0F5803F0BD010B1B0F571
:10C69000A02F11D0286820F480302860286820F46A
:10C6A000802002E0286840F480302860606890B103
:10C6B000FFF7D0FB06460AE0286840F48020286097
:10C6C000F0E700BFFFF7C6FB801B642873D828681B
:10C6D0008003F7D50CE0FFF7BDFB064605E000BF81
:10C6E000FFF7B8FB801B6428F0D828688003F7D4D4
:10C6F00020789A4E80074FF001094FF0000839D595
:10C70000686810F00C0F07D06868C0F38100022839
:10C7100009D16868C00306D42868800714D5206949
:10C72000012808D110E02069B0B1C6F80090FFF7E9
:10C7300091FB074605E00AE1FFF78CFBC01B0228CE
:10C74000C4D828688007F7D52868616920F0F80008
:10C7500040EAC10028600DE0C6F80080FFF77AFBD0
:10C76000074604E0FFF776FBC01B022823D82868A1
:10C770008007F7D4207800072CD57948A169D9B172
:10C78000C0F80090FFF766FB074604E0FFF762FB86
:10C79000C01B02280FD8686A8007F7D571484FF48C
:10C7A000FA510068B0FBF1F0009000BF0098411E04
:10C7B0000091FAD20EE080E0C0F80080FFF74AFB5B
:10C7C000074604E0FFF746FBC01B022875D8686ADD
:10C7D0008007F7D42078400760D5E8690027C000BB
:10C7E00008D4E86940F08050E861E869012700F06A
:10C7F000805000905C480168C90513D401688346E5
:10C8000041F480710160FFF725FB824606E000BF1E
:10C81000FFF720FBA0EB0A0064284ED8DBF80000ED
:10C82000C005F5D5E06801280AD008B1052813D065
:10C83000286A20F001002862286A20F0040002E043
:10C84000286A40F001002862E06841F2883B98B114
:10C85000FFF700FB82460BE0286A40F004002862E4
:10C86000EEE700BFFFF7F6FAA0EB0A0159455AD8E8
:10C87000286A8007F6D50CE0FFF7ECFA824605E05F
:10C88000FFF7E8FAA0EB0A0159454CD8286A80075F
:10C89000F6D41FB1E86920F08050E861E06988B300
:10C8A0006968C1F38101022944D00228C6F860807A
:10C8B00004D0FFF7CFFA044638E034E0FFF7CAFAB5
:10C8C000074604E0FFF7C6FAC01B02282BD82868E9
:10C8D0008001F7D4206AB0F5803F05D16868A1686F
:10C8E00020F4003008436860D4E90801084369680F
:10C8F00021F4741108436860C6F86090FFF7AAFA43
:10C90000044606E025E000BFFFF7A4FA001B02285A
:10C9100009D828688001F7D51BE000BFFFF79AFA15
:10C92000001B022802D90320BDE8F88F2868800187
:10C93000F4D40EE00128F7D06868226A00F4803150
:10C94000914204D1616A00F47010884201D0012044
:10C95000EAE70020E8E70000001002400000424241
:10C96000800442425C000020007000407047704725
:10C9700070B590F83C20012A2CD0012480F83C406E
:10C98000022280F83D2003685A689D6822F07006F4
:10C990000A6832435A60104B02689A420ED00F4B1D
:10C9A0009A420BD0B2F1804F08D00D4B9A4205D07D
:10C9B0000C4B9A4202D00C4B9A4204D1496825F0A4
:10C9C00080031943916080F83D40002180F83C10BD
:10C9D000084670BD022070BD002C014000340140AB
:10C9E0000004004000080040000C004010B50400A6
:10C9F00003D094F83D0010B107E0012010BD0020E5
:10CA000084F83C00204600F01FF8022084F83D0026
:10CA1000211D206803F0D8FD012084F8460084F829
:10CA20003E0084F83F0084F8400084F8410084F818
:10CA3000420084F8430084F8440084F8450084F8F8
:10CA40003D00002010BD000008B501682848B1F184
:10CA5000804F0BD0274A914210D1C16941F00201A9
:10CA6000C161C06900F00200009008BDC16941F0D9
:10CA70000101C161C06900F00100F5E71E4A914261
:10CA80000ED1C16941F00401C161C069002200F00A
:10CA90000400009005211E20FFF7BAFB1E2022E0B3
:10CAA000164A91420ED1C16941F00801C161C069C5
:10CAB000002200F00800009005213220FFF7A8FBBB
:10CAC000322010E00E4A9142CFD1C16941F01001ED
:10CAD000C161C069002200F01000009005213620DD
:10CAE000FFF796FB3620BDE80840FFF783BB000048
:10CAF000001002400004004000080040000C00400C
:10CB00000010004090F83D10012901D0012070472D
:10CB1000022180F83D100168CA6842F00102CA6033
:10CB200000680E4988420ED00D4988420BD0B0F102
:10CB3000804F08D00B49884205D00B49884202D06B
:10CB40000A49884204D1816801F00701062903D00F
:10CB5000016841F00101016000207047002C014094
:10CB6000003401400004004000080040000C004078
:10CB70000168CA6822F00102CA6001680A6A41F2CB
:10CB800011131A4207D10A6A9B101A4203D10A688C
:10CB900022F001020A60012180F83D100020704758
:10CBA00070B5044690F83C00012817D0012584F8A0
:10CBB0003C50022084F83D002068826822F0770211
:10CBC00022F47F4282600868502830D00DDC202893
:10CBD0004DD005DC98B310283BD148E0022070BD51
:10CBE000302844D0402834D139E0602828D070283B
:10CBF00006D0B0F5805F2CD0B0F5005F29D10AE0F7
:10CC0000CB68D1E90121206803F031FD20688168FB
:10CC100041F0770109E0CB68D1E90121206803F0F8
:10CC200026FD2068816841F48041816011E0CA6876
:10CC30004968206803F0F0FD5021206807E016E005
:10CC4000CA684968206803F0F8FD6021206803F095
:10CC500018FD84F83D50002084F83C0070BDCA687F
:10CC60004968206803F0D8FD40212068EFE722687A
:10CC700001461046EBE7704770B50446006801694D
:10CC80004FF00005C943890715D4C168C943890716
:10CC900011D4E91E01610120207720688069800796
:10CCA000204602D0FFF7E7FF04E000F0D3F820466B
:10CCB00000F08EF9257720680169C943490717D428
:10CCC000C168C943490713D46FF004010161022010
:10CCD00020772068806910F4407F204602D0FFF75B
:10CCE000CAFF04E000F0B6F8204600F071F925779D
:10CCF00020680169C943090716D4C168C9430907F7
:10CD000012D46FF008010161042020772068C06907
:10CD10008007204602D0FFF7AEFF04E000F09AF84B
:10CD2000204600F055F9257720680169C943C906F6
:10CD300017D4C168C943C90613D46FF0100101614B
:10CD4000082020772068C06910F4407F204602D078
:10CD5000FFF791FF04E000F07DF8204600F038F97D
:10CD6000257720680169C943C90708D1C168C9434B
:10CD7000C90704D1891E0161204600F0DDF9206851
:10CD80000169C943090609D4C168C943090605D424
:10CD90006FF0800101612046FFF7E8FD206801691E
:10CDA000C943490609D4C168C943490605D46FF08F
:10CDB00040010161204600F0E1F920680169C943A2
:10CDC00089060BD4C168C943890607D46FF02001D6
:10CDD00001612046BDE87040FFF7C9BD70BD00008D
:10CDE00000B585B000210091019102910391026884
:10CDF00014480221B2F1804F14D0134B9A420FD144
:10CE0000826942F0080282618069039100F00800A3
:10CE100004900120CDE9000169460C48FEF714FF9B
:10CE200005B000BD826942F004028261806903910D
:10CE300000F0040004900320CDE900016946044895
:10CE4000ECE700000010024000040040000C01402C
:10CE500000080140704770B50D46040003D094F8F7
:10CE60003D0010B107E0012070BD002084F83C00B7
:10CE7000204600F01BF8022084F83D00211D2068A8
:10CE800003F0A2FB2068016821F00801016054F85A
:10CE9000460B016829430160012004F81F09E07571
:10CEA0002076E0762077A075002070BD704770B5C1
:10CEB000044690F83C000D4601280AD0012084F871
:10CEC0003C0042B1042A18D0082A2AD00C2A4DD19D
:10CED00039E0022070BD206803F0DCFB2068816926
:10CEE00041F0080181612068816921F004018161BC
:10CEF000206881692A69114311E0206803F0FAFB78
:10CF00002068816941F4006181612068816921F4B0
:10CF100080618161206881692A6941EA0221816119
:10CF200024E0206803F01CFC2068C16941F008017E
:10CF3000C1612068C16921F00401C1612068C16933
:10CF40002A69114311E0206803F03EFC2068C169A2
:10CF500041F40061C1612068C16921F48061C1614F
:10CF60002068C1692A6941EA0221C161002084F870
:10CF70003C0070BD10B5040003D094F83D0010B122
:10CF800007E0012010BD002084F83C00204600F09E
:10CF90001EF8022084F83D00211D206803F014FBD8
:10CFA000012084F8460084F83E0084F83F0084F8AD
:10CFB000400084F8410084F8420084F8430084F87B
:10CFC000440084F8450084F83D00002010BD7047FF
:10CFD0007047000010B50446022249B104290ED062
:10CFE000082913D094F84100012816D0012010BD63
:10CFF00094F83E000128F9D184F83E200FE094F81F
:10D000003F000128F2D184F83F2008E094F8400066
:10D010000128EBD184F8402001E084F8412001226E
:10D02000206803F017FB13492068134A884201D097
:10D03000904203D1436C43F4004343642068884228
:10D040000DD090420BD0B0F1804F08D00B498842F0
:10D0500005D00B49884202D00A49884204D1816830
:10D0600001F00701062903D0016841F001010160C8
:10D07000002010BD002C014000340140000400409D
:10D0800000080040000C004030B5044600680D0068
:10D0900006D0042D08D0082D38D00C2D08D139E049
:10D0A000C16821F0020102E0C16821F00401C16001
:10D0B00000222946206803F0CDFA1D4B41F21111E0
:10D0C00020688A10984202D01A4B984209D1036A0C
:10D0D0000B4206D1036A134203D1436C23F400438D
:10D0E00043642068036A0B4206D1016A114203D1EE
:10D0F000016821F00101016001207DB1042D10D0F3
:10D10000082D11D084F84100002030BDC16821F005
:10D110000801CCE7C16821F01001C8E784F83E009F
:10D12000F2E784F83F00EFE784F84000ECE7000006
:10D13000002C01400034014010B5044600680B4942
:10D14000884201D1FEF7B2FF09492068884201D127
:10D1500008F01EF907492068884206D103F094FBC5
:10D16000BDE810400448FFF703BD10BD002C01408E
:10D1700000080040001000409C150020704738B5A2
:10D18000044690F83E0020281CD181B17AB194F871
:10D190003C00012816D0012084F83C002063204682
:10D1A00003F098FF002803D1216B012901D0012051
:10D1B00038BD21680A684A680092CA6842F01002C5
:10D1C000CA6038BD022038BD704710B504460068FB
:10D1D000416994F83D20C1F3C011212A0BD151B10E
:10D1E000416921F080014161606B08B1FEF798F957
:10D1F000204603F0AFFE2068416994F83E20C1F359
:10D200008011222A0BD151B1416921F040014161C5
:10D21000A06B08B1FEF784F9204603F083FE0020DE
:10D2200010BD10B5040014D0242084F83D002068FF
:10D23000C16821F40051C160204600F07DF9002052
:10D24000206484F83D0084F83E0044F8300F2073D9
:10D2500010BD012010BD00003EB5054600208DF830
:10D2600004002C682068C043000703D52068C04331
:10D2700080070AD42068606802900F48844205D174
:10D2800020686068009002F06DF83EBD0B48844253
:10D290000CD110210A48FBF72AF82068606800903A
:10D2A000102207492846FFF76AFF3EBD012201A967
:10D2B000284600F03BFB3EBD00480040004C0040CB
:10D2C000B4430020F8B5026804461068D168536979
:10D2D00010F00F0F4FF0000553D003F0010601F4DA
:10D2E0009077374360D0C20705D0CA0503D5226CBA
:10D2F00042F001022264420705D5DA0703D0226C0E
:10D3000042F002022264820705D5DA0703D0226CBC
:10D3100042F004022264020707D501F020023243E2
:10D3200003D0226C42F008022264226C002A3AD018
:10D33000800604D5880602D5204603F014FE206836
:10D340004069216CC0F38010090700D438B320462F
:10D3500003F0E8FD2068416949061BD5416921F0C9
:10D3600040014161A06BA8B159494163A06BFEF730
:10D37000FBF8002817D0A06B416B01B0BDE8F0406E
:10D380000847830610D58B060ED52046BDE8F84029
:10D3900003F0E9BD2046BDE8F840FFF75DBF204639
:10D3A000FFF75AFF2564F8BD266B2023012E52D1CA
:10D3B000C60650D5CE064ED510685068009050690C
:10D3C00040062AD5A16B086840680004000CEAD02A
:10D3D000A68D8642E7D9E0858869202818D0D068D4
:10D3E00020F48070D0602068416921F00101416122
:10D3F0002068416921F04001416184F83E30256395
:10D400002068C16821F01001C160A06BFEF788F8A8
:10D41000A08DE18D401A81B219E0A08DE18D401AF6
:10D4200081B2E08D0028BED00029BCD0D06820F4A5
:10D430009070D0602068426922F00102426184F855
:10D440003E3025632068C26822F01002C260204688
:10D45000FFF7BAFEF8BD05062BD50D0629D594F8C1
:10D460003D002128F6D1A068B0F5805F01D1206988
:10D47000B0B1206A411C2162216800784860E08CCC
:10D48000401E0004000CE084E4D12068C16821F053
:10D490008001C1602068C16841F04001C160F8BDF1
:10D4A000206A0088C0F308005060206A801C206257
:10D4B000E5E74006F3D54806F1D5D168204621F0CE
:10D4C0004001D16084F83D3000F023FBF8BD00003E
:10D4D000590E010870B5040004D094F83D000025F1
:10D4E00010B106E0012070BD84F83C50204600F0E9
:10D4F00089F8242084F83D002068C16821F4005197
:10D50000C160204603F08AFD2068016921F4904142
:10D5100001612068416921F02A0141612068C168E8
:10D5200041F40051C1602564202084F83D0084F856
:10D530003E00002070BD000070B50446274D036812
:10D54000274A28484FF44061AB420AD1D36923F4FB
:10D550000023D361FEF7E8FAA06BFEF79DF83420B4
:10D5600037E0214DAB420CD1D16921F48011D1615A
:10D570009914FEF7D9FA04211C48FEF7D5FA352094
:10D5800027E01B4D1B48AB4209D1916921F4804132
:10D5900091614FF4C061FEF7C7FA252019E0164DDE
:10D5A000AB4208D1D16921F40031D1610C21FEF7E1
:10D5B000BBFA26200DE0114883420ED1D06920F439
:10D5C0008020D0610E48FEF7AFFAA06BFEF764F83A
:10D5D0002720BDE87040FEF7FCBD70BD004C004048
:10D5E00000100240001001400050004000140140B3
:10D5F000003801400008014000440040004800405D
:10D60000000C01402DE9F04F85B0002400940194F6
:10D6100002940394054601688848874A0615DFF896
:10D6200020924FF002084FF4006A4FF0800B9142B5
:10D6300037D1C16941F40021C161C16901F4002100
:10D640000491816941F0100181618069CDE9006830
:10D6500000F01000CDE9038069464846FEF7F4FA71
:10D66000CDF800A0CDE9014869464846FEF7ECFA3E
:10D67000754E7448C6E90004C6E9024B3461746112
:10D68000B4613046F461FEF76BF908B1FDF79CF91F
:10D69000AE630022052134207562FEF7B9FD342007
:10D6A00032E06A4A0427914233D1C16941F48011C2
:10D6B000C161C16901F480110491816941F01001D7
:10D6C0008161816901F010010491816941F02001BB
:10D6D00081618069694600F0200004909014CDE9D2
:10D6E00000084846CDF80C80FEF7AEFACDE900748C
:10D6F00069465748CDF80880FEF7A6FA00220521B2
:10D700003520FEF785FD3520FEF774FD05B0BDE838
:10D71000F08F504ADFF84091914227D1816941F45E
:10D7200080418161816901F480410491816941F006
:10D73000040181618069694600F00400049050157D
:10D74000CDE900084846CDF80C80FEF77DFACDE91A
:10D75000006469464846CDF80880FEF775FA002255
:10D7600005212520FEF754FD2520CDE73B4A9142B7
:10D7700024D1C16941F40031C161C16901F40031B2
:10D780000491816941F0040181618069CDE90078EB
:10D7900000F00400CDE9038069464846FEF754FADC
:10D7A00008208DE8110169464846FEF74DFA00222F
:10D7B00005212620FEF72CFD2620A5E7284A9142C8
:10D7C000A4D1C16941F48021C161C16901F4802102
:10D7D0000491816941F0080181618069CDE90068A7
:10D7E00000F00800CDE903801E4E69463046FEF782
:10D7F0002BFACDF800A0CDE9014869463046FEF786
:10D8000023FA114E18484436C6E90004C6E9024B13
:10D8100034617461B4613046F461FEF7A1F808B177
:10D82000FDF7D2F8AE630022052127207562FEF7CE
:10D83000EFFC272068E70000004C00400010024089
:10D840000010014030040240C81800200050004081
:10D85000001401400038014000080140004400402D
:10D8600000480040000C0140300002402DE9F84F14
:10D87000044690F83E009A4616460D46202853D19D
:10D88000FDB1F6B194F83C0001284DD0012084F898
:10D890003C0000272764222084F83E002763FEF71F
:10D8A000D9FAA6858146E685A0684FF480584045A0
:10D8B00001D1206940B12E465FF0000584F83C702C
:10D8C00027E00120BDE8F88F0026F7E74B4600224D
:10D8D00020212046CDF800A003F04FFC08B1032022
:10D8E000F0E726B1A06840451BD038B108E02068B9
:10D8F0004068C0F3080025F8020B07E0206980B1FA
:10D900002068406800F07F0006F8010BE08D401EA3
:10D91000E085E08D0028D9D1202084F83E00002049
:10D92000D0E720684068EFE70220CBE790F83E3070
:10D93000202B0ED159B152B190F83C30012B08D0B8
:10D94000012380F83C300023036303F0FBBB01207C
:10D9500070470220704700002DE9F041064600683C
:10D96000384901270025384C884227D12089374A79
:10D97000010417D404F102014304097804D50A29EB
:10D980000CD140F400402BE00D2927D0C0F30D034B
:10D99000401C80B2D1542081632800D92581208980
:10D9A00000040BD52A49277010780968088020895F
:10D9B000C0F30D012548FAF79AFC25812549306806
:10D9C00088422DD1E08801041FD41F49420401F18F
:10D9D0000301097809D50A2913D103E040F48040F6
:10D9E0002081DCE740F4004027E00D2923D0C0F37C
:10D9F0000D02164B401CA83380B29954E080632876
:10DA000000D9E580E08800040AD52770E0880F4936
:10DA1000C0F30D02A83101F1EC00FAF74FFCE580EC
:10DA20000D49306888420AD10748001D0078BDE8DA
:10DA3000F04103F0D3BC40F48040E080E2E7BDE871
:10DA4000F081000000480040440000206C160020D7
:10DA50004C060020004C0040005000407047000081
:10DA60002DE9F843044690F83D001F4616460D4642
:10DA700020284CD1C5B1BEB194F83C00012846D055
:10DA8000012084F83C004FF00008C4F840802120B9
:10DA900084F83D00FEF7DEF9A6848146E684A0689E
:10DAA000B0F5805F03D004E00120BDE8F883206971
:10DAB00028B12E465FF0000584F83C800EE0002679
:10DAC000FAE78021204603F058FBA0B9AEB116F862
:10DAD000010B21684860E08C401EE084E08C4B46DE
