:020000040800F2
:10800000305E0020DD8100089BEB0008B9D200083B
:1080100069E4000849970008C50401080000000051
:108020000000000000000000000000004581000882
:108030000D9D00080000000089810008D1F30008B0
:10804000F7810008F7810008F7810008F781000830
:10805000F7810008F7810008F7810008F781000820
:10806000F7810008F7810008F7810008F781000810
:10807000F78100089D9C0008F7810008F78100083F
:10808000F7810008F7810008F7810008F7810008F0
:10809000F7810008F7810008F7810008F7810008E0
:1080A000F7810008DDF60008F7810008F781000875
:1080B000F7810008F7810008E9F60008F781000859
:1080C000F7810008F7810008F7810008F7810008B0
:1080D000F7810008310301085D03010899030108D5
:1080E000F7810008F7810008F7810008F781000890
:1080F000F7810008F7810008F7810008F781000880
:10810000F7810008F7810008F5F60008F7810008FC
:1081100081FF000885FF000819F70008F7810008B3
:10812000F7810008F7810008A99C0008F781000882
:10813000DFF80CD000F0ACFC00480047152901081E
:10814000305E0020224B19680868B0E8F00F80F319
:108150000988BFF36F8F4FF0000080F311884EF055
:108160000D0E70470000000006480068006880F3AC
:10817000088862B661B6BFF34F8FBFF36F8F00DF21
:1081800000BF00BF08ED00E0EFF30980BFF36F8F81
:108190000F4B1A6820E9F00F106008B54FF050003F
:1081A00080F31188BFF34F8FBFF36F8F0BF02EFE5C
:1081B0004FF0000080F31188BDE808401968086896
:1081C000B0E8F00F80F30988BFF36F8F704700BFEE
:1081D0005C000020EFF305807047000006488047F0
:1081E00006480047FEE7FEE7FEE7FEE7FEE7FEE79C
:1081F000FEE7FEE7FEE7FEE779F4000831810008BC
:10820000202A04DB203A21FA02F00021704721FAEB
:1082100002F3D040C2F12002914008431946704752
:1082200040EA01039B0703D009E008C9121F08C0F8
:10823000042AFAD203E011F8013B00F8013B521E78
:10824000F9D27047D2B201E000F8012B491EFBD2EF
:1082500070470022F6E710B513460A460446194651
:10826000FFF7F0FF204610BD10B5044604E00B7880
:1082700000F8013B03B1491C521EF8D2204610BD44
:10828000421C10F8011B0029FBD1801A704730B541
:1082900004460020034600E05B1C934203D2E05CEE
:1082A000CD5C401BF8D030BD70B50F4D00B92868CB
:1082B000002412E00A4602E09E4203D0521C1378CA
:1082C000002BF9D1DAB2224305D02BB124B1002121
:1082D00000F8011B04E00446401C0678002EE9D19A
:1082E0002860204670BD0000F808002070B50646E2
:1082F00008F05EFE046805460A220021304600F0C0
:10830000CBFA2C6070BD80EA010210B502F0004388
:10831000400022D04A001FD0010E01EB1261C0F3D1
:108320005600C2F3560240F4000042F40002A0FBE3
:10833000022000047F39140400D0401C50EA12408F
:1083400001D44000491EC2B20C0604EBD010401C00
:108350004008802A02D003E0002010BD20F0010078
:10836000002900DA0020184310BD30B480EA010271
:1083700002F0004530F0004221F0004013D090B1EF
:10838000C30DD40DC2F31601C0F31600E41A41F474
:10839000000140F400027D34914201D3641C00E0EE
:1083A0004900002C02DA30BC002070474FF4000076
:1083B0000023914201D3891A034340084FEA410147
:1083C000F7D151B1914202D14FF0004105E002D204
:1083D0004FF0010101E06FF0010103EBC4502844AC
:1083E00030BC00F091BA2DE9FE4F804681EA0300CF
:1083F000C00F0C46009021F0004123F00045B8EB7F
:108400000200A94105D24046214690461C460B4633
:10841000024623F00040104347D0270DC7F30A005F
:10842000C3F30A510290401A019040286BDAC3F35B
:10843000130040F4801B0098924620B10023D2EB39
:10844000030A63EB0B0B01985946C0F140025046FA
:1084500000F001FA06460D4650465946019A00F0D2
:1084600009FA10EB08006141002487EA115284EAFE
:10847000E7731A4340D0009A62B3019A012A4FEA87
:10848000075215DC001B61EB02014FF0004202EACB
:108490000752CDE90042001C41F5801132462B46BF
:1084A00000F078FA03B0BDE8F08F40462146F9E7C6
:1084B000001B61EB0201001C41F5801300185B41B9
:1084C0002018A2F5001747EB030140EAD570B61952
:1084D0006D4111E06D084FEA360645EAC0754FEA76
:1084E0000752001B61EB0201001C41F58011490895
:1084F0004FEA30000019514132462B4603B0BDE827
:10850000F04F00F038BA0098012240000023D0EB71
:10851000020263EBE073009821464FEAE074B8EB87
:10852000000061EB0401E9E783F000435BE781F0C1
:10853000004158E72DE9FE4F81EA030404F00044AE
:1085400021F0004100944FF0000B23F0004350EA6B
:1085500001045ED052EA03045BD0C3F30A54C1F3B2
:108560000A552C44A4F2F3340194A0FB0254C1F345
:10857000130141F48011C3F3130343F4801301FB8F
:10858000024400FB034E840A970A44EA815447EAF6
:108590008357A4FB076802958D0A05FB07854FEA00
:1085A000932C04FB0C542705029D4FEA065847EA1A
:1085B0001637B5EB08056EEB070C870E920E47EAEF
:1085C000811742EA8312A7FB0201B6EB0B0164EBB1
:1085D00000042B0D43EA0C335E1844EB1C50DA46C2
:1085E0005146E7FB0201C5F313044FEA0B3343EA9C
:1085F00014534FEA0432019C43EA0603A4F10C042D
:108600000294009CCDE900B400F0C4F903B0BDE8C9
:10861000F08F00200146F9E72DE9F04D81EA0304CF
:1086200004F0004B21F0004514464FF0000A23F0FF
:10863000004150EA050220D054EA01021DD0C5F3E2
:108640000A570246C5F31303C1F31300C1F30A56D8
:1086500040F4801543F48013A7EB0608101BD646A0
:1086600008F2FD3873EB050002D308F1010801E0C0
:1086700092185B41B8F1000F03DA00200146BDE813
:10868000F08D00204FF48011064684460EE0171B43
:1086900073EB050705D3121B63EB050306434CEA96
:1086A000010C49084FEA300092185B4150EA01077B
:1086B000EDD152EA030012D082EA040083EA0501F8
:1086C000084305D0101BAB4106D20122002306E06F
:1086D00000224FF0004302E06FF0010253101AEB4A
:1086E00006004CEB085110EB0A0041EB0B01BDE812
:1086F000F04D00F040B996230022114600F00DB96C
:108700000EB5C10F80EAE0700844CA07002140F2AC
:1087100033438DE80E000A460B4600F03BF903B0E8
:1087200000BD0EB540F2334102910021CDE90011A8
:108730000A460B4600F02EF903B000BD20F00040C1
:10874000C10DC0F3160040F400007F2901DA0020BB
:108750007047962903DCC1F19601C84070479639ED
:1087600088407047C1F30A5210B5C1F3130140F2BB
:10877000FF3341F480119A4201DA002010BD40F22B
:1087800033439A42A2F2334203DC5242FFF738FDF0
:1087900010BD904010BD00F0004230F000400AD003
:1087A000C10D01F56071C0F3160042EA0151C20823
:1087B00040071143704700200146704701F0004315
:1087C00030B421F0004150EA010206D00A0DA2F5B2
:1087D0006072C1F31301002A02DC30BC0020704734
:1087E000440F44EAC104C100E01830BC00EBC250A1
:1087F00000F08AB82DE9F05F0546002092469B46BE
:1088000088460646814640241BE0284641464746A6
:108810002246FFF7F5FC53465A46C01A914110D341
:1088200011461846224600F016F82D1A67EB01088B
:108830004F4622460120002100F00DF817EB0009F9
:108840004E41201EA4F10104DFDC484631462A4691
:108850004346BDE8F09F202A04DB203A00FA02F1EB
:10886000002070479140C2F1200320FA03F319431E
:1088700090407047202A06DBCB17203A41FA02F0DD
:1088800043EAE07306E041FA02F3D040C2F120026D
:1088900091400843194670472DE9F04791460F462D
:1088A00080460446002614F8015B2DB100F002F961
:1088B0000068405DC007F6D12B2D02D02D2D18D0B9
:1088C000641E4A463946204600F0F8F827B1396858
:1088D000A14201D1C7F8008071054FF002040BD509
:1088E0004042002803DD08F063FB0460A007BDE8F8
:1088F000F08746F48066E4E70028F8DA08F058FBD1
:1089000004606FF00040F2E70029A8BF7047401CE8
:10891000490008BF20F00100704710B4B0FA80FC95
:1089200000FA0CF050EA010404BF10BC704749B1D2
:10893000CCF1200421FA04F411FA0CF118BF012142
:1089400021430843A3EB0C01CB1D4FEA00614FEA22
:10895000102042BF002010BC704700EBC3501044F1
:108960000029A4BF10BC7047401C490008BF20F07C
:10897000010010BC704710B5141E73F1000408DA32
:10898000401C41F1000192185B411A4301D120F0D3
:10899000010010BD2DE9F04D92469B4611B1B1FA90
:1089A00081F202E0B0FA80F220329046FFF753FFE6
:1089B00004460F4640EA0A0041EA0B0153465A4674
:1089C000084313D0114653EA010019D0C8F1400200
:1089D0005046FFF715FC05460E465046594642469E
:1089E000FFF739FF084305D0012004E0204639464F
:1089F000BDE8F08D0020054346EAE0762C4337437E
:108A00000A986305E40AA0EB08000022FD0A44EA84
:108A100047540A3002D500200146E9E70105101944
:108A20006941DDE9084500196941BDE8F04DA2E75B
:108A300070B521F0004303430CD0C1F30A55002464
:108A4000D5EB040564EB0403D617AD1AB34102DB82
:108A50000020014670BD201841EB025170BD00009E
:108A600030B5041E71F1000404DB4FF000444042B5
:108A700064EB0101141E73F1000405DB1C464FF08A
:108A80000043524263EB04038B4208BF824230BD75
:108A9000064C074D06E0E06840F0010394E807004B
:108AA00098471034AC42F6D3FFF746FBF44D01086B
:108AB000144E0108004870479C4D01082DE9F05FF5
:108AC00082460078002715468B460AF10104B94614
:108AD000302801D09DB113E014F8010B012778284C
:108AE00003D0582801D045B10AE00DB1102D07D1AF
:108AF0000027102514F8010B02E0082500E00A25E4
:108B00000026B0460EE005FB080005FB06F1012734
:108B100001EB10461FFA80F8B6F5803F00D3B94646
:108B200014F8010B294600F018F80028EBDABBF125
:108B3000000F05D00FB1641E00E05446CBF8004092
:108B4000B9F1000F06D008F033FA02210160C81E07
:108B5000BDE8F09F48EA0640FAE73A2800D23038EC
:108B600020F02002412A01D3A2F13700884201D32C
:108B70004FF0FF30704770B58C1810F8015B15F09E
:108B8000070301D110F8013B2A1106D110F8012B7F
:108B900003E010F8016B01F8016B5B1EF9D12B07A4
:108BA00005D40023521E0DD401F8013BFAE710F85A
:108BB000013BCB1A921C03E013F8015B01F8015B47
:108BC000521EF9D5A142D8D3002070BD70B504461D
:108BD00000688168C943C90717D1816821F0010184
:108BE000816002F0FFFC05460AE000BF02F0FAFCDB
:108BF000401B022804D920688068C043C00706D003
:108C000020688068C043C007F0D0002070BDA06A13
:108C100040F01000A062E06A40F00100E062012034
:108C200070BD0000F8B50026044600960068816813
:108C3000C943C9072DD0816841F001018160164800
:108C400016490068B0FBF1F000E0401E00900028DB
:108C5000FBD102F0C7FC054616E000BF02F0C2FCE3
:108C6000401B022810D920688068C043C0070BD081
:108C7000A06A40F01000A062E06A40F00100E062EB
:108C800084F824600120F8BD20688068C043C007D4
:108C9000E4D10020F8BD00005800002040420F0041
:108CA0002DE9F041012007F033F82C4C4FF4FA760F
:108CB000A1886088814207D0B04200D96680608870
:108CC00000F030FD6088A08006F0E8FC0025012758
:108CD00048B906F0D3FC10B906F076FCC0B102200A
:108CE00006F0EAFAA0B120780028608806D068B1C2
:108CF0000A2809D90A386080BDE8F081B04201D263
:108D00000A30F8E72770F7E76580F5E72570F3E7A5
:108D100006F09AFC40B120780028608801D050B954
:108D2000F4E7B04210D3EDE706F09EFC002860881F
:108D300004D00028E0D004280ED8E5E7B04207D2DE
:108D4000C0F5FA71042901DD001DD4E76680D3E780
:108D5000A0F5FA710429F9DD001FCCE7C007002057
:108D600010B5002000F0DEFC064C01221021204648
:108D700002F033FC20460122BDE81040202102F021
:108D80002CBC0000000C014010B504F0E1FE04F022
:108D9000F3FE05F005F800F093FD08B107F06AFE58
:108DA00006F024FE06F012FEBDE8104006F096BF65
:108DB00010B5234C4FF400612068FFF74AFA216890
:108DC0001520214C08801F49032009680880216B69
:108DD0000520088000202070606AD4F80610016029
:108DE000A06AD4F80A10016006F0A2FAC82204F1C1
:108DF0006C012069FFF714FA2069C82204F59A7102
:108E0000C830FFF70DFA2069C82204F5FE7100F59D
:108E1000C870FFF705FA2069C82204F5317100F522
:108E20001670FFF7FDF92069C82204F5637100F59B
:108E30004870FFF7F5F9BDE8104007F01BBE0000D1
:108E40008001002090010020BC0100202DE9F041AC
:108E5000082006F05DFF244D244C00262868008879
:108E6000D8B10221B1EB102F10D8C1B2217004F19A
:108E7000180200201E4C6323175C8F4201D144F876
:108E80002030401CC0B20828F6D300E0207000F06B
:108E90003BF828680680BDE8F08104F06FFBE071C4
:108EA000217881421CD1207A401C10F0FF002072F2
:108EB000F1D000F04BFC2079AA2803D0BDE8F041A6
:108EC00000F022B820780028E5D0012000F06CFCEA
:108ED0006078217808436070BDE8F04104F00CBE72
:108EE00020702672D7E7000008020020CC0700207F
:108EF000B846002010B50F2004F0FEFDBDE810407C
:108F0000012000F051BC00002DE9F041384D3949F5
:108F10002869401C28610978002967D06969963161
:108F2000884202D9012006F017FE0024304F324E4D
:108F30001837A046385D297888422BD12F49096817
:108F4000C1F8008028696861002006F005FE56F827
:108F50002400401C46F82400642841D100F02CFC79
:108F60002878012801D0022804D156F82400401E98
:108F700046F8240006F05CFB08B1214806E006F044
:108F800023FB08B11F4801E01948603050F8240065
:108F9000804725E06978884220D156F8240064286B
:108FA0001ED200F009FC06F043FB08B1164803E0AE
:108FB00006F00AFB20B1154850F82400804707E06E
:108FC0000B48403050F824008047002006F0A0F8FD
:108FD00006F04AFB10B1385D06F026F946F8248009
:108FE000641CE4B2082CA5D328786870BDE8F08131
:108FF000CC07002010060020B846002010020020F8
:109000009C060020040700207C060020E4060020C7
:1090100010B5102006F07CFE214C42F21072E06880
:10902000401CE0606188914201D2491C00E00021AF
:10903000618040F2DC51884203D9A18841F480610B
:10904000A1804FF49671B0FBF1F201FB12021AB944
:10905000884201D305F016FC61880A20B1FBF0F2CA
:1090600000FB1212062A11D0B1FBF0F200FB121223
:1090700082B1B1FBF0F200FB121003280ED1207870
:1090800000280BD0BDE8104005F04EBABDE81040F6
:1090900005F02CBBBDE8104005F05CBA10BD000027
:1090A0008808002010B50021032001F007FA214CA8
:1090B0006080401EFE2805D3152262800021032017
:1090C00006F030F80121032001F0F8F9A080032810
:1090D00005D90322A2800121104606F023F80221BF
:1090E000032001F0EBF9E080072805D90722E28090
:1090F0000221032006F016F80421032001F0DEF916
:109100002081082805D9082222810421032006F0A5
:1091100009F80521032001F0D1F96081012807D960
:10912000012262810521BDE81040032005F0FABF4D
:1091300010BD00006406002010B506F0E1FD04F04B
:1091400031FE074C2078AA2803D0BDE8104000F07B
:109150001FB806F00DFA06F0F9F90020207010BDD6
:10916000D0070020084910B50220087006F085F9E4
:1091700000F0FEFD0549AA20087008F0CFF9BDE80F
:10918000104006F0C1B90000B80100201006002010
:1091900070B53E4CE068401CE06007F0EBF900F071
:1091A00065FAE068142868D30026E6602069384D27
:1091B000401C2061E079012805D00120E07105F014
:1091C00071FBF0B127E03348E67100680168491C83
:1091D0000160314800680168491C01602F4800683F
:1091E0000168491C016006F00BFA40B328780121A0
:1091F00040F008002870084606F0FCFC06F022FC4F
:109200003BE02878002120F008002870012006F0BB
:10921000F1FC06F017FC04F0A7F810B101F068F8B3
:109220002BE0E66101F002FA112803D106F078FD87
:1092300004F0E0FA06F0D4F910B104F005F91CE0EE
:1092400006F02CFA10B100F085F816E006F016FAD8
:1092500010B105F095FD10E006F0F6F910B105F03B
:109260002BFD0AE006F02AFA10B106F02BF804E014
:1092700006F0DEF908B105F001FD6079002803D1A0
:10928000BDE8704004F0B6BA70BD00004C08002084
:10929000B80100200C02002010020020140200205F
:1092A00010B5012006F000F806F09AF9002820D148
:1092B00006F0F4F90F4918B108680188491E13E057
:1092C00006F0DCF918B108680188891E0CE006F088
:1092D000BBF918B108680188C91E05E006F0EEF96F
:1092E00018B108680188091F0180BDE8104000F02E
:1092F000CFBC10BD1806002010B5012005F0D4FF2A
:1093000006F06EF9124918B108680188C91C17E007
:1093100006F0C4F918B108680188891C10E006F04D
:10932000ADF918B108680188491C09E006F08CF90C
:1093300000280CD106F0C2F918B108680188491E4E
:10934000018000F05BFCBDE8104000F0A1BC10BD46
:109350001806002010B5012005F0A6FF06F040F920
:10936000124920B109680888801C088018E006F0BE
:1093700095F918B108680188491C10E006F07EF9DB
:10938000002811D106F060F918B108680188491E5B
:1093900005E006F093F918B108680188891E01807C
:1093A000BDE8104000F074BC10BD0000180600209D
:1093B00010B5012005F078FF06F012F9144918B134
:1093C00008680188091D13E006F068F918B10868FB
:1093D0000188C91C0CE006F051F918B10868018831
:1093E000891C05E006F030F920B108680188491CA5
:1093F000018003E006F062F9002808D1002005F0A2
:109400000BF900F0FBFBBDE8104000F041BC10BDC3
:109410001806002010B50E4C608830B1022809D023
:1094200006280AD010280CD00EE0032109A005F070
:1094300065FE09E000F0E4F806E0002000F0C2F864
:1094400002E0F32000F098F86088401C608010BDB6
:10945000920700202B2B2B0000B5012000F0AAF86A
:1094600001490020488000BD920700200148007893
:10947000704700009207002010B51E4B01221521F5
:109480001D4805F05EFA0021032001F001F80246B4
:109490004FF4806423460321174805F019FA002190
:1094A000042000F0F5FF024630230421124805F0A5
:1094B0000FFA0021032000F0EBFF024623460621AD
:1094C0000D4805F005FA0021032000F0E1FF0246F7
:1094D00023461021084805F0FBF90021032000F085
:1094E000D7FF23460246BDE810400521024805F09B
:1094F000EFB90000FDF000087843002010B500200F
:1095000000F090F84FF47A7009F04AFEF32000F072
:1095100033F84FF4FA6009F043FEBDE81040012033
:1095200000F080B8014805F023BB0000784300201C
:109530000D4910B591F80622002A11D1012281F8B7
:1095400003220022A1F8002291F8054201F5807360
:10955000E05491F80502FF2803D2401C81F805026F
:1095600010BD81F8052210BD78430020014805F0A8
:10957000F9B900007843002010B588B004462021D6
:109580006846FEF766FE224606A1684607F0ECFC38
:109590006846FEF775FE0146684605F0AFFD08B067
:1095A00010BD000041542B424C454D54553D25649F
:1095B0000D0A0000032801D8014908707047000017
:1095C0009207002010B588B0044620216846FEF7B7
:1095D00040FE224606A1684607F0C6FC6846FEF734
:1095E0004FFE0146684605F089FD08B010BD000039
:1095F00041542B424C454D4F44453D25640D0A00D6
:1096000000B589B0202206496846FEF709FE684683
:10961000FEF736FE0146684605F070FD09B000BD54
:109620001448010810B588B0044620216846FEF7AA
:1096300010FE6CB108A1684607F096FC6846FEF77C
:109640001FFE01464FEA0D0005F058FD08B010BDA1
:10965000032105A0F8E7000041542B5452414E531A
:10966000454E5445520D0A002B2B2B0070B5FFF7C9
:10967000FDFE00261E4C1F4D03280CD0E868142860
:1096800014D3FFF7F3FE012811D0FFF7EFFE0228F5
:10969000AE612BD025E0AE612078C10703D100BFB9
:1096A00040F0010001E020F00100207070BDFFF7E4
:1096B000B1FEA86910B12969884201D92869A86159
:1096C0002969C80705D12078C2070CD020F0010015
:1096D0002070A869081A7828E8D90020AE61FFF741
:1096E00069FF2078DFE740F00100F1E72078D7E755
:1096F000B80100204C080020FFF732FB044802F0BC
:1097000096F8FFF7CDFA142009F04AFDF6E70000BD
:10971000D81300204FF4FA7000F004B8002000F0D5
:1097200001B8000070B5074D04460021A86803F099
:1097300073F8A86801684C63BDE87040002103F02D
:1097400011B80000C0070020FEE7000070B5154CFE
:10975000607901280BD002280CD00A281BD9A179E6
:10976000002551B101290CD002290DD013E006F0DB
:1097700039F910E006F021F90DE006F033F96571D2
:1097800070BD142802D806E0282804D906F02AF96A
:109790006571A57170BD60790028FBD0401C6071B7
:1097A00070BD0000CC07002002498871012048717B
:1097B00070470000CC07002010B505F055FF0028C9
:1097C00004D10348012141710021817110BD0000C5
:1097D000CC07002010B504460821064803F01CF809
:1097E00004480068C463BDE810400821014802F045
:1097F000B9BF00002C14002030B5ADF5017D0D4639
:1098000004464FF400720B496846FEF709FD00203C
:10981000694608E014F8012B82EA102231F8122080
:1098200082EA002080B26D1EADB2F3D20DF5017D4B
:1098300030BD0000804A010810B506F071FA05F04D
:1098400013FF08B105F060FEBDE8104003F0D2BF81
:109850000021002830D0421E262A2CD8012809D009
:10986000022807D0042807D0A0F10F01032905D84A
:10987000042120E001211EE002211CE0032805D084
:10988000A0F11E01072903D8102114E0082112E0DD
:10989000262808D0052808D0A0F11B01022906D8E7
:1098A0004FF4006107E0202105E0402103E0272874
:1098B00003D04FF40071084670474FF48071FAE707
:1098C0002DE9F041394C00252E46206D2A460560D1
:1098D000606D0560A06D0560E06C0580606A0088C1
:1098E00003F02DFE20B9606AD4F80610012601604D
:1098F000A06A008803F023FE20B1A06A408803F02C
:1099000025FE20B9A06AD4F80A1001260160216B57
:1099100005200B885B1E082B02D30880012600E07F
:109920005EB1234B15211B681980224B03211B6854
:109930001980216B0880E06A028005F0F9FC4FF481
:109940007A7705EBC500002200EB0513206900EBD8
:10995000C30030F8220003F0F2FD98B1206900EB5B
:10996000C30000EB8200408803F0F0FD50B18AB1E3
:10997000206900EBC30000EB8200418830F8020C44
:10998000814207D809493A466C312069FEF748FC04
:10999000012603E0521CD2B2322AD7D36D1CEDB29D
:1099A000052DCED33046BDE8F0810000BC0100207B
:1099B0008001002090010020134910B54A69531C12
:1099C000552808DB122A01D24B6110BD888840F06F
:1099D0004000888010BD502807DB092AF4D300F02E
:1099E00031FE0028F6D101200AE04B28F2DC12B14A
:1099F0000020486110BD00F025FE0128FAD10020AA
:109A0000BDE8104005F00ABC8808002070B5054686
:109A100000F0E0FD154CA84209D8A069122801D237
:109A2000401C18E0A08840F00200A08070BD00F04B
:109A3000D6FDA84208D8A0690928F1D300F002FE9B
:109A40000028F3D103200DE000F0CEFDA842EDD3B5
:109A5000A06910B10020A06170BD00F0F3FD0328E3
:109A6000FAD10020BDE8704005F0D8BB880800207E
:109A700010B504460A4800680078A0420ED000F0F5
:109A8000BDF800F005F900F045FB204603F028FD85
:109A9000002803D0BDE8104000F092BC10BD0000CB
:109AA0001806002010B50522064B002133F811409E
:109AB000844201D1012010BD491C89B29142F5D3E5
:109AC000002010BD7C08002070B505F0CDFD18B158
:109AD000BDE8704005F018BD05F0B6FD244C40B15E
:109AE000E069A16900880880BDE87040002000F0AE
:109AF000F7B805F0D9FC002520B1606AE16900885B
:109B0000088027E005F0E8FC40B1A06AE169008820
:109B10000880A06A216A408808801DE005F0E8FC02
:109B2000D0B100F089FD03F003FD10B9012005F06C
:109B300055FB257000F080FD00EBC00101EB00102B
:109B4000216901EBC000E16930F8C80C088005F01C
:109B5000B5FD08B9206A058004F0A4FE20B10220FA
:109B600005F09AFBE0690078BDE8704004F054BD50
:109B7000BC0100200D4810B50068A0F50061B1F5EA
:109B8000E04F11D80A490B4C0144801EB1F8FE1F6A
:109B900049BA218081B2084809F0D6FE6080218848
:109BA000814201D1012010BD002010BD04780008C1
:109BB00000300208AC0100200040020810B5044645
:109BC00017290CD0102916D110220B49FEF75FFB84
:109BD000002810D10220BDE81040FFF7EBBC064979
:109BE00017221739FEF753FB0028F4D00249172239
:109BF0002E392046EAE710BD624801080148016994
:109C0000016270474C0800200149002088707047AD
:109C10004C08002010B500F033F811490020096805
:109C200008801049087048700F480068007805F0F7
:109C3000B5FA0E480068007805F0D0FA0C480D4AD5
:109C400001681268098811800B490C4A096812687A
:109C50000988118000680078BDE8104000F040B825
:109C600050060020BC06002020060020240600200C
:109C700028060020D80100202C060020DC0100204E
:109C800002480021C16081807047000088080020E0
:109C900001490020886070474C080020014801F00D
:109CA00003B9000074180020014801F0FDB800005D
:109CB0003018002030B590F840500124AC40C56BFE
:109CC0006C60046863604368102B036803D099607C
:109CD0000068C26030BD9A600068C16030BD00009D
:109CE00010B50446012005F0E7FA00280AD106481D
:109CF000C0690480204604F08FFCBDE810400220BB
:109D000005F0CABA10BD0000BC01002070477047C2
:109D100010B586B00446142213496846FEF780FA4F
:109D20004FF4E130042C0FD0012C0FD0022C15D0B1
:109D3000032C09D0052C07D0601E042811D86846D2
:109D400000EB840050F8040C06B010BD0749032056
:109D50000969088005481430C068F5E74FF41650CB
:109D6000F2E70020F0E70000E04701088001002052
:109D700010B5124C20680078C0074FF0050002D0E3
:109D800000F054F801E000F0D1F920680078800775
:109D90004FF0010002D500F049F801E000F0C6F9EB
:109DA0002068007840074FF0020003D5BDE810405E
:109DB00000F03CB8BDE8104000F0B8B9E801002060
:109DC00010B50021032000F063FB104C012120603E
:109DD000032000F05DFB20610120FFF799FF0021C7
:109DE000042000F055FB60600121042000F050FBCE
:109DF000A0600221042000F04BFBE0600221032060
:109E000000F046FB0249086010BD00008001002000
:109E1000E8010020044909680988014201D00120B5
:109E20007047002070470000E8010020012811D091
:109E30006FF0200102280FD003280FD0042816D07D
:109E4000052813D10B480268D36823F02003D360A0
:109E500000680AE007F0BABE074A00E0074A106847
:109E6000C36823F02003C360106801607047044A90
:109E7000F5E7000024170020901500203816002078
:109E8000E016002010B50446800703D5FF21052009
:109E900005F00AFFE00705D0FF21BDE810400420CF
:109EA00005F002BF10BD10B50446400703D50021E0
:109EB000072005F09FFEA00703D5FF21072005F02E
:109EC000F3FEE00705D0FF21BDE81040062005F0B5
:109ED000EBBE10BD10B5FF21052005F0E5FEFF210A
:109EE000BDE81040042005F0DFBE70B505460A2429
:109EF000B0FBF4F0B0FBF4F104FB1101052005F018
:109F0000D3FEB5FBF4F004FB1051BDE87040042013
:109F100005F0CABE70B50446642802D94FF0640447
:109F200000E002D34FF0010101E04FF000014FF0DB
:109F3000070005F05FFE0A25B4FBF5F0B0FBF5F174
:109F400005FB1101072005F0AFFEB4FBF5F005FBA2
:109F50001041BDE87040062005F0A6BE70B504466D
:109F60004FF47A70B4FBF0F00A25B0FBF5F105FB75
:109F70001101002005F098FE6420B4FBF0F0B0FB66
:109F8000F5F105FB1101012005F08EFEB4FBF5F0A3
:109F9000B0FBF5F105FB1101022005F085FEB4FBD5
:109FA000F5F005FB1041BDE87040032005F07CBED4
:109FB00010B504464521002005F04EFEC4F30321F0
:109FC000012005F071FEC4F30311022005F06CFEC0
:109FD00004F00F01BDE81040032005F065BE70B528
:109FE00005460A24B0FBF4F0B0FBF4F104FB1101C8
:109FF000002005F059FEB5FBF4F004FB1051BDE85C
:10A000007040012005F050BE10B5044650210520D7
:10A0100005F022FE0A20B4FBF0F100FB1141BDE87F
:10A020001040042005F040BE70B50446642802D9F3
:10A030004FF0640400E002D34FF0010101E04FF063
:10A0400000014FF0070005F0D5FD0A25B4FBF5F03F
:10A05000B0FBF5F105FB1101072005F025FEB4FB6F
:10A06000F5F005FB1041BDE87040062005F01CBE70
:10A0700070B505460A24B0FBF4F0B0FBF4F104FB24
:10A080001101022005F010FEB5FBF4F004FB1051A5
:10A09000BDE87040032005F007BE70B50446642893
:10A0A00002D94FF0640400E002D34FF0010101E057
:10A0B0004FF000014FF0070005F09CFD0A250A2C27
:10A0C00001D2FF2105E0B4FBF5F0B0FBF5F105FB93
:10A0D0001101072005F0E8FDB4FBF5F005FB104188
:10A0E000BDE87040062005F0DFBD70B505460A24C6
:10A0F000B0FBF4F0B0FBF4F104FB1101052005F016
:10A10000D3FDB5FBF4F004FB1051BDE87040042012
:10A1100005F0CABD04480021016141618161C1614E
:10A12000084605F07BB800008808002010B501281B
:10A1300010D06FF02004022810D0032815D0042876
:10A140001CD0052819D101221049114802F0CFFF77
:10A150000F4810E0BDE8104007F048BD01220D494E
:10A160000D4802F0C4FF0C4805E001220B490C48E1
:10A1700002F0BDFF0A480068046010BD01220949D1
:10A18000094802F0B4FF0848F5E700004400002049
:10A1900024170020410000209015002042000020DC
:10A1A0003816002043000020E016002072B6FEE7BB
:10A1B00070B50D4E0546304609F04CFB002812D113
:10A1C0000A4C206940F0020020616561206940F07E
:10A1D00040002061304609F03DFB012803D0206992
:10A1E00020F00200206170BDFFFF5F0000200240F0
:10A1F000044B0022DA61044A136943F0010313613E
:10A2000001807047001900200020024014480022FD
:10A21000C168CB06134904D5CA6942F00202CA617B
:10A220001022C3685B0705D5CB6943F00103CB61FE
:10A2300042F00402C369DB0707D0CB6943F0040393
:10A24000CB61C16921F00101C161A2F580710139C1
:10A2500001D0C2607047C16921F00101C16170473E
:10A26000002002400019002070B5054601F0BAF93F
:10A270000646114C09E0681C07D025B101F0B2F97F
:10A28000801BA84201D9032070BDE068C007F2D14D
:10A29000E068800601D52020E060E068C00605D4B3
:10A2A000E069C00702D1E068400703D5FFF7AEFFC1
:10A2B000012070BD002070BD00200240B0F5805F1D
:10A2C00001D300207047012070470000064800B508
:10A2D0000068008800F05CF9044908704A788242FE
:10A2E00001D90120487000BD50060020BC060020A6
:10A2F00010B500F09BF9112802D005F025FD25E0EE
:10A3000005F062F910B303F025F8F8B900F072F91E
:10A31000B0F5806F1AD01448427801698A1AB2F5F4
:10A32000E15F02D9002202704170C2690AB18A421B
:10A3300003D9C161427802B94170C269891AF02912
:10A3400004D90178491C0170FFF776FA04F02CF962
:10A3500030B1022004F0B0FF10B1022004F0A4FFDD
:10A36000BDE8104006F056B84C0800200448002113
:10A37000C26D1180026E1180406E01607047000056
:10A38000BC01002010B50C4CE16D0A881044088017
:10A39000E0690088142801D3216E088000F0A4F839
:10A3A0000649097848436421B0FBF1F1606E026808
:10A3B0001144016010BD0000BC010020880800208D
:10A3C00010B506F081F8BDE81040FFF7CFBF0000E0
:10A3D0000D4810B5006808F019FF0C48006808F037
:10A3E00015FF0B48006808F011FF0A48006808F0E4
:10A3F0000DFF0948006808F009FF08480068BDE83B
:10A40000104008F003BF00002C00002020000020B6
:10A41000240000202800002030000020340000200C
:10A42000094810B5006808F00BFF0848006808F0FC
:10A4300007FF0748006808F003FF06480068BDE80A
:10A44000104008F0FDBE00002C000020200000207D
:10A450002800002034000020094810B5006808F0EA
:10A46000EFFE0848006808F0EBFE0748006808F0B7
:10A47000E7FE06480068BDE8104008F0E1BE0000B5
:10A480002C000020200000202400002028000020B4
:10A49000032802D0042805D00BE0B1F5806F08D85E
:10A4A000054803E0302904D80348623800EB410036
:10A4B00070470020704700003A470020032802D070
:10A4C000042805D00BE0B1F5806F08D8054803E0FB
:10A4D000302904D80348623830F811007047002052
:10A4E000704700003A47002010B500F063F8A0283C
:10A4F00003D0C82803D0B42010BD822010BDA020F6
:10A5000010BD000070B5092003F08AFC134C606890
:10A5100000F012F9606800F06BFB0721606800F042
:10A52000C9FA606800F0F2F9800503D5606800F0B0
:10A53000EFF905467C2D02D9B5F57A6F06D3208850
:10A54000411C21800A2803D9054870BD00202080C5
:10A550002846BDE8704000F07BB800009807002056
:10A560000000C8C230B500231A46012505FA02F4DE
:10A57000044206D05B1CDBB2994202D1521CD0B21D
:10A5800030BD521CD2B2102AF0D3002030BD0000E2
:10A59000024610B5002001465FF0010404FA01F301
:10A5A000134201D0401CC0B2491CC9B21029F5D3D6
:10A5B00010BD000010B500F0A3F80549042808708C
:10A5C00003D2091D51F8200010BDE62010BD000087
:10A5D000AC07002010B5FFF7EDFF462010BD10B509
:10A5E000FFF7E8FF412010BD10B5FFF7E3FF3C2067
:10A5F00010BD0000014880887047000088080020D6
:10A6000010B5FFF7D7FFA02804D0C82805D042F224
:10A61000166010BD41F6B64010BD42F2341010BDB8
:10A6200010B5FFF7C7FF40F6AC5010BD01480068F9
:10A6300000787047180600200148006800787047CD
:10A640001C0600200148C078704700004C0800201C
:10A650002DE9F041FEF74FF8FEF79DF84FF0663810
:10A6600042461C4BFDF766FFFEF7A8F80546FEF7CD
:10A6700092F84246184BFDF75AFF184E07460C4613
:10A6800031462846FDF73FFEFEF785F83A46234659
:10A69000FDF7C2FFFEF792F83146FDF766FEFEF7C2
:10A6A0007AF807F089FF00220D4BFDF7B5FF0D4A40
:10A6B0000D4BFDF798FE02460B4600200B49FDF7B7
:10A6C000ABFF42460A4BFDF72FFFBDE8F041FEF716
:10A6D00075B8000066664A3F66660A400000204181
:10A6E00000DCAE4083DBB5DCE1796B3F0000F03F7E
:10A6F000661271400148007870470000E4080020AD
:10A700002DE9F04100250B4E2C46012706EBC40035
:10A71000818856F8340000F05BFF18B907FA04F09E
:10A720002843C5B2641CE4B2042CEFD32846BDE82C
:10A73000F081000000000020F8B5002504460095D7
:10A7400090F82400012808D0012084F82400204635
:10A75000FEF73CFA060002D053E00220F8BDA06AE2
:10A7600020F4885040F00200A062022001F04AF973
:10A7700026490968B1FBF0F0400000E0401E00905F
:10A780000028FBD12046FEF74DFA2068816841F091
:10A790000801816000F026FF074608E000F022FF74
:10A7A000C01B0A2803D920688068000715D42068D8
:10A7B00080680007F2D42068816841F0040181605C
:10A7C00000F010FF074612E000F00CFFC01B0A2843
:10A7D0000DD920688068400709D5A06A20F00200E2
:10A7E00040F01000A06284F824500120F8BD2068D9
:10A7F00080684007E8D4A06A20F0020040F0010021
:10A80000A06284F824503046F8BD000058000020B3
:10A81000F8B50024009490F824202546012A12D08F
:10A82000012280F824204A681F23072A0DD20668D7
:10A83000776B521E02EB820293409F430B6893405A
:10A840001F43776319E00220F8BD06680D2A0AD27B
:10A85000376BD21F02EB820293409F430B689340F9
:10A860001F43376309E0F76A0D3A02EB8202934017
:10A870009F430B6893401F43F7620A6807230668EB
:10A880000A2A0AD3F7680A3A02EB420293409F432E
:10A890008B6893401F43F76008E0376902EB420280
:10A8A00093409F438B6893401F4337610A68102A87
:10A8B00001D0112A20D1124B02689A4217D1936815
:10A8C0001B0219D4936843F40003936009681029AC
:10A8D00012D10C490C4A0968B1FBF2F101EB81017C
:10A8E000490000E0491E00910029FBD104E0816A83
:10A8F00041F020018162012480F824502046F8BDF7
:10A90000002401405800002040420F00806A704738
:10A910000068C06C704700002DE9F04104004FF062
:10A9200000057FD0A06A002628B9E66284F824607A
:10A93000204600F081F82046FEF748F9A16AC906D2
:10A9400000D420B1A06A40F01000A0626AE0A16AC1
:10A9500021F4885141F00201A162334923688B42FE
:10A96000E16904D1B1F5402F01D14FF40021277BDB
:10A970004FF4807C41EA470261680A43A16861455F
:10A9800008D0012906D0002194F814E0BEF1010F8F
:10A9900002D00AE06146F7E7C7B1A76A47F020078F
:10A9A000A762E76A47F00107E7625F6827F4694733
:10A9B0000F435F60236899681C4F394011439960C9
:10A9C000A16861450BD0012909D00CE0DFF860E0F7
:10A9D000A7690EEB47370F4347F40061E5E7218A8B
:10A9E0000D05A5F580152168CB6A23F470032B4370
:10A9F000CB62216889680F4B1940914208D1E66209
:10AA0000A16A21F0020141F00101A162BDE8F081DB
:10AA1000A06A20F0020040F01000A062E06A40F05E
:10AA20000100E0620120F1E7003C0140FDF7E1FF99
:10AA300000E0FFFFFE0E1FFF10B586B00021009161
:10AA400001910291039100681649884227D1164866
:10AA5000816941F480618161816901F480610491BF
:10AA6000816941F004018161816901F0040104916F
:10AA7000816941F0080181618069032400F00800C8
:10AA800004906020CDE900046946084800F0A4FC69
:10AA90000220CDE900046946054800F09DFC06B09F
:10AAA00010BD0000002801400010024000080140D5
:10AAB000000C01402DE9F84300270D46044600979D
:10AAC00000F090FD804620688168C90508D5A06A1D
:10AAD00040F02000A06284F824700120BDE8F883D3
:10AAE0004168C90503D4C06A10F4700F2AD002204F
:10AAF00000F088FF3B490968B1FBF0F62068036964
:10AB000039490B424FEA61014FEAA1121FD1C368D4
:10AB10004FEA611C13EA0C0F19D103690B4225D1CE
:10AB2000C068104222D1142023E0681C0AD02DB145
:10AB300000F058FDA0EB0800A84203D92068006887
:10AB4000800725D5206800688007EED52DE00369D1
:10AB50000B4202D1C168114206D0026923490A4260
:10AB600006D1C068084203D1542002E0292000E049
:10AB7000FC204643009816E0681C11D02DB100F06F
:10AB800031FDA0EB0800A8420AD90098B04207D2D4
:10AB9000A06A40F00400A06284F8247003209DE7BE
:10ABA0000098401C0090B042E6D321686FF012007C
:10ABB0000860A06A40F40070A06220688068C0F35A
:10ABC000424007280CD1207B50B9A06A20F4807045
:10ABD000A062A06AC00403D4A06A40F00100A06291
:10ABE00000207BE758000020244992244992240049
:10ABF00070B5044690F8240001280DD0012084F897
:10AC000024002046FEF70EF802004FF0000005D0A9
:10AC100084F82400104670BD022070BDA16A40F285
:10AC20000123994341F48071A1621F4D23681F499C
:10AC3000AB4218D10E6816F4702F14D0A66A46F4F1
:10AC40008016A6620E68760505D5A66A26F400561B
:10AC500046F48056A662A66AF6040AD5E66A26F08D
:10AC60000606E66206E0A66A26F48016A6625E681C
:10AC7000E9E7E06284F824006FF0020018602068C1
:10AC80008368C3F34243072B05D1A84208D1096862
:10AC900011F4702F04D0816841F480118160B9E70C
:10ACA000816841F4A001F9E7002801400424014033
:10ACB00010B590F821100022022905D004218163EB
:10ACC00080F82020012010BD01680B6823F00E03DE
:10ACD0000B6001680B6823F001030B6090F84030B3
:10ACE000C46B012101FA03F3636080F8211080F83E
:10ACF0002020104610BD00002DE9F05F90F82110D3
:10AD00000024022903D004218163012485E0016825
:10AD10000A6822F00E020A6001680A6822F0010245
:10AD20000A603F4E3E4FB215DFF8F4C0DFF8F090F6
:10AD3000DFF8ECA0DFF8E8B0DFF8E4E00168783F86
:10AD400013011502ACF1640CA9F15009AAF13C0AF7
:10AD5000ABF1280BAEF1140E4FF48018B14227D995
:10AD6000B9420ED0614512D049451DD0514518D089
:10AD7000594518D0714501D1424615E0294EB142DE
:10AD800001D1012210E0274E1436B14201D1102228
:10AD90000AE0244E2836B14206D0224A3C32914283
:10ADA00001D11A4600E02A461E49091F0A602BE01D
:10ADB000B94213D0614517D0494522D051451DD025
:10ADC00059451DD0714501D142461AE0B14202D128
:10ADD0004FF0807215E0134EB14201D1012210E014
:10ADE000104E1436B14201D110220AE00D4E283621
:10ADF000B14206D00B4A3C32914201D11A4600E0E2
:10AE00002A46074980394A60012180F82110002133
:10AE100080F82010416B01B188472046BDE8F09FC3
:10AE2000800002400804024010B5D0B101680A68F1
:10AE300022F001020A60026800211160026851607C
:10AE4000026891600268D160144C02681423A24227
:10AE500009D2134C2244B2FBF3F292000264114A6D
:10AE60000AE0012010BD0D4C64422244B2FBF3F213
:10AE700092000264094A083AC26390F84030012205
:10AE80009A40C36B5A608162C1620163416381630E
:10AE900080F8211080F82010002010BD0804024026
:10AEA000F8FFFDBF000002402DE9F05FC16B0A68AA
:10AEB00001680B68046C4FF0040808FA04F8844D2C
:10AEC000844E854FDFF814C2DFF81492DFF814A225
:10AED000DFF814B2DFF814E218EA020F65D05FEA77
:10AEE000437862D50A68920603D40A6822F0040205
:10AEF0000A60DFF8F0814FF48062016808F11408FD
:10AF000013011402414524D9A9420DD0B1420FD0FA
:10AF1000B9421AD0614515D0494515D0514501D1E6
:10AF2000120312E0594501D104220EE0714501D10E
:10AF300040220AE06D4D1435A94206D06B4A2832F2
:10AF4000914201D11A4600E022466749091F0A6072
:10AF500029E0A94213D0B14215D0B94220D06145B1
:10AF60001BD049451BD0514502D14FF4800217E058
:10AF7000414502D14FF0806212E0594501D10422CF
:10AF80000EE0714501D140220AE0584D1435A94226
:10AF900006D0564A2832914201D11A4600E0224694
:10AFA0004B4908394A60C16A71E04FF0020808FA5B
:10AFB00004F818EA020F70D05FEA83786DD50A684A
:10AFC000920606D40A6822F00A020A60012180F87B
:10AFD0002110DFF810814FF40072016808F11408A5
:10AFE00013011402414524D9A9420DD0B1420FD01A
:10AFF000B9421AD0614515D0494515D0514501D106
:10B00000120312E0594501D102220EE0714501D12F
:10B0100020220AE0354D1435A94206D0334A2832A1
:10B02000914201D11A4600E022462F49091F0A60C9
:10B0300029E0A94213D0B14215D0B94220D06145D0
:10B040001BD049451BD0514502D14FF4001217E0E7
:10B05000414502D14FF0007212E0594501D1022260
:10B060000EE0714501D120220AE0204D1435A9429D
:10B0700006D01E4A2832914201D11A4600E02246EB
:10B08000134908394A60002180F82010816A00299C
:10B090001CD0BDE8F05F0847FFE70825A540154232
:10B0A00014D01A0712D50A6822F00E020A6090F82E
:10B0B0004020C36B012101FA02F25A60816380F8DB
:10B0C0002110002180F82010016BE0E7BDE8F09F1F
:10B0D000080002401C0002403000024044000240D0
:10B0E000580002406C000240080402401C04024068
:10B0F00030B560B11A4B026814219A4209D2194B3B
:10B100001344B3FBF1F18900016417490AE00120FF
:10B1100030BD134B5B421344B3FBF1F18900016472
:10B120000F490839C163022180F82110136843F6E2
:10B13000F0718B43F0E901142143D0E902452C431F
:10B14000214304692143446921438469214319430C
:10B15000116000214163012242770177084630BD2A
:10B1600008040240F8FFFDBF0000024070B504462D
:10B1700090F82000002501280CD0012084F8200040
:10B1800094F821600020012E06D084F820000225CA
:10B19000284670BD022070BD022684F82160A0639D
:10B1A0002068066826F0010606602046FEF782FD4C
:10B1B000E06A00282068016802D041F00E0106E034
:10B1C00021F0040101602068016841F00A0101607A
:10B1D0002068016841F001010160D9E7064810B517
:10B1E0004FF0FF31C16000220261C160C26000F017
:10B1F00085FB002010BD00000010024003480169DB
:10B2000041F08001016100207047000000200240F1
:10B210002DE9F05F07461C4888460024017E15464C
:10B220001E46012909D00121814601764CF2503A8F
:10B230005046FFF719F818B122E00220BDE8F09F50
:10B24000012F02D0022F00D00427D346DFF83CA004
:10B25000220128463146FCF7D3FF81B208EB4400B7
:10B26000FEF7C6FF5846FEF7FFFFDAF8102022F07F
:10B270000102CAF8102018B9641CE4B2BC42E7D33A
:10B28000002289F81820D9E7001900200020024088
:10B29000064900200A69120607D5054A4A60054A90
:10B2A0004A600969090600D5012070470020024064
:10B2B00023016745AB89EFCD2DE9F04300233E4FD5
:10B2C0000F2574E001229A400A406ED023F0030457
:10B2D000E619D6F808809C074FEA147C05FA0CF9A9
:10B2E00009EA0804DFF8D480404502D14FF0000895
:10B2F00024E0DFF8CC80404502D14FF001081DE08A
:10B30000DFF8C080404502D14FF0020816E0DFF8B8
:10B31000B880404502D14FF003080FE0DFF8AC8061
:10B32000404502D14FF0040808E0DFF8A480404512
:10B3300002D14FF0050801E04FF0060808FA0CF8BA
:10B34000A04515D1D6F808C02CEA090CC6F808C0EB
:10B35000204E346894433460341D2668964326603A
:10B36000241D266896432660241D26689643266081
:10B37000FF2A01D8064601E000F104064FEA8304E3
:10B3800001D9A4F12004D6F800C005FA04F82CEA8B
:10B39000080C4FF0040808FA04F84CEA080CC6F848
:10B3A00000C0C46824EA0204C46003F1010331FA56
:10B3B00003F287D1BDE8F08300000140000801409E
:10B3C000000C014000100140001401400018014031
:10B3D000001C0140000401402DE9F84FDFF8C8913E
:10B3E000002409F1040A0AF1040B23460F270BF18C
:10B3F000040ED1E00125A54006EA0502AA4276D155
:10B40000DFF8A8C14E68A6EB0C0866452BD00DDC12
:10B41000032E34D005DC36B3012E19D0022E2FD1E5
:10B420001BE0112E16D0122E2AD119E0B8F5881F74
:10B4300019D006DCB8F5803F15D0B8F5801F1FD1B4
:10B4400011E0B8F5001F0ED0B8F5041F18D10AE0BE
:10B45000CB6815E0CB681B1D12E0CB6808330FE00A
:10B46000CB680C330CE08B682BB1012B4FF0080339
:10B4700003D0456104E0042302E0056100E00023FD
:10B48000FF2A01D8064601E000F104064FEA8405D0
:10B4900001D9A5F12005D6F8008007FA05FC28EAB5
:10B4A0000C0803FA05F548EA0508C6F800804D685F
:10B4B000ED0070D53E4DAE6946F00106AE61AD6956
:10B4C00024F0030605F0010500953A4D06EB050C46
:10B4D000DCF80850A607360F07FA06F825EA080533
:10B4E000DFF8D480404503D14FF0000825E052E05A
:10B4F000DFF8C880404502D14FF001081DE0DFF8B9
:10B50000C080404502D14FF0020816E0DFF8B48059
:10B51000404502D14FF003080FE0DFF8AC80404512
:10B5200002D14FF0040808E0DFF8A080404502D1C6
:10B530004FF0050801E04FF0060808FA06F848EA5F
:10B540000508CCF808804D68D9F80060ED034D4639
:10B5500001D5164300E096432E604D68DAF800608E
:10B56000AD03554601D5164300E096432E604D6865
:10B57000DBF80060ED025D4601D5164300E096431E
:10B580002E604D68DEF80060AD02754601D51643A9
:10B5900000E096432E60641C0A681646E2407FF481
:10B5A00029AFBDE8F88F0000000401400000111031
:10B5B000001002400000014000080140000C014062
:10B5C000001001400014014000180140001C01401F
:10B5D0008068084000D0012070470AB101617047BF
:10B5E0000904FBE701488068704700004C00002018
:10B5F00070B5040025D094F83D00002520B984F8EA
:10B600003C50204600F0B8F8242084F83D00206823
:10B61000016821F0010101602068016841F40041E6
:10B6200001602068016821F40041016000F080FBA6
:10B630004D4A6168914201D84C4900E04C4988422A
:10B6400001D2012070BD4B492368B0FBF1F15E6867
:10B6500026F03F060E435E606368934206D94FF4BE
:10B66000967359434FF47A73B1FBF3F12368491C85
:10B670001E6A26F03F06314319626168914210D874
:10B680004900401EB0FBF1F2521CC2F30B02042A27
:10B6900001D2042022E0B0FBF1F0401CC0F30B000B
:10B6A0001CE0A268F2B301EBC10303EB0116431ED9
:10B6B000B3FBF6F35B1C43F480431B0549D092B304
:10B6C00001EBC10202EB0111401EB0FBF1F0401C86
:10B6D000C0F30B0040F4804040F400402168CA6988
:10B6E0004CF6FF739A431043C861D4E90710014335
:10B6F0002068026822F0C00211430160D4E903010E
:10B7000001432068826848F2FF339A431143816005
:10B71000D4E9050108432168CA6822F0FF021043FA
:10B72000C86001E00EE016E02068016841F0010108
:10B7300001602564202084F83D00256384F83E5094
:10B74000002070BD01EB4106431EB3FBF6F35B1C0A
:10B75000B3E70120C2E701EB4101401EB0FBF1F06D
:10B76000401CC0F30B00B7E7A086010080841E00D8
:10B7700000093D0040420F0010B586B00021009145
:10B7800001910291039100680F4988421AD10F4C30
:10B79000A06940F00800A061A069694600F00800B7
:10B7A0000490C020009012200190032003900848CC
:10B7B000FFF712FEE06940F40010E061E06900F478
:10B7C0000010049006B010BD00540040001002406C
:10B7D000000C014070B5040011D021684CF6CC403B
:10B7E0000860216845F255500860D4E900014160C5
:10B7F0002168A0688860FFF7F5FE05460DE001208E
:10B8000070BD00BFFFF7EEFE401B272805D920685A
:10B81000C068800701D0032070BD2068C068800721
:10B82000F0D121684AF6AA200860002070BD0068A7
:10B830004AF6AA2101600020704700000248816892
:10B8400002781144816070474C000020074810B511
:10B85000016841F010010160032000F0C1F80F20E1
:10B8600000F006F800F04CF8002010BD0020024067
:10B8700030B505461C4887B0816941F4006181619B
:10B88000806906A900F40060009001A800F030FA79
:10B8900000F05EFA1549164AB0FBF1F11548491E51
:10B8A0000260416040F2E7320021C0E9032181607B
:10B8B000816100F063FC040012D10E4800F0EAFC44
:10B8C00004000DD1192000F05DF8102D07D20022E0
:10B8D0002946192000F064F80748056000E00124BB
:10B8E00007B0204630BD00000010024040420F006B
:10B8F000002C0140B81800205000002070470000C4
:10B900000F4808B5816941F001018161816901F049
:10B9100001010091C16941F08051C161C0690022FB
:10B9200000F0805000900F21901E00F039F805487B
:10B93000416821F0E06141F00071416008BD000004
:10B940000010024000000140002809DB00F01F0247
:10B95000012191404009800000F1E020C0F88012F0
:10B96000704700280DDB00F01F02012191404009C3
:10B97000800000F1E020C0F88011BFF34F8FBFF3CB
:10B980006F8F7047002809DB00F01F0201219140F2
:10B990004009800000F1E020C0F80011704700006D
:10B9A000F0B40E4B1B680C46C3F30223C3F107052A
:10B9B000042D00D90425191D072901D2002300E018
:10B9C000DB1E012606FA05F1491E214099409E40E2
:10B9D000761E16403143F0BC05F0DABA0CED00E0FB
:10B9E000064900F0070208684FF6FF03184040EAD6
:10B9F0000220034A10430860704700000CED00E08D
:10BA00000000FA0510B52CA401461DCC86B08DE8C7
:10BA10001D002DA02D4C00680490002004292FD07B
:10BA20000BDC01292FD0022928D100F091F961689F
:10BA3000C1F38131491C49001EE0082920D010299A
:10BA40001CD161682268D20118D5C1F38342C903B1
:10BA50001DF8020009D5616804AAC1F34041515C98
:10BA60001B4AB2FBF1F1484301E01A4948436168BF
:10BA7000490203D440000321B0FBF1F006B010BD31
:10BA800000F076F9FAE7226AC2F30121012903D115
:10BA9000920701D5C803F1E7022905D1626A92072E
:10BAA00002D549F64040E9E70329E7D12168890337
:10BAB000E4D54FF22440E1E7020304050607080934
:10BAC0000A0B0C0D0E0F10100102000000100240B6
:10BAD00000127A0000093D002DE9F8430546007880
:10BAE000354CC00754D0E0690026C00008D4E06996
:10BAF00040F08050E061E069012600F08050009045
:10BB00002E480168C90512D40168804641F480714D
:10BB10000160FFF767FD074605E000BFFFF762FD24
:10BB2000C01B642823D8D8F80000C005F6D5206AC9
:10BB300010F4407021D0A98801F4407181421CD0DA
:10BB4000206A1F49012220F440700A6000220A6026
:10BB50002062C00711D0FFF745FD074641F2883843
:10BB600008E000BFFFF73EFDC11B414502D903209D
:10BB7000BDE8F883206A8007F4D5206A696820F45C
:10BB80004070084320621EB1E06920F08050E061FF
:10BB90002878800705D56068A96820F440400843EC
:10BBA00060602878C00605D56068696920F4800067
:10BBB000084360600020DBE7001002400070004096
:10BBC000400442422DE9F0470F46050061D0434E44
:10BBD000306800F00700B84209D2306820F0070052
:10BBE00038433060306800F00700B84251D128680F
:10BBF0003B4C810712D5400703D5606840F4E060F4
:10BC000060602878000703D5606840F46050606089
:10BC10006068A96820F0F000084360602878C007D9
:10BC200028D06868012810D02168022810D0890720
:10BC300000292EDA616821F0030101436160FFF7FA
:10BC4000D1FC804641F288390DE021688903EFE795
:10BC50008901EDE7FFF7C6FCA0EB0801494502D9D1
:10BC60000320BDE8F0876068696800F00C00B0EB65
:10BC7000810FEFD1306800F00700B8420BD930686F
:10BC800020F0070038433060306800F00700B84209
:10BC900001D00120E5E72878400705D56068E9680C
:10BCA00020F4E060084360602878000706D56068EB
:10BCB000296920F4605040EAC100606000F058F843
:10BCC0006168084AC1F30311515CC8400649086025
:10BCD00006480068FFF7CCFD0020C2E700200240C4
:10BCE00000100240C8450108580000205000002004
:10BCF0000F2202600C4A536803F003034360536849
:10BD000003F0F0038360536803F4E063C360526898
:10BD10004FF4E06303EAD20202610448006800F0D5
:10BD20000700086070470000001002400020024039
:10BD30000448054900684968044AC1F30221515C7E
:10BD4000C84070475800002000100240D845010844
:10BD50000448054900684968044AC1F3C221515C9E
:10BD6000C84070475800002000100240D845010824
:10BD700012A185B00FC98DE80F0014A0144A006805
:10BD800004905168134801F00C03042B10D0082BC9
:10BD90000ED1C1F38343C9031DF803000AD55168CE
:10BDA00004AAC1F34041515C0A4A5043B0FBF1F090
:10BDB00005B0704708494843FAE70000020304054C
:10BDC000060708090A0B0C0D0E0F101001020000E7
:10BDD0000010024000127A0000093D002DE9F84FE2
:10BDE000040070D02078C04DC00749D06868C0F307
:10BDF0008100012807D06868C0F38100022809D1BA
:10BE00006868C00306D52868800339D560680028B3
:10BE1000E7D035E06068B0F5803F0BD010B1B0F5E9
:10BE2000A02F11D0286820F480302860286820F4E2
:10BE3000802002E0286840F480302860606890B17B
:10BE4000FFF7D0FB06460AE0286840F4802028600F
:10BE5000F0E700BFFFF7C6FB801B642873D8286893
:10BE60008003F7D50CE0FFF7BDFB064605E000BFF9
:10BE7000FFF7B8FB801B6428F0D828688003F7D44C
:10BE800020789A4E80074FF001094FF0000839D50D
:10BE9000686810F00C0F07D06868C0F381000228B2
:10BEA00009D16868C00306D42868800714D52069C2
:10BEB000012808D110E02069B0B1C6F80090FFF762
:10BEC00091FB074605E00AE1FFF78CFBC01B022847
:10BED000C4D828688007F7D52868616920F0F80081
:10BEE00040EAC10028600DE0C6F80080FFF77AFB49
:10BEF000074604E0FFF776FBC01B022823D828681A
:10BF00008007F7D4207800072CD57948A169D9B1EA
:10BF1000C0F80090FFF766FB074604E0FFF762FBFE
:10BF2000C01B02280FD8686A8007F7D571484FF404
:10BF3000FA510068B0FBF1F0009000BF0098411E7C
:10BF40000091FAD20EE080E0C0F80080FFF74AFBD3
:10BF5000074604E0FFF746FBC01B022875D8686A55
:10BF60008007F7D42078400760D5E8690027C00033
:10BF700008D4E86940F08050E861E869012700F0E2
:10BF8000805000905C480168C90513D4016883465D
:10BF900041F480710160FFF725FB824606E000BF97
:10BFA000FFF720FBA0EB0A0064284ED8DBF8000066
:10BFB000C005F5D5E06801280AD008B1052813D0DE
:10BFC000286A20F001002862286A20F0040002E0BC
:10BFD000286A40F001002862E06841F2883B98B18D
:10BFE000FFF700FB82460BE0286A40F0040028625D
:10BFF000EEE700BFFFF7F6FAA0EB0A0159455AD861
:10C00000286A8007F6D50CE0FFF7ECFA824605E0D7
:10C01000FFF7E8FAA0EB0A0159454CD8286A8007D7
:10C02000F6D41FB1E86920F08050E861E06988B378
:10C030006968C1F38101022944D00228C6F86080F2
:10C0400004D0FFF7CFFA044638E034E0FFF7CAFA2D
:10C05000074604E0FFF7C6FAC01B02282BD8286861
:10C060008001F7D4206AB0F5803F05D16868A168E7
:10C0700020F4003008436860D4E908010843696887
:10C0800021F4741108436860C6F86090FFF7AAFABB
:10C09000044606E025E000BFFFF7A4FA001B0228D3
:10C0A00009D828688001F7D51BE000BFFFF79AFA8E
:10C0B000001B022802D90320BDE8F88F2868800100
:10C0C000F4D40EE00128F7D06868226A00F48031C9
:10C0D000914204D1616A00F47010884201D00120BD
:10C0E000EAE70020E8E700000010024000004242BA
:10C0F00080044242580000200070004070477047A2
:10C1000070B590F83C20012A2CD0012480F83C40E6
:10C11000022280F83D2003685A689D6822F070066C
:10C120000A6832435A60104B02689A420ED00F4B95
:10C130009A420BD0B2F1804F08D00D4B9A4205D0F5
:10C140000C4B9A4202D00C4B9A4204D1496825F01C
:10C1500080031943916080F83D40002180F83C1035
:10C16000084670BD022070BD002C01400034014023
:10C170000004004000080040000C004010B504001E
:10C1800003D094F83D0010B107E0012010BD00205D
:10C1900084F83C00204600F01FF8022084F83D009F
:10C1A000211D206803F0BEFA012084F8460084F8BF
:10C1B0003E0084F83F0084F8400084F8410084F891
:10C1C000420084F8430084F8440084F8450084F871
:10C1D0003D00002010BD000008B501682848B1F1FD
:10C1E000804F0BD0274A914210D1C16941F0020122
:10C1F000C161C06900F00200009008BDC16941F052
:10C200000101C161C06900F00100F5E71E4A9142D9
:10C210000ED1C16941F00401C161C069002200F082
:10C220000400009005211E20FFF7BAFB1E2022E02B
:10C23000164A91420ED1C16941F00801C161C0693D
:10C24000002200F00800009005213220FFF7A8FB33
:10C25000322010E00E4A9142CFD1C16941F0100165
:10C26000C161C069002200F0100000900521362055
:10C27000FFF796FB3620BDE80840FFF783BB0000C0
:10C28000001002400004004000080040000C004084
:10C290000010004090F83D10012901D001207047A6
:10C2A000022180F83D100168CA6842F00102CA60AC
:10C2B00000680E4988420ED00D4988420BD0B0F17B
:10C2C000804F08D00B49884205D00B49884202D0E4
:10C2D0000A49884204D1816801F00701062903D088
:10C2E000016841F00101016000207047002C01400D
:10C2F000003401400004004000080040000C0040F1
:10C300000168CA6822F00102CA6001680A6A41F243
:10C3100011131A4207D10A6A9B101A4203D10A6804
:10C3200022F001020A60012180F83D1000207047D0
:10C3300070B5044690F83C00012817D0012584F818
:10C340003C50022084F83D002068826822F0770289
:10C3500022F47F4282600868502830D00DDC20280B
:10C360004DD005DC98B310283BD148E0022070BDC9
:10C37000302844D0402834D139E0602828D07028B3
:10C3800006D0B0F5805F2CD0B0F5005F29D10AE06F
:10C39000CB68D1E90121206803F017FA2068816891
:10C3A00041F0770109E0CB68D1E90121206803F071
:10C3B0000CFA2068816841F48041816011E0CA680C
:10C3C0004968206803F0D6FA5021206807E016E09B
:10C3D000CA684968206803F0DEFA6021206803F02B
:10C3E000FEF984F83D50002084F83C0070BDCA6816
:10C3F0004968206803F0BEFA40212068EFE7226810
:10C4000001461046EBE7704770B5044600680169C5
:10C410004FF00005C943890715D4C168C94389078E
:10C4200011D4E91E0161012020772068806980070E
:10C43000204602D0FFF7E7FF04E000F0D3F82046E3
:10C4400000F08EF9257720680169C943490717D4A0
:10C45000C168C943490713D46FF004010161022088
:10C4600020772068806910F4407F204602D0FFF7D3
:10C47000CAFF04E000F0B6F8204600F071F9257715
:10C4800020680169C943090716D4C168C94309076F
:10C4900012D46FF008010161042020772068C06980
:10C4A0008007204602D0FFF7AEFF04E000F09AF8C4
:10C4B000204600F055F9257720680169C943C9066F
:10C4C00017D4C168C943C90613D46FF010010161C4
:10C4D000082020772068C06910F4407F204602D0F1
:10C4E000FFF791FF04E000F07DF8204600F038F9F6
:10C4F000257720680169C943C90708D1C168C943C4
:10C50000C90704D1891E0161204600F0DDF92068C9
:10C510000169C943090609D4C168C943090605D49C
:10C520006FF0800101612046FFF7E8FD2068016996
:10C53000C943490609D4C168C943490605D46FF007
:10C5400040010161204600F0E1F920680169C9431A
:10C5500089060BD4C168C943890607D46FF020014E
:10C5600001612046BDE87040FFF7C9BD70BD000005
:10C5700000B585B0002100910191029103910268FC
:10C5800014480221B2F1804F14D0134B9A420FD1BC
:10C59000826942F0080282618069039100F008001C
:10C5A00004900120CDE9000169460C48FEF714FF14
:10C5B00005B000BD826942F0040282618069039186
:10C5C00000F0040004900320CDE90001694604480E
:10C5D000ECE700000010024000040040000C0140A5
:10C5E00000080140704770B50D46040003D094F870
:10C5F0003D0010B107E0012070BD002084F83C0030
:10C60000204600F01BF8022084F83D00211D206820
:10C6100003F088F82068016821F00801016054F8EF
:10C62000460B016829430160012004F81F09E075E9
:10C630002076E0762077A075002070BD704770B539
:10C64000044690F83C000D4601280AD0012084F8E9
:10C650003C0042B1042A18D0082A2AD00C2A4DD115
:10C6600039E0022070BD206803F0C2F820688169BB
:10C6700041F0080181612068816921F00401816134
:10C68000206881692A69114311E0206803F0E0F80D
:10C690002068816941F4006181612068816921F429
:10C6A00080618161206881692A6941EA0221816192
:10C6B00024E0206803F002F92068C16941F0080114
:10C6C000C1612068C16921F00401C1612068C169AC
:10C6D0002A69114311E0206803F024F92068C16938
:10C6E00041F40061C1612068C16921F48061C161C8
:10C6F0002068C1692A6941EA0221C161002084F8E9
:10C700003C0070BD10B5040003D094F83D0010B19A
:10C7100007E0012010BD002084F83C00204600F016
:10C720001EF8022084F83D00211D206802F0FAFF67
:10C73000012084F8460084F83E0084F83F0084F825
:10C74000400084F8410084F8420084F8430084F8F3
:10C75000440084F8450084F83D00002010BD704777
:10C760007047000010B50446022249B104290ED0DA
:10C77000082913D094F84100012816D0012010BDDB
:10C7800094F83E000128F9D184F83E200FE094F897
:10C790003F000128F2D184F83F2008E094F84000DF
:10C7A0000128EBD184F8402001E084F841200122E7
:10C7B000206802F0FDFF13492068134A884201D027
:10C7C000904203D1436C43F40043436420688842A1
:10C7D0000DD090420BD0B0F1804F08D00B49884269
:10C7E00005D00B49884202D00A49884204D18168A9
:10C7F00001F00701062903D0016841F00101016041
:10C80000002010BD002C0140003401400004004015
:10C8100000080040000C004030B5044600680D00E0
:10C8200006D0042D08D0082D38D00C2D08D139E0C1
:10C83000C16821F0020102E0C16821F00401C16079
:10C8400000222946206802F0B3FF1D4B41F211116E
:10C8500020688A10984202D01A4B984209D1036A84
:10C860000B4206D1036A134203D1436C23F4004305
:10C8700043642068036A0B4206D1016A114203D166
:10C88000016821F00101016001207DB1042D10D06B
:10C89000082D11D084F84100002030BDC16821F07E
:10C8A0000801CCE7C16821F01001C8E784F83E0018
:10C8B000F2E784F83F00EFE784F84000ECE700007F
:10C8C000002C01400034014010B5044600680B49BB
:10C8D000884201D1FEF7B2FF09492068884201D1A0
:10C8E00006F012FF07492068884206D103F07AF863
:10C8F000BDE810400448FFF703BD10BD002C014007
:10C90000000800400010004004150020704738B5B2
:10C91000044690F83E0020281CD181B17AB194F8E9
:10C920003C00012816D0012084F83C0020632046FA
:10C9300003F078FC002803D1216B012901D00120EC
:10C9400038BD21680A684A680092CA6842F010023D
:10C95000CA6038BD022038BD704710B50446006873
:10C96000416994F83D20C1F3C011212A0BD151B186
:10C97000416921F080014161606B08B1FEF798F9CF
:10C98000204603F08FFB2068416994F83E20C1F3F4
:10C990008011222A0BD151B1416921F0400141613E
:10C9A000A06B08B1FEF784F9204603F063FB00207A
:10C9B00010BD10B5040014D0242084F83D00206878
:10C9C000C16821F40051C160204600F081F90020C7
:10C9D000206484F83D0084F83E0044F8300F207352
:10C9E00010BD012010BD00007CB5054600208DF86B
:10C9F000000028680168C943090725D40168406818
:10CA0000019001226946284600F071FB0F482C680E
:10CA100084420AD1861531460D48FBF71AFC20687E
:10CA2000606832460A4901900BE00A4884420BD103
:10CA300010210948FBF70DFC2068606806491022A8
:10CA40000190284600F03EFB7CBD000000480040FD
:10CA50003C4F0020004C00401C430020F8B5026809
:10CA600004461068D168536910F00F0F4FF00005AD
:10CA700053D003F0010601F49077374360D0C2072A
:10CA800005D0CA0503D5226C42F001022264420798
:10CA900005D5DA0703D0226C42F002022264820735
:10CAA00005D5DA0703D0226C42F0040222640207A3
:10CAB00007D501F02002324303D0226C42F0080275
:10CAC0002264226C002A3AD0800604D5880602D55A
:10CAD000204603F0F0FA20684069216CC0F3801012
:10CAE000090700D438B3204603F0C4FA206841692E
:10CAF00049061BD5416921F040014161A06BA8B1F5
:10CB000059494163A06BFEF7F7F8002817D0A06BD6
:10CB1000416B01B0BDE8F0400847830610D58B0695
:10CB20000ED52046BDE8F84003F0C5BA2046BDE862
:10CB3000F840FFF759BF2046FFF756FF2564F8BDC0
:10CB4000266B2023012E52D1C60650D5CE064ED5D7
:10CB5000106850680090506940062AD5A16B08689B
:10CB600040680004000CEAD0A68D8642E7D9E08533
:10CB70008869202818D0D06820F48070D0602068A0
:10CB8000416921F0010141612068416921F04001C2
:10CB9000416184F83E3025632068C16821F01001AE
:10CBA000C160A06BFEF784F8A08DE18D401A81B2C0
:10CBB00019E0A08DE18D401A81B2E08D0028BED031
:10CBC0000029BCD0D06820F49070D0602068426901
:10CBD00022F00102426184F83E3025632068C26879
:10CBE00022F01002C2602046FFF7B6FEF8BD05062F
:10CBF0002BD50D0629D594F83D002128F6D1A06843
:10CC0000B0F5805F01D12069B0B1206A411C21627A
:10CC1000216800784860E08C401E0004000CE0842D
:10CC2000E4D12068C16821F08001C1602068C1683A
:10CC300041F04001C160F8BD206A0088C0F30800DF
:10CC40005060206A801C2062E5E74006F3D5480664
:10CC5000F1D5D168204621F04001D16084F83D3003
:10CC600000F029FBF8BD0000A9FF000870B5040022
:10CC700004D094F83D00002510B106E0012070BDFD
:10CC800084F83C50204600F089F8242084F83D00C8
:10CC90002068C16821F40051C160204603F066FAA3
:10CCA0002068016921F4904101612068416921F007
:10CCB0002A0141612068C16841F40051C1602564C6
:10CCC000202084F83D0084F83E00002070BD000064
:10CCD00070B50446274D0368274A28484FF4406141
:10CCE000AB420AD1D36923F40023D361FEF7E4FAFF
:10CCF000A06BFEF799F8342037E0214DAB420CD100
:10CD0000D16921F48011D1619914FEF7D5FA04217B
:10CD10001C48FEF7D1FA352027E01B4D1B48AB42DB
:10CD200009D1916921F4804191614FF4C061FEF70E
:10CD3000C3FA252019E0164DAB4208D1D16921F480
:10CD40000031D1610C21FEF7B7FA26200DE0114821
:10CD500083420ED1D06920F48020D0610E48FEF7C6
:10CD6000ABFAA06BFEF760F82720BDE87040FEF735
:10CD7000F8BD70BD004C00400010024000100140A2
:10CD800000500040001401400038014000080140FC
:10CD90000044004000480040000C01402DE9F04FE5
:10CDA00085B0002400940194029403940546016820
:10CDB0008848874A0615DFF820924FF002084FF4A2
:10CDC000006A4FF0800B914237D1C16941F40021D4
:10CDD000C161C16901F400210491816941F0100130
:10CDE00081618069CDE9006800F01000CDE9038021
:10CDF00069464846FEF7F0FACDF800A0CDE90148B3
:10CE000069464846FEF7E8FA754E7448C6E90004DC
:10CE1000C6E9024B34617461B4613046F461FEF7D7
:10CE200067F908B1FDF7C2F9AE630022062134208C
:10CE30007562FEF7B5FD342032E06A4A042791425C
:10CE400033D1C16941F48011C161C16901F480111C
:10CE50000491816941F010018161816901F0100143
:10CE60000491816941F0200181618069694600F087
:10CE7000200004909014CDE900084846CDF80C80BD
:10CE8000FEF7AAFACDE9007469465748CDF8088044
:10CE9000FEF7A2FA012204213520FEF781FD35209C
:10CEA000FEF770FD05B0BDE8F08F504ADFF8409105
:10CEB000914227D1816941F480418161816901F406
:10CEC00080410491816941F0040181618069694672
:10CED00000F0040004905015CDE900084846CDF854
:10CEE0000C80FEF779FACDE9006469464846CDF832
:10CEF0000880FEF771FA002206212520FEF750FD7A
:10CF00002520CDE73B4A914224D1C16941F400314B
:10CF1000C161C16901F400310491816941F00401EA
:10CF200081618069CDE9007800F00400CDE90380DB
:10CF300069464846FEF750FA08208DE81101694617
:10CF40004846FEF749FA002204212620FEF728FD74
:10CF50002620A5E7284A9142A4D1C16941F4802145
:10CF6000C161C16901F480210491816941F0080126
:10CF700081618069CDE9006800F00800CDE9038097
:10CF80001E4E69463046FEF727FACDF800A0CDE9DF
:10CF9000014869463046FEF71FFA114E18484436DC
:10CFA000C6E90004C6E9024B34617461B4613046DD
:10CFB000F461FEF79DF808B1FDF7F8F8AE630022C2
:10CFC000052127207562FEF7EBFC272068E70000AB
:10CFD000004C0040001002400010014030040240AC
:10CFE000301800200050004000140140003801407B
:10CFF000000801400044004000480040000C01408F
:10D00000300002402DE9F84F044690F83E009A4661
:10D0100016460D46202853D1FDB1F6B194F83C00D8
:10D0200001284DD0012084F83C00002727642220ED
:10D0300084F83E002763FEF7D5FAA6858146E6858B
:10D04000A0684FF48058404501D1206940B12E4678
:10D050005FF0000584F83C7027E00120BDE8F88F00
:10D060000026F7E74B46002220212046CDF800A0FD
:10D0700003F02BF908B10320F0E726B1A068404582
:10D080001BD038B108E020684068C0F3080025F8DC
:10D09000020B07E0206980B12068406800F07F0043
:10D0A00006F8010BE08D401EE085E08D0028D9D107
:10D0B000202084F83E000020D0E720684068EFE799
:10D0C0000220CBE790F83E30202B0ED159B152B15F
:10D0D00090F83C30012B08D0012380F83C3000232D
:10D0E000036303F09FB8012070470220704790F857
:10D0F0003E30202B0ED159B152B190F83C30012B6B
:10D1000008D0012380F83C300023036303F0C2B849
:10D1100001207047022070472DE9F0410646006863
:10D12000324901270025324C884227D12089314AD3
:10D13000010417D404F102014304097804D50A2933
:10D140000CD140F400402BE00D2927D0C0F30D0393
:10D15000401C80B2D1542081632800D925812089C8
:10D1600000040BD5244927701078096808802089AD
:10D17000C0F30D011F48FBF76CF825811F4930688B
:10D1800088422DD1E08801041FD41949420401F1DD
:10D190000301097809D50A2913D103E040F480403E
:10D1A0002081DCE740F400401EE00D291AD0C0F3D6
:10D1B0000D02104B401CA83380B29954E0806328C4
:10D1C00000D9E580E08800040AD52770E088094985
:10D1D000C0F30D02A83101F1EC00FBF721F8E58066
:10D1E000BDE8F08140F48040E080EBE7004800407B
:10D1F00040000020D415002008020020004C004010
:10D20000704700002DE9F843044690F83D001F46A2
:10D2100016460D4620284CD1C5B1BEB194F83C004D
:10D22000012846D0012084F83C004FF00008C4F8E3
:10D230004080212084F83D00FEF7D4F9A684814681
:10D24000E684A068B0F5805F03D004E00120BDE86B
:10D25000F883206928B12E465FF0000584F83C80F1
:10D260000EE00026FAE78021204603F02EF8A0B950
:10D27000AEB116F8010B21684860E08C401EE084D6
:10D28000E08C4B464FF0000200970028EBD14FF0A6
:10D290004001204603F019F830B10320D7E735F8F4
:10D2A000020BC0F30800E6E7202084F83D000020D0
:10D2B000CDE70220CBE77047FEE7000070B5B0B1C4
:10D2C000012818D01B4C212825D0232822D100BFAB
:10D2D00001F0E8FA10B1022001F0DEFF20680078CA
:10D2E00001F09AF9BDE87040032001F011BFBDE8DC
:10D2F000704001F0FBB8104C20680068C16821F450
:10D300000051C16001F040F820680068C16841F434
:10D310000051C16070BD094DB5F8420010B1002048
:10D3200001F02AFFB5F844000028D1D102F0ECF852
:10D33000CEE70000D8010020780100203A47002005
:10D3400010B5FDF773F9112801D0012010BD0020A0
:10D3500010BD000003480078022801D30120704767
:10D36000002070474C08002038B502F061F908B180
:10D37000002038BDFDF73EF90446FDF7C3F8054629
:10D380002849FAF7C0FFFBF7D9F981B22648ADF872
:10D390000010006802888A4200D00180234800788B
:10D3A000322802D2032003F0DDF82148854202D161
:10D3B00044F4807422E01F48854202DB44F080047C
:10D3C0001CE01D491D488D4209DB4168092901D235
:10D3D000491C0AE0FDF736F980B902200CE0184933
:10D3E0008D420BDC416811B10021416006E0FDF780
:10D3F00029F9022802D1002001F010FF114D2968FF
:10D400000888A04202D000B134B10C80286800889E
:10D410000028AED0012038BDB0F5806FFAD1FCF7FE
:10D420000BFAF3E70000204154060020BE01002063
:10D430000000C8C200008C4200008242BC060020EE
:10D44000000070425006002070B5012001F034FF4A
:10D450001D4C50B1216A2069421AB2F5616F2FD973
:10D4600088422DD902F050F82AE0A068022809D29B
:10D47000C00704D00120607100F0C0FA20E000F085
:10D48000B9F91DE000206071FDF7D0F80F4D0628B6
:10D4900004D10F482968006800884880022001F004
:10D4A000FBFE0C482A680168098811800068007832
:10D4B00001F0B2F800F09EF9FBF74CFF0020A060ED
:10D4C000A068401CA06070BD4C080020D401002062
:10D4D000DC010020D801002072B6704762B67047A8
:10D4E00000B50121132821D2DFE800F00A0D0D0D4F
:10D4F0000D0D1010101010131313131316191C0018
:10D5000002F0B2F810E001F0CFFF0DE001F0E4FF0F
:10D510000AE001F0EDFF07E002F08AF804E002F013
:10D5200053F801E002F078F800B10021084600BD90
:10D53000401E042801D8012070470020704714388D
:10D54000502801D8012070470020704741F25C71DB
:10D550001438884201D8012070470020704700002D
:10D56000FBF7C8FC0448FEF762F9FBF76FFC1420D8
:10D5700005F016FEF6E70000D81300202DE9F04173
:10D5800000250B4E2C46012706EBC400818856F877
:10D590003400FEF71DF818B907FA04F02843C5B2A5
:10D5A000641CE4B2042CEFD32846BDE8F0810000EF
:10D5B000EC07002003484179012901D10021417184
:10D5C000704700004C0800202DE9F04385B0064666
:10D5D0000020029003900490984691460D46F0B2C8
:10D5E000FCF75BFD3C24B5FBF4F06427B0FBF7F1DE
:10D5F00007FB1100FCF7F3FCB5FBF4F004FB105043
:10D60000FCF736FD01F050FF08B1002003E001F007
:10D610006FFF18B14046FCF7F7FC02E0FF20FCF773
:10D6200031FC484600F040F8B5FBF4F1B1FBF7F2ED
:10D6300007FB1211B5FBF4F0B6FBF7F204FB105038
:10D64000CDE9001007FB1263424612A102A803F0C5
:10D650008BFC01F041FF01004FF0FF0003D08DF87B
:10D6600008008DF809000A2E01D28DF80A00642EF8
:10D6700001D3072200E006222521042001F052FDFB
:10D68000082302AA2121042001F060FD05B0BDE8B5
:10D69000F08300005025303164253032642530326B
:10D6A000642530326400000010B5044600F001012A
:10D6B000042002F09FFA04F00201052002F09AFA19
:10D6C00004F00401032002F095FA04F0080101209F
:10D6D00002F090FA04F01001BDE81040022002F0C0
:10D6E00089BA00007FB50646002014460D46019019
:10D6F0000290039001F068FF002832D0FCF7E6FDAD
:10D700000122D1031748FDF768FF06F0E1F9304622
:10D71000FCF7EBFC2846FCF787FC134800EB4404BD
:10D7200034F8020DFCF744FC1048007800F00500C6
:10D73000FFF7BAFF02F086F9208800902B463246A8
:10D740000BA101A803F010FC00222521042001F008
:10D75000E9FC082301AA2121042001F0F7FC06F0CE
:10D76000D7F97FBD00080140C4060020B8010020A1
:10D77000253032642530326445253033780000008E
:10D780002DE9F041044616460F46FF20FCF78BFBBF
:10D790003C25B4FBF5F06421B0FBF1F201FB120073
:10D7A000FCF71DFCB4FBF5F005FB1040FCF760FC3A
:10D7B00001F07AFE08B1002003E001F099FE18B1F3
:10D7C0003046FCF721FC02E0FF20FCF75BFB38460B
:10D7D000BDE8F041FFF768BF10B500224FF40041EB
:10D7E0000348FDF7FAFEBDE8104002F0E9B9000079
:10D7F0000008014010B501F0E7FE194C40B1207857
:10D8000000F00500FFF750FFBDE8104002F01AB924
:10D8100001F00EFF002822D101F026FF00281ED1C2
:10D8200010480078AA281AD00122D1030E48FDF72B
:10D83000D4FEFFF7BFFE06F04BF9FCF7FDFE0346F2
:10D840000A48227800680188094800680088FFF7C4
:10D85000BBFE02F0F7F8BDE8104006F059B910BD64
:10D86000B8010020D007002000080140DC010020A2
:10D87000D80100207FB5044600200D46019002909B
:10D88000039001F0D5FE002830D00122D1031D48BD
:10D89000FDF7A3FE06F01CF92046FCF73BFB2846EB
:10D8A000FCF75CFB042C22D0052C20D0FCF712FBEB
:10D8B0000020FFF7F9FE00222521042001F032FCB0
:10D8C0002346002210A101A8009503F04DFBFF2084
:10D8D0008DF804008DF80500082301AA21210420F9
:10D8E00001F034FC02F0AEF806F012F97FBD0A48F0
:10D8F00000680078FCF7F9FA1020FFF7D5FE08223F
:10D90000DAE7000000080140253032642530326437
:10D9100025303464000000008C01002070B50446FE
:10D9200006F0D6F80021072002F064F94121072013
:10D9300002F092F92146062002F0B6F90D4C3C2582
:10D94000642120680088B0FBF5F0B0FBF1F201FB28
:10D950001200FCF744FB20680088B0FBF5F105FBE2
:10D960001100FCF785FB02F06DF8BDE8704006F091
:10D97000CFB80000DC01002070B50C46054601223E
:10D98000D1031D48FDF729FE06F0A2F82046FCF75A
:10D9900084FB0121052002F02DF90021012002F075
:10D9A00029F90021022002F025F90A24B5FBF4F040
:10D9B000B0FBF4F104FB1101052002F075F9B5FB91
:10D9C000F4F004FB1051042002F06EF95521002000
:10D9D00002F042F95021012002F03EF964210220B8
:10D9E00002F03AF94121032002F036F902F02AF858
:10D9F000BDE8704006F08CB80008014010B506F094
:10DA000067F8FCF719FE02460648074900680978DE
:10DA10000088FFF7B5FE02F015F8BDE8104006F0EB
:10DA200077B80000DC010020B801002070B50122A9
:10DA3000D1032F48FDF7D1FDFCF762FE2D4D0A24DE
:10DA40002870B0FBF4F0B0FBF4F104FB11010520E9
:10DA500002F02AF92878B0FBF4F104FB110104204C
:10DA600002F022F95321072002F0F6F84A2106209D
:10DA700002F0F2F8FCF79EFD4FF47A75A84201D24D
:10DA8000FF2107E0FCF796FDB0FBF5F0B0FBF4F1E9
:10DA900004FB1101002002F007F9FCF78BFD642163
:10DAA000B0FBF1F0B0FBF4F104FB1101012002F036
:10DAB000FBF8FCF77FFDB0FBF4F0B0FBF4F104FBE6
:10DAC0001101022002F0F0F8FCF774FDB0FBF4F154
:10DAD00004FB1101032002F0E7F80020FFF7E4FD4A
