:020000040800F2
:10800000A8600020DD8100082FF60008C5DA00080E
:108010002DEE00088D9C00086D1301080000000083
:108020000000000000000000000000004581000882
:108030001DA400080000000089810008E9FE000876
:10804000F7810008F7810008F7810008F781000830
:10805000F7810008F7810008F7810008F781000820
:10806000F7810008F7810008F7810008F781000810
:10807000F7810008B5A30008F7810008F781000820
:10808000F7810008F7810008F7810008F7810008F0
:10809000F7810008F7810008F7810008F7810008E0
:1080A000F781000815050108F7810008F78100082D
:1080B000F7810008F781000821050108F781000811
:1080C000F7810008F7810008F7810008F7810008B0
:1080D000F781000875110108A1110108DD110108DF
:1080E000F7810008F7810008F7810008F781000890
:1080F000F7810008F7810008F7810008F781000880
:10810000F7810008F78100082D050108F7810008B4
:10811000D10D0108D50D010851050108F7810008AE
:10812000F7810008F7810008C1A30008F781000863
:10813000DFF80CD000F018FD00480047893A01082C
:10814000A8600020224B19680868B0E8F00F80F39F
:108150000988BFF36F8F4FF0000080F311884EF055
:108160000D0E70470000000006480068006880F3AC
:10817000088862B661B6BFF34F8FBFF36F8F00DF21
:1081800000BF00BF08ED00E0EFF30980BFF36F8F81
:108190000F4B1A6820E9F00F106008B54FF050003F
:1081A00080F31188BFF34F8FBFF36F8F0DF0DCFCAE
:1081B0004FF0000080F31188BDE808401968086896
:1081C000B0E8F00F80F30988BFF36F8F704700BFEE
:1081D00060000020EFF305807047000006488047EC
:1081E00006480047FEE7FEE7FEE7FEE7FEE7FEE79C
:1081F000FEE7FEE7FEE7FEE791FF00083181000899
:10820000202A04DB203A21FA02F00021704721FAEB
:1082100002F3D040C2F12002914008431946704752
:108220002DE9FE43994615468846074601AC0229CA
:1082300042D3002D40D000200290A8F101004FF061
:10824000FF36009022E000FB057201FB057011462D
:108250004A469047002805DC54F82600304444F88C
:10826000260013E060682A4600FB057154F8040CF0
:1082700000FB057007E00B7890F800C001F801CB17
:1082800000F8013B521E002AF5D1764254F8040C46
:1082900061688842D7DC4B462A463846FFF7C0FF64
:1082A00054F8040C4B46A8EB0001401C00FB057081
:1082B0002A46491EFFF7B4FFBDE8FE8340EA0103EA
:1082C0009B0703D009E008C9121F08C0042AFAD28C
:1082D00003E011F8013B00F8013B521EF9D2704750
:1082E000D2B201E000F8012B491EFBD270470022F8
:1082F000F6E710B513460A4604461946FFF7F0FFA5
:10830000204610BD10B5044604E00B7800F8013B90
:1083100003B1491C521EF8D2204610BD421C10F871
:10832000011B0029FBD1801A704730B5044600209C
:10833000034600E05B1C934203D2E05CCD5C401B33
:10834000F8D030BD70B50F4D00B92868002412E098
:108350000A4602E09E4203D0521C1378002BF9D14A
:10836000DAB2224305D02BB124B1002100F8011B61
:1083700004E00446401C0678002EE9D1286020461F
:1083800070BD00009809002070B5064609F068FE2F
:10839000046805460A220021304600F001FB2C60EB
:1083A00070BD80EA010210B502F00043400022D007
:1083B0004A001FD0010E01EB1261C0F35600C2F358
:1083C000560240F4000042F40002A0FB0220000428
:1083D0007F39140400D0401C50EA124001D4400000
:1083E000491EC2B20C0604EBD010401C4008802A83
:1083F00002D003E0002010BD20F00100002900DAC7
:108400000020184310BD30B480EA010202F000459C
:1084100030F0004221F0004013D090B1C30DD40DD4
:10842000C2F31601C0F31600E41A41F4000140F44F
:1084300000027D34914201D3641C00E04900002C0D
:1084400002DA30BC002070474FF400000023914254
:1084500001D3891A034340084FEA4101F7D151B1D2
:10846000914202D14FF0004105E002D24FF00101EC
:1084700001E06FF0010103EBC450284430BC00F070
:10848000C7BA2DE9FE4F804681EA0300C00F0C46B3
:10849000009021F0004123F00045B8EB0200A94113
:1084A00005D24046214690461C460B46024623F024
:1084B0000040104347D0270DC7F30A00C3F30A5109
:1084C0000290401A019040286BDAC3F3130040F485
:1084D000801B0098924620B10023D2EB030A63EB85
:1084E0000B0B01985946C0F14002504600F037FA94
:1084F00006460D4650465946019A00F03FFA10EBE9
:1085000008006141002487EA115284EAE7731A43A4
:1085100040D0009A62B3019A012A4FEA075215DC53
:10852000001B61EB02014FF0004202EA0752CDE965
:108530000042001C41F5801132462B4600F0AEFA95
:1085400003B0BDE8F08F40462146F9E7001B61EB20
:108550000201001C41F5801300185B412018A2F5B0
:10856000001747EB030140EAD570B6196D4111E0E1
:108570006D084FEA360645EAC0754FEA0752001B00
:1085800061EB0201001C41F5801149084FEA3000FF
:108590000019514132462B4603B0BDE8F04F00F0C0
:1085A0006EBA0098012240000023D0EB020263EB78
:1085B000E073009821464FEAE074B8EB000061EBED
:1085C0000401E9E783F000435BE781F0004158E7ED
:1085D0002DE9FE4F81EA030404F0004421F000413C
:1085E00000944FF0000B23F0004350EA01045ED0EA
:1085F00052EA03045BD0C3F30A54C1F30A552C4476
:10860000A4F2F3340194A0FB0254C1F3130141F42A
:108610008011C3F3130343F4801301FB024400FBF6
:10862000034E840A970A44EA815447EA8357A4FB1D
:10863000076802958D0A05FB07854FEA932C04FB1A
:108640000C542705029D4FEA065847EA1637B5EB4A
:1086500008056EEB070C870E920E47EA811742EA77
:108660008312A7FB0201B6EB0B0164EB00042B0D98
:1086700043EA0C335E1844EB1C50DA465146E7FBE4
:108680000201C5F313044FEA0B3343EA14534FEAD4
:108690000432019C43EA0603A4F10C040294009CFA
:1086A000CDE900B400F0FAF903B0BDE8F08F002086
:1086B0000146F9E72DE9F04D81EA030404F0004B8F
:1086C00021F0004514464FF0000A23F0004150EA23
:1086D000050220D054EA01021DD0C5F30A57024614
:1086E000C5F31303C1F31300C1F30A5640F4801518
:1086F00043F48013A7EB0608101BD64608F2FD389A
:1087000073EB050002D308F1010801E092185B4108
:10871000B8F1000F03DA00200146BDE8F08D00201B
:108720004FF48011064684460EE0171B73EB0507D5
:1087300005D3121B63EB050306434CEA010C490801
:108740004FEA300092185B4150EA0107EDD152EA3E
:10875000030012D082EA040083EA0501084305D031
:10876000101BAB4106D20122002306E000224FF08D
:10877000004302E06FF0010253101AEB06004CEBCD
:10878000085110EB0A0041EB0B01BDE8F04D00F081
:1087900076B996230022114600F043B90EB5C10FF9
:1087A00080EAE0700844CA07002140F233438DE8B4
:1087B0000E000A460B4600F071F903B000BD0EB57D
:1087C00040F2334102910021CDE900110A460B46E7
:1087D00000F064F903B000BD00F0004220F000405A
:1087E000C10DC0F3160040F400007F2901DA00201B
:1087F0007047962903DCC1F19601C84001E0963923
:108800008840002AF4D040427047C1F30A5210B5A4
:10881000C1F3130140F2FF3341F480119A4201DAAF
:10882000002010BD40F233439A42A2F2334203DCEF
:108830005242FFF7E5FC10BD904010BD00F0004231
:1088400030F000400AD0C10D01F56071C0F3160090
:1088500042EA0151C2084007114370470020014617
:108860007047000030B5041E71F1000404DB4FF0C6
:108870000044404264EB0101141E73F1000405DB67
:108880001C464FF00043524263EB04038B4208BF87
:10889000824230BD30B5041E71F1000404DB4FF09C
:1088A0000044404264EB0101141E73F1000405DB37
:1088B0001C464FF00043524263EB0403994208BF49
:1088C000904230BD01F0004330B421F0004150EA45
:1088D000010206D00A0DA2F56072C1F31301002A4D
:1088E00002DC30BC00207047440F44EAC104C100E0
:1088F000E01830BC00EBC25000F08AB82DE9F05F00
:108900000546002092469B468846064681464024FE
:108910001BE02846414647462246FFF771FC534676
:108920005A46C01A914110D311461846224600F00B
:1089300016F82D1A67EB01084F4622460120002148
:1089400000F00DF817EB00094E41201EA4F10104C0
:10895000DFDC484631462A464346BDE8F09F202AE0
:1089600004DB203A00FA02F1002070479140C2F186
:10897000200320FA03F3194390407047202A06DBB6
:10898000CB17203A41FA02F043EAE07306E041FADD
:1089900002F3D040C2F120029140084319467047CB
:1089A0002DE9F04791460F4680460446002614F80C
:1089B000015B2DB100F0EAF80068405DC007F6D118
:1089C0002B2D02D02D2D18D0641E4A463946204644
:1089D00000F0E0F827B13968A14201D1C7F8008062
:1089E00071054FF002040BD54042002803DD09F069
:1089F00037FB0460A007BDE8F08746F48066E4E733
:108A00000028F8DA09F02CFB04606FF00040F2E770
:108A10000029A8BF7047401C490008BF20F0010092
:108A2000704710B4B0FA80FC00FA0CF050EA010470
:108A300004BF10BC704749B1CCF1200421FA04F402
:108A400011FA0CF118BF012121430843A3EB0C01DB
:108A5000CB1D4FEA00614FEA102042BF002010BC3E
:108A6000704700EBC35010440029A4BF10BC7047EE
:108A7000401C490008BF20F0010010BC704710B531
:108A8000141E73F1000408DA401C41F10001921831
:108A90005B411A4301D120F0010010BD2DE9F04DDA
:108AA00092469B4611B1B1FA81F202E0B0FA80F22F
:108AB00020329046FFF753FF04460F4640EA0A0073
:108AC00041EA0B0153465A46084313D0114653EA74
:108AD000010019D0C8F140025046FFF791FB05464E
:108AE0000E46504659464246FFF739FF084305D027
:108AF000012004E020463946BDE8F08D0020054302
:108B000046EAE0762C4337430A986305E40AA0EB73
:108B100008000022FD0A44EA47540A3002D500202A
:108B20000146E9E7010510196941DDE90845001929
:108B30006941BDE8F04DA2E770B521F00043034361
:108B40000CD0C1F30A550024D5EB040564EB0403F3
:108B5000D617AD1AB34102DB0020014670BD2018C4
:108B600041EB025170BD0000064C074D06E0E06885
:108B700040F0010394E8070098471034AC42F6D364
:108B8000FFF7DAFAE46B0108046C0108004870474B
:108B9000846B01082DE9F05F8246007800271546B6
:108BA0008B460AF10104B946302801D09DB113E08B
:108BB00014F8010B0127782803D0582801D045B1BB
:108BC0000AE00DB1102D07D10027102514F8010B74
:108BD00002E0082500E00A250026B0460EE005FB6D
:108BE000080005FB06F1012701EB10461FFA80F88B
:108BF000B6F5803F00D3B94614F8010B294600F0C2
:108C000069F80028EBDABBF1000F05D00FB1641E44
:108C100000E05446CBF80040B9F1000F06D009F04F
:108C20001FFA02210160C81EBDE8F09F48EA064015
:108C3000FAE72DE9F04D00231A461B1A8A4103DB9F
:108C400000200146BDE8F08DC1F30A52C1F31301C3
:108C500041F480154FF0000BD10702D100186D418F
:108C6000521E0027044640F2FF11384601EB620A0B
:108C70003E468046024600204FF48011FFF7C0FABE
:108C8000C2197141BB1846EB0100B4EB030C75EB44
:108C9000000C04D3E41A65EB000517460E462419B0
:108CA00008F101006D4180463428E3DDF91946EBF7
:108CB0000600091BA84103D24FF0FF32134601E022
:108CC000002213461BEB070046EB0A51BDE8F04DAE
:108CD000FFF7D5BE3A2800D2303820F02002412AD2
:108CE00001D3A2F13700884201D34FF0FF30704723
:108CF00070B58C1810F8015B15F0070301D110F85E
:108D0000013B2A1106D110F8012B03E010F8016B8A
:108D100001F8016B5B1EF9D12B0705D40023521E0D
:108D20000DD401F8013BFAE710F8013BCB1A921C75
:108D300003E013F8015B01F8015B521EF9D5A14273
:108D4000D8D3002070BD000070B50446006881686B
:108D5000C943C90717D1816821F00101816003F07F
:108D600051F805460AE000BF03F04CF8401B02280A
:108D700004D920688068C043C00706D02068806896
:108D8000C043C007F0D0002070BDA06A40F01000C2
:108D9000A062E06A40F00100E062012070BD0000C6
:108DA000F8B500260446009600688168C943C907E3
:108DB0002DD0816841F00101816016481649006894
:108DC000B0FBF1F000E0401E00900028FBD103F062
:108DD00019F8054616E000BF03F014F8401B0228FE
:108DE00010D920688068C043C0070BD0A06A40F04B
:108DF0001000A062E06A40F00100E06284F82460A4
:108E00000120F8BD20688068C043C007E4D100207D
:108E1000F8BD00005C00002040420F002DE9F05F2B
:108E2000554C002635466089B046400511D5A079DD
:108E3000022809D2A169962902D2401CA07100E043
:108E4000A671A661BDE8F09F4FF4806006F0A4FC17
:108E5000A6714A4F4A49A6613888096840BA4FF05E
:108E6000640B08807888D94640BAB0FBF9F2DFF885
:108E700014A10621AAF80000042006F0BBFEBAF8EF
:108E800000100420B1FBF9F209FB1212072106F0D1
:108E9000B1FE7868F97900BA20F0FF000843FFF7C7
:108EA0007DFC4FF06632384BFFF704FCFFF7ADFC5A
:108EB000DFF8D8A081B20522DAF80000DFF8DC90F4
:108EC0000160D7F81600797E00BA20F0FF00084351
:108ED0002F49B0FBF2F0096808602E49788B0968C9
:108EE00040BA08802C4800680680D9F8000097F83E
:108EF00034100180788F362140BA60F30F05B88FA7
:108F000040BA60F31F45F88F474640BA60F30F0739
:108F1000AAB2042006F06EFE2A0C3721042006F0C7
:108F200069FE3A463821042006F064FED9F80000B4
:108F3000218A0088884201D0208206E0E169C1B11F
:108F4000C0B200F03BFF06F09BFEE6610C480A2130
:108F50000068B0F9000090FBF1F000B201F004F8F5
:108F6000DAF800000168B1FBFBF0BDE8F05F01F04A
:108F70000FB80120E061E9E714090020CC4500208A
:108F800038060020280600206666F63F3C060020D2
:108F90003006002040060020440600202C06002059
:108FA00006490A780AB90B690B621044C0B208700E
:108FB000032801D30020086270470000D008002079
:108FC0002DE9F041012007F0C1FD00F061FE314CB8
:108FD000D4E904010AF0A2FAA080E188814203D01A
:108FE00000F042FEA088E08007F0C6F900252A4F75
:108FF000012648B907F0B0F910B907F053F9E8B104
:10900000022006F0D9FEC8B12078DFF890801BE07E
:10901000D4E9040100223B46FFF724FC2FD31E496C
:109020000020C4E904012670BDE8F081C4E9040110
:10903000FAE70020C4E904002570F5E707F072F9AB
:10904000DFF85C8018B120780028E1D002E007F05A
:1090500079F968B1D4E9040100221346FFF71AFC3C
:10906000E7D2D4E9040100224346FFF7ABFADDE77B
:10907000D4E9040100223B46FFF7F4FB06D2D4E911
:10908000040100224346FFF7FCF9CFE70020024924
:10909000CCE70000080800200040AF40000054402A
:1090A0000000404010B5002000F0DEFD064C01221B
:1090B0002021204602F0A1FE20460122BDE81040FA
:1090C000102102F09ABE0000000C014010B505F01E
:1090D00081F905F09BF905F0F5FA00F0C5FE08B13D
:1090E00008F0FAFC07F0A0FB07F08CFBBDE810408D
:1090F00007F012BD10B5274C40F276712068FFF7DB
:10910000F6F821681520254C0880234902200968BB
:109110000880E16A0520088000202070206A6168CC
:109120000160606AA168016006F08EFE01220721DD
:10913000032006F05FFDB1220821032006F05AFD4E
:10914000C82204F16001E068FFF7B8F8E068C822BF
:1091500004F59471C830FFF7B1F8E068C82204F54F
:10916000F87100F5C870FFF7A9F8E068C82204F5A7
:109170002E7100F51670FFF7A1F8E068C82204F51B
:10918000607100F54870FFF799F8BDE8104008F0ED
:10919000A3BC00008801002094010020C001002031
:1091A0002DE9F041082007F0D1FC244D244C002685
:1091B00028680088D8B10221B1EB102F10D8C1B2B5
:1091C000217004F14C0200201E4C6323175C8F4277
:1091D00001D144F82030401CC0B20B28F6D300E087
:1091E000207000F035F828680680BDE8F08104F0B2
:1091F00001FE6071217881421DD1A079401C10F0E0
:10920000FF00A071F1D0E07988B10029EDD00120F4
:1092100000F06EFD607821780843607005F0AEF8CC
:109220006278BDE8F0416421032006F0E3BCBDE8AC
:10923000F04100F00DB82070A671D6E75806002066
:1092400020080020184700200F2005F097B80000E4
:109250002DE9F041394D3A49E868401CE860097849
:10926000002968D029699631884202D9012007F087
:1092700091FB0024314F334E4C37A046395D2A789C
:1092800091422BD130490968C1F80080E868286113
:10929000002007F07FFB56F82400401C46F824000D
:1092A000642842D100F02CFD2878012801D0022842
:1092B00004D156F82400401E46F8240007F026F892
:1092C00008B1224806E006F0EDFF08B1204801E0B1
:1092D0001A48843050F82400804726E0687890438C
:1092E000814220D156F8240064281ED200F008FDE7
:1092F00007F00CF808B1174803E006F0D3FF20B1DF
:10930000154850F82400804707E00C48583050F8C2
:1093100024008047002006F063FC07F013F810B12A
:10932000385D06F007FD46F82480641CE4B20B2C7F
:10933000A4D328786870BDE8F081000020080020E0
:10934000080600201847002060060020C406002000
:1093500028070020A40600200807002070B5102070
:1093600007F0F4FB2D4C42F20F720025A169491C55
:10937000A1612089904202D2401C208100E0258119
:10938000274802784FF48060AA2A0ED040F2DC52BF
:10939000914201D906F074FCA0694FF49671B0FBBC
:1093A000F1F201FB120222B107E0B1F5FA7FF1D828
:1093B000F2E7884201D305F07FFF01F01FFD50B1B5
:1093C00001F01CFD012828D1A078012825D105F045
:1093D00057FFA57019E021890A20B1FBF0F200FBCC
:1093E0001212062A11D0B1FBF0F200FB121282B168
:1093F000B1FBF0F200FB121003280ED120780028F8
:109400000BD0BDE8704005F099BDBDE8704005F097
:10941000D7BEBDE8704005F0B1BD70BD1409002095
:109420002708002010B50021032001F04FFC214C3B
:10943000A080401EFE2805D31522A2800021032013
:1094400006F0D8FB0121032001F040FCE080032856
:1094500005D90322E2800121104606F0CBFB022150
:10946000032001F033FC2081072805D9072222813F
:109470000221032006F0BEFB0421032001F026FC9C
:109480006081082805D9082262810421032006F0A2
:10949000B1FB0521032001F019FCA081012807D9A7
:1094A0000122A2810521BDE81040032006F0A2BBE5
:1094B00010BD00008406002010B507F03FFB05F04A
:1094C0000DF91A4C207868B3AA2802D006F0B6FE2F
:1094D00009E006F08FFE06E004F0CCFE04F084FB09
:1094E00018200AF0DDFF6421032001F0EFFB0F28B4
:1094F000F2D16521032001F0E9FB0928ECD106F047
:1095000061FE2078AA2801D106F02CFB00F0ECF8CF
:1095100000226021032006F06DFB08F0DDFA002038
:10952000207010BDBDE8104000F016B827080020DC
:10953000074910B50220087006F034FD00F0CAFF9C
:109540000449AA200870BDE8104006F017BE0000CC
:10955000BC0100200806002070B5484CE068401CA3
:10956000E06007F0C1FF00F023FBE06814287DD322
:109570000025E5602069424E401C206121790129C7
:109580000BD00120207106F0DDFE002875D107F018
:1095900009FF05F0A1FE40B331E03A4925710968A1
:1095A0000A68521C0A60384909680A68521C0A6035
:1095B000364909680A68521C0A60216A29B1401AB2
:1095C000B0F5E15F01D92570256206F087FE48B14C
:1095D0003078012140F008003070084607F028FA82
:1095E00007F04EF905F082FC40E03078002120F0D1
:1095F00008003070012007F01BFA07F041F906F06F
:10960000ABFE08B900F046FE04F0EEFA10B101F02E
:1096100069FA2BE0E56101F019FC112803D107F08C
:109620009DFA04F01FFD06F049FE10B104F048FB5E
:109630001CE006F0A1FE10B106F0C4FB16E006F037
:109640008BFE10B106F0D8F810E006F06BFE10B1FA
:1096500006F07CF80AE006F09FFE10B106F0BAFBB7
:1096600004E006F053FE08B106F052F8A078002896
:1096700003D1BDE8704004F0F5BC70BDD0080020F7
:10968000BC0100205C06002060060020640600206B
:1096900010B5012006F088FB00F086FE06F00EFEF5
:1096A00000280ED106F068FE0E4918B1086801883E
:1096B000491E05E006F050FE20B108680188891EA9
:1096C000018010BD06F02EFE18B108680188C91E81
:1096D000F6E706F061FE0028F3D008680188091F4C
:1096E000EEE700001006002010B5012006F05CFB3C
:1096F00000F05AFE06F0E2FD114918B10868018831
:10970000C91C17E006F038FE18B108680188891CEA
:1097100010E006F021FE18B108680188491C09E034
:1097200006F000FE00280AD106F036FE18B10868DF
:109730000188491E0180BDE8104000F0D3BD10BD76
:109740001006002010B5012006F02EFB00F02CFEC4
:1097500006F0B4FD104920B109680888801C088013
:1097600010BD06F009FE18B108680188491C09E01F
:1097700006F0F2FD0028F3D106F0D4FD20B1086810
:109780000188491E018010BD06F006FE0028FAD0AF
:1097900008680188891EF5E71006002010B5012031
:1097A00006F002FB00F000FE06F088FD134918B138
:1097B00008680188091D13E006F0DEFD18B108688D
:1097C0000188C91C0CE006F0C7FD18B108680188C3
:1097D000891C05E006F0A6FD20B108680188491C37
:1097E000018003E006F0D8FD002806D1002005F036
:1097F00077FCBDE8104000F075BD10BD10060020DC
:1098000000B589B020216846FEF771FD08A16846C1
:1098100008F0EEFB6846FEF781FD0146684606F05B
:10982000D7F940F6B8300AF03BFE09B000BD0000A1
:1098300041542B424C45434F4E4E4543543D3132EB
:10984000333435363738393030300D0A00000000F7
:1098500010B5104CA08830B1022807D0092808D0D4
:10986000102809D00CE003210BA007E015210BA064
:1098700004E00F210FA001E00E2112A006F0A8F9CC
:10988000A08842F20F71884201D2401C00E0002003
:10989000A08010BD740900202B2B2B0041542B42BB
:1098A0004C454E414D453D696E7665726A65740D55
:1098B0000A00000041542B424C454D4F44453D2584
:1098C000640D0A0041542B424C454D54553D2564CE
:1098D0000D0A000000B5012000F0F4F80149002055
:1098E000888000BD7409002001480078704700009E
:1098F0007409002000F014F84FF47A700AF0D0FDDB
:1099000000F068F8054802F0A2FB00F075F800F0DE
:1099100099F828200AF0C4FDF4E70000781400202C
:1099200010B51E4B012215211D4805F024FD002114
:10993000032001F0B5F9024640F2BB34234603216F
:10994000174805F0DFFC0021042001F0A9F90246C8
:1099500080230421124805F0D5FC0021032001F0EA
:109960009FF90246234606210D4805F0CBFC002155
:10997000032001F095F9024623461021084805F01E
:10998000C1FC0021032001F08BF923460246BDE80B
:1099900010400521024805F0B5BC0000D1FB0008CD
:1099A000C050002010B5002000F0DAF8012000F0CF
:1099B00091F8FFF725FF06480068008808B9FFF70F
:1099C0001FFF002000F0CCF8BDE8104000F01AB8EE
:1099D0000C02002010B5002000F0C2F800F012F8D0
:1099E000002000F077F8F32000F04AF8BDE81040BE
:1099F000092000F091B80000014805F003BE000006
:109A0000C050002000B589B020216846FEF76FFCE9
:109A100008A1684608F0ECFA6846FEF77FFC0146AC
:109A2000684606F0D5F84FF4FA600AF039FD09B03F
:109A300000BD000041542B424C45444953434F4E16
:109A40000D0A000010B50B480B4C01786078AA296C
:109A500009D018B100206070FFF7BCFFBDE81040CE
:109A6000064805F099BC002803D1FFF79BFF0120B1
:109A7000607010BD2708002074090020C05000202D
:109A800010B588B0044620216846FEF730FC224617
:109A900008A1684608F0ACFA6846FEF73FFC0146AC
:109AA000684606F095F84FF47A700AF0F9FC08B0B1
:109AB00010BD000041542B424C454D54553D25648A
:109AC0000D0A0000032801D8014908707047000002
:109AD0007409002010B588B0044620216846FEF7BE
:109AE00006FC224608A1684608F082FA6846FEF79E
:109AF00015FC0146684606F06BF841F270700AF0FA
:109B0000CFFC08B010BD000041542B424C454D4FD6
:109B100044453D25640D0A0010B588B00446202157
:109B20006846FEF7E4FB224608A1684608F060FAA2
:109B30006846FEF7F3FB0146684606F049F84FF425
:109B40007A700AF0ADFC08B010BD000041542B4201
:109B50004C4552465057523D25640D0A0000000006
:109B600010B588B0044620216846FEF7C0FB8CB1D2
:109B70000AA1684608F03CFA6846FEF7CFFB0146AA
:109B80004FEA0D0006F024F84FF47A700AF088FCD2
:109B900008B010BD032105A0F4E7000041542B5488
:109BA00052414E53454E5445520D0A002B2B2B006B
:109BB00070B5FFF799FE00261E4C1F4D03280CD0F0
:109BC000E868142814D3FFF78FFE012811D0FFF79F
:109BD0008BFE0228AE612BD025E0AE612078C10754
:109BE00003D100BF40F0010001E020F0010020702F
:109BF00070BDFFF72DFEA86910B12969884201D90F
:109C00002869A8612969C80705D12078C2070CD046
:109C100020F001002070A869081A7828E8D90020EF
:109C2000AE61FFF74FFF2078DFE740F00100F1E77A
:109C30002078D7E7BC010020D008002041F288300E
:109C40000AF02EFCFFF72EFA044802F000FAFFF7A4
:109C5000B7F914200AF024FCF6E70000781400207D
:109C60004FF4FA70AFF3008070B5074D0446002141
:109C7000A86803F0E1F9A86801684C63BDE870408A
:109C8000002103F07FB9000008080020FEE7000073
:109C900070B5164C607801280BD002280CD00A2829
:109CA0001BD9A178002551B101290CD0022912D06D
:109CB00013E006F0B3FD10E006F09BFD0DE006F0AA
:109CC000ADFD65700EE0142807D900BF06F0A6FDB3
:109CD0006570A57006E02828F8D8607810B1401C9F
:109CE000607070BDBDE8704006F098BD08080020A7
:109CF0000249887001204870704700000808002061
:109D000010B506F01FFB002804D103480121417063
:109D10000021817010BD00000808002070B5094DB9
:109D200004466878A0420BD00821074803F084F964
:109D300005480068C4630821034803F023F96C70E8
:109D400070BD000048070020CC14002030B5ADF5F0
:109D5000017D0D4604464FF400720B496846FEF73C
:109D6000ADFA0020694608E014F8012B82EA1022BF
:109D700031F8122082EA002080B26D1EADB2F3D21B
:109D80000DF5017D30BD0000D0670108002203E021
:109D900010F8013B1A44D2B2491E89B2F8D2D0431E
:109DA000C0B2704710B506F0D9FE06F0CBFA08B184
:109DB00006F0E4F9BDE8104004F054B970B50400B1
:109DC0004FF0000507D001F019F830B101F016F896
:109DD000012832D045E0002070BD601E262840D802
:109DE000012C08D0022C06D0042C06D00E380328F3
:109DF00005D8042535E0012533E0022531E0032CA8
:109E000005D0A4F12200032803D8102529E0082555
:109E100027E0262C0AD0052C0AD0A4F11B0002282A
:109E20001FD9272C06D04FF400751AE0202518E022
:109E3000402516E04FF4807513E0A00700D00125FF
:109E400014F0300F01D045F40075A00901D045F49D
:109E50008065600701D545F00405200701D545F070
:109E60000805284670BD00002DE9F041324C00265F
:109E70003546206A008803F09EFF18B9206A6168A1
:109E800001250160606A008803F095FF20B1606AD7
:109E9000408803F097FF18B9606AA1680125016046
:109EA000E16A05200A88521E082A02D3088001258B
:109EB00000E045B1214A152112681180E16A08804D
:109EC000A16A0020088005F0BFFF4FF47A7706EB07
:109ED000C600002200EB0613E06800EBC30030F878
:109EE000220003F068FF98B1E06800EBC30000EBCC
:109EF0008200408803F066FF50B18AB1E06800EB51
:109F0000C30000EB8200418830F8020C814207D880
:109F100009493A466031E068FEF7D0F9012503E0CF
:109F2000521CD2B2322AD7D3761CF6B2052ECED32B
:109F30002846BDE8F0810000C00100208801002013
:109F400010B500280CDB074AC0B202F114010BF077
:109F500067FB0448143009F01FFB024909390872F5
:109F600010BD0000E907002010B500280CDB074AEF
:109F7000C0B202F111010BF053FB0448113009F09B
:109F80000BFB0249C91F887110BD0000E7070020C4
:109F9000074A10B5C0B202F117010BF041FB0448AB
:109FA000173009F0F9FA02490B39887210BD000028
:109FB000EB07002070470000134B10B500229C797E
:109FC00011461046522C01D3032202E0502C00D33C
:109FD00001221C7A482C01D3032102E0462C00D335
:109FE00001219C7A412C01D3032002E03F2C00D3B5
:109FF00001208A4203D9824204D9104602E08142FC
:10A0000000D90846987010BDE00700200E490846A8
:10A010004A78007A042A11D2DFE802F010020C110B
:10A020008879412801D21E2002E04B2806D27820F0
:10A0300000F020BC3728F6D34128F8D370473028E9
:10A04000F1D33A28F3D37047E007002010B50C4C49
:10A05000607800280DD105F03DF8142809D9A07AC0
:10A060003F2801D3032003E0A079502802D3012028
:10A07000607010BD207A4628FBD30220F8E700006C
:10A08000E007002070B51B4C0025A07A442808D9B1
:10A090002078411C2170052804D9022005F0F0FD2C
:10A0A00000E02570A079552802D8207A4B2812D9D3
:10A0B000E089401C80B2E08178280CD305F00AF8D2
:10A0C0006071502801D3400802E0142804D91420FC
:10A0D00000F020FCE58170BDA079552801D9402011
:10A0E00003E0207A4B28F6D98020BDE8704005F0C7
:10A0F000C7BD0000E007002010B50446094800680D
:10A100000078A0420CD000F0EDF800F04DF92046A8
:10A1100003F022FE002803D0BDE8104000F040BD4F
:10A1200010BD00001006002010B50622064B0021CD
:10A1300033F81140844201D1012010BD491C89B27D
:10A140009142F5D3002010BD0809002070B506F03B
:10A15000F9F818B1BDE8704006F010B806F0E2F862
:10A16000244C40B1A069616900880880BDE8704056
:10A17000002000F041B905F049FF002520B1206A18
:10A18000A1690088088027E005F058FF40B1606AA7
:10A19000A16900880880606AE169408808801DE044
:10A1A00005F058FFD0B100F057FE03F0FDFD10B9E7
:10A1B000012005F09FFD257000F04EFE00EBC00170
:10A1C00001EB0010E16801EBC000A16930F8C80C98
:10A1D000088006F0E1F808B9E069058005F07CF830
:10A1E00020B1022005F0D8FDA0690078BDE87040DC
:10A1F00004F076BFC00100200D4810B50068A0F53E
:10A200000061B1F5E04F11D80A490B4C0144801EA2
:10A21000B1F8FE1F49BA218081B208480BF042FA1A
:10A2200060802188814201D1012010BD002010BD35
:10A230000478000800300208A8010020004002084D
:10A24000034840693E2801D901207047002070472B
:10A250008406002010B5044617290CD0102916D109
:10A2600010220B49FEF761F8002810D10220BDE84A
:10A270001040FFF727BC064917221739FEF755F89B
:10A280000028F4D0024917222E392046EAE710BDF3
:10A29000B265010870B5124CE07800281ED0002588
:10A2A0002570E5816570A570207908B100F0A4F8EB
:10A2B000E57025710A48657165611830A571056002
:10A2C0000571E5712572C4F81D5084F8215065723E
:10A2D000A572C4F8225084F82650E57270BD0000C3
:10A2E000E00700200148016941627047D008002062
:10A2F0000149002048707047D008002010B50022A6
:10A300006221032005F076FC00226421032005F081
:10A3100071FC00226521032005F06CFC05F0BAFFFA
:10A32000BDE8104005F036BE10B500F035F8124912
:10A33000002009680880114908704870887010482A
:10A340000068007805F0B6FC0E480068007805F05B
:10A35000D1FC0D480D4A01681268098811800C492A
:10A360000C4A096812680988118000680078BDE805
:10A37000104000F041B8000048060020E40600202C
:10A38000180600201C06002020060020D80100200E
:10A3900024060020DC010020024800218161418167
:10A3A00070470000140900200149002088607047B0
:10A3B000D0080020014801F087B9000014190020DE
:10A3C000014801F081B90000D018002030B590F8A4
:10A3D00040500124AC40C56B6C6004686360436806
:10A3E000102B036803D099600068C26030BD9A608A
:10A3F0000068C16030BD000010B50446012005F0C2
:10A40000DBFC002807D10448806904802046BDE8B1
:10A41000104004F065BE10BDC00100207047000070
:10A420000B4810B540680168CA6842F01002CA6063
:10A4300001684A6942F001024A611022054902F0AE
:10A4400076FE05480068016821F00401016010BD36
:10A45000B4010020BC450020D018002010B586B003
:10A460000446142219496846FDF728FF4FF4E131EC
:10A47000042C26D01648012C0FD0022C19D0032C06
:10A480001AD0052C1DD0601E04281CD8684600EB8D
:10A49000840050F8040C06B010BD0069018804293E
:10A4A00001D30221018088B20949143151F82000FA
:10A4B000F1E74FF41650EEE7007810B14FF4166054
:10A4C000E9E70846E7E70020E5E7000070650108D6
:10A4D0008401002010B5124C20680078C0074FF0AE
:10A4E000050002D000F052F801E000F019FA2068EF
:10A4F000007880074FF0010002D500F047F801E036
:10A5000000F00EFA2068007840074FF0020003D5F3
:10A51000BDE8104000F03AB8BDE8104000F000BAC5
:10A52000E801002010B50021032000F0B9FB0F4C1A
:10A5300001216060032000F0B3FB20610120FFF7E0
:10A540008DFF0221042000F0ABFBA060032104205A
:10A5500000F0A6FBE0600221032000F0A1FB04490B
:10A560000860BDE8104005F077BB000084010020C2
:10A57000E8010020044909680988014201D001204E
:10A580007047002070470000E8010020012811D02A
:10A590006FF0200102280FD003280FD0042816D016
:10A5A000052813D10B480268D36823F02003D36039
:10A5B00000680AE008F09CBB074A00E0074A106800
:10A5C000C36823F02003C360106801607047044A29
:10A5D000F5E70000C417002030160020D816002030
:10A5E0008017002010B50446800703D5FF21052001
:10A5F00006F078FAE00705D0FF21BDE810400420FE
:10A6000006F070BA10BD10B50446400703D500210E
:10A61000072006F00DFAA00703D5FF21072006F05A
:10A6200061FAE00705D0FF21BDE81040062006F0E2
:10A6300059BA10BD10B5FF21052006F053FAFF21CD
:10A64000BDE81040042006F04DBA70B505460A2456
:10A65000B0FBF4F0B0FBF4F104FB1101052006F0AF
:10A6600041FAB5FBF4F004FB1051BDE87040042042
:10A6700006F038BA70B50446642802D94FF0640475
:10A6800000E002D34FF0010101E04FF000014FF074
:10A69000070006F0CDF90A25B4FBF5F0B0FBF5F1A3
:10A6A00005FB1101072006F01DFAB4FBF5F005FBD0
:10A6B0001041BDE87040062006F014BA70B504469B
:10A6C0004FF47A70B4FBF0F00A25B0FBF5F105FB0E
:10A6D0001101002006F006FA6420B4FBF0F0B0FB94
:10A6E000F5F105FB1101012006F0FCF9B4FBF5F0D2
:10A6F000B0FBF5F105FB1101022006F0F3F9B4FB04
:10A70000F5F005FB1041BDE87040032006F0EAB902
:10A7100010B504464521002006F0BCF9C4F303211E
:10A72000012006F0DFF9C4F30311022006F0DAF984
:10A7300004F00F01BDE81040032006F0D3B970B556
:10A7400005460A24B0FBF4F0B0FBF4F104FB110160
:10A75000002006F0C7F9B5FBF4F004FB1051BDE88A
:10A760007040012006F0BEB910B504465021052006
:10A7700006F090F90A20B4FBF0F100FB1141BDE8AE
:10A780001040042006F0AEB970B50446642802D922
:10A790004FF0640400E002D34FF0010101E04FF0FC
:10A7A00000014FF0070006F043F90A25B4FBF5F06D
:10A7B000B0FBF5F105FB1101072006F093F9B4FB9E
:10A7C000F5F005FB1041BDE87040062006F08AB99F
:10A7D00070B505460A24B0FBF4F0B0FBF4F104FBBD
:10A7E0001101022006F07EF9B5FBF4F004FB1051D4
:10A7F000BDE87040032006F075B970B504466428C2
:10A8000002D94FF0640400E002D34FF0010101E0EF
:10A810004FF000014FF0070006F00AF90A250A2C54
:10A8200001D2FF2105E0B4FBF5F0B0FBF5F105FB2B
:10A830001101072006F056F9B4FBF5F005FB1041B5
:10A84000BDE87040062006F04DB970B505460A24F3
:10A85000B0FBF4F0B0FBF4F104FB1101052006F0AD
:10A8600041F9B5FBF4F004FB1051BDE87040042041
:10A8700006F038B910B50D4C618AB1FBF0F200FB5F
:10A88000121078B904F026FC60712179884207D251
:10A89000401CC0B2607100F03DF80020608201E011
:10A8A000FFF7F8FC608A401C608210BDE0070020C2
:10A8B00010B50D4CE07840B104F00CFC6071142828
:10A8C00011D9401EC0B2607108E004F003FC207191
:10A8D0000A38142801DBC0B200E0142000F01AF896
:10A8E000E078401CE07010BDE0070020084810B57B
:10A8F0004169491C4161FFF7A9FBFFF75DFB06F0C9
:10A90000ABFCFFF7BFFBBDE81040FFF77FBB0000CB
:10A91000E007002001494871FFF76EBDE007002005
:10A9200010B5012810D06FF02004022810D00328A1
:10A9300015D004281CD0052819D10122104911482E
:10A9400002F0CCFF0F4810E0BDE8104008F0E0B97D
:10A9500001220D490D4802F0C1FF0C4805E001221B
:10A960000B490C4802F0BAFF0A480068046010BDA9
:10A9700001220949094802F0B1FF0848F5E7000043
:10A9800048000020C4170020450000203016002099
:10A9900046000020D8160020470000208017002025
:10A9A00072B6FEE770B50D4E054630460AF0E4FD7E
:10A9B000002812D10A4C206940F002002061656134
:10A9C000206940F04000206130460AF0D5FD0128A2
:10A9D00003D0206920F00200206170BDFFFF5F00FE
:10A9E00000200240044B0022DA61044A136943F05C
:10A9F0000103136101807047A0190020002002406C
:10AA000014480022C168CB06134904D5CA6942F034
:10AA10000202CA611022C3685B0705D5CB6943F007
:10AA20000103CB6142F00402C369DB0707D0CB69A5
:10AA300043F00403CB61C16921F00101C161A2F5BA
:10AA40008071013901D0C2607047C16921F00101F4
:10AA5000C161704700200240A019002070B5054672
:10AA600001F0D0F90646114C09E0681C07D025B169
:10AA700001F0C8F9801BA84201D9032070BDE0682D
:10AA8000C007F2D1E068800601D52020E060E068D0
:10AA9000C00605D4E069C00702D1E068400703D5CD
:10AAA000FFF7AEFF012070BD002070BD0020024006
:10AAB000B0F5804F01D3002070470120704700009F
:10AAC000064800B50068008800F074F90449087071
:10AAD0004A78824201D90120487000BD4806002012
:10AAE000E406002010B500F0B1F9112802D006F0FC
:10AAF0004BF818E005F0D6FBA8B103F047F890B981
:10AB00001048C16911B10269914201D90169C1615D
:10AB10000169C069081A3C2805D90B4800680088FB
:10AB200008B9FFF73FF904F075FA30B1022005F0DB
:10AB300043F910B1022005F037F9BDE8104006F0E6
:10AB4000AFBB0000D00800202C06002004480021E4
:10AB5000026D1180426D1180806D016070470000B0
:10AB6000C001002010B50C4C216D0A8810440880EB
:10AB7000A0690088142801D3616D088000F0C2F834
:10AB80000649097848436421B0FBF1F1A06D0268E1
:10AB90001144016010BD0000C00100201409002014
:10ABA00006F05ABC0F4810B5006809F0AFFC0E481B
:10ABB000006809F0ABFC0D48006809F0A7FC0C48E0
:10ABC000006809F0A3FC0B48006809F09FFC0A48E4
:10ABD000006809F09BFC09480068BDE8104009F0D6
:10ABE00095BC00002C000020200000202400002044
:10ABF0002800002030000020340000203800002011
:10AC00000D4810B5006809F09BFC0C48006809F07D
:10AC100097FC0B48006809F093FC0A48006809F0AB
:10AC20008FFC0948006809F08BFC08480068BDE803
:10AC3000104009F085BC00002C00002020000020FE
:10AC400024000020280000203000002034000020D4
:10AC50000D4810B5006809F073FC0C48006809F055
:10AC60006FFC0B48006809F06BFC0A48006809F0AB
:10AC700067FC0948006809F063FC08480068BDE803
:10AC8000104009F05DBC00002C00002020000020D6
:10AC90002400002028000020300000203800002080
:10ACA000032802D0042805D00AE0B1F56F7F07D24F
:10ACB000044802E0802903D8034800EB41007047B4
:10ACC000002070474648002044470020032802D057
:10ACD000042805D00AE0B1F56F7F07D2044802E0EE
:10ACE000802903D8034830F81100704700207047CE
:10ACF0004648002044470020014800797047000082
:10AD0000E007002010B500F067F8642805D0A028FF
:10AD100005D0C82805D0B42010BD6C2010BD8220FD
:10AD200010BDA02010BD000070B5092003F010FD7B
:10AD3000134C606800F010F9606800F069FB0721AF
:10AD4000606800F0C7FA606800F0F0F9800503D58C
:10AD5000606800F0EDF905467C2D02D9B5F57A6FF3
:10AD600006D32088411C2180032803D9054870BDE3
:10AD7000002020802846BDE8704000F079B800002F
:10AD8000B80700200000C8C230B500231A460125CC
:10AD900005FA02F4044206D05B1CDBB2994202D1F0
:10ADA000521CD0B230BD521CD2B2102AF0D30020B7
:10ADB00030BD0000024610B5002001465FF00104DE
:10ADC00004FA01F3134201D0401CC0B2491CC9B2BD
:10ADD0001029F5D310BD000010B500F0A1F8064908
:10ADE000087000F00300042803D2091D51F8200068
:10ADF00010BDE62010BD0000CC07002001480078FF
:10AE0000704700008401002001484089704700001D
:10AE10001409002010B5FFF7DFFF642806D0A02832
:10AE200007D0C82808D040F26C7010BD40F29C409A
:10AE300010BD40F2BE5010BD40F2A46010BD10B570
:10AE4000FFF7CAFF4FF42F7010BD000001480068E3
:10AE500000787047100600200148006800787047AD
:10AE6000140600200148407870470000E0070020E9
:10AE70002DE9F041FDF78DFCFDF7E0FC4FF0663861
:10AE800042461C4BFDF7A4FBFDF71CFD0546FDF7F4
:10AE9000D5FC4246184BFDF798FB184E07460C466A
:10AEA00031462846FDF77DFAFDF7C8FC3A462346B1
:10AEB000FDF700FCFDF706FD3146FDF7A4FAFDF7AE
:10AEC000BDFC08F033FC00220D4BFDF7F3FB0D4AEF
:10AED0000D4BFDF7D6FA02460B4600200B49FDF755
:10AEE000E9FB42460A4BFDF76DFBBDE8F041FDF77B
:10AEF000E9BC000066664A3F66660A4000002041E1
:10AF000000DCAE4083DBB5DCE1796B3F0000F03F55
:10AF100066127140014840787047000084090020A3
:10AF20002DE9F04100250B4E2C46012706EBC4000D
:10AF3000818856F8340000F05BFF18B907FA04F076
:10AF40002843C5B2641CE4B2042CEFD32846BDE804
:10AF5000F081000000000020F8B5002504460095AF
:10AF600090F82400012808D0012084F8240020460D
:10AF7000FDF7EAFE060002D053E00220F8BDA06A09
:10AF800020F4885040F00200A062022001F04AF94B
:10AF900026490968B1FBF0F0400000E0401E009037
:10AFA0000028FBD12046FDF7FBFE2068816841F0B8
:10AFB0000801816000F026FF074608E000F022FF4C
:10AFC000C01B0A2803D920688068000715D42068B0
:10AFD00080680007F2D42068816841F00401816034
:10AFE00000F010FF074612E000F00CFFC01B0A281B
:10AFF0000DD920688068400709D5A06A20F00200BA
:10B0000040F01000A06284F824500120F8BD2068B0
:10B0100080684007E8D4A06A20F0020040F00100F8
:10B02000A06284F824503046F8BD00005C00002087
:10B03000F8B50024009490F824202546012A12D067
:10B04000012280F824204A681F23072A0DD20668AF
:10B05000776B521E02EB820293409F430B68934032
:10B060001F43776319E00220F8BD06680D2A0AD253
:10B07000376BD21F02EB820293409F430B689340D1
:10B080001F43376309E0F76A0D3A02EB82029340EF
:10B090009F430B6893401F43F7620A6807230668C3
:10B0A0000A2A0AD3F7680A3A02EB420293409F4306
:10B0B0008B6893401F43F76008E0376902EB420258
:10B0C00093409F438B6893401F4337610A68102A5F
:10B0D00001D0112A20D1124B02689A4217D19368ED
:10B0E0001B0219D4936843F4000393600968102984
:10B0F00012D10C490C4A0968B1FBF2F101EB810154
:10B10000490000E0491E00910029FBD104E0816A5A
:10B1100041F020018162012480F824502046F8BDCE
:10B12000002401405C00002040420F00806A70470C
:10B130000068C06C704700002DE9F04104004FF03A
:10B1400000057FD0A06A002628B9E66284F8246052
:10B15000204600F081F82046FDF7F6FDA16AC906F9
:10B1600000D420B1A06A40F01000A0626AE0A16A99
:10B1700021F4885141F00201A162334923688B42D6
:10B18000E16904D1B1F5402F01D14FF40021277BB3
:10B190004FF4807C41EA470261680A43A168614537
:10B1A00008D0012906D0002194F814E0BEF1010F67
:10B1B00002D00AE06146F7E7C7B1A76A47F0200767
:10B1C000A762E76A47F00107E7625F6827F469470B
:10B1D0000F435F60236899681C4F394011439960A1
:10B1E000A16861450BD0012909D00CE0DFF860E0CF
:10B1F000A7690EEB47370F4347F40061E5E7218A63
:10B200000D05A5F580152168CB6A23F470032B4347
:10B21000CB62216889680F4B1940914208D1E662E0
:10B22000A16A21F0020141F00101A162BDE8F081B3
:10B23000A06A20F0020040F01000A062E06A40F036
:10B240000100E0620120F1E7003C0140FDF7E1FF71
:10B2500000E0FFFFFE0E1FFF10B586B00021009139
:10B2600001910291039100681649884227D116483E
:10B27000816941F480618161816901F48061049197
:10B28000816941F004018161816901F00401049147
:10B29000816941F0080181618069032400F00800A0
:10B2A00004906020CDE900046946084800F0A4FC41
:10B2B0000220CDE900046946054800F09DFC06B077
:10B2C00010BD0000002801400010024000080140AD
:10B2D000000C01402DE9F84300270D460446009775
:10B2E00000F090FD804620688168C90508D5A06AF5
:10B2F00040F02000A06284F824700120BDE8F883AB
:10B300004168C90503D4C06A10F4700F2AD0022026
:10B3100000F088FF3B490968B1FBF0F6206803693B
:10B3200039490B424FEA61014FEAA1121FD1C368AC
:10B330004FEA611C13EA0C0F19D103690B4225D1A6
:10B34000C068104222D1142023E0681C0AD02DB11D
:10B3500000F058FDA0EB0800A84203D9206800685F
:10B36000800725D5206800688007EED52DE00369A9
:10B370000B4202D1C168114206D0026923490A4238
:10B3800006D1C068084203D1542002E0292000E021
:10B39000FC204643009816E0681C11D02DB100F047
:10B3A00031FDA0EB0800A8420AD90098B04207D2AC
:10B3B000A06A40F00400A06284F8247003209DE796
:10B3C0000098401C0090B042E6D321686FF0120054
:10B3D0000860A06A40F40070A06220688068C0F332
:10B3E000424007280CD1207B50B9A06A20F480701D
:10B3F000A062A06AC00403D4A06A40F00100A06269
:10B4000000207BE75C00002024499224499224001C
:10B4100070B5044690F8240001280DD0012084F86E
:10B4200024002046FDF7BCFC02004FF0000005D0D0
:10B4300084F82400104670BD022070BDA16A40F25D
:10B440000123994341F48071A1621F4D23681F4974
:10B45000AB4218D10E6816F4702F14D0A66A46F4C9
:10B460008016A6620E68760505D5A66A26F40056F3
:10B4700046F48056A662A66AF6040AD5E66A26F065
:10B480000606E66206E0A66A26F48016A6625E68F4
:10B49000E9E7E06284F824006FF002001860206899
:10B4A0008368C3F34243072B05D1A84208D109683A
:10B4B00011F4702F04D0816841F480118160B9E7E4
:10B4C000816841F4A001F9E700280140042401400B
:10B4D00010B590F821100022022905D004218163C3
:10B4E00080F82020012010BD01680B6823F00E03B6
:10B4F0000B6001680B6823F001030B6090F840308B
:10B50000C46B012101FA03F3636080F8211080F815
:10B510002020104610BD00002DE9F05F90F82110AA
:10B520000024022903D004218163012485E00168FD
:10B530000A6822F00E020A6001680A6822F001021D
:10B540000A603F4E3E4FB215DFF8F4C0DFF8F090CE
:10B55000DFF8ECA0DFF8E8B0DFF8E4E00168783F5E
:10B5600013011502ACF1640CA9F15009AAF13C0ACF
:10B57000ABF1280BAEF1140E4FF48018B14227D96D
:10B58000B9420ED0614512D049451DD0514518D061
:10B59000594518D0714501D1424615E0294EB142B6
:10B5A00001D1012210E0274E1436B14201D1102200
:10B5B0000AE0244E2836B14206D0224A3C3291425B
:10B5C00001D11A4600E02A461E49091F0A602BE0F5
:10B5D000B94213D0614517D0494522D051451DD0FD
:10B5E00059451DD0714501D142461AE0B14202D100
:10B5F0004FF0807215E0134EB14201D1012210E0EC
:10B60000104E1436B14201D110220AE00D4E2836F8
:10B61000B14206D00B4A3C32914201D11A4600E0B9
:10B620002A46074980394A60012180F8211000210B
:10B6300080F82010416B01B188472046BDE8F09F9B
:10B64000800002400804024010B5D0B101680A68C9
:10B6500022F001020A600268002111600268516054
:10B66000026891600268D160144C02681423A242FF
:10B6700009D2134C2244B2FBF3F292000264114A45
:10B680000AE0012010BD0D4C64422244B2FBF3F2EB
:10B6900092000264094A083AC26390F840300122DD
:10B6A0009A40C36B5A608162C162016341638163E6
:10B6B00080F8211080F82010002010BD08040240FE
:10B6C000F8FFFDBF000002402DE9F05FC16B0A6882
:10B6D00001680B68046C4FF0040808FA04F8844D04
:10B6E000844E854FDFF814C2DFF81492DFF814A2FD
:10B6F000DFF814B2DFF814E218EA020F65D05FEA4F
:10B70000437862D50A68920603D40A6822F00402DC
:10B710000A60DFF8F0814FF48062016808F11408D4
:10B7200013011402414524D9A9420DD0B1420FD0D2
:10B73000B9421AD0614515D0494515D0514501D1BE
:10B74000120312E0594501D104220EE0714501D1E6
:10B7500040220AE06D4D1435A94206D06B4A2832CA
:10B76000914201D11A4600E022466749091F0A604A
:10B7700029E0A94213D0B14215D0B94220D0614589
:10B780001BD049451BD0514502D14FF4800217E030
:10B79000414502D14FF0806212E0594501D10422A7
:10B7A0000EE0714501D140220AE0584D1435A942FE
:10B7B00006D0564A2832914201D11A4600E022466C
:10B7C0004B4908394A60C16A71E04FF0020808FA33
:10B7D00004F818EA020F70D05FEA83786DD50A6822
:10B7E000920606D40A6822F00A020A60012180F853
:10B7F0002110DFF810814FF40072016808F114087D
:10B8000013011402414524D9A9420DD0B1420FD0F1
:10B81000B9421AD0614515D0494515D0514501D1DD
:10B82000120312E0594501D102220EE0714501D107
:10B8300020220AE0354D1435A94206D0334A283279
:10B84000914201D11A4600E022462F49091F0A60A1
:10B8500029E0A94213D0B14215D0B94220D06145A8
:10B860001BD049451BD0514502D14FF4001217E0BF
:10B87000414502D14FF0007212E0594501D1022238
:10B880000EE0714501D120220AE0204D1435A94275
:10B8900006D01E4A2832914201D11A4600E02246C3
:10B8A000134908394A60002180F82010816A002974
:10B8B0001CD0BDE8F05F0847FFE70825A54015420A
:10B8C00014D01A0712D50A6822F00E020A6090F806
:10B8D0004020C36B012101FA02F25A60816380F8B3
:10B8E0002110002180F82010016BE0E7BDE8F09FF7
:10B8F000080002401C0002403000024044000240A8
:10B90000580002406C000240080402401C0402403F
:10B9100030B560B11A4B026814219A4209D2194B12
:10B920001344B3FBF1F18900016417490AE00120D7
:10B9300030BD134B5B421344B3FBF1F1890001644A
:10B940000F490839C163022180F82110136843F6BA
:10B95000F0718B43F0E901142143D0E902452C43F7
:10B9600021430469214344692143846921431943E4
:10B97000116000214163012242770177084630BD02
:10B9800008040240F8FFFDBF0000024070B5044605
:10B9900090F82000002501280CD0012084F8200018
:10B9A00094F821600020012E06D084F820000225A2
:10B9B000284670BD022070BD022684F82160A06375
:10B9C0002068066826F0010606602046FEF7FEFCA9
:10B9D000E06A00282068016802D041F00E0106E00C
:10B9E00021F0040101602068016841F00A01016052
:10B9F0002068016841F001010160D9E7064810B5EF
:10BA00004FF0FF31C16000220261C160C26000F0EE
:10BA100085FB002010BD00000010024003480169B2
:10BA200041F08001016100207047000000200240C9
:10BA30002DE9F05F07461C4888460024017E154624
:10BA40001E46012909D00121814601764CF2503A67
:10BA50005046FFF703F818B122E00220BDE8F09F3E
:10BA6000012F02D0022F00D00427D346DFF83CA0DC
:10BA7000220128463146FCF7C3FB81B208EB4400A3
:10BA8000FEF7B0FF5846FEF7E9FFDAF8102022F083
:10BA90000102CAF8102018B9641CE4B2BC42E7D312
:10BAA000002289F81820D9E7A019002000200240C0
:10BAB000064900200A69120607D5054A4A60054A68
:10BAC0004A600969090600D501207047002002403C
:10BAD00023016745AB89EFCD2DE9F04300233E4FAD
:10BAE0000F2574E001229A400A406ED023F003042F
:10BAF000E619D6F808809C074FEA147C05FA0CF981
:10BB000009EA0804DFF8D480404502D14FF000086C
:10BB100024E0DFF8CC80404502D14FF001081DE061
:10BB2000DFF8C080404502D14FF0020816E0DFF890
:10BB3000B880404502D14FF003080FE0DFF8AC8039
:10BB4000404502D14FF0040808E0DFF8A4804045EA
:10BB500002D14FF0050801E04FF0060808FA0CF892
:10BB6000A04515D1D6F808C02CEA090CC6F808C0C3
:10BB7000204E346894433460341D26689643266012
:10BB8000241D266896432660241D26689643266059
:10BB9000FF2A01D8064601E000F104064FEA8304BB
:10BBA00001D9A4F12004D6F800C005FA04F82CEA63
:10BBB000080C4FF0040808FA04F84CEA080CC6F820
:10BBC00000C0C46824EA0204C46003F1010331FA2E
:10BBD00003F287D1BDE8F083000001400008014076
:10BBE000000C014000100140001401400018014009
:10BBF000001C0140000401402DE9F84FDFF8C89116
:10BC0000002409F1040A0AF1040B23460F270BF163
:10BC1000040ED1E00125A54006EA0502AA4276D12C
:10BC2000DFF8A8C14E68A6EB0C0866452BD00DDCEA
:10BC3000032E34D005DC36B3012E19D0022E2FD1BD
:10BC40001BE0112E16D0122E2AD119E0B8F5881F4C
:10BC500019D006DCB8F5803F15D0B8F5801F1FD18C
:10BC600011E0B8F5001F0ED0B8F5041F18D10AE096
:10BC7000CB6815E0CB681B1D12E0CB6808330FE0E2
:10BC8000CB680C330CE08B682BB1012B4FF0080311
:10BC900003D0456104E0042302E0056100E00023D5
:10BCA000FF2A01D8064601E000F104064FEA8405A8
:10BCB00001D9A5F12005D6F8008007FA05FC28EA8D
:10BCC0000C0803FA05F548EA0508C6F800804D6837
:10BCD000ED0070D53E4DAE6946F00106AE61AD692E
:10BCE00024F0030605F0010500953A4D06EB050C1E
:10BCF000DCF80850A607360F07FA06F825EA08050B
:10BD0000DFF8D480404503D14FF0000825E052E031
:10BD1000DFF8C880404502D14FF001081DE0DFF890
:10BD2000C080404502D14FF0020816E0DFF8B48031
:10BD3000404502D14FF003080FE0DFF8AC804045EA
:10BD400002D14FF0040808E0DFF8A080404502D19E
:10BD50004FF0050801E04FF0060808FA06F848EA37
:10BD60000508CCF808804D68D9F80060ED034D4611
:10BD700001D5164300E096432E604D68DAF8006066
:10BD8000AD03554601D5164300E096432E604D683D
:10BD9000DBF80060ED025D4601D5164300E09643F6
:10BDA0002E604D68DEF80060AD02754601D5164381
:10BDB00000E096432E60641C0A681646E2407FF459
:10BDC00029AFBDE8F88F0000000401400000111009
:10BDD000001002400000014000080140000C01403A
:10BDE000001001400014014000180140001C0140F7
:10BDF0008068084000D0012070470AB10161704797
:10BE00000904FBE7014880687047000050000020EB
:10BE100070B5040025D094F83D00002520B984F8C1
:10BE20003C50204600F0B8F8242084F83D002068FB
:10BE3000016821F0010101602068016841F40041BE
:10BE400001602068016821F40041016000F080FB7E
:10BE50004D4A6168914201D84C4900E04C49884202
:10BE600001D2012070BD4B492368B0FBF1F15E683F
:10BE700026F03F060E435E606368934206D94FF496
:10BE8000967359434FF47A73B1FBF3F12368491C5D
:10BE90001E6A26F03F06314319626168914210D84C
:10BEA0004900401EB0FBF1F2521CC2F30B02042AFF
:10BEB00001D2042022E0B0FBF1F0401CC0F30B00E3
:10BEC0001CE0A268F2B301EBC10303EB0116431EB1
:10BED000B3FBF6F35B1C43F480431B0549D092B3DC
:10BEE00001EBC10202EB0111401EB0FBF1F0401C5E
:10BEF000C0F30B0040F4804040F400402168CA6960
:10BF00004CF6FF739A431043C861D4E9071001430C
:10BF10002068026822F0C00211430160D4E90301E5
:10BF200001432068826848F2FF339A4311438160DD
:10BF3000D4E9050108432168CA6822F0FF021043D2
:10BF4000C86001E00EE016E02068016841F00101E0
:10BF500001602564202084F83D00256384F83E506C
:10BF6000002070BD01EB4106431EB3FBF6F35B1CE2
:10BF7000B3E70120C2E701EB4101401EB0FBF1F045
:10BF8000401CC0F30B00B7E7A086010080841E00B0
:10BF900000093D0040420F0010B586B0002100911D
:10BFA00001910291039100680F4988421AD10F4C08
:10BFB000A06940F00800A061A069694600F008008F
:10BFC0000490C020009012200190032003900848A4
:10BFD000FFF712FEE06940F40010E061E06900F450
:10BFE0000010049006B010BD005400400010024044
:10BFF000000C014070B5040011D021684CF6CC4013
:10C000000860216845F255500860D4E9000141609C
:10C010002168A0688860FFF7F5FE05460DE0012065
:10C0200070BD00BFFFF7EEFE401B272805D9206832
:10C03000C068800701D0032070BD2068C0688007F9
:10C04000F0D121684AF6AA200860002070BD00687F
:10C050004AF6AA210160002070470000024881686A
:10C06000027811448160704750000020074810B5E5
:10C07000016841F010010160032000F0C1F80F20B9
:10C0800000F006F800F04CF8002010BD002002403F
:10C0900030B505461C4887B0816941F40061816173
:10C0A000806906A900F40060009001A800F030FA51
:10C0B00000F05EFA1549164AB0FBF1F11548491E29
:10C0C0000260416040F2E7320021C0E90321816053
:10C0D000816100F063FC040012D10E4800F0EAFC1C
:10C0E00004000DD1192000F05DF8102D07D20022B8
:10C0F0002946192000F064F80748056000E0012493
:10C1000007B0204630BD00000010024040420F0042
:10C11000002C0140581900205400002070470000F6
:10C120000F4808B5816941F001018161816901F021
:10C1300001010091C16941F08051C161C0690022D3
:10C1400000F0805000900F21901E00F039F8054853
:10C15000416821F0E06141F00071416008BD0000DC
:10C160000010024000000140002809DB00F01F021F
:10C17000012191404009800000F1E020C0F88012C8
:10C18000704700280DDB00F01F020121914040099B
:10C19000800000F1E020C0F88011BFF34F8FBFF3A3
:10C1A0006F8F7047002809DB00F01F0201219140CA
:10C1B0004009800000F1E020C0F800117047000045
:10C1C000F0B40E4B1B680C46C3F30223C3F1070502
:10C1D000042D00D90425191D072901D2002300E0F0
:10C1E000DB1E012606FA05F1491E214099409E40BA
:10C1F000761E16403143F0BC05F022BF0CED00E086
:10C20000064900F0070208684FF6FF03184040EAAD
:10C210000220034A10430860704700000CED00E064
:10C220000000FA0510B52CA401461DCC86B08DE89F
:10C230001D002DA02D4C00680490002004292FD053
:10C240000BDC01292FD0022928D100F091F9616877
:10C25000C1F38131491C49001EE0082920D0102972
:10C260001CD161682268D20118D5C1F38342C90389
:10C270001DF8020009D5616804AAC1F34041515C70
:10C280001B4AB2FBF1F1484301E01A494843616897
:10C29000490203D440000321B0FBF1F006B010BD09
:10C2A00000F076F9FAE7226AC2F30121012903D1ED
:10C2B000920701D5C803F1E7022905D1626A920706
:10C2C00002D549F64040E9E70329E7D1216889030F
:10C2D000E4D54FF22440E1E702030405060708090C
:10C2E0000A0B0C0D0E0F101001020000001002408E
:10C2F00000127A0000093D002DE9F8430546007858
:10C30000354CC00754D0E0690026C00008D4E0696D
:10C3100040F08050E061E069012600F0805000901C
:10C320002E480168C90512D40168804641F4807125
:10C330000160FFF767FD074605E000BFFFF762FDFC
:10C34000C01B642823D8D8F80000C005F6D5206AA1
:10C3500010F4407021D0A98801F4407181421CD0B2
:10C36000206A1F49012220F440700A6000220A60FE
:10C370002062C00711D0FFF745FD074641F288381B
:10C3800008E000BFFFF73EFDC11B414502D9032075
:10C39000BDE8F883206A8007F4D5206A696820F434
:10C3A0004070084320621EB1E06920F08050E061D7
:10C3B0002878800705D56068A96820F440400843C4
:10C3C00060602878C00605D56068696920F480003F
:10C3D000084360600020DBE700100240007000406E
:10C3E000400442422DE9F0470F46050061D0434E1C
:10C3F000306800F00700B84209D2306820F007002A
:10C4000038433060306800F00700B84251D12868E6
:10C410003B4C810712D5400703D5606840F4E060CB
:10C4200060602878000703D5606840F46050606061
:10C430006068A96820F0F000084360602878C007B1
:10C4400028D06868012810D02168022810D08907F8
:10C4500000292EDA616821F0030101436160FFF7D2
:10C46000D1FC804641F288390DE021688903EFE76D
:10C470008901EDE7FFF7C6FCA0EB0801494502D9A9
:10C480000320BDE8F0876068696800F00C00B0EB3D
:10C49000810FEFD1306800F00700B8420BD9306847
:10C4A00020F0070038433060306800F00700B842E1
:10C4B00001D00120E5E72878400705D56068E968E4
:10C4C00020F4E060084360602878000706D56068C3
:10C4D000296920F4605040EAC100606000F058F81B
:10C4E0006168084AC1F30311515CC84006490860FD
:10C4F00006480068FFF7CCFD0020C2E7002002409C
:10C5000000100240586301085C0000205400002025
:10C510000F2202600C4A536803F003034360536820
:10C5200003F0F0038360536803F4E063C360526870
:10C530004FF4E06303EAD20202610448006800F0AD
:10C540000700086070470000001002400020024011
:10C550000448054900684968044AC1F30221515C56
:10C56000C84070475C00002000100240686301086A
:10C570000448054900684968044AC1F3C221515C76
:10C58000C84070475C00002000100240686301084A
:10C5900012A185B00FC98DE80F0014A0144A0068DD
:10C5A00004905168134801F00C03042B10D0082BA1
:10C5B0000ED1C1F38343C9031DF803000AD55168A6
:10C5C00004AAC1F34041515C0A4A5043B0FBF1F068
:10C5D00005B0704708494843FAE700000203040524
:10C5E000060708090A0B0C0D0E0F101001020000BF
:10C5F0000010024000127A0000093D002DE9F84FBA
:10C60000040070D02078C04DC00749D06868C0F3DE
:10C610008100012807D06868C0F38100022809D191
:10C620006868C00306D52868800339D5606800288B
:10C63000E7D035E06068B0F5803F0BD010B1B0F5C1
:10C64000A02F11D0286820F480302860286820F4BA
:10C65000802002E0286840F480302860606890B153
:10C66000FFF7D0FB06460AE0286840F480202860E7
:10C67000F0E700BFFFF7C6FB801B642873D828686B
:10C680008003F7D50CE0FFF7BDFB064605E000BFD1
:10C69000FFF7B8FB801B6428F0D828688003F7D424
:10C6A00020789A4E80074FF001094FF0000839D5E5
:10C6B000686810F00C0F07D06868C0F3810002288A
:10C6C00009D16868C00306D42868800714D520699A
:10C6D000012808D110E02069B0B1C6F80090FFF73A
:10C6E00091FB074605E00AE1FFF78CFBC01B02281F
:10C6F000C4D828688007F7D52868616920F0F80059
:10C7000040EAC10028600DE0C6F80080FFF77AFB20
:10C71000074604E0FFF776FBC01B022823D82868F1
:10C720008007F7D4207800072CD57948A169D9B1C2
:10C73000C0F80090FFF766FB074604E0FFF762FBD6
:10C74000C01B02280FD8686A8007F7D571484FF4DC
:10C75000FA510068B0FBF1F0009000BF0098411E54
:10C760000091FAD20EE080E0C0F80080FFF74AFBAB
:10C77000074604E0FFF746FBC01B022875D8686A2D
:10C780008007F7D42078400760D5E8690027C0000B
:10C7900008D4E86940F08050E861E869012700F0BA
:10C7A000805000905C480168C90513D40168834635
:10C7B00041F480710160FFF725FB824606E000BF6F
:10C7C000FFF720FBA0EB0A0064284ED8DBF800003E
:10C7D000C005F5D5E06801280AD008B1052813D0B6
:10C7E000286A20F001002862286A20F0040002E094
:10C7F000286A40F001002862E06841F2883B98B165
:10C80000FFF700FB82460BE0286A40F00400286234
:10C81000EEE700BFFFF7F6FAA0EB0A0159455AD838
:10C82000286A8007F6D50CE0FFF7ECFA824605E0AF
:10C83000FFF7E8FAA0EB0A0159454CD8286A8007AF
:10C84000F6D41FB1E86920F08050E861E06988B350
:10C850006968C1F38101022944D00228C6F86080CA
:10C8600004D0FFF7CFFA044638E034E0FFF7CAFA05
:10C87000074604E0FFF7C6FAC01B02282BD8286839
:10C880008001F7D4206AB0F5803F05D16868A168BF
:10C8900020F4003008436860D4E90801084369685F
:10C8A00021F4741108436860C6F86090FFF7AAFA93
:10C8B000044606E025E000BFFFF7A4FA001B0228AB
:10C8C00009D828688001F7D51BE000BFFFF79AFA66
:10C8D000001B022802D90320BDE8F88F28688001D8
:10C8E000F4D40EE00128F7D06868226A00F48031A1
:10C8F000914204D1616A00F47010884201D0012095
:10C90000EAE70020E8E70000001002400000424291
:10C91000800442425C000020007000407047704775
:10C9200070B590F83C20012A2CD0012480F83C40BE
:10C93000022280F83D2003685A689D6822F0700644
:10C940000A6832435A60104B02689A420ED00F4B6D
:10C950009A420BD0B2F1804F08D00D4B9A4205D0CD
:10C960000C4B9A4202D00C4B9A4204D1496825F0F4
:10C9700080031943916080F83D40002180F83C100D
:10C98000084670BD022070BD002C014000340140FB
:10C990000004004000080040000C004010B50400F6
:10C9A00003D094F83D0010B107E0012010BD002035
:10C9B00084F83C00204600F01FF8022084F83D0077
:10C9C000211D206803F0CAFD012084F8460084F888
:10C9D0003E0084F83F0084F8400084F8410084F869
:10C9E000420084F8430084F8440084F8450084F849
:10C9F0003D00002010BD000008B501682848B1F1D5
:10CA0000804F0BD0274A914210D1C16941F00201F9
:10CA1000C161C06900F00200009008BDC16941F029
:10CA20000101C161C06900F00100F5E71E4A9142B1
:10CA30000ED1C16941F00401C161C069002200F05A
:10CA40000400009005211E20FFF7BAFB1E2022E003
:10CA5000164A91420ED1C16941F00801C161C06915
:10CA6000002200F00800009005213220FFF7A8FB0B
:10CA7000322010E00E4A9142CFD1C16941F010013D
:10CA8000C161C069002200F010000090052136202D
:10CA9000FFF796FB3620BDE80840FFF783BB000098
:10CAA000001002400004004000080040000C00405C
:10CAB0000010004090F83D10012901D0012070477E
:10CAC000022180F83D100168CA6842F00102CA6084
:10CAD00000680E4988420ED00D4988420BD0B0F153
:10CAE000804F08D00B49884205D00B49884202D0BC
:10CAF0000A49884204D1816801F00701062903D060
:10CB0000016841F00101016000207047002C0140E4
:10CB1000003401400004004000080040000C0040C8
:10CB20000168CA6822F00102CA6001680A6A41F21B
:10CB300011131A4207D10A6A9B101A4203D10A68DC
:10CB400022F001020A60012180F83D1000207047A8
:10CB500070B5044690F83C00012817D0012584F8F0
:10CB60003C50022084F83D002068826822F0770261
:10CB700022F47F4282600868502830D00DDC2028E3
:10CB80004DD005DC98B310283BD148E0022070BDA1
:10CB9000302844D0402834D139E0602828D070288B
:10CBA00006D0B0F5805F2CD0B0F5005F29D10AE047
:10CBB000CB68D1E90121206803F023FD206881685A
:10CBC00041F0770109E0CB68D1E90121206803F049
:10CBD00018FD2068816841F48041816011E0CA68D5
:10CBE0004968206803F0E2FD5021206807E016E064
:10CBF000CA684968206803F0EAFD6021206803F0F4
:10CC00000AFD84F83D50002084F83C0070BDCA68DD
:10CC10004968206803F0CAFD40212068EFE72268D8
:10CC200001461046EBE7704770B50446006801699D
:10CC30004FF00005C943890715D4C168C943890766
:10CC400011D4E91E016101202077206880698007E6
:10CC5000204602D0FFF7E7FF04E000F0D3F82046BB
:10CC600000F08EF9257720680169C943490717D478
:10CC7000C168C943490713D46FF004010161022060
:10CC800020772068806910F4407F204602D0FFF7AB
:10CC9000CAFF04E000F0B6F8204600F071F92577ED
:10CCA00020680169C943090716D4C168C943090747
:10CCB00012D46FF008010161042020772068C06958
:10CCC0008007204602D0FFF7AEFF04E000F09AF89C
:10CCD000204600F055F9257720680169C943C90647
:10CCE00017D4C168C943C90613D46FF0100101619C
:10CCF000082020772068C06910F4407F204602D0C9
:10CD0000FFF791FF04E000F07DF8204600F038F9CD
:10CD1000257720680169C943C90708D1C168C9439B
:10CD2000C90704D1891E0161204600F0DDF92068A1
:10CD30000169C943090609D4C168C943090605D474
:10CD40006FF0800101612046FFF7E8FD206801696E
:10CD5000C943490609D4C168C943490605D46FF0DF
:10CD600040010161204600F0E1F920680169C943F2
:10CD700089060BD4C168C943890607D46FF0200126
:10CD800001612046BDE87040FFF7C9BD70BD0000DD
:10CD900000B585B0002100910191029103910268D4
:10CDA00014480221B2F1804F14D0134B9A420FD194
:10CDB000826942F0080282618069039100F00800F4
:10CDC00004900120CDE9000169460C48FEF714FFEC
:10CDD00005B000BD826942F004028261806903915E
:10CDE00000F0040004900320CDE9000169460448E6
:10CDF000ECE700000010024000040040000C01407D
:10CE000000080140704770B50D46040003D094F847
:10CE10003D0010B107E0012070BD002084F83C0007
:10CE2000204600F01BF8022084F83D00211D2068F8
:10CE300003F094FB2068016821F00801016054F8B8
:10CE4000460B016829430160012004F81F09E075C1
:10CE50002076E0762077A075002070BD704770B511
:10CE6000044690F83C000D4601280AD0012084F8C1
:10CE70003C0042B1042A18D0082A2AD00C2A4DD1ED
:10CE800039E0022070BD206803F0CEFB2068816984
:10CE900041F0080181612068816921F0040181610C
:10CEA000206881692A69114311E0206803F0ECFBD6
:10CEB0002068816941F4006181612068816921F401
:10CEC00080618161206881692A6941EA022181616A
:10CED00024E0206803F00EFC2068C16941F00801DD
:10CEE000C1612068C16921F00401C1612068C16984
:10CEF0002A69114311E0206803F030FC2068C16901
:10CF000041F40061C1612068C16921F48061C1619F
:10CF10002068C1692A6941EA0221C161002084F8C0
:10CF20003C0070BD10B5040003D094F83D0010B172
:10CF300007E0012010BD002084F83C00204600F0EE
:10CF40001EF8022084F83D00211D206803F006FB36
:10CF5000012084F8460084F83E0084F83F0084F8FD
:10CF6000400084F8410084F8420084F8430084F8CB
:10CF7000440084F8450084F83D00002010BD70474F
:10CF80007047000010B50446022249B104290ED0B2
:10CF9000082913D094F84100012816D0012010BDB3
:10CFA00094F83E000128F9D184F83E200FE094F86F
:10CFB0003F000128F2D184F83F2008E094F84000B7
:10CFC0000128EBD184F8402001E084F841200122BF
:10CFD000206803F009FB13492068134A884201D0F6
:10CFE000904203D1436C43F4004343642068884279
:10CFF0000DD090420BD0B0F1804F08D00B49884241
:10D0000005D00B49884202D00A49884204D1816880
:10D0100001F00701062903D0016841F00101016018
:10D02000002010BD002C01400034014000040040ED
:10D0300000080040000C004030B5044600680D00B8
:10D0400006D0042D08D0082D38D00C2D08D139E099
:10D05000C16821F0020102E0C16821F00401C16051
:10D0600000222946206803F0BFFA1D4B41F211113E
:10D0700020688A10984202D01A4B984209D1036A5C
:10D080000B4206D1036A134203D1436C23F40043DD
:10D0900043642068036A0B4206D1016A114203D13E
:10D0A000016821F00101016001207DB1042D10D043
:10D0B000082D11D084F84100002030BDC16821F056
:10D0C0000801CCE7C16821F01001C8E784F83E00F0
:10D0D000F2E784F83F00EFE784F84000ECE7000057
:10D0E000002C01400034014010B5044600680B4993
:10D0F000884201D1FEF7B2FF09492068884201D178
:10D1000008F06EF907492068884206D103F086FBD3
:10D11000BDE810400448FFF703BD10BD002C0140DE
:10D120000008004000100040A4150020704738B5EA
:10D13000044690F83E0020281CD181B17AB194F8C1
:10D140003C00012816D0012084F83C0020632046D2
:10D1500003F08AFF002803D1216B012901D00120AF
:10D1600038BD21680A684A680092CA6842F0100215
:10D17000CA6038BD022038BD704710B5044600684B
:10D18000416994F83D20C1F3C011212A0BD151B15E
:10D19000416921F080014161606B08B1FEF798F9A7
:10D1A000204603F0A1FE2068416994F83E20C1F3B7
:10D1B0008011222A0BD151B1416921F04001416116
:10D1C000A06B08B1FEF784F9204603F075FE00203D
:10D1D00010BD10B5040014D0242084F83D00206850
:10D1E000C16821F40051C160204600F07DF90020A3
:10D1F000206484F83D0084F83E0044F8300F20732A
:10D2000010BD012010BD00003EB5054600208DF880
:10D2100004002C682068C043000703D52068C04381
:10D2200080070AD42068606802900F48844205D1C4
:10D2300020686068009002F03FF83EBD0B488442D1
:10D240000CD110210A48FBF752F820686068009062
:10D25000102207492846FFF76AFF3EBD012201A9B7
:10D26000284600F03BFB3EBD00480040004C00401B
:10D27000BC450020F8B5026804461068D1685369BF
:10D2800010F00F0F4FF0000553D003F0010601F42A
:10D290009077374360D0C20705D0CA0503D5226C0A
:10D2A00042F001022264420705D5DA0703D0226C5E
:10D2B00042F002022264820705D5DA0703D0226C0D
:10D2C00042F004022264020707D501F02002324333
:10D2D00003D0226C42F008022264226C002A3AD069
:10D2E000800604D5880602D5204603F006FE206895
:10D2F0004069216CC0F38010090700D438B3204680
:10D3000003F0DAFD2068416949061BD5416921F027
:10D3100040014161A06BA8B159494163A06BFEF780
:10D32000FBF8002817D0A06B416B01B0BDE8F040BE
:10D330000847830610D58B060ED52046BDE8F84079
:10D3400003F0DBBD2046BDE8F840FFF75DBF204697
:10D35000FFF75AFF2564F8BD266B2023012E52D11A
:10D36000C60650D5CE064ED510685068009050695C
:10D3700040062AD5A16B086840680004000CEAD07A
:10D38000A68D8642E7D9E0858869202818D0D06824
:10D3900020F48070D0602068416921F00101416172
:10D3A0002068416921F04001416184F83E302563E5
:10D3B0002068C16821F01001C160A06BFEF788F8F9
:10D3C000A08DE18D401A81B219E0A08DE18D401A47
:10D3D00081B2E08D0028BED00029BCD0D06820F4F6
:10D3E0009070D0602068426922F00102426184F8A6
:10D3F0003E3025632068C26822F01002C2602046D9
:10D40000FFF7BAFEF8BD05062BD50D0629D594F811
:10D410003D002128F6D1A068B0F5805F01D12069D8
:10D42000B0B1206A411C2162216800784860E08C1C
:10D43000401E0004000CE084E4D12068C16821F0A3
:10D440008001C1602068C16841F04001C160F8BD41
:10D45000206A0088C0F308005060206A801C2062A7
:10D46000E5E74006F3D54806F1D5D168204621F01E
:10D470004001D16084F83D3000F023FBF8BD00008E
:10D48000ED0D010870B5040004D094F83D000025AE
:10D4900010B106E0012070BD84F83C50204600F039
:10D4A00089F8242084F83D002068C16821F40051E7
:10D4B000C160204603F07CFD2068016921F49041A1
:10D4C00001612068416921F02A0141612068C16839
:10D4D00041F40051C1602564202084F83D0084F8A7
:10D4E0003E00002070BD000070B50446274D036863
:10D4F000274A28484FF44061AB420AD1D36923F44C
:10D500000023D361FEF7E8FAA06BFEF79DF8342004
:10D5100037E0214DAB420CD1D16921F48011D161AA
:10D520009914FEF7D9FA04211C48FEF7D5FA3520E4
:10D5300027E01B4D1B48AB4209D1916921F4804182
:10D5400091614FF4C061FEF7C7FA252019E0164D2E
:10D55000AB4208D1D16921F40031D1610C21FEF731
:10D56000BBFA26200DE0114883420ED1D06920F489
:10D570008020D0610E48FEF7AFFAA06BFEF764F88A
:10D580002720BDE87040FEF7FCBD70BD004C004098
:10D590000010024000100140005000400014014003
:10D5A00000380140000801400044004000480040AD
:10D5B000000C01402DE9F04F85B000240094019447
:10D5C00002940394054601688848874A0615DFF8E7
:10D5D00020924FF002084FF4006A4FF0800B914206
:10D5E00037D1C16941F40021C161C16901F4002151
:10D5F0000491816941F0100181618069CDE9006881
:10D6000000F01000CDE9038069464846FEF7F4FAC1
:10D61000CDF800A0CDE9014869464846FEF7ECFA8E
:10D62000754E7448C6E90004C6E9024B3461746162
:10D63000B4613046F461FEF76BF908B1FDF7B0F95B
:10D64000AE630022052134207562FEF7B9FD342057
:10D6500032E06A4A0427914233D1C16941F4801112
:10D66000C161C16901F480110491816941F0100127
:10D670008161816901F010010491816941F020010B
:10D6800081618069694600F0200004909014CDE922
:10D6900000084846CDF80C80FEF7AEFACDE90074DC
:10D6A00069465748CDF80880FEF7A6FA0022052102
:10D6B0003520FEF785FD3520FEF774FD05B0BDE889
:10D6C000F08F504ADFF84091914227D1816941F4AF
:10D6D00080418161816901F480410491816941F057
:10D6E000040181618069694600F0040004905015CE
:10D6F000CDE900084846CDF80C80FEF77DFACDE96B
:10D70000006469464846CDF80880FEF775FA0022A5
:10D7100005212520FEF754FD2520CDE73B4A914207
:10D7200024D1C16941F40031C161C16901F4003102
:10D730000491816941F0040181618069CDE900783B
:10D7400000F00400CDE9038069464846FEF754FA2C
:10D7500008208DE8110169464846FEF74DFA00227F
:10D7600005212620FEF72CFD2620A5E7284A914218
:10D77000A4D1C16941F48021C161C16901F4802152
:10D780000491816941F0080181618069CDE90068F7
:10D7900000F00800CDE903801E4E69463046FEF7D2
:10D7A0002BFACDF800A0CDE9014869463046FEF7D6
:10D7B00023FA114E18484436C6E90004C6E9024B64
:10D7C00034617461B4613046F461FEF7A1F808B1C8
:10D7D000FDF7E6F8AE630022052127207562FEF70B
:10D7E000EFFC272068E70000004C004000100240DA
:10D7F0000010014030040240D018002000500040CA
:10D80000001401400038014000080140004400407D
:10D8100000480040000C0140300002402DE9F84F64
:10D82000044690F83E009A4616460D46202853D1ED
:10D83000FDB1F6B194F83C0001284DD0012084F8E8
:10D840003C0000272764222084F83E002763FEF76F
:10D85000D9FAA6858146E685A0684FF480584045F0
:10D8600001D1206940B12E465FF0000584F83C707C
:10D8700027E00120BDE8F88F0026F7E74B4600229D
:10D8800020212046CDF800A003F041FC08B1032080
:10D89000F0E726B1A06840451BD038B108E0206809
:10D8A0004068C0F3080025F8020B07E0206980B14A
:10D8B0002068406800F07F0006F8010BE08D401EF4
:10D8C000E085E08D0028D9D1202084F83E0000209A
:10D8D000D0E720684068EFE70220CBE790F83E30C1
:10D8E000202B0ED159B152B190F83C30012B08D009
:10D8F000012380F83C300023036303F0EDBB0120DB
:10D9000070470220704700002DE9F041064600688C
:10D91000384901270025384C884227D12089374AC9
:10D92000010417D404F102014304097804D50A293B
:10D930000CD140F400402BE00D2927D0C0F30D039B
:10D94000401C80B2D1542081632800D925812089D0
:10D9500000040BD52A4927701078096808802089AF
:10D96000C0F30D012548FAF7C2FC2581254930682E
:10D9700088422DD1E08801041FD41F49420401F1DF
:10D980000301097809D50A2913D103E040F4804046
:10D990002081DCE740F4004027E00D2923D0C0F3CC
:10D9A0000D02164B401CA83380B29954E0806328C6
:10D9B00000D9E580E08800040AD52770E0880F4987
:10D9C000C0F30D02A83101F1EC00FAF777FCE58015
:10D9D0000D49306888420AD10748001D0078BDE82B
:10D9E000F04103F0C5BC40F48040E080E2E7BDE8D0
:10D9F000F081000000480040440000207416002020
:10DA000058060020004C00400050004070470000C5
:10DA10002DE9F843044690F83D001F4616460D4692
:10DA200020284CD1C5B1BEB194F83C00012846D0A5
:10DA3000012084F83C004FF00008C4F84080212009
:10DA400084F83D00FEF7DEF9A6848146E684A068EE
:10DA5000B0F5805F03D004E00120BDE8F8832069C1
:10DA600028B12E465FF0000584F83C800EE00026C9
:10DA7000FAE78021204603F04AFBA0B9AEB116F8C0
:10DA8000010B21684860E08C401EE084E08C4B462E
:10DA90004FF0000200970028EBD14FF040012046E4
:10DAA00003F035FB30B10320D7E735F8020BC0F3A4
:10DAB0000800E6E7202084F83D000020CDE70220A2
:10DAC000CBE77047FEE7000010B5D0B101281FD0AA
:10DAD000254921282CD0222831D0232836D02428AB
