:020000040800F2
:10800000805E0020DD8100082FF100083DD60008C9
:10801000E9E80008199A0008890C0108000000002E
:108020000000000000000000000000004581000882
:1080300001A000080000000089810008F9F900088B
:10804000F7810008F7810008F7810008F781000830
:10805000F7810008F7810008F7810008F781000820
:10806000F7810008F7810008F7810008F781000810
:10807000F7810008999F0008F7810008F781000840
:10808000F7810008F7810008F7810008F7810008F0
:10809000F7810008F7810008F7810008F7810008E0
:1080A000F7810008ADFE0008F7810008F78100089D
:1080B000F7810008F7810008B9FE0008F781000881
:1080C000F7810008F7810008F7810008F7810008B0
:1080D000F7810008F50A0108210B01085D0B010872
:1080E000F7810008F7810008F7810008F781000890
:1080F000F7810008F7810008F7810008F781000880
:10810000F7810008F7810008C5FE0008F781000824
:108110005107010855070108E9FE0008F78100082A
:10812000F7810008F7810008A59F0008F781000883
:10813000DFF80CD000F0C4FC0048004749330108C8
:10814000805E0020224B19680868B0E8F00F80F3C9
:108150000988BFF36F8F4FF0000080F311884EF055
:108160000D0E70470000000006480068006880F3AC
:10817000088862B661B6BFF34F8FBFF36F8F00DF21
:1081800000BF00BF08ED00E0EFF30980BFF36F8F81
:108190000F4B1A6820E9F00F106008B54FF050003F
:1081A00080F31188BFF34F8FBFF36F8F0DF0B6F8D8
:1081B0004FF0000080F31188BDE808401968086896
:1081C000B0E8F00F80F30988BFF36F8F704700BFEE
:1081D00060000020EFF305807047000006488047EC
:1081E00006480047FEE7FEE7FEE7FEE7FEE7FEE79C
:1081F000FEE7FEE7FEE7FEE7A1FA0008318100088E
:10820000202A04DB203A21FA02F00021704721FAEB
:1082100002F3D040C2F12002914008431946704752
:1082200040EA01039B0703D009E008C9121F08C0F8
:10823000042AFAD203E011F8013B00F8013B521E78
:10824000F9D27047D2B201E000F8012B491EFBD2EF
:1082500070470022F6E710B513460A460446194651
:10826000FFF7F0FF204610BD10B5044604E00B7880
:1082700000F8013B03B1491C521EF8D2204610BD44
:10828000421C10F8011B0029FBD1801A704730B541
:1082900004460020034600E05B1C934203D2E05CEE
:1082A000CD5C401BF8D030BD70B50F4D00B92868CB
:1082B000002412E00A4602E09E4203D0521C1378CA
:1082C000002BF9D1DAB2224305D02BB124B1002121
:1082D00000F8011B04E00446401C0678002EE9D19A
:1082E0002860204670BD00002C09002070B50646AD
:1082F00009F032FB046805460A220021304600F0EE
:10830000FBFA2C6070BD80EA010210B502F0004358
:10831000400022D04A001FD0010E01EB1261C0F3D1
:108320005600C2F3560240F4000042F40002A0FBE3
:10833000022000047F39140400D0401C50EA12408F
:1083400001D44000491EC2B20C0604EBD010401C00
:108350004008802A02D003E0002010BD20F0010078
:10836000002900DA0020184310BD30B480EA010271
:1083700002F0004530F0004221F0004013D090B1EF
:10838000C30DD40DC2F31601C0F31600E41A41F474
:10839000000140F400027D34914201D3641C00E0EE
:1083A0004900002C02DA30BC002070474FF4000076
:1083B0000023914201D3891A034340084FEA410147
:1083C000F7D151B1914202D14FF0004105E002D204
:1083D0004FF0010101E06FF0010103EBC4502844AC
:1083E00030BC00F0C1BA2DE9FE4F804681EA03009F
:1083F000C00F0C46009021F0004123F00045B8EB7F
:108400000200A94105D24046214690461C460B4633
:10841000024623F00040104347D0270DC7F30A005F
:10842000C3F30A510290401A019040286BDAC3F35B
:10843000130040F4801B0098924620B10023D2EB39
:10844000030A63EB0B0B01985946C0F140025046FA
:1084500000F031FA06460D4650465946019A00F0A2
:1084600039FA10EB08006141002487EA115284EACE
:10847000E7731A4340D0009A62B3019A012A4FEA87
:10848000075215DC001B61EB02014FF0004202EACB
:108490000752CDE90042001C41F5801132462B46BF
:1084A00000F0A8FA03B0BDE8F08F40462146F9E796
:1084B000001B61EB0201001C41F5801300185B41B9
:1084C0002018A2F5001747EB030140EAD570B61952
:1084D0006D4111E06D084FEA360645EAC0754FEA76
:1084E0000752001B61EB0201001C41F58011490895
:1084F0004FEA30000019514132462B4603B0BDE827
:10850000F04F00F068BA0098012240000023D0EB41
:10851000020263EBE073009821464FEAE074B8EB87
:10852000000061EB0401E9E783F000435BE781F0C1
:10853000004158E72DE9FE4F81EA030404F00044AE
:1085400021F0004100944FF0000B23F0004350EA6B
:1085500001045ED052EA03045BD0C3F30A54C1F3B2
:108560000A552C44A4F2F3340194A0FB0254C1F345
:10857000130141F48011C3F3130343F4801301FB8F
:10858000024400FB034E840A970A44EA815447EAF6
:108590008357A4FB076802958D0A05FB07854FEA00
:1085A000932C04FB0C542705029D4FEA065847EA1A
:1085B0001637B5EB08056EEB070C870E920E47EAEF
:1085C000811742EA8312A7FB0201B6EB0B0164EBB1
:1085D00000042B0D43EA0C335E1844EB1C50DA46C2
:1085E0005146E7FB0201C5F313044FEA0B3343EA9C
:1085F00014534FEA0432019C43EA0603A4F10C042D
:108600000294009CCDE900B400F0F4F903B0BDE899
:10861000F08F00200146F9E72DE9F04D81EA0304CF
:1086200004F0004B21F0004514464FF0000A23F0FF
:10863000004150EA050220D054EA01021DD0C5F3E2
:108640000A570246C5F31303C1F31300C1F30A56D8
:1086500040F4801543F48013A7EB0608101BD646A0
:1086600008F2FD3873EB050002D308F1010801E0C0
:1086700092185B41B8F1000F03DA00200146BDE813
:10868000F08D00204FF48011064684460EE0171B43
:1086900073EB050705D3121B63EB050306434CEA96
:1086A000010C49084FEA300092185B4150EA01077B
:1086B000EDD152EA030012D082EA040083EA0501F8
:1086C000084305D0101BAB4106D20122002306E06F
:1086D00000224FF0004302E06FF0010253101AEB4A
:1086E00006004CEB085110EB0A0041EB0B01BDE812
:1086F000F04D00F070B996230022114600F03DB90C
:108700000EB5C10F80EAE0700844CA07002140F2AC
:1087100033438DE80E000A460B4600F06BF903B0B8
:1087200000BD0EB540F2334102910021CDE90011A8
:108730000A460B4600F05EF903B000BD20F0004091
:10874000C10DC0F3160040F400007F2901DA0020BB
:108750007047962903DCC1F19601C84070479639ED
:1087600088407047C1F30A5210B5C1F3130140F2BB
:10877000FF3341F480119A4201DA002010BD40F22B
:1087800033439A42A2F2334203DC5242FFF738FDF0
:1087900010BD904010BD00F0004230F000400AD003
:1087A000C10D01F56071C0F3160042EA0151C20823
:1087B00040071143704700200146704730B5041E42
:1087C00071F1000404DB4FF00044404264EB01010E
:1087D000141E73F1000405DB1C464FF000435242A7
:1087E00063EB04038B4208BF824230BD30B5041EE8
:1087F00071F1000404DB4FF00044404264EB0101DE
:10880000141E73F1000405DB1C464FF00043524276
:1088100063EB0403994208BF904230BD01F000436E
:1088200030B421F0004150EA010206D00A0DA2F551
:108830006072C1F31301002A02DC30BC00207047D3
:10884000440F44EAC104C100E01830BC00EBC25040
:1088500000F08AB82DE9F05F0546002092469B465D
:1088600088460646814640241BE028464146474646
:108870002246FFF7C5FC53465A46C01A914110D311
:1088800011461846224600F016F82D1A67EB01082B
:108890004F4622460120002100F00DF817EB000999
:1088A0004E41201EA4F10104DFDC484631462A4631
:1088B0004346BDE8F09F202A04DB203A00FA02F18B
:1088C000002070479140C2F1200320FA03F31943BE
:1088D00090407047202A06DBCB17203A41FA02F07D
:1088E00043EAE07306E041FA02F3D040C2F120020D
:1088F00091400843194670472DE9F04791460F46CD
:1089000080460446002614F8015B2DB100F0EAF819
:108910000068405DC007F6D12B2D02D02D2D18D058
:10892000641E4A463946204600F0E0F827B139680F
:10893000A14201D1C7F8008071054FF002040BD5A8
:108940004042002803DD09F007F80460A007BDE8F5
:10895000F08746F48066E4E70028F8DA08F0FCFFC8
:1089600004606FF00040F2E70029A8BF7047401C88
:10897000490008BF20F00100704710B4B0FA80FC35
:1089800000FA0CF050EA010404BF10BC704749B172
:10899000CCF1200421FA04F411FA0CF118BF0121E2
:1089A00021430843A3EB0C01CB1D4FEA00614FEAC2
:1089B000102042BF002010BC704700EBC350104491
:1089C0000029A4BF10BC7047401C490008BF20F01C
:1089D000010010BC704710B5141E73F1000408DAD2
:1089E000401C41F1000192185B411A4301D120F073
:1089F000010010BD2DE9F04D92469B4611B1B1FA30
:108A000081F202E0B0FA80F220329046FFF753FF85
:108A100004460F4640EA0A0041EA0B0153465A4613
:108A2000084313D0114653EA010019D0C8F140029F
:108A30005046FFF7E5FB05460E465046594642466E
:108A4000FFF739FF084305D0012004E020463946EE
:108A5000BDE8F08D0020054346EAE0762C4337431D
:108A60000A986305E40AA0EB08000022FD0A44EA24
:108A700047540A3002D500200146E9E701051019E4
:108A80006941DDE9084500196941BDE8F04DA2E7FB
:108A900070B521F0004303430CD0C1F30A55002404
:108AA000D5EB040564EB0403D617AD1AB34102DB22
:108AB0000020014670BD201841EB025170BD00003E
:108AC000064C074D06E0E06840F0010394E807001B
:108AD00098471034AC42F6D3FFF72EFB8C630108A5
:108AE000AC630108004870472C6301082DE9F05F72
:108AF00082460078002715468B460AF10104B946E4
:108B0000302801D09DB113E014F8010B012778281B
:108B100003D0582801D045B10AE00DB1102D07D17E
:108B20000027102514F8010B02E0082500E00A25B3
:108B30000026B0460EE005FB080005FB06F1012704
:108B400001EB10461FFA80F8B6F5803F00D3B94616
:108B500014F8010B294600F069F80028EBDABBF1A4
:108B6000000F05D00FB1641E00E05446CBF8004062
:108B7000B9F1000F06D008F0EFFE02210160C81E17
:108B8000BDE8F09F48EA0640FAE72DE9F04D0023E2
:108B90001A461B1A8A4103DB00200146BDE8F08D0E
:108BA000C1F30A52C1F3130141F480154FF0000BD9
:108BB000D10702D100186D41521E0027044640F231
:108BC000FF11384601EB620A3E468046024600200D
:108BD0004FF48011FFF714FBC2197141BB1846EB2B
:108BE0000100B4EB030C75EB000C04D3E41A65EB45
:108BF000000517460E46241908F101006D41804614
:108C00003428E3DDF91946EB0600091BA84103D21D
:108C10004FF0FF32134601E0002213461BEB070022
:108C200046EB0A51BDE8F04DFFF7D5BE3A2800D219
:108C3000303820F02002412A01D3A2F137008842C7
:108C400001D34FF0FF30704770B58C1810F8015BFE
:108C500015F0070301D110F8013B2A1106D110F8D5
:108C6000012B03E010F8016B01F8016B5B1EF9D1D9
:108C70002B0705D40023521E0DD401F8013BFAE75F
:108C800010F8013BCB1A921C03E013F8015B01F8CA
:108C9000015B521EF9D5A142D8D3002070BD00005F
:108CA00070B5044600688168C943C90717D1816857
:108CB00021F00101816002F061FE05460AE000BF7B
:108CC00002F05CFE401B022804D920688068C04383
:108CD000C00706D020688068C043C007F0D00020DD
:108CE00070BDA06A40F01000A062E06A40F0010090
:108CF000E062012070BD0000F8B500260446009631
:108D000000688168C943C9072DD0816841F001011D
:108D10008160164816490068B0FBF1F000E0401E83
:108D200000900028FBD102F029FE054616E000BFA6
:108D300002F024FE401B022810D920688068C0433E
:108D4000C0070BD0A06A40F01000A062E06A40F0BB
:108D50000100E06284F824600120F8BD206880688A
:108D6000C043C007E4D10020F8BD00005C00002033
:108D700040420F0003490A780AB90B690B6210449C
:108D800008707047700800202DE9F041012007F0BD
:108D9000A7FB314CD4E904010AF036F86080A188C1
:108DA000814203D000F026FE6088A08007F05EF8C4
:108DB00000252A4F012648B907F048F810B906F0F7
:108DC000EBFFE8B1022006F07FFDC8B12078DFF8A4
:108DD00090801BE0D4E9040100223B46FFF7EEFC43
:108DE0002FD31E490020C4E904012670BDE8F0819C
:108DF000C4E90401FAE70020C4E904002570F5E79E
:108E000007F00AF8DFF85C8018B120780028E1D07C
:108E100002E007F011F868B1D4E90401002213461A
:108E2000FFF7E4FCE7D2D4E9040100224346FFF750
:108E30007BFBDDE7D4E9040100223B46FFF7BEFCE3
:108E400006D2D4E9040100224346FFF7CCFACFE76B
:108E500000200249CCE70000D80700200040AF40C6
:108E6000000054400000404010B5002000F0C2FD5A
:108E7000064C01221021204602F07BFD20460122F3
:108E8000BDE81040202102F074BD0000000C01403C
:108E900010B505F01FF805F039F805F08BF900F072
:108EA00079FE08B108F092FA07F088F907F076F930
:108EB000BDE8104007F0FABA10B5234C40F27671C5
:108EC0002068FFF7C6F921681520214C08801F494A
:108ED000022009680880216B05200880002020708E
:108EE000606AD4F806100160A06AD4F80A10016024
:108EF00006F032FDC82204F174012069FFF790F9F1
:108F00002069C82204F59E71C830FFF789F92069ED
:108F1000C82204F5017100F5C870FFF781F92069D6
:108F2000C82204F5337100F51670FFF779F920694E
:108F3000C82204F5657100F54870FFF771F9BDE8C6
:108F4000104008F043BA0000840100209001002086
:108F5000B40100202DE9F041082007F0C1FA264DA8
:108F6000264C002628680088D8B10221B1EB102FCA
:108F700010D8C1B2217004F118020020204C6323E4
:108F8000175C8F4201D144F82030401CC0B2082841
:108F9000F6D300E0207000F03FF828680680BDE8B6
:108FA000F08104F0BBFCE0712178814220D1207A6D
:108FB000401C10F0FF002072F1D000F02FFD607A0D
:108FC00090B120780028EAD0012000F057FD6078A9
:108FD00021780843607004F051FF6278BDE8F041E9
:108FE0006421032006F0A2BBBDE8F04100F014B8F4
:108FF00020702672D3E7000008020020F00700204E
:10900000B044002010B50F2004F038FFBDE8104038
:10901000012000F033BD00002DE9F0413E4D3F49F5
:109020002869401C28610978002972D06969963145
:10903000884202D9012007F077F96021032001F06E
:10904000FFFBAA2803D1687A08B9AA206872002415
:10905000314F334E1837A046385D297888422BD1DE
:1090600030490968C1F8008028696861002007F06C
:109070005BF956F82400401C46F82400642842D1CD
:1090800000F004FD2878012801D0022804D156F808
:109090002400401E46F8240006F0B2FE08B1224823
:1090A00006E006F079FE08B1204801E01A48603079
:1090B00050F82400804726E019BB6978884220D107
:1090C00056F8240064281ED200F0E0FC06F098FE5A
:1090D00008B1174803E006F05FFE20B1154850F8CC
:1090E0002400804707E00C48403050F824008047B7
:1090F000002006F011FB06F09FFE10B1385D06F06F
:10910000A1FB46F82480641CE4B2082CA4D3287880
:109110006870BDE8F0810000F00700201006002014
:10912000B044002010020020B806002020070020D4
:10913000980600200007002010B5102007F0D0F995
:10914000264C42F20F72E168491CE160608890424F
:1091500001D2401C00E000206080214802784FF4DA
:109160008060AA2A0FD040F2DC52914202D900BF9F
:1091700006F008FBE0684FF49671B0FBF1F201FBDA
:10918000120222B107E0B1F5FA7FF1D8F2E7884286
:1091900001D305F011FE60880A21B0FBF1F201FB5A
:1091A0001202062A11D0B0FBF1F201FB120282B1C9
:1091B000B0FBF1F201FB120003280ED12078002849
:1091C0000BD0BDE8104005F0F9BBBDE8104005F03C
:1091D000EBBCBDE8104005F015BC10BDB408002084
:1091E000F907002010B50021032001F029FB214CD4
:1091F000A080401EFE2805D31522A2800021032056
:1092000006F094FA0121032001F01AFBE080032804
:1092100005D90322E2800121104606F087FA0221D7
:10922000032001F00DFB2081072805D907222281A8
:109230000221032006F07AFA0421032001F000FB4A
:109240006081082805D9082262810421032006F0E4
:109250006DFA0521032001F0F3FAA081012807D956
:109260000122A2810521BDE81040032006F05EBA6C
:1092700010BD00007806002010B507F029F904F0B1
:10928000A5FF104C2078C0B1AA2807D006F050FDE9
:1092900006F018FD2078AA2803D004E006F024FD8B
:1092A000F6E706F0FFF900F0E5F800226021032060
:1092B00006F03CFA0020207010BDBDE8104000F020
:1092C00019B80000F9070020084910B502200870FD
:1092D00006F0F0FB00F0CAFE0549AA20087008F06D
:1092E00003FEBDE8104006F0C9BC0000B00100203C
:1092F0001006002070B5444CE068401CE06007F0A8
:109300008FFD00F01BFBE068142875D30025E56095
:1093100020693E4E401C2061E079012807D00120E1
:10932000E07107F0CDFC05F057FD48B332E0384856
:10933000E57100680168491C0160364800680168F1
:10934000491C0160344800680168491C01600AF04A
:1093500049F9206A30B12169081AB0F5E15F01D9F5
:109360002570256206F034FD40B33078012140F0CD
:1093700008003070084607F025F806F04BFF3BE088
:109380003078002120F008003070012007F01AF832
:1093900006F040FF04F0AEF910B101F059F92BE0EE
:1093A000E56101F00FFB112803D107F0A1F804F0EB
:1093B000EDFB06F0FDFC10B104F014FA1CE006F021
:1093C00055FD10B106F086FA16E006F03FFD10B12B
:1093D00005F0A0FF10E006F01FFD10B105F03CFF06
:1093E0000AE006F053FD10B106F07CFA04E006F046
:1093F00007FD08B105F012FF6079002803D1BDE830
:10940000704004F0C3BB70BD70080020B0010020A4
:109410000C020020100200201402002010B50120D0
:1094200006F04AFA00F0B2FD06F0C2FC00280ED1A8
:1094300006F01CFD0E4918B108680188491E05E0B8
:1094400006F004FD20B108680188891E018010BD66
:1094500006F0E2FC18B108680188C91EF6E706F0BC
:1094600015FD0028F3D008680188091FEEE7000009
:109470001806002010B5012006F01EFA00F086FD47
:1094800006F096FC114918B108680188C91C17E05C
:1094900006F0ECFC18B108680188891C10E006F0A1
:1094A000D5FC18B108680188491C09E006F0B4FC35
:1094B00000280AD106F0EAFC18B108680188491EA4
:1094C0000180BDE8104000F005BD10BD1806002069
:1094D00010B5012006F0F0F900F058FD06F068FC28
:1094E000104920B109680888801C088010BD06F06A
:1094F000BDFC18B108680188491C09E006F0A6FC0B
:109500000028F3D106F088FC20B108680188491EC4
:10951000018010BD06F0BAFC0028FAD00868018866
:10952000891EF5E71806002010B5012006F0C4F9E1
:1095300000F02CFD06F03CFC134918B108680188C6
:10954000091D13E006F092FC18B108680188C91CD7
:109550000CE006F07BFC18B108680188891C05E066
:1095600006F05AFC20B108680188491C018003E01C
:1095700006F08CFC002806D1002005F0A5FABDE815
:10958000104000F0A7BC10BD1806002000B589B03F
:1095900020216846FEF75DFE08A1684608F0A4F9A0
:1095A0006846FEF76DFE0146684606F0ADF840F6E7
:1095B000B8300AF061FB09B000BD000041542B42F5
:1095C0004C45434F4E4E4543543D3132333435368E
:1095D0003738393030300D0A0000000010B5104C1B
:1095E000A08830B1022807D0092808D0102809D057
:1095F0000CE003210BA007E015210BA004E00F21D4
:109600000FA001E00E2112A006F07EF8A08842F221
:109610000F71884201D2401C00E00020A08010BDE4
:10962000080900202B2B2B0041542B424C454E4166
:109630004D453D696E7665726A65740D0A000000DD
:1096400041542B424C454D4F44453D25640D0A0085
:1096500041542B424C454D54553D25640D0A0000A4
:1096600000B5012000F0F4F801490020888000BD19
:109670000809002001480078704700000809002010
:1096800000F014F84FF47A700AF0F6FA00F068F877
:10969000054802F098FA00F075F800F099F82820D3
:1096A0000AF0EAFAF4E700000C14002010B51E4B93
:1096B000012215211D4805F0DEFB0021032001F0E9
:1096C000A9F8024640F2BB3423460321174805F0AF
:1096D00099FB0021042001F09DF80246802304211B
:1096E000124805F08FFB0021032001F093F8024699
:1096F000234606210D4805F085FB0021032001F0DB
:1097000089F8024623461021084805F07BFB00211A
:10971000032001F07FF823460246BDE810400521F2
:10972000024805F06FBB000009F70008944E0020C6
:1097300010B5002000F0DAF8012000F091F8FFF7F2
:1097400025FF06480068008808B9FFF71FFF0020C2
:1097500000F0CCF8BDE8104000F01AB80402002078
:1097600010B5002000F0C2F800F012F8002000F060
:1097700077F8F32000F04AF8BDE81040092000F027
:1097800091B80000014805F0BDBC0000944E0020D7
:1097900000B589B020216846FEF75BFD08A1684648
:1097A00008F0A2F86846FEF76BFD0146684605F032
:1097B000ABFF4FF4FA600AF05FFA09B000BD000099
:1097C00041542B424C45444953434F4E0D0A00002F
:1097D00010B50B480B4C01786078AA2909D018B154
:1097E00000206070FFF7BCFFBDE81040064805F0A0
:1097F00053BB002803D1FFF79BFF0120607010BD11
:10980000F907002008090020944E002010B588B008
:10981000044620216846FEF71CFD224608A1684642
:1098200008F062F86846FEF72BFD0146684605F031
:109830006BFF4FF47A700AF01FFA08B010BD0000F9
:1098400041542B424C454D54553D25640D0A0000B2
:10985000032801D80149087070470000080900205A
:1098600010B588B0044620216846FEF7F2FC224677
:1098700008A1684608F038F86846FEF701FD014681
:10988000684605F041FF41F270700AF0F5F908B042
:1098900010BD000041542B424C454D4F44453D25E1
:1098A000640D0A0010B588B0044620216846FEF712
:1098B000D0FC224608A1684608F016F86846FEF774
:1098C000DFFC0146684605F01FFF4FF47A700AF08E
:1098D000D3F908B010BD000041542B424C4552460C
:1098E0005057523D25640D0A0000000010B588B0A5
:1098F000044620216846FEF7ACFC8CB10AA16846FC
:1099000007F0F2FF6846FEF7BBFC01464FEA0D0088
:1099100005F0FAFE4FF47A700AF0AEF908B010BD07
:10992000032105A0F4E7000041542B5452414E534B
:10993000454E5445520D0A002B2B2B0070B5FFF7F6
:1099400099FE00261E4C1F4D03280CD0E8681428F1
:1099500014D3FFF78FFE012811D0FFF78BFE0228EA
:10996000AE612BD025E0AE612078C10703D100BFE6
:1099700040F0010001E020F00100207070BDFFF711
:109980002DFEA86910B12969884201D92869A8610A
:109990002969C80705D12078C2070CD020F0010042
:1099A0002070A869081A7828E8D90020AE61FFF76E
:1099B0004FFF2078DFE740F00100F1E72078D7E79C
:1099C000B00100207008002041F288300AF054F9FC
:1099D000FFF74AFA044802F0F6F8FFF7D5F9142029
:1099E0000AF04AF9F6E700000C1400204FF4FA7070
:1099F000AFF3008070B5074D04460021A86803F05E
:109A0000D7F8A86801684C63BDE87040002103F0F6
:109A100075B80000D8070020FEE7000070B5164CAE
:109A2000207901280BD002280CD00A281BD9617993
:109A3000002551B101290CD0022912D013E006F003
:109A4000B9FB10E006F0A1FB0DE006F0B3FB2571B9
:109A50000EE0142807D900BF06F0ACFB2571657134
:109A600006E02828F8D8207910B1401C207170BD7C
:109A7000BDE8704006F09EBBF00700200249487127
:109A80000120087170470000F007002010B506F0B3
:109A9000D3F9002804D1034801210171002141714B
:109AA00010BD0000F007002070B5094D044668782D
:109AB000A0420BD00821074803F07AF80548006857
:109AC000C4630821034803F019F86C7070BD0000EE
:109AD000400700206014002030B5ADF5017D0D4633
:109AE00004464FF400720B496846FEF799FB0020CC
:109AF000694608E014F8012B82EA102231F812209E
:109B000082EA002080B26D1EADB2F3D20DF5017D68
:109B100030BD0000785F010810B506F0E9FC06F0E2
:109B20008BF908B106F0AAF8BDE8104004F02EB891
:109B30000021002825D0421E262A21D8012809D03C
:109B4000022807D0042807D0A0F10F01032905D867
:109B5000042115E0012113E0022111E0032805D0C2
:109B6000A0F12201032903D8102109E0082107E010
:109B7000262807D0052807D0272807D04FF40071E2
:109B8000084670472021FBE74021F9E74FF4807138
:109B9000F6E700002DE9F041374C00263546A06D70
:109BA00032460660E06D0660206E0660606D0680DD
:109BB000606A008803F093FE20B9606AD4F806104A
:109BC00001250160A06A008803F089FE20B1A06A27
:109BD000408803F08BFE20B9A06AD4F80A10012552
:109BE0000160216B05200B885B1E082B02D30880C7
:109BF000012500E03DB1214B15211B681980216B27
:109C00000880E06A028005F0A7FE4FF47A7706EB41
:109C1000C600002200EB0613206900EBC30030F8F9
:109C2000220003F05CFE98B1206900EBC30000EB5A
:109C30008200408803F05AFE50B18AB1206900EBDF
:109C4000C30000EB8200418830F8020C814207D843
:109C500009493A4674312069FEF7E2FA012503E02A
:109C6000521CD2B2322AD7D3761CF6B2052ECED3EE
:109C70002846BDE8F0810000B401002084010020E6
:109C8000134910B54A69531C552808DB122A01D222
:109C90004B6110BDBDE81040402005F073BD502859
:109CA00007DB092AF4D300F099FE0028F1D1012046
:109CB0000AE04B28EDDC12B10020486110BD00F035
:109CC0008DFE0128FAD10020BDE8104005F0ACBDA2
:109CD000B408002070B5054600F042FE154CA842BD
:109CE00009D8A069122801D2401C18E0BDE87040D4
:109CF000022005F047BD00F038FEA84208D8A06950
:109D00000928F1D300F06AFE002809D103200DE0F4
:109D100000F030FEA84203D3A06910B10020A0617A
:109D200070BD00F05BFE0328FAD10020BDE8704052
:109D300005F07ABDB408002010B504460948006853
:109D40000078A0420CD000F0C5F800F01FF92046C2
:109D500003F096FD002803D0BDE8104000F0D4BC0D
:109D600010BD00001806002010B50522064B00218A
:109D700033F81140844201D1012010BD491C89B241
:109D80009142F5D3002010BDA808002070B506F060
:109D900053F818B1BDE8704005F070BF06F03CF80C
:109DA000244C40B1E069A16900880880BDE870409A
:109DB000002000F013B905F0A9FE002520B1606A6B
:109DC000E1690088088027E005F0B8FE40B1A06A8C
:109DD000E16900880880A06A216A408808801DE047
:109DE00005F0B8FED0B100F0F3FD03F071FD10B93D
:109DF000012005F001FD257000F0EAFD00EBC00137
:109E000001EB0010216901EBC000E16930F8C80CDA
:109E1000088006F03BF808B9206A058004F0DCFFF2
:109E200020B1022005F040FDE0690078BDE87040F7
:109E300004F04ABEB40100200D4810B50068A0F53A
:109E40000061B1F5E04F11D80A490B4C0144801E66
:109E5000B1F8FE1F49BA218081B208480AF0FCFF20
:109E600060802188814201D1012010BD002010BDF9
:109E70000478000800300208A40100200040020815
:109E8000034840693E2801D90120704700207047EF
:109E90007806002010B5044617290CD0102916D1D9
:109EA00010220B49FEF7F3F9002810D10220BDE87B
:109EB0001040FFF7CDBC064917221739FEF7E7F926
:109EC0000028F4D0024917222E392046EAE710BDB7
:109ED0005A5D01080148016941627047700800201D
:109EE00001490020487070477008002010B500221A
:109EF0006221032005F01AFC00226421032005F0F2
:109F000015FC05F041FFBDE8104005F0CBBD000099
:109F100010B500F033F81149002009680880104995
:109F2000087048700F480068007805F045FC0E483E
:109F30000068007805F060FC0C480D4A0168126862
:109F4000098811800B490C4A096812680988118038
:109F500000680078BDE8104000F040B850060020CE
:109F6000D806002020060020240600202806002015
:109F7000D00100202C060020D4010020024800213E
:109F8000C160818070470000B408002001490020B2
:109F90008860704770080020014801F051B9000046
:109FA000A8180020014801F04BB9000064180020F7
:109FB00030B590F840500124AC40C56B6C6004682B
:109FC00063604368102B036803D099600068C26027
:109FD00030BD9A600068C16030BD000010B5044615
:109FE000012005F071FC002807D10448C0690480F5
:109FF0002046BDE8104004F067BD10BDB40100204C
:10A000007047704710B586B004461422154968465B
:10A01000FEF706F94FF4E130042C0FD0012C0FD0DD
:10A02000022C1AD0032C09D0052C07D0601E04285E
:10A0300016D8684600EB840050F8040C06B010BD3A
:10A040000948C0680188042901D30221018088B22F
:10A050000549103151F82000F0E74FF41650EDE7B4
:10A060000020EBE7185D01088401002010B5124CB8
:10A0700020680078C0074FF0050002D000F04EF8CD
:10A0800001E000F003FA2068007880074FF001003B
:10A0900002D500F043F801E000F0F8F920680078FC
:10A0A00040074FF0020003D5BDE8104000F036B87D
:10A0B000BDE8104000F0EAB9E001002010B5002131
:10A0C000032000F0A7FB0D4C01212060032000F0CD
:10A0D000A1FBE0600120FFF795FF0221042000F0C2
:10A0E00099FB60600321042000F094FBA060022132
:10A0F000032000F08FFB0249086010BD840100209E
:10A10000E0010020044909680988014201D00120CA
:10A110007047002070470000E0010020012811D0A6
:10A120006FF0200102280FD003280FD0042816D08A
:10A13000052813D10B480268D36823F02003D360AD
:10A1400000680AE008F044BA074A00E0074A1068CD
:10A15000C36823F02003C360106801607047044A9D
:10A16000F5E7000058170020C41500206C160020E9
:10A170001417002010B50446800703D5FF210520E1
:10A1800006F07AF9E00705D0FF21BDE81040042071
:10A1900006F072B910BD10B50446400703D5002182
:10A1A000072006F00FF9A00703D5FF21072006F0CE
:10A1B00063F9E00705D0FF21BDE81040062006F056
:10A1C0005BB910BD10B5FF21052006F055F9FF2140
:10A1D000BDE81040042006F04FB970B505460A24CA
:10A1E000B0FBF4F0B0FBF4F104FB1101052006F024
:10A1F00043F9B5FBF4F004FB1051BDE870400420B6
:10A2000006F03AB970B50446642802D94FF06404E8
:10A2100000E002D34FF0010101E04FF000014FF0E8
:10A22000070006F0CFF80A25B4FBF5F0B0FBF5F116
:10A2300005FB1101072006F01FF9B4FBF5F005FB43
:10A240001041BDE87040062006F016B970B504460E
:10A250004FF47A70B4FBF0F00A25B0FBF5F105FB82
:10A260001101002006F008F96420B4FBF0F0B0FB07
:10A27000F5F105FB1101012006F0FEF8B4FBF5F045
:10A28000B0FBF5F105FB1101022006F0F5F8B4FB77
:10A29000F5F005FB1041BDE87040032006F0ECB876
:10A2A00010B504464521002006F0BEF8C4F3032192
:10A2B000012006F0E1F8C4F30311022006F0DCF8F7
:10A2C00004F00F01BDE81040032006F0D5B870B5CA
:10A2D00005460A24B0FBF4F0B0FBF4F104FB1101D5
:10A2E000002006F0C9F8B5FBF4F004FB1051BDE8FE
:10A2F0007040012006F0C0B810B50446502105207A
:10A3000006F092F80A20B4FBF0F100FB1141BDE821
:10A310001040042006F0B0B870B50446642802D995
:10A320004FF0640400E002D34FF0010101E04FF070
:10A3300000014FF0070006F045F80A25B4FBF5F0E0
:10A34000B0FBF5F105FB1101072006F095F8B4FB11
:10A35000F5F005FB1041BDE87040062006F08CB812
:10A3600070B505460A24B0FBF4F0B0FBF4F104FB31
:10A370001101022006F080F8B5FBF4F004FB105147
:10A38000BDE87040032006F077B870B50446642835
:10A3900002D94FF0640400E002D34FF0010101E064
:10A3A0004FF000014FF0070006F00CF80A250A2CC8
:10A3B00001D2FF2105E0B4FBF5F0B0FBF5F105FBA0
:10A3C0001101072006F058F8B4FBF5F005FB104129
:10A3D000BDE87040062006F04FB870B505460A2467
:10A3E000B0FBF4F0B0FBF4F104FB1101052006F022
:10A3F00043F8B5FBF4F004FB1051BDE870400420B5
:10A4000006F03AB803480021016141618161C161F0
:10A4100070470000B408002010B5FFF7F3FF0348B1
:10A4200000218162C1700171817010BD700800202F
:10A4300070B5144CA078002822D0134D28680188EC
:10A44000C8B2E070A26A012A02D92279914200D2F0
:10A45000207104F033FB2179884202D0022005F0FC
:10A4600023FA29682079088004F02EFBA06A0128CD
:10A4700006D900F00301401A401CA062012060715F
:10A4800070BD000070080020D001002010B5012828
:10A4900010D06FF02004022810D0032815D0042813
:10A4A0001CD0052819D101221049114802F0D2FF11
:10A4B0000F4810E0BDE8104008F09AB801220D499D
:10A4C0000D4802F0C7FF0C4805E001220B490C487B
:10A4D00002F0C0FF0A480068046010BD012209496B
:10A4E000094802F0B7FF0848F5E7000048000020DF
:10A4F0005817002045000020C41500204600002009
:10A500006C160020470000201417002072B6FEE7EA
:10A5100070B50D4E054630460AF01AFC002812D1DF
:10A520000A4C206940F0020020616561206940F01A
:10A530004000206130460AF00BFC012803D020695E
:10A5400020F00200206170BDFFFF5F00002002408C
:10A55000044B0022DA61044A136943F001031361DA
:10A560000180704738190020002002401448002262
:10A57000C168CB06134904D5CA6942F00202CA6118
:10A580001022C3685B0705D5CB6943F00103CB619B
:10A5900042F00402C369DB0707D0CB6943F0040330
:10A5A000CB61C16921F00101C161A2F5807101395E
:10A5B00001D0C2607047C16921F00101C1617047DB
:10A5C000002002403819002070B5054601F0D6F988
:10A5D0000646114C09E0681C07D025B101F0CEF900
:10A5E000801BA84201D9032070BDE068C007F2D1EA
:10A5F000E068800601D52020E060E068C00605D450
:10A60000E069C00702D1E068400703D5FFF7AEFF5D
:10A61000012070BD002070BD00200240B0F5804FC9
:10A6200001D300207047012070470000064800B5A4
:10A630000068008800F072F9044908704A78824284
:10A6400001D90120487000BD50060020D806002026
:10A6500010B500F0B7F9112802D005F05BFF17E044
:10A6600005F09AFBA0B103F03BF888B90F48C16927
:10A6700011B10269914201D90169C1610169C069E1
:10A68000081A3C2804D90A48007808B9FFF744FAA8
:10A6900004F0E2F930B1022005F016F910B1022001
:10A6A00005F00AF9BDE8104006F096BA70080020DF
:10A6B000F907002004480021426E1180826E11804B
:10A6C000C06E016070470000B401002010B50C4C52
:10A6D000616E0A8810440880E0690088142801D35C
:10A6E000A16E088000F0C2F8064909784843642149
:10A6F000B0FBF1F1E06E02681144016010BD000092
:10A70000B4010020B408002010B506F033FBBDE80A
:10A710001040FFF7CFBF00000F4810B5006809F0E8
:10A72000E1FA0E48006809F0DDFA0D48006809F00A
:10A73000D9FA0C48006809F0D5FA0B48006809F00E
:10A74000D1FA0A48006809F0CDFA09480068BDE866
:10A75000104009F0C7BA00002C00002020000020A3
:10A7600024000020280000203000002034000020B9
:10A77000380000200D4810B5006809F0CDFA0C48EB
:10A78000006809F0C9FA0B48006809F0C5FA0A48E0
:10A79000006809F0C1FA0948006809F0BDFA0848E4
:10A7A0000068BDE8104009F0B7BA00002C00002096
:10A7B000200000202400002028000020300000207D
:10A7C000340000200D4810B5006809F0A5FA0C48C7
:10A7D000006809F0A1FA0B48006809F09DFA0A48E0
:10A7E000006809F099FA0948006809F095FA0848E4
:10A7F0000068BDE8104009F08FBA00002C0000206E
:10A80000200000202400002028000020300000202C
:10A8100038000020032802D0042805D00AE0B1F552
:10A820006F7F07D2044802E0802903D8034800EB79
:10A830004100704700207047D2450020D0440020DE
:10A84000032802D0042805D00AE0B1F56F7F07D2B3
:10A85000044802E0802903D8034830F8110070470B
:10A8600000207047D2450020D044002010B500F0F1
:10A8700067F8642805D0A02805D0C82805D0B420E2
:10A8800010BD6C2010BD822010BDA02010BD0000A6
:10A8900070B5092003F0D8FC134C606800F018F97B
:10A8A000606800F071FB0721606800F0CFFA606813
:10A8B00000F0F8F9800503D5606800F0F5F9054669
:10A8C0007C2D02D9B5F57A6F06D32088411C2180F2
:10A8D0000A2803D9054870BD002020802846BDE81D
:10A8E000704000F081B80000B00700200000C8C22E
:10A8F00030B500231A46012505FA02F4044206D0B9
:10A900005B1CDBB2994202D1521CD0B230BD521C4A
:10A91000D2B2102AF0D3002030BD0000024610B59C
:10A92000002001465FF0010404FA01F3134201D054
:10A93000401CC0B2491CC9B21029F5D310BD00009B
:10A9400010B500F0A9F805490428087003D2091DC4
:10A9500051F8200010BDE62010BD0000C407002003
:10A9600010B5FFF7EDFF462010BD10B5FFF7E8FF6B
:10A97000412010BD10B5FFF7E3FF3C2010BD0000E3
:10A980000148808870470000B408002010B5FFF728
:10A99000D7FF642806D0A02807D0C82808D042F2E4
:10A9A0001C5010BD41F20C7010BD41F6B64010BDF8
:10A9B00042F2341010BD10B5FFF7C2FF40F6AC50A4
:10A9C00010BD00000148006800787047180600209C
:10A9D00001480068007870471C0600200148807814
:10A9E00070470000700800202DE9F041FDF783FE5C
:10A9F000FDF7D1FE4FF0663842461C4BFDF79AFD3D
:10AA0000FDF70CFF0546FDF7C6FE4246184BFDF765
:10AA10008EFD184E07460C4631462846FDF773FC5E
:10AA2000FDF7B9FE3A462346FDF7F6FDFDF7F6FEC3
:10AA30003146FDF79AFCFDF7AEFE08F0D7FA00228A
:10AA40000D4BFDF7E9FD0D4A0D4BFDF7CCFC024621
:10AA50000B4600200B49FDF7DFFD42460A4BFDF790
:10AA600063FDBDE8F041FDF7D9BE000066664A3FD0
:10AA700066660A400000204100DCAE4083DBB5DCA6
:10AA8000E1796B3F0000F03F661271400148407869
:10AA900070470000180900202DE9F04100250B4EF9
:10AAA0002C46012706EBC400818856F8340000F0DC
:10AAB0005BFF18B907FA04F02843C5B2641CE4B27E
:10AAC000042CEFD32846BDE8F081000000000020F0
:10AAD000F8B500250446009590F82400012808D018
:10AAE000012084F824002046FEF7DAF8060002D0A0
:10AAF00053E00220F8BDA06A20F4885040F0020024
:10AB0000A062022001F04AF926490968B1FBF0F081
:10AB1000400000E0401E00900028FBD12046FEF7D8
:10AB2000EBF82068816841F00801816000F026FFA1
:10AB3000074608E000F022FFC01B0A2803D920685E
:10AB40008068000715D4206880680007F2D4206868
:10AB5000816841F00401816000F010FF074612E0B7
:10AB600000F00CFFC01B0A280DD920688068400740
:10AB700009D5A06A20F0020040F01000A06284F81D
:10AB800024500120F8BD206880684007E8D4A06AFE
:10AB900020F0020040F00100A06284F8245030460A
:10ABA000F8BD00005C000020F8B50024009490F887
:10ABB00024202546012A12D0012280F824204A6848
:10ABC0001F23072A0DD20668776B521E02EB820202
:10ABD00093409F430B6893401F43776319E0022023
:10ABE000F8BD06680D2A0AD2376BD21F02EB82022B
:10ABF00093409F430B6893401F43376309E0F76A14
:10AC00000D3A02EB820293409F430B6893401F432F
:10AC1000F7620A68072306680A2A0AD3F7680A3A1D
:10AC200002EB420293409F438B6893401F43F760BF
:10AC300008E0376902EB420293409F438B689340E0
:10AC40001F4337610A68102A01D0112A20D1124B04
:10AC500002689A4217D193681B0219D4936843F48F
:10AC6000000393600968102912D10C490C4A096845
:10AC7000B1FBF2F101EB8101490000E0491E0091B6
:10AC80000029FBD104E0816A41F0200181620124A6
:10AC900080F824502046F8BD002401405C000020CC
:10ACA00040420F00806A70470068C06C7047000027
:10ACB0002DE9F04104004FF000057FD0A06A002686
:10ACC00028B9E66284F82460204600F081F8204626
:10ACD000FDF7E6FFA16AC90600D420B1A06A40F0E2
:10ACE0001000A0626AE0A16A21F4885141F00201DB
:10ACF000A162334923688B42E16904D1B1F5402F49
:10AD000001D14FF40021277B4FF4807C41EA4702B8
:10AD100061680A43A168614508D0012906D0002175
:10AD200094F814E0BEF1010F02D00AE06146F7E7A3
:10AD3000C7B1A76A47F02007A762E76A47F0010793
:10AD4000E7625F6827F469470F435F60236899688B
:10AD50001C4F394011439960A16861450BD001290E
:10AD600009D00CE0DFF860E0A7690EEB47370F432E
:10AD700047F40061E5E7218A0D05A5F580152168F6
:10AD8000CB6A23F470032B43CB62216889680F4B95
:10AD90001940914208D1E662A16A21F0020141F016
:10ADA0000101A162BDE8F081A06A20F0020040F03C
:10ADB0001000A062E06A40F00100E0620120F1E7CB
:10ADC000003C0140FDF7E1FF00E0FFFFFE0E1FFF2A
:10ADD00010B586B0002100910191029103910068A5
:10ADE0001649884227D11648816941F48061816102
:10ADF000816901F480610491816941F004018161FC
:10AE0000816901F004010491816941F008018161C7
:10AE10008069032400F0080004906020CDE900045C
:10AE20006946084800F0A4FC0220CDE90004694608
:10AE3000054800F09DFC06B010BD00000028014050
:10AE40000010024000080140000C01402DE9F843C9
:10AE500000270D460446009700F090FD80462068CC
:10AE60008168C90508D5A06A40F02000A06284F876
:10AE700024700120BDE8F8834168C90503D4C06A85
:10AE800010F4700F2AD0022000F088FF3B490968B7
:10AE9000B1FBF0F62068036939490B424FEA6101C2
:10AEA0004FEAA1121FD1C3684FEA611C13EA0C0FCD
:10AEB00019D103690B4225D1C068104222D1142058
:10AEC00023E0681C0AD02DB100F058FDA0EB08006B
:10AED000A84203D920680068800725D5206800684B
:10AEE0008007EED52DE003690B4202D1C168114203
:10AEF00006D0026923490A4206D1C068084203D13C
:10AF0000542002E0292000E0FC204643009816E08F
:10AF1000681C11D02DB100F031FDA0EB0800A84253
:10AF20000AD90098B04207D2A06A40F00400A0629B
:10AF300084F8247003209DE70098401C0090B042E4
:10AF4000E6D321686FF012000860A06A40F4007038
:10AF5000A06220688068C0F3424007280CD1207BA3
:10AF600050B9A06A20F48070A062A06AC00403D423
:10AF7000A06A40F00100A06200207BE75C00002096
:10AF8000244992244992240070B5044690F8240084
:10AF900001280DD0012084F824002046FDF7ACFEE6
:10AFA00002004FF0000005D084F82400104670BD68
:10AFB000022070BDA16A40F20123994341F48071DF
:10AFC000A1621F4D23681F49AB4218D10E6816F4C9
:10AFD000702F14D0A66A46F48016A6620E68760515
:10AFE00005D5A66A26F4005646F48056A662A66ADF
:10AFF000F6040AD5E66A26F00606E66206E0A66AC8
:10B0000026F48016A6625E68E9E7E06284F8240010
:10B010006FF00200186020688368C3F34243072B77
:10B0200005D1A84208D1096811F4702F04D08168B5
:10B0300041F480118160B9E7816841F4A001F9E72A
:10B04000002801400424014010B590F8211000228E
:10B05000022905D00421816380F82020012010BD41
:10B0600001680B6823F00E030B6001680B6823F086
:10B0700001030B6090F84030C46B012101FA03F327
:10B08000636080F8211080F82020104610BD000079
:10B090002DE9F05F90F821100024022903D004214B
:10B0A0008163012485E001680A6822F00E020A60CB
:10B0B00001680A6822F001020A603F4E3E4FB21555
:10B0C000DFF8F4C0DFF8F090DFF8ECA0DFF8E8B0CC
:10B0D000DFF8E4E00168783F13011502ACF1640C7D
:10B0E000A9F15009AAF13C0AABF1280BAEF1140EFC
:10B0F0004FF48018B14227D9B9420ED0614512D021
:10B1000049451DD0514518D0594518D0714501D138
:10B11000424615E0294EB14201D1012210E0274EEE
:10B120001436B14201D110220AE0244E2836B14231
:10B1300006D0224A3C32914201D11A4600E02A460A
:10B140001E49091F0A602BE0B94213D0614517D090
:10B15000494522D051451DD059451DD0714501D1D9
:10B1600042461AE0B14202D14FF0807215E0134E10
:10B17000B14201D1012210E0104E1436B14201D18A
:10B1800010220AE00D4E2836B14206D00B4A3C325E
:10B19000914201D11A4600E02A46074980394A60A7
:10B1A000012180F82110002180F82010416B01B1AD
:10B1B00088472046BDE8F09F800002400804024016
:10B1C00010B5D0B101680A6822F001020A60026875
:10B1D0000021116002685160026891600268D160CC
:10B1E000144C02681423A24209D2134C2244B2FB2D
:10B1F000F3F292000264114A0AE0012010BD0D4CE6
:10B2000064422244B2FBF3F292000264094A083A13
:10B21000C26390F8403001229A40C36B5A60816249
:10B22000C16201634163816380F8211080F82010BE
:10B23000002010BD08040240F8FFFDBF00000240DE
:10B240002DE9F05FC16B0A6801680B68046C4FF070
:10B25000040808FA04F8844D844E854FDFF814C2C0
:10B26000DFF81492DFF814A2DFF814B2DFF814E26A
:10B2700018EA020F65D05FEA437862D50A68920641
:10B2800003D40A6822F004020A60DFF8F0814FF468
:10B290008062016808F1140813011402414524D9A1
:10B2A000A9420DD0B1420FD0B9421AD0614515D094
:10B2B000494515D0514501D1120312E0594501D13C
:10B2C00004220EE0714501D140220AE06D4D143593
:10B2D000A94206D06B4A2832914201D11A4600E0B9
:10B2E00022466749091F0A6029E0A94213D0B142EA
:10B2F00015D0B94220D061451BD049451BD05145DE
:10B3000002D14FF4800217E0414502D14FF0806234
:10B3100012E0594501D104220EE0714501D14022CD
:10B320000AE0584D1435A94206D0564A28329142B7
:10B3300001D11A4600E022464B4908394A60C16AE9
:10B3400071E04FF0020808FA04F818EA020F70D012
:10B350005FEA83786DD50A68920606D40A6822F0FF
:10B360000A020A60012180F82110DFF810814FF4F1
:10B370000072016808F1140813011402414524D930
:10B38000A9420DD0B1420FD0B9421AD0614515D0B3
:10B39000494515D0514501D1120312E0594501D15B
:10B3A00002220EE0714501D120220AE0354D14350C
:10B3B000A94206D0334A2832914201D11A4600E010
:10B3C00022462F49091F0A6029E0A94213D0B14241
:10B3D00015D0B94220D061451BD049451BD05145FD
:10B3E00002D14FF4001217E0414502D14FF0007234
:10B3F00012E0594501D102220EE0714501D120220F
:10B400000AE0204D1435A94206D01E4A2832914246
:10B4100001D11A4600E02246134908394A6000214A
:10B4200080F82010816A00291CD0BDE8F05F084731
:10B43000FFE70825A540154214D01A0712D50A685F
:10B4400022F00E020A6090F84020C36B012101FA3D
:10B4500002F25A60816380F82110002180F82010E8
:10B46000016BE0E7BDE8F09F080002401C000240CD
:10B470003000024044000240580002406C0002408C
:10B48000080402401C04024030B560B11A4B026847
:10B4900014219A4209D2194B1344B3FBF1F18900EC
:10B4A000016417490AE0012030BD134B5B4213448D
:10B4B000B3FBF1F1890001640F490839C16302212E
:10B4C00080F82110136843F6F0718B43F0E9011402
:10B4D0002143D0E902452C432143046921434469B7
:10B4E00021438469214319431160002141630122F2
:10B4F00042770177084630BD08040240F8FFFDBFDF
:10B500000000024070B5044690F820000025012894
:10B510000CD0012084F8200094F821600020012E36
:10B5200006D084F820000225284670BD022070BD98
:10B53000022684F82160A0632068066826F00106D0
:10B5400006602046FEF734FDE06A002820680168A6
:10B5500002D041F00E0106E021F0040101602068F4
:10B56000016841F00A0101602068016841F00101B1
:10B570000160D9E7064810B54FF0FF31C1600022E5
:10B580000261C160C26000F085FB002010BD0000B8
:10B59000001002400348016941F080010161002070
:10B5A00070470000002002402DE9F05F07461C486C
:10B5B00088460024017E15461E46012909D0012136
:10B5C000814601764CF2503A5046FEF7FDFF18B125
:10B5D00022E00220BDE8F09F012F02D0022F00D010
:10B5E0000427D346DFF83CA0220128463146FCF769
:10B5F00007FE81B208EB4400FEF7AAFF5846FEF7AB
:10B60000E3FFDAF8102022F00102CAF8102018B97E
:10B61000641CE4B2BC42E7D3002289F81820D9E7C1
:10B620003819002000200240064900200A6912064D
:10B6300007D5054A4A60054A4A600969090600D5E6
:10B64000012070470020024023016745AB89EFCD00
:10B650002DE9F04300233E4F0F2574E001229A406C
:10B660000A406ED023F00304E619D6F808809C0740
:10B670004FEA147C05FA0CF909EA0804DFF8D480D3
:10B68000404502D14FF0000824E0DFF8CC8040456F
:10B6900002D14FF001081DE0DFF8C080404502D123
:10B6A0004FF0020816E0DFF8B880404502D14FF0B5
:10B6B00003080FE0DFF8AC80404502D14FF00408EA
:10B6C00008E0DFF8A480404502D14FF0050801E012
:10B6D0004FF0060808FA0CF8A04515D1D6F808C0B6
:10B6E0002CEA090CC6F808C0204E34689443346034
:10B6F000341D266896432660241D266896432660DE
:10B70000241D266896432660FF2A01D8064601E0DC
:10B7100000F104064FEA830401D9A4F12004D6F80D
:10B7200000C005FA04F82CEA080C4FF0040808FAE7
:10B7300004F84CEA080CC6F800C0C46824EA020405
:10B74000C46003F1010331FA03F287D1BDE8F0834D
:10B750000000014000080140000C014000100140C1
:10B760000014014000180140001C01400004014089
:10B770002DE9F84FDFF8C891002409F1040A0AF115
:10B78000040B23460F270BF1040ED1E00125A54041
:10B7900006EA0502AA4276D1DFF8A8C14E68A6EBF8
:10B7A0000C0866452BD00DDC032E34D005DC36B3F7
:10B7B000012E19D0022E2FD11BE0112E16D0122EE1
:10B7C0002AD119E0B8F5881F19D006DCB8F5803FFA
:10B7D00015D0B8F5801F1FD111E0B8F5001F0ED0AD
:10B7E000B8F5041F18D10AE0CB6815E0CB681B1D23
:10B7F00012E0CB6808330FE0CB680C330CE08B68A9
:10B800002BB1012B4FF0080303D0456104E0042362
:10B8100002E0056100E00023FF2A01D8064601E0AE
:10B8200000F104064FEA840501D9A5F12005D6F8F8
:10B83000008007FA05FC28EA0C0803FA05F548EA37
:10B840000508C6F800804D68ED0070D53E4DAE6924
:10B8500046F00106AE61AD6924F0030605F001056E
:10B8600000953A4D06EB050CDCF80850A607360F9C
:10B8700007FA06F825EA0805DFF8D480404503D129
:10B880004FF0000825E052E0DFF8C880404502D1C3
:10B890004FF001081DE0DFF8C080404502D14FF0B5
:10B8A000020816E0DFF8B480404502D14FF00308EB
:10B8B0000FE0DFF8AC80404502D14FF0040808E00B
:10B8C000DFF8A080404502D14FF0050801E04FF0BD
:10B8D000060808FA06F848EA0508CCF808804D681A
:10B8E000D9F80060ED034D4601D5164300E09643BC
:10B8F0002E604D68DAF80060AD03554601D5164359
:10B9000000E096432E604D68DBF80060ED025D4676
:10B9100001D5164300E096432E604D68DEF80060C6
:10B92000AD02754601D5164300E096432E60641CB7
:10B930000A681646E2407FF429AFBDE8F88F0000A0
:10B9400000040140000011100010024000000140FE
:10B9500000080140000C01400010014000140140AB
:10B9600000180140001C01408068084000D0012000
:10B9700070470AB1016170470904FBE7014880681C
:10B98000704700005000002070B5040025D094F8E6
:10B990003D00002520B984F83C50204600F0B8F85E
:10B9A000242084F83D002068016821F00101016035
:10B9B0002068016841F4004101602068016821F4B9
:10B9C0000041016000F080FB4D4A6168914201D85E
:10B9D0004C4900E04C49884201D2012070BD4B49DE
:10B9E0002368B0FBF1F15E6826F03F060E435E600F
:10B9F0006368934206D94FF4967359434FF47A73B0
:10BA0000B1FBF3F12368491C1E6A26F03F0631435F
:10BA100019626168914210D84900401EB0FBF1F2F2
:10BA2000521CC2F30B02042A01D2042022E0B0FB14
:10BA3000F1F0401CC0F30B001CE0A268F2B301EB74
:10BA4000C10303EB0116431EB3FBF6F35B1C43F487
:10BA500080431B0549D092B301EBC10202EB0111F7
:10BA6000401EB0FBF1F0401CC0F30B0040F48040DE
:10BA700040F400402168CA694CF6FF739A431043B2
:10BA8000C861D4E9071001432068026822F0C002AF
:10BA900011430160D4E9030101432068826848F240
:10BAA000FF339A4311438160D4E9050108432168BB
:10BAB000CA6822F0FF021043C86001E00EE016E001
:10BAC0002068016841F0010101602564202084F8AC
:10BAD0003D00256384F83E50002070BD01EB410617
:10BAE000431EB3FBF6F35B1CB3E70120C2E701EB97
:10BAF0004101401EB0FBF1F0401CC0F30B00B7E762
:10BB0000A086010080841E0000093D0040420F0015
:10BB100010B586B000210091019102910391006857
:10BB20000F4988421AD10F4CA06940F00800A0616B
:10BB3000A069694600F008000490C020009012201F
:10BB40000190032003900848FFF712FEE06940F4DB
:10BB50000010E061E06900F40010049006B010BD30
:10BB60000054004000100240000C014070B5040079
:10BB700011D021684CF6CC400860216845F2555040
:10BB80000860D4E9000141602168A0688860FFF77F
:10BB9000F5FE05460DE0012070BD00BFFFF7EEFE8B
:10BBA000401B272805D92068C068800701D00320E2
:10BBB00070BD2068C0688007F0D121684AF6AA20CD
:10BBC0000860002070BD00684AF6AA2101600020CC
:10BBD0007047000002488168027811448160704714
:10BBE00050000020074810B5016841F010010160C5
:10BBF000032000F0C1F80F2000F006F800F04CF828
:10BC0000002010BD0020024030B505461C4887B01A
:10BC1000816941F400618161806906A900F40060D6
:10BC2000009001A800F030FA00F05EFA1549164ABB
:10BC3000B0FBF1F11548491E0260416040F2E73265
:10BC40000021C0E903218160816100F063FC0400F0
:10BC500012D10E4800F0EAFC04000DD1192000F0CA
:10BC60005DF8102D07D200222946192000F064F853
:10BC70000748056000E0012407B0204630BD000001
:10BC80000010024040420F00002C0140EC18002040
:10BC900054000020704700000F4808B5816941F04A
:10BCA00001018161816901F001010091C16941F0E7
:10BCB0008051C161C069002200F0805000900F21C6
:10BCC000901E00F039F80548416821F0E06141F02C
:10BCD0000071416008BD00000010024000000140FA
:10BCE000002809DB00F01F0201219140400980007B
:10BCF00000F1E020C0F88012704700280DDB00F052
:10BD00001F02012191404009800000F1E020C0F8AD
:10BD10008011BFF34F8FBFF36F8F7047002809DB8F
:10BD200000F01F02012191404009800000F1E02055
:10BD3000C0F8001170470000F0B40E4B1B680C46B1
:10BD4000C3F30223C3F10705042D00D90425191DEF
:10BD5000072901D2002300E0DB1E012606FA05F1C7
:10BD6000491E214099409E40761E16403143F0BC4A
:10BD700005F0E2BD0CED00E0064900F0070208689E
:10BD80004FF6FF03184040EA0220034A10430860C0
:10BD9000704700000CED00E00000FA0510B52CA47F
:10BDA00001461DCC86B08DE81D002DA02D4C0068ED
:10BDB0000490002004292FD00BDC01292FD0022968
:10BDC00028D100F091F96168C1F38131491C490023
:10BDD0001EE0082920D010291CD161682268D201F8
:10BDE00018D5C1F38342C9031DF8020009D5616863
:10BDF00004AAC1F34041515C1B4AB2FBF1F1484334
:10BE000001E01A4948436168490203D44000032114
:10BE1000B0FBF1F006B010BD00F076F9FAE7226A47
:10BE2000C2F30121012903D1920701D5C803F1E72B
:10BE3000022905D1626A920702D549F64040E9E736
:10BE40000329E7D121688903E4D54FF22440E1E7D3
:10BE500002030405060708090A0B0C0D0E0F10104B
:10BE6000010200000010024000127A0000093D00AB
:10BE70002DE9F84305460078354CC00754D0E069F9
:10BE80000026C00008D4E06940F08050E061E0691D
:10BE9000012600F0805000902E480168C90512D498
:10BEA0000168804641F480710160FFF767FD074635
:10BEB00005E000BFFFF762FDC01B642823D8D8F857
:10BEC0000000C005F6D5206A10F4407021D0A98882
:10BED00001F4407181421CD0206A1F49012220F4E4
:10BEE00040700A6000220A602062C00711D0FFF78C
:10BEF00045FD074641F2883808E000BFFFF73EFDE8
:10BF0000C11B414502D90320BDE8F883206A8007A0
:10BF1000F4D5206A696820F44070084320621EB19D
:10BF2000E06920F08050E0612878800705D56068DE
:10BF3000A96820F44040084360602878C00605D511
:10BF40006068696920F48000084360600020DBE7D6
:10BF50000010024000700040400442422DE9F047CA
:10BF60000F46050061D0434E306800F00700B8422C
:10BF700009D2306820F0070038433060306800F0A4
:10BF80000700B84251D128683B4C810712D54007C1
:10BF900003D5606840F4E06060602878000703D54E
:10BFA000606840F4605060606068A96820F0F0004C
:10BFB000084360602878C00728D06868012810D03E
:10BFC0002168022810D0890700292EDA616821F043
:10BFD000030101436160FFF7D1FC804641F28839DB
:10BFE0000DE021688903EFE78901EDE7FFF7C6FC63
:10BFF000A0EB0801494502D90320BDE8F08760683D
:10C00000696800F00C00B0EB810FEFD1306800F0F0
:10C010000700B8420BD9306820F007003843306081
:10C02000306800F00700B84201D00120E5E7287829
:10C03000400705D56068E96820F4E0600843606067
:10C040002878000706D56068296920F4605040EA26
:10C05000C100606000F058F86168084AC1F303113C
:10C06000515CC8400649086006480068FFF7CCFDEF
:10C070000020C2E70020024000100240005B0108DF
:10C080005C000020540000200F2202600C4A53681C
:10C0900003F003034360536803F0F00383605368C5
:10C0A00003F4E063C36052684FF4E06303EAD20232
:10C0B00002610448006800F0070008607047000053
:10C0C0000010024000200240044805490068496809
:10C0D000044AC1F30221515CC84070475C00002053
:10C0E00000100240105B01080448054900684968D7
:10C0F000044AC1F3C221515CC84070475C00002073
:10C1000000100240105B010812A185B00FC98DE834
:10C110000F0014A0144A006804905168134801F0FD
:10C120000C03042B10D0082B0ED1C1F38343C90399
:10C130001DF803000AD5516804AAC1F34041515CBF
:10C140000A4A5043B0FBF1F005B070470849484334
:10C15000FAE7000002030405060708090A0B0C0DA4
:10C160000E0F1010010200000010024000127A00B1
:10C1700000093D002DE9F84F040070D02078C04D33
:10C18000C00749D06868C0F38100012807D06868FB
:10C19000C0F38100022809D16868C00306D5286869
:10C1A000800339D560680028E7D035E06068B0F5D5
:10C1B000803F0BD010B1B0F5A02F11D0286820F42B
:10C1C00080302860286820F4802002E0286840F44D
:10C1D00080302860606890B1FFF7D0FB06460AE027
:10C1E000286840F480202860F0E700BFFFF7C6FB16
:10C1F000801B642873D828688003F7D50CE0FFF70C
:10C20000BDFB064605E000BFFFF7B8FB801B6428B6
:10C21000F0D828688003F7D420789A4E80074FF032
:10C2200001094FF0000839D5686810F00C0F07D0ED
:10C230006868C0F38100022809D16868C00306D489
:10C240002868800714D52069012808D110E02069EA
:10C25000B0B1C6F80090FFF791FB074605E00AE190
:10C26000FFF78CFBC01B0228C4D828688007F7D5CD
:10C270002868616920F0F80040EAC10028600DE0FC
:10C28000C6F80080FFF77AFB074604E0FFF776FB6D
:10C29000C01B022823D828688007F7D4207800071D
:10C2A0002CD57948A169D9B1C0F80090FFF766FB99
:10C2B000074604E0FFF762FBC01B02280FD8686A3C
:10C2C0008007F7D571484FF4FA510068B0FBF1F0E0
:10C2D000009000BF0098411E0091FAD20EE080E06D
:10C2E000C0F80080FFF74AFB074604E0FFF746FB73
:10C2F000C01B022875D8686A8007F7D420784007E9
:10C3000060D5E8690027C00008D4E86940F0805093
:10C31000E861E869012700F0805000905C480168FE
:10C32000C90513D40168834641F480710160FFF7A9
:10C3300025FB824606E000BFFFF720FBA0EB0A00CA
:10C3400064284ED8DBF80000C005F5D5E068012868
:10C350000AD008B1052813D0286A20F0010028620D
:10C36000286A20F0040002E0286A40F001002862F8
:10C37000E06841F2883B98B1FFF700FB82460BE092
:10C38000286A40F004002862EEE700BFFFF7F6FAE3
:10C39000A0EB0A0159455AD8286A8007F6D50CE067
:10C3A000FFF7ECFA824605E0FFF7E8FAA0EB0A0196
:10C3B00059454CD8286A8007F6D41FB1E86920F0A7
:10C3C0008050E861E06988B36968C1F3810102299E
:10C3D00044D00228C6F8608004D0FFF7CFFA0446A4
:10C3E00038E034E0FFF7CAFA074604E0FFF7C6FA80
:10C3F000C01B02282BD828688001F7D4206AB0F52A
:10C40000803F05D16868A16820F400300843686067
:10C41000D4E908010843696821F47411084368608D
:10C42000C6F86090FFF7AAFA044606E025E000BFD0
:10C43000FFF7A4FA001B022809D828688001F7D565
:10C440001BE000BFFFF79AFA001B022802D9032065
:10C45000BDE8F88F28688001F4D40EE00128F7D0F9
:10C460006868226A00F48031914204D1616A00F464
:10C470007010884201D00120EAE70020E8E70000C0
:10C480000010024000004242800442425C00002052
:10C49000007000407047704770B590F83C20012A4A
:10C4A0002CD0012480F83C40022280F83D20036813
:10C4B0005A689D6822F070060A6832435A60104B31
:10C4C00002689A420ED00F4B9A420BD0B2F1804FC5
:10C4D00008D00D4B9A4205D00C4B9A4202D00C4B1F
:10C4E0009A4204D1496825F080031943916080F88D
:10C4F0003D40002180F83C10084670BD022070BD10
:10C50000002C0140003401400004004000080040BD
:10C51000000C004010B5040003D094F83D0010B1A9
:10C5200007E0012010BD002084F83C00204600F008
:10C530001FF8022084F83D00211D206803F0DAFC7A
:10C54000012084F8460084F83E0084F83F0084F817
:10C55000400084F8410084F8420084F8430084F8E5
:10C56000440084F8450084F83D00002010BD000020
:10C5700008B501682848B1F1804F0BD0274A914295
:10C5800010D1C16941F00201C161C06900F002002F
:10C59000009008BDC16941F00101C161C06900F0AE
:10C5A0000100F5E71E4A91420ED1C16941F0040134
:10C5B000C161C069002200F00400009005211E2026
:10C5C000FFF7BAFB1E2022E0164A91420ED1C16944
:10C5D00041F00801C161C069002200F0080000902C
:10C5E00005213220FFF7A8FB322010E00E4A9142CD
:10C5F000CFD1C16941F01001C161C069002200F0D2
:10C600001000009005213620FFF796FB3620BDE88C
:10C610000840FFF783BB0000001002400004004008
:10C6200000080040000C00400010004090F83D1051
:10C63000012901D001207047022180F83D100168D6
:10C64000CA6842F00102CA6000680E4988420ED0F2
:10C650000D4988420BD0B0F1804F08D00B49884279
:10C6600005D00B49884202D00A49884204D181682A
:10C6700001F00701062903D0016841F001010160C2
:10C6800000207047002C01400034014000040040AD
:10C6900000080040000C00400168CA6822F0010256
:10C6A000CA6001680A6A41F211131A4207D10A6A84
:10C6B0009B101A4203D10A6822F001020A6001218C
:10C6C00080F83D100020704770B5044690F83C009B
:10C6D000012817D0012584F83C50022084F83D0041
:10C6E0002068826822F0770222F47F428260086824
:10C6F000502830D00DDC20284DD005DC98B3102810
:10C700003BD148E0022070BD302844D0402834D1CD
:10C7100039E0602828D0702806D0B0F5805F2CD092
:10C72000B0F5005F29D10AE0CB68D1E9012120688A
:10C7300003F033FC2068816841F0770109E0CB68A1
:10C74000D1E90121206803F028FC2068816841F4C8
:10C750008041816011E0CA684968206803F0F2FCFA
:10C760005021206807E016E0CA684968206803F095
:10C77000FAFC6021206803F01AFC84F83D50002088
:10C7800084F83C0070BDCA684968206803F0DAFC90
:10C7900040212068EFE7226801461046EBE770472A
:10C7A00070B50446006801694FF00005C943890768
:10C7B00015D4C168C943890711D4E91E016101205C
:10C7C0002077206880698007204602D0FFF7E7FFC6
:10C7D00004E000F0D3F8204600F08EF925772068B9
:10C7E0000169C943490717D4C168C943490713D42C
:10C7F0006FF004010161022020772068806910F445
:10C80000407F204602D0FFF7CAFF04E000F0B6F8F0
:10C81000204600F071F9257720680169C9430907AE
:10C8200016D4C168C943090712D46FF00801016129
:10C83000042020772068C0698007204602D0FFF7D7
:10C84000AEFF04E000F09AF8204600F055F9257795
:10C8500020680169C943C90617D4C168C943C9061C
:10C8600013D46FF010010161082020772068C0699F
:10C8700010F4407F204602D0FFF791FF04E000F063
:10C880007DF8204600F038F9257720680169C94312
:10C89000C90708D1C168C943C90704D1891E01610C
:10C8A000204600F0DDF920680169C943090609D472
:10C8B000C168C943090605D46FF0800101612046B3
:10C8C000FFF7E8FD20680169C943490609D4C1683A
:10C8D000C943490605D46FF040010161204600F0CC
:10C8E000E1F920680169C94389060BD4C168C943CD
:10C8F000890607D46FF0200101612046BDE8704031
:10C90000FFF7C9BD70BD000000B585B000210091E2
:10C91000019102910391026814480221B2F1804F03
:10C9200014D0134B9A420FD1826942F008028261FF
:10C930008069039100F0080004900120CDE9000116
:10C9400069460C48FEF714FF05B000BD826942F04D
:10C95000040282618069039100F0040004900320C6
:10C96000CDE9000169460448ECE7000000100240F0
:10C9700000040040000C014000080140704770B501
:10C980000D46040003D094F83D0010B107E00120EB
:10C9900070BD002084F83C00204600F01BF8022007
:10C9A00084F83D00211D206803F0A4FA2068016886
:10C9B00021F00801016054F8460B01682943016029
:10C9C000012004F81F09E0752076E0762077A07535
:10C9D000002070BD704770B5044690F83C000D46CD
:10C9E00001280AD0012084F83C0042B1042A18D062
:10C9F000082A2AD00C2A4DD139E0022070BD2068C7
:10CA000003F0DEFA2068816941F008018161206845
:10CA1000816921F004018161206881692A691143DB
:10CA200011E0206803F0FCFA2068816941F400619C
:10CA300081612068816921F4806181612068816958
:10CA40002A6941EA0221816124E0206803F01EFB8B
:10CA50002068C16941F00801C1612068C16921F005
:10CA60000401C1612068C1692A69114311E020688D
:10CA700003F040FB2068C16941F40061C161206896
:10CA8000C16921F48061C1612068C1692A6941EAF4
:10CA90000221C161002084F83C0070BD10B5040083
:10CAA00003D094F83D0010B107E0012010BD002034
:10CAB00084F83C00204600F01EF8022084F83D0077
:10CAC000211D206803F016FA012084F8460084F83E
:10CAD0003E0084F83F0084F8400084F8410084F868
:10CAE000420084F8430084F8440084F8450084F848
:10CAF0003D00002010BD70477047000010B504468F
:10CB0000022249B104290ED0082913D094F841001B
:10CB1000012816D0012010BD94F83E000128F9D15B
:10CB200084F83E200FE094F83F000128F2D184F809
:10CB30003F2008E094F840000128EBD184F8402021
:10CB400001E084F841200122206803F019FA13491A
:10CB50002068134A884201D0904203D1436C43F4C9
:10CB600000434364206888420DD090420BD0B0F15E
:10CB7000804F08D00B49884205D00B49884202D02B
:10CB80000A49884204D1816801F00701062903D0CF
:10CB9000016841F001010160002010BD002C01403E
:10CBA000003401400004004000080040000C004038
:10CBB00030B5044600680D0006D0042D08D0082DBD
:10CBC00038D00C2D08D139E0C16821F0020102E013
:10CBD000C16821F00401C16000222946206803F0E9
:10CBE000CFF91D4B41F2111120688A10984202D0F2
:10CBF0001A4B984209D1036A0B4206D1036A1342C9
:10CC000003D1436C23F4004343642068036A0B425E
:10CC100006D1016A114203D1016821F001010160CE
:10CC200001207DB1042D10D0082D11D084F84100D1
:10CC3000002030BDC16821F00801CCE7C16821F0B7
:10CC40001001C8E784F83E00F2E784F83F00EFE700
:10CC500084F84000ECE70000002C01400034014063
:10CC600010B5044600680B49884201D1FEF7B2FFB7
:10CC700009492068884201D107F09EFF07492068D2
:10CC8000884206D103F096FABDE810400448FFF749
:10CC900003BD10BD002C0140000800400010004002
:10CCA00038150020704738B5044690F83E0020281B
:10CCB0001CD181B17AB194F83C00012816D0012032
:10CCC00084F83C002063204603F08EFE002803D148
:10CCD000216B012901D0012038BD21680A684A680A
:10CCE0000092CA6842F01002CA6038BD022038BD06
:10CCF000704710B504460068416994F83D20C1F3BF
:10CD0000C011212A0BD151B1416921F0800141614B
:10CD1000606B08B1FEF798F9204603F0A5FD206886
:10CD2000416994F83E20C1F38011222A0BD151B100
:10CD3000416921F040014161A06B08B1FEF784F91F
:10CD4000204603F079FD002010BD10B5040014D07A
:10CD5000242084F83D002068C16821F40051C1609E
:10CD6000204600F07DF90020206484F83D0084F81E
:10CD70003E0044F8300F207310BD012010BD0000AC
:10CD80003EB5054600208DF804002C682068C0439D
:10CD9000000703D52068C04380070AD42068606874
:10CDA00002900F48844205D120686068009002F02C
:10CDB00003F83EBD0B4884420CD110210A48FBF712
:10CDC00048FA206860680090102207492846FFF75B
:10CDD0006AFF3EBD012201A9284600F03BFB3EBD93
:10CDE00000480040004C004054430020F8B5026861
:10CDF00004461068D168536910F00F0F4FF000051A
:10CE000053D003F0010601F49077374360D0C20796
:10CE100005D0CA0503D5226C42F001022264420704
:10CE200005D5DA0703D0226C42F0020222648207A1
:10CE300005D5DA0703D0226C42F00402226402070F
:10CE400007D501F02002324303D0226C42F00802E1
:10CE50002264226C002A3AD0800604D5880602D5C6
:10CE6000204603F00AFD20684069216CC0F3801061
:10CE7000090700D438B3204603F0DEFC206841697E
:10CE800049061BD5416921F040014161A06BA8B161
:10CE900059494163A06BFEF7FBF8002817D0A06B3F
:10CEA000416B01B0BDE8F0400847830610D58B0602
:10CEB0000ED52046BDE8F84003F0DFBC2046BDE8B3
:10CEC000F840FFF75DBF2046FFF75AFF2564F8BD25
:10CED000266B2023012E52D1C60650D5CE064ED544
:10CEE000106850680090506940062AD5A16B086808
:10CEF00040680004000CEAD0A68D8642E7D9E085A0
:10CF00008869202818D0D06820F48070D06020680C
:10CF1000416921F0010141612068416921F040012E
:10CF2000416184F83E3025632068C16821F010011A
:10CF3000C160A06BFEF788F8A08DE18D401A81B228
:10CF400019E0A08DE18D401A81B2E08D0028BED09D
:10CF50000029BCD0D06820F49070D060206842696D
:10CF600022F00102426184F83E3025632068C268E5
:10CF700022F01002C2602046FFF7BAFEF8BD050697
:10CF80002BD50D0629D594F83D002128F6D1A068AF
:10CF9000B0F5805F01D12069B0B1206A411C2162E7
:10CFA000216800784860E08C401E0004000CE0849A
:10CFB000E4D12068C16821F08001C1602068C168A7
:10CFC00041F04001C160F8BD206A0088C0F308004C
:10CFD0005060206A801C2062E5E74006F3D54806D1
:10CFE000F1D5D168204621F04001D16084F83D3070
:10CFF00000F023FBF8BD00006D07010870B50400C8
:10D0000004D094F83D00002510B106E0012070BD69
:10D0100084F83C50204600F089F8242084F83D0034
:10D020002068C16821F40051C160204603F080FCF3
:10D030002068016921F4904101612068416921F073
:10D040002A0141612068C16841F40051C160256432
:10D05000202084F83D0084F83E00002070BD0000D0
:10D0600070B50446274D0368274A28484FF44061AD
:10D07000AB420AD1D36923F40023D361FEF7E8FA67
:10D08000A06BFEF79DF8342037E0214DAB420CD168
:10D09000D16921F48011D1619914FEF7D9FA0421E4
:10D0A0001C48FEF7D5FA352027E01B4D1B48AB4244
:10D0B00009D1916921F4804191614FF4C061FEF77B
:10D0C000C7FA252019E0164DAB4208D1D16921F4E9
:10D0D0000031D1610C21FEF7BBFA26200DE011488A
:10D0E00083420ED1D06920F48020D0610E48FEF733
:10D0F000AFFAA06BFEF764F82720BDE87040FEF79A
:10D10000FCBD70BD004C004000100240001001400A
:10D110000050004000140140003801400008014068
:10D120000044004000480040000C01402DE9F04F51
:10D1300085B000240094019402940394054601688C
:10D140008848874A0615DFF820924FF002084FF40E
:10D15000006A4FF0800B914237D1C16941F4002140
:10D16000C161C16901F400210491816941F010019C
:10D1700081618069CDE9006800F01000CDE903808D
:10D1800069464846FEF7F4FACDF800A0CDE901481B
:10D1900069464846FEF7ECFA754E7448C6E9000445
:10D1A000C6E9024B34617461B4613046F461FEF744
:10D1B0006BF908B1FDF7AAF9AE630022052134200E
:10D1C0007562FEF7B9FD342032E06A4A04279142C5
:10D1D00033D1C16941F48011C161C16901F4801189
:10D1E0000491816941F010018161816901F01001B0
:10D1F0000491816941F0200181618069694600F0F4
:10D20000200004909014CDE900084846CDF80C8029
:10D21000FEF7AEFACDE9007469465748CDF80880AC
:10D22000FEF7A6FA002205213520FEF785FD352000
:10D23000FEF774FD05B0BDE8F08F504ADFF840916D
:10D24000914227D1816941F480418161816901F472
:10D2500080410491816941F00401816180696946DE
:10D2600000F0040004905015CDE900084846CDF8C0
:10D270000C80FEF77DFACDE9006469464846CDF89A
:10D280000880FEF775FA002205212520FEF754FDDF
:10D290002520CDE73B4A914224D1C16941F40031B8
:10D2A000C161C16901F400310491816941F0040157
:10D2B00081618069CDE9007800F00400CDE9038048
:10D2C00069464846FEF754FA08208DE81101694680
:10D2D0004846FEF74DFA002205212620FEF72CFDD8
:10D2E0002620A5E7284A9142A4D1C16941F48021B2
:10D2F000C161C16901F480210491816941F0080193
:10D3000081618069CDE9006800F00800CDE9038003
:10D310001E4E69463046FEF72BFACDF800A0CDE947
:10D32000014869463046FEF723FA114E1848443644
:10D33000C6E90004C6E9024B34617461B461304649
:10D34000F461FEF7A1F808B1FDF7E0F8AE63002242
:10D35000052127207562FEF7EFFC272068E7000013
:10D36000004C004000100240001001403004024018
:10D3700064180020005000400014014000380140B3
:10D38000000801400044004000480040000C0140FB
:10D39000300002402DE9F84F044690F83E009A46CE
:10D3A00016460D46202853D1FDB1F6B194F83C0045
:10D3B00001284DD0012084F83C000027276422205A
:10D3C00084F83E002763FEF7D9FAA6858146E685F4
:10D3D000A0684FF48058404501D1206940B12E46E5
:10D3E0005FF0000584F83C7027E00120BDE8F88F6D
:10D3F0000026F7E74B46002220212046CDF800A06A
:10D4000003F045FB08B10320F0E726B1A0684045D2
:10D410001BD038B108E020684068C0F3080025F848
:10D42000020B07E0206980B12068406800F07F00AF
:10D4300006F8010BE08D401EE085E08D0028D9D173
:10D44000202084F83E000020D0E720684068EFE705
:10D450000220CBE790F83E30202B0ED159B152B1CB
:10D4600090F83C30012B08D0012380F83C30002399
:10D47000036303F0F1BA01207047022070470000F7
:10D480002DE9F04106460068384901270025384C4F
:10D49000884227D12089374A010417D404F10201B8
:10D4A0004304097804D50A290CD140F400402BE04C
:10D4B0000D2927D0C0F30D03401C80B2D154208128
:10D4C000632800D92581208900040BD52A492770BB
:10D4D0001078096808802089C0F30D012548FAF703
:10D4E000B8FE25812549306888422DD1E0880104A5
:10D4F0001FD41F49420401F10301097809D50A2903
:10D5000013D103E040F480402081DCE740F4004088
:10D5100027E00D2923D0C0F30D02164B401CA83381
:10D5200080B29954E080632800D9E580E088000447
:10D530000AD52770E0880F49C0F30D02A83101F128
:10D54000EC00FAF76DFEE5800D49306888420AD19B
:10D550000748001D0078BDE8F04103F097BB40F498
:10D560008040E080E2E7BDE8F08100000048004034
:10D57000440000200816002008020020004C004053
:10D5800000500040704700002DE9F843044690F831
:10D590003D001F4616460D4620284CD1C5B1BEB1F0
:10D5A00094F83C00012846D0012084F83C004FF05C
:10D5B0000008C4F84080212084F83D00FEF7DEF921
:10D5C000A6848146E684A068B0F5805F03D004E0BD
:10D5D0000120BDE8F883206928B12E465FF00005E0
:10D5E00084F83C800EE00026FAE78021204603F014
:10D5F0004EFAA0B9AEB116F8010B21684860E08C74
:10D60000401EE084E08C4B464FF00002009700285B
:10D61000EBD14FF04001204603F039FA30B103203E
:10D62000D7E735F8020BC0F30800E6E7202084F8BE
:10D630003D000020CDE70220CBE77047FEE7000069
:10D6400010B588B1012816D01D49212823D02228E1
:10D6500028D023282DD024281CD1B1F84800BDE8BB
:10D660001040032102F0F0BA164800680078BDE8C7
:10D67000104000F0A1BD144C20680068C16821F47E
:10D680000051C16001F0A4F820680068C16841F44D
:10D690000051C16010BDB1F84200BDE81040032147
:10D6A00002F078BAB1F84400BDE81040032102F05E
:10D6B000ABBAB1F84600BDE81040032102F07CBAD5
:10D6C000D2450020840100207C01002010B5FDF728
:10D6D00079F9112801D0012010BD002010BD0000F3
:10D6E00003480078032801D30120704700207047C9
:10D6F0007008002038B502F083FB08B1002038BD67
:10D70000FDF73EF90446FDF7C3F805462D49FAF743
:10D71000FAFDFBF713F881B22B48ADF80010006852
:10D7200002888A4200D001802848854202D144F410
:10D73000807422E02648854202DB44F080041CE02D
:10D74000244925488D4209DB4168092901D2491C39
:10D750000AE0FDF743F980B902200CE01F498D4231
:10D760000BDC416811B10021416006E0FDF736F99C
:10D77000022802D1002002F057F8194D28680088CD
:10D78000A04218D0204601F025F908B1032009E095
:10D79000204601F024F938B12868008801F01FF90B
:10D7A00010B90120FBF7E6FA2968088820430880B1
:10D7B00005D1FCF7B1F92868008800289FD0012026
:10D7C00038BD000000002041540600200000C8C2FF
:10D7D00000008C4200008242D80600200000704207
:10D7E0005006002070B5012002F06EF81E4C50B1BA
:10D7F000616A2069421AB2F5616F31D988422FD926
:10D8000002F03CFA2CE0A068022809D2012802D0DC
:10D8100000F0BCF924E00120607100F0ABFA1FE0D9
:10D8200000206071FDF7CEF8104D062804D1104895
:10D830002968006800884880022002F035F80D4809
:10D840002A680168098811800068007801F03CF9B5
:10D8500000F09CF9FBF73CFEFCF7EAFD0020A0601D
:10D86000A068401CA06070BD70080020CC010020A2
:10D87000D4010020D001002072B6704762B6704714
:10D8800000B50121132821D2DFE800F00A0D0D0DAB
:10D890000D0D1010101010131313131316191C0074
:10D8A00002F0CAFA10E002F031F90DE002F046F998
:10D8B0000AE002F04FF907E002F0A2FA04E002F0F9
:10D8C0006BFA01E002F090FA00B10021084600BDB9
:10D8D000401E042801D801207047002070471438EA
:10D8E000502801D8012070470020704741F25C7138
:10D8F0001438884201D8012070470020704700008A
:10D90000FBF780FB0448FEF75EF9FBF723FB1420CE
:10D9100006F0B2F9F6E700000C1400202DE9F04102
:10D9200000250B4E2C46012706EBC400818856F8D3
:10D930003400FEF719F818B907FA04F02843C5B205
:10D94000641CE4B2042CEFD32846BDE8F08100004B
:10D950001008002003484179012901D100214171BB
:10D9600070470000700800202DE9F04385B006469E
:10D970000020029003900490984691460D46F0B224
:10D98000FCF703FD3C24B5FBF4F06427B0FBF7F192
:10D9900007FB1100FCF79BFCB5FBF4F004FB1050F7
:10D9A000FCF7DEFC02F0B2F808B1002003E002F060
:10D9B000D1F818B14046FCF79FFC02E0FF20FCF7CD
:10D9C000D9FB484600F040F8B5FBF4F1B1FBF7F2A3
:10D9D00007FB1211B5FBF4F0B6FBF7F204FB105095
:10D9E000CDE9001007FB1263424612A102A803F022
:10D9F0007BFF02F0A3F801004FF0FF0003D08DF889
:10DA000008008DF809000A2E01D28DF80A00642E54
:10DA100001D3072200E006224421042001F086FE03
:10DA2000082302AA4021042001F094FE05B0BDE8BD
:10DA3000F0830000502530316425303264253032C7
:10DA4000642530326400000010B5044600F0010186
:10DA5000042002F0B7FC04F00201052002F0B2FC41
:10DA600004F00401032002F0ADFC04F008010120E1
:10DA700002F0A8FC04F01001BDE81040022002F002
:10DA8000A1BC00007FB50646002014460D4601905B
:10DA90000290039002F080F900282ED0FCF7C6FD1A
:10DAA0000122D1031548FDF764FF3046FCF795FCD1
:10DAB0002846FCF731FC124800EB440434F8020D10
:10DAC000FCF7EEFB0F48007800F00500FFF7BCFF05
:10DAD00002F0A0FB208800902B4632460AA101A844
