:020000040800F2
:10000000801C00204D0100083B0F0008CF0E0008A7
:10001000390F0008D901000849110008000000004C
:100020000000000000000000000000004D1000086B
:1000300025020008000000003D0F00084F100008D6
:1000400067010008670100086701000867010008F0
:1000500067010008670100086701000867010008E0
:1000600067010008670100086701000867010008D0
:1000700067010008670100086701000867010008C0
:1000800067010008670100086701000867010008B0
:1000900067010008670100086701000867010008A0
:1000A00067010008B1100008670100086701000837
:1000B0006701000867010008670100086701000880
:1000C0006701000867010008670100086701000870
:1000D0006701000867010008670100086701000860
:1000E0006701000867010008670100086701000850
:1000F0006701000867010008670100086701000840
:10010000670100086701000867010008670100082F
:10011000670100086701000867010008670100081F
:10012000670100086701000867010008670100080F
:10013000DFF80CD000F03EF80048004785120008B8
:10014000801C002080F30888704700000648804724
:1001500006480047FEE7FEE7FEE7FEE7FEE7FEE7AC
:10016000FEE7FEE7FEE7FEE7AD10000831010008FC
:10017000202A04DB203A21FA02F00021704721FAFC
:1001800002F3D040C2F12002914008431946704763
:10019000D2B201E000F8012B491EFBD270470022C9
:1001A000F6E710B513460A4604461946FFF7F0FF76
:1001B000204610BD064C074D06E0E06840F0010304
:1001C00094E8070098471034AC42F6D3FFF7B4FF29
:1001D0009C150008BC150008FEE700000D4810B58E
:1001E0000068A0F5A041B1F5B83F11D80A490B4C01
:1001F0000144801EB1F8FE1F49BA218081B208482F
:1002000001F0A0F860802188814201D1012010BD59
:10021000002010BD04780008003002080000002013
:1002200000400208704701F057B80000044B00225C
:10023000DA61044A136943F00103136101807047D6
:10024000601800200020024014480022C168CB063C
:10025000134904D5CA6942F00202CA611022C36878
:100260005B0705D5CB6943F00103CB6142F0040283
:10027000C369DB0707D0CB6943F00403CB61C169D5
:1002800021F00101C161A2F58071013901D0C26084
:100290007047C16921F00101C1617047002002402F
:1002A0006018002070B5054600F0A8F90646114C0C
:1002B00009E0681C07D025B100F0A0F9801BA84216
:1002C00001D9032070BDE068C007F2D1E068800664
:1002D00001D52020E060E068C00605D4E069C007D1
:1002E00002D1E068400703D5FFF7AEFF012070BDE3
:1002F000002070BD00200240064810B54FF0FF31CD
:10030000016100220261C160C26000F0DDF90020DD
:1003100010BD00000010024070B5044600F06EF9F8
:100320000546601C02D004480078044400F066F9D9
:10033000401BA042FAD370BD0800002003480169A9
:1003400041F0800101610020704700000020024060
:100350002DE9F05F07461C4888460024017E1546BB
:100360001E46012909D00121814601764CF2503AFE
:100370005046FFF797FF18B122E00220BDE8F09F3A
:10038000012F02D0022F00D00427D346DFF83CA073
:10039000220128463146FFF7EBFE81B208EB44000C
:1003A000FFF744FF5846FFF77DFFDAF8102022F0F0
:1003B0000102CAF8102018B9641CE4B2BC42E7D3A9
:1003C000002289F81820D9E7601800200020024098
:1003D000064900200A69120607D5054A4A60054AFF
:1003E0004A600969090600D50120704700200240D3
:1003F00023016745AB89EFCD2DE9F84FDFF8C891B0
:100400000024A9F1040B23460F2709F1040AABF1DC
:10041000040ED1E00125A54006EA0502AA4276D1E4
:10042000DFF8A8C14E68A6EB0C0866452BD00DDCA2
:10043000032E34D005DC36B3012E19D0022E2FD175
:100440001BE0112E16D0122E2AD119E0B8F5881F04
:1004500019D006DCB8F5803F15D0B8F5801F1FD144
:1004600011E0B8F5001F0ED0B8F5041F18D10AE04E
:10047000CB6815E0CB681B1D12E0CB6808330FE09A
:10048000CB680C330CE08B682BB1012B4FF00803C9
:1004900003D0456104E0042302E0056100E000238D
:1004A000FF2A01D8064601E000F104064FEA840560
:1004B00001D9A5F12005D6F8008007FA05FC28EA45
:1004C0000C0803FA05F548EA0508C6F800804D68EF
:1004D000ED0070D53E4DAE6946F00106AE61AD69E6
:1004E00024F0030605F0010500953A4D06EB050CD6
:1004F000DCF80850A607360F07FA06F825EA0805C3
:10050000DFF8D480404503D14FF0000825E052E0E9
:10051000DFF8C880404502D14FF001081DE0DFF848
:10052000C080404502D14FF0020816E0DFF8B480E9
:10053000404502D14FF003080FE0DFF8AC804045A2
:1005400002D14FF0040808E0DFF8A080404502D156
:100550004FF0050801E04FF0060808FA06F848EAEF
:100560000508CCF808804D68D9F80060ED024D46CA
:1005700001D5164300E096432E604D68DAF800601E
:10058000AD02554601D5164300E096432E604D68F6
:10059000DBF80060AD035D4601D5164300E09643ED
:1005A0002E604D68DEF80060ED03754601D51643F8
:1005B00000E096432E60641C0A681646E2407FF411
:1005C00029AFBDE8F88F00000804014000001110B9
:1005D000001002400000014000080140000C0140F2
:1005E000001001400014014000180140001C0140AF
:1005F0000AB1016170470904FBE700000148806807
:100600007047000008000020024881680278114409
:100610008160704708000020074810B5016841F06C
:1006200010010160032000F09DF80F2000F006F893
:1006300000F04CF8002010BD0020024030B5054607
:100640001C4887B0816941F400618161806906A915
:1006500000F40060009001A800F02CF900F04AF9C5
:100660001549164AB0FBF1F11548491E0260416078
:1006700040F2E7320021C0E903218160816100F08E
:1006800001FB040012D10E4800F02AFB04000DD13A
:10069000192000F039F8102D07D200222946192020
:1006A00000F040F80748056000E0012407B020464C
:1006B00030BD00000010024040420F00002C0140FD
:1006C000181800200C000020704700000C4808B5E6
:1006D000816941F001018161816901F001010091AD
:1006E000C16941F08051C161C06900F08050009043
:1006F0000448416821F0E06141F00071416008BDAB
:100700000010024000000140002809DB00F01F0239
:10071000012191404009800000F1E020C0F8001163
:1007200070470000F0B40E4B1B680C46C3F3022365
:10073000C3F10705042D00D90425191D072901D28D
:10074000002300E0DB1E012606FA05F1491E2140C8
:1007500099409E40761E16403143F0BC00F0F5BC37
:100760000CED00E0064900F0070208684FF6FF03B1
:10077000184040EA0220034A104308607047000016
:100780000CED00E00000FA052DE9F0470F460500EA
:1007900061D0434E306800F00700B84209D230689B
:1007A00020F0070038433060306800F00700B8429E
:1007B00051D128683B4C810712D5400703D56068AA
:1007C00040F4E06060602878000703D5606840F47A
:1007D000605060606068A96820F0F00008436060C5
:1007E0002878C00728D06868012810D0216802281E
:1007F00010D0890700292EDA616821F00301014336
:100800006160FFF7FBFE804641F288390DE0216808
:100810008903EFE78901EDE7FFF7F0FEA0EB0801A0
:10082000494502D90320BDE8F0876068696800F097
:100830000C00B0EB810FEFD1306800F00700B84238
:100840000BD9306820F0070038433060306800F082
:100850000700B84201D00120E5E72878400705D518
:100860006068E96820F4E060084360602878000769
:1008700006D56068296920F4605040EAC1006060D4
:1008800000F048F86168084AC1F30311515CC840A0
:100890000649086006480068FFF7D0FE0020C2E75E
:1008A00000200240001002408213000814000020C3
:1008B0000C0000200F2202600C4A536803F003036F
:1008C0004360536803F0F0038360536803F4E0630C
:1008D000C36052684FF4E06303EAD2020261044845
:1008E000006800F007000860704700000010024038
:1008F000002002400448054900684968044AC1F3E1
:10090000C221515CC8407047140000200010024012
:10091000921300080E4A51680E4801F00C03042B94
:1009200011D0082B0FD10C48C1F38343C903C05C1D
:100930000AD55168084AC1F34041921E515C054AEC
:100940005043B0FBF1F07047044948437047000042
:100950000010024000127A007213000800093D00E6
:100960002DE9F84F040070D02078C04DC00749D061
:100970006868C0F38100012807D06868C0F381006F
:10098000022809D16868C00306D52868800339D5D4
:1009900060680028E7D035E06068B0F5803F0BD094
:1009A00010B1B0F5A02F11D0286820F48030286055
:1009B000286820F4802002E0286840F48030286015
:1009C000606890B1FFF71AFE06460AE0286840F416
:1009D00080202860F0E700BFFFF710FE801B64282E
:1009E00073D828688003F7D50CE0FFF707FE0646AA
:1009F00005E000BFFFF702FE801B6428F0D82868DE
:100A00008003F7D420789A4E80074FF001094FF009
:100A1000000839D5686810F00C0F07D06868C0F37B
:100A20008100022809D16868C00306D428688007BD
:100A300014D52069012808D110E02069B0B1C6F8AA
:100A40000090FFF7DBFD074605E00AE1FFF7D6FD62
:100A5000C01B0228C4D828688007F7D528686169B8
:100A600020F0F80040EAC10028600DE0C6F80080E0
:100A7000FFF7C4FD074604E0FFF7C0FDC01B0228D6
:100A800023D828688007F7D4207800072CD5794828
:100A9000A169D9B1C0F80090FFF7B0FD074604E0A6
:100AA000FFF7ACFDC01B02280FD8686A8007F7D596
:100AB00071484FF4FA510068B0FBF1F0009000BFAC
:100AC0000098411E0091FAD20EE080E0C0F800804C
:100AD000FFF794FD074604E0FFF790FDC01B0228D6
:100AE00075D8686A8007F7D42078400760D5E86930
:100AF0000027C00008D4E86940F08050E861E86948
:100B0000012700F0805000905C480168C90513D4AB
:100B10000168834641F480710160FFF76FFD8246F2
:100B200006E000BFFFF76AFDA0EB0A0064284ED87C
:100B3000DBF80000C005F5D5E06801280AD008B14F
:100B4000052813D0286A20F001002862286A20F0C6
:100B5000040002E0286A40F001002862E06841F2E7
:100B6000883B98B1FFF74AFD82460BE0286A40F0C7
:100B700004002862EEE700BFFFF740FDA0EB0A018A
:100B800059455AD8286A8007F6D50CE0FFF736FD9C
:100B9000824605E0FFF732FDA0EB0A0159454CD82B
:100BA000286A8007F6D41FB1E86920F08050E86118
:100BB000E06988B36968C1F38101022944D0022841
:100BC000C6F8608004D0FFF719FD044638E034E031
:100BD000FFF714FD074604E0FFF710FDC01B0228D5
:100BE0002BD828688001F7D4206AB0F5803F05D162
:100BF0006868A16820F4003008436860D4E90801FF
:100C00000843696821F4741108436860C6F860906D
:100C1000FFF7F4FC044606E025E000BFFFF7EEFC1A
:100C2000001B022809D828688001F7D51BE000BF07
:100C3000FFF7E4FC001B022802D90320BDE8F88F6F
:100C400028688001F4D40EE00128F7D06868226A91
:100C500000F48031914204D1616A00F4701088423E
:100C600001D00120EAE70020E8E700000010024080
:100C70000000424280044242140000200070004004
:100C80007047704710B5040003D094F83D0010B1D0
:100C900007E0012010BD002084F83C00204600F051
:100CA0001EF8022084F83D00211D206800F006FA9D
:100CB000012084F8460084F83E0084F83F0084F860
:100CC000400084F8410084F8420084F8430084F82E
:100CD000440084F8450084F83D00002010BD7047B2
:100CE00090F83D10012901D001207047022180F8C1
:100CF0003D100168CA6842F00102CA6000680E49EE
:100D000088420ED00D4988420BD0B0F1804F08D0F8
:100D10000B49884205D00B49884202D00A498842D3
:100D200004D1816801F00701062903D0016841F070
:100D30000101016000207047002C01400034014097
:100D40000004004000080040000C0040704770B5EF
:100D50000446006801694FF00005C943890715D4AE
:100D6000C168C943890711D4E91E016101202077B8
:100D7000206880698007204602D0FFF7E7FF04E083
:100D800000F098F8204600F096F825772068016971
:100D9000C943490717D4C168C943490713D46FF041
:100DA00004010161022020772068806910F4407FEF
:100DB000204602D0FFF7CAFF04E000F07BF820468F
:100DC00000F079F8257720680169C943090716D42E
:100DD000C168C943090712D46FF0080101610420FA
:100DE00020772068C0698007204602D0FFF7AEFF59
:100DF00004E000F05FF8204600F05DF825772068F9
:100E00000169C943C90617D4C168C943C90613D4C7
:100E10006FF010010161082020772068C06910F48C
:100E2000407F204602D0FFF791FF04E000F042F837
:100E3000204600F040F8257720680169C943C907BA
:100E400008D1C168C943C90704D1891E0161204680
:100E500000F032F820680169C943090609D4C16865
:100E6000C943090605D46FF0800101612046FFF7F0
:100E700007FF20680169C943490609D4C168C9430D
:100E8000490605D46FF040010161204600F01EF8CC
:100E900020680169C94389060BD4C168C943890622
:100EA00007D46FF0200101612046BDE87040FFF7D4
:100EB000E8BE70BD7047704700680349884201D1A1
:100EC000FFF7A2BB70470000002C01407047FEE70F
:100ED00072B6704762B6704730B585B000241448CA
:100EE0000094019402940394816941F004018161AA
:100EF000816901F004010491816941F00801816177
:100F000080690C4D00F00800049000222021284642
:100F1000FFF76EFB202000900120CDE901040220A4
:100F2000039069462846FFF767FA05B030BD000018
:100F300000100240000C0140FEE7FEE77047000091
:100F400010B5002306E000BF30F8024B21F8134033
:100F50005B1C9BB29342F7D310BD00002DE9F05FFC
:100F6000A0F1006415468A468346B4F5802F52D21C
:100F7000FFF72EFAE70AC4F34906C6F58064A542D6
:100F800000D82C46DFF894904FF0006000EBC720AB
:100F900080464FF480622149FFF7D2FF00204FF6D0
:100FA000FF7106E0331839F813208A4203D1401C40
:100FB00080B2A042F6D3A04225D24046FFF733F9D3
:100FC0000020494607E000BF3AF810208319401C72
:100FD00021F8132080B2A042F6D3104940464FF4C6
:100FE000806200BF00F01CF8A54210D0281B0AEB5D
:100FF000440AA344002685B24FF480647F1CA542B6
:10100000C2D82C46C0E7224651465846EAE7BDE81A
:10101000F05FFFF793B9BDE8F09F000018100020C3
:101020002DE9F04116460F46054600240AE000BFB0
:1010300037F81420002329460120FFF789F9641CA2
:10104000A4B2AD1CB442F3D3BDE8F0817047704741
:1010500030B58FB028216846FFF7A1F814210AA8FF
:10106000FFF79DF8022501200490009510200590BF
:1010700000244FF4E010CDE9084007956846FFF7DB
:101080006FFC08B172B6FEE70F20CDE90A054FF4F8
:101090008060CDE90C4001210AA80E94FFF774FB93
:1010A000002801D072B6FEE70FB030BD70470000D7
:1010B0000148FFF74CBE000018180020F0B5026888
:1010C0001C4B1D4D1D4E1E4F1E4C4FF0804C984228
:1010D00009D0A04207D0604505D0A84203D0B04255
:1010E00001D0B84204D122F0700E4A6842EA0E02E2
:1010F000984209D0A04207D0604505D0A84203D04D
:10110000B04201D0B84203D122F44075CA682A43E4
:101110004D6922F080022A4302608A68C2620A682E
:101120008262984201D0A04201D109690163012184
:101130004161F0BD002C0140000400400008004067
:10114000000C004000340140FEE70907090E0028AA
:1011500004DB00F1E02080F80014704700F00F007D
:1011600000F1E02080F8141D704702E008C8121F4B
:1011700008C1002AFAD170477047002001E001C180
:10118000121F002AFBD17047F8B50024154E164DEA
:101190000094FFF723F8B8B1FFF79AFE77143A46A8
:1011A00012492846FFF7CCFE3A4610493046FFF771
:1011B000D5FE641CE4B205F5006506F50066382C22
:1011C000EDD3FFF787FE05E000224FF400510848F9
:1011D000FFF70EFA07480090022269460648FFF71B
:1011E000BDFEF8BD0080000800400208180800207D
:1011F00000100140ADDEE1FE0078000870B5044645
:1012000000680D490840B0F1005F13D1FFF774F892
:101210000A48816921F001018161FFF759FE72B628
:10122000074D606868602068FEF78CFF6868BDE85D
:101230007040004770BD00000000FE2F001002400B
:10124000000000202DE9F0410F46054600240C4E19
:1012500011E0012220213046FFF7CAF93846FFF796
:101260005BF8002220213046FFF7C2F93846FFF72D
:1012700053F8641CA4B2AC42EBD3BDE8F08100008B
:10128000000C01400024FFF7C7F9FFF7E1FEFFF76C
:1012900023FE0E4D0E4E0F4F4FF4FA7864210120BD
:1012A000FFF7D0FF2146641C2868E4B2032906D268
:1012B000B04207D1E41CE4B2FFF766FF02E0384613
:1012C000FFF79CFF4046FFF727F8E7E700780008A4
:1012D00007B070900080000870B50D4E054630468E
:1012E00000F01AF8002812D10A4C206940F00200E0
:1012F00020616561206940F040002061304600F0C7
:101300000BF8012803D0216921F00201216170BD91
:10131000FFFF5F0000200240094AD168CB0702D0DE
:10132000401EFAD109E04A0701D5022104E0C906AE
:1013300001D5032100E0002100B9FF2108467047D4
:101340000020024070B5094DFF231A4605F580764E
:1013500006E000BF10F8014B54402A5D5A40335D4F
:10136000491E89B2F6D242EA032070BD9A130008E2
:10137000010202030405060708090A0B0C0D0E0FF3
:101380001010000000000000000001020304060726
:101390000809000000000102030400C1814001C0EF
:1013A000804101C0804100C1814001C0804100C135
:1013B000814000C1814001C0804101C0804100C125
:1013C000814000C1814001C0804100C1814001C015
:1013D000804101C0804100C1814001C0804100C105
:1013E000814000C1814001C0804100C1814001C0F5
:1013F000804101C0804100C1814000C1814001C0E5
:10140000804101C0804100C1814001C0804100C1D4
:10141000814000C1814001C0804101C0804100C1C4
:10142000814000C1814001C0804100C1814001C0B4
:10143000804101C0804100C1814000C1814001C0A4
:10144000804101C0804100C1814001C0804100C194
:10145000814000C1814001C0804100C1814001C084
:10146000804101C0804100C1814001C0804100C174
:10147000814000C1814001C0804101C0804100C164
:10148000814000C1814001C0804100C1814001C054
:10149000804101C0804100C1814000C0C101C3033F
:1014A00002C2C60607C705C5C404CC0C0DCD0FCFBC
:1014B000CE0E0ACACB0BC90908C8D81819D91BDB2C
:1014C000DA1A1EDEDF1FDD1D1CDC14D4D515D7177C
:1014D00016D6D21213D311D1D010F03031F133F32C
:1014E000F23236F6F737F53534F43CFCFD3DFF3F7C
:1014F0003EFEFA3A3BFB39F9F83828E8E929EB2BAC
:101500002AEAEE2E2FEF2DEDEC2CE42425E527E73B
:10151000E62622E2E323E12120E0A06061A163A3AB
:10152000A26266A6A767A56564A46CACAD6DAF6F3B
:101530006EAEAA6A6BAB69A9A86878B8B979BB7BAB
:101540007ABABE7E7FBF7DBDBC7CB47475B577B7FB
:10155000B67672B2B373B17170B05090915193532B
:10156000529296565797559594549C5C5D9D5F9FFB
:101570009E5E5A9A9B5B99595898884849894B8B2B
:101580008A4A4E8E8F4F8D4D4C8C448485458747BB
:10159000468682424383418180400000BC1500089A
:1015A00000000020180000006A110008D41500088F
:1015B00018000020681C00007A11000800000000DC
:1015C000000000000100000010000000000000000A
:0415D0000024F400FF
:0400000508000131BD
:00000001FF
